{
  "_format": "hh-sol-artifact-1",
  "contractName": "ChainFluenceV1",
  "sourceName": "contracts/ChainFluenceV1.sol",
  "abi": [
    {
      "inputs": [
        {
          "internalType": "bytes32",
          "name": "_jobId",
          "type": "bytes32"
        },
        {
          "internalType": "string",
          "name": "_requestBaseURI",
          "type": "string"
        },
        {
          "internalType": "address",
          "name": "_oracle",
          "type": "address"
        },
        {
          "internalType": "address",
          "name": "_link",
          "type": "address"
        },
        {
          "internalType": "uint256",
          "name": "_treasuryFee",
          "type": "uint256"
        }
      ],
      "stateMutability": "nonpayable",
      "type": "constructor"
    },
    {
      "anonymous": false,
      "inputs": [
        {
          "indexed": false,
          "internalType": "uint256",
          "name": "campaignId",
          "type": "uint256"
        }
      ],
      "name": "CampaignClosed",
      "type": "event"
    },
    {
      "anonymous": false,
      "inputs": [
        {
          "indexed": false,
          "internalType": "uint256",
          "name": "campaignId",
          "type": "uint256"
        },
        {
          "indexed": false,
          "internalType": "address",
          "name": "company",
          "type": "address"
        }
      ],
      "name": "CampaignCreated",
      "type": "event"
    },
    {
      "anonymous": false,
      "inputs": [
        {
          "indexed": true,
          "internalType": "bytes32",
          "name": "id",
          "type": "bytes32"
        }
      ],
      "name": "ChainlinkCancelled",
      "type": "event"
    },
    {
      "anonymous": false,
      "inputs": [
        {
          "indexed": true,
          "internalType": "bytes32",
          "name": "id",
          "type": "bytes32"
        }
      ],
      "name": "ChainlinkFulfilled",
      "type": "event"
    },
    {
      "anonymous": false,
      "inputs": [
        {
          "indexed": true,
          "internalType": "bytes32",
          "name": "id",
          "type": "bytes32"
        }
      ],
      "name": "ChainlinkRequested",
      "type": "event"
    },
    {
      "anonymous": false,
      "inputs": [
        {
          "indexed": false,
          "internalType": "uint256",
          "name": "campaignId",
          "type": "uint256"
        },
        {
          "indexed": false,
          "internalType": "address",
          "name": "contributor",
          "type": "address"
        }
      ],
      "name": "ContributorAdded",
      "type": "event"
    },
    {
      "anonymous": false,
      "inputs": [
        {
          "indexed": false,
          "internalType": "uint256",
          "name": "campaignId",
          "type": "uint256"
        },
        {
          "indexed": false,
          "internalType": "address",
          "name": "contributor",
          "type": "address"
        },
        {
          "indexed": false,
          "internalType": "uint256",
          "name": "retribution",
          "type": "uint256"
        }
      ],
      "name": "ContributorRetributed",
      "type": "event"
    },
    {
      "anonymous": false,
      "inputs": [
        {
          "indexed": true,
          "internalType": "address",
          "name": "previousOwner",
          "type": "address"
        },
        {
          "indexed": true,
          "internalType": "address",
          "name": "newOwner",
          "type": "address"
        }
      ],
      "name": "OwnershipTransferred",
      "type": "event"
    },
    {
      "anonymous": false,
      "inputs": [
        {
          "indexed": false,
          "internalType": "address",
          "name": "account",
          "type": "address"
        }
      ],
      "name": "Paused",
      "type": "event"
    },
    {
      "anonymous": false,
      "inputs": [
        {
          "indexed": true,
          "internalType": "uint256",
          "name": "userId",
          "type": "uint256"
        },
        {
          "indexed": true,
          "internalType": "bytes32",
          "name": "requestId",
          "type": "bytes32"
        }
      ],
      "name": "SignUpRequested",
      "type": "event"
    },
    {
      "anonymous": false,
      "inputs": [
        {
          "indexed": true,
          "internalType": "uint256",
          "name": "userId",
          "type": "uint256"
        },
        {
          "indexed": false,
          "internalType": "address",
          "name": "userAddress",
          "type": "address"
        }
      ],
      "name": "SignedUp",
      "type": "event"
    },
    {
      "anonymous": false,
      "inputs": [
        {
          "indexed": false,
          "internalType": "address",
          "name": "account",
          "type": "address"
        }
      ],
      "name": "Unpaused",
      "type": "event"
    },
    {
      "inputs": [],
      "name": "MAX_TREASURY_FEE",
      "outputs": [
        {
          "internalType": "uint256",
          "name": "",
          "type": "uint256"
        }
      ],
      "stateMutability": "view",
      "type": "function"
    },
    {
      "inputs": [
        {
          "internalType": "uint256",
          "name": "_userId",
          "type": "uint256"
        },
        {
          "internalType": "address",
          "name": "_userAddress",
          "type": "address"
        }
      ],
      "name": "addUser",
      "outputs": [],
      "stateMutability": "nonpayable",
      "type": "function"
    },
    {
      "inputs": [
        {
          "internalType": "bytes32",
          "name": "_requestId",
          "type": "bytes32"
        },
        {
          "internalType": "uint256",
          "name": "_payment",
          "type": "uint256"
        },
        {
          "internalType": "bytes4",
          "name": "_callbackFunctionId",
          "type": "bytes4"
        },
        {
          "internalType": "uint256",
          "name": "_expiration",
          "type": "uint256"
        }
      ],
      "name": "cancelRequest",
      "outputs": [],
      "stateMutability": "nonpayable",
      "type": "function"
    },
    {
      "inputs": [
        {
          "internalType": "uint256",
          "name": "campaignId",
          "type": "uint256"
        },
        {
          "internalType": "string",
          "name": "postId",
          "type": "string"
        },
        {
          "internalType": "uint256",
          "name": "claimedCounter",
          "type": "uint256"
        }
      ],
      "name": "claimCampaignContribution",
      "outputs": [],
      "stateMutability": "nonpayable",
      "type": "function"
    },
    {
      "inputs": [
        {
          "internalType": "uint256",
          "name": "campaignId",
          "type": "uint256"
        }
      ],
      "name": "claimCampaignRetribution",
      "outputs": [],
      "stateMutability": "nonpayable",
      "type": "function"
    },
    {
      "inputs": [
        {
          "internalType": "uint256",
          "name": "campaignId",
          "type": "uint256"
        }
      ],
      "name": "closeCampaign",
      "outputs": [],
      "stateMutability": "nonpayable",
      "type": "function"
    },
    {
      "inputs": [
        {
          "internalType": "string",
          "name": "name",
          "type": "string"
        },
        {
          "internalType": "uint256",
          "name": "budget",
          "type": "uint256"
        },
        {
          "internalType": "uint256",
          "name": "validationThreshold",
          "type": "uint256"
        },
        {
          "internalType": "uint256",
          "name": "partakersLimit",
          "type": "uint256"
        }
      ],
      "name": "createCampaign",
      "outputs": [],
      "stateMutability": "nonpayable",
      "type": "function"
    },
    {
      "inputs": [
        {
          "internalType": "bytes32",
          "name": "_requestId",
          "type": "bytes32"
        },
        {
          "internalType": "uint256",
          "name": "_userId",
          "type": "uint256"
        },
        {
          "internalType": "bool",
          "name": "_hasSignedUp",
          "type": "bool"
        }
      ],
      "name": "fulfillSignUp",
      "outputs": [],
      "stateMutability": "nonpayable",
      "type": "function"
    },
    {
      "inputs": [
        {
          "internalType": "uint256",
          "name": "campaignId",
          "type": "uint256"
        }
      ],
      "name": "getCampaign",
      "outputs": [
        {
          "components": [
            {
              "internalType": "uint256",
              "name": "campaignId",
              "type": "uint256"
            },
            {
              "internalType": "string",
              "name": "name",
              "type": "string"
            },
            {
              "internalType": "address",
              "name": "company",
              "type": "address"
            },
            {
              "internalType": "uint256",
              "name": "budget",
              "type": "uint256"
            },
            {
              "internalType": "uint256",
              "name": "validationThreshold",
              "type": "uint256"
            },
            {
              "internalType": "uint256",
              "name": "partakersLimit",
              "type": "uint256"
            },
            {
              "internalType": "bool",
              "name": "isClosed",
              "type": "bool"
            }
          ],
          "internalType": "struct ChainFluenceV1.Campaign",
          "name": "",
          "type": "tuple"
        }
      ],
      "stateMutability": "view",
      "type": "function"
    },
    {
      "inputs": [
        {
          "internalType": "uint256",
          "name": "_userId",
          "type": "uint256"
        }
      ],
      "name": "getSignUpURI",
      "outputs": [
        {
          "internalType": "string",
          "name": "_signUpURI",
          "type": "string"
        }
      ],
      "stateMutability": "view",
      "type": "function"
    },
    {
      "inputs": [
        {
          "internalType": "uint256",
          "name": "_twitterId",
          "type": "uint256"
        }
      ],
      "name": "getTwitterURI",
      "outputs": [
        {
          "internalType": "string",
          "name": "_twitterURI",
          "type": "string"
        }
      ],
      "stateMutability": "view",
      "type": "function"
    },
    {
      "inputs": [],
      "name": "hasSignedUp",
      "outputs": [
        {
          "internalType": "bool",
          "name": "",
          "type": "bool"
        }
      ],
      "stateMutability": "view",
      "type": "function"
    },
    {
      "inputs": [
        {
          "internalType": "uint256",
          "name": "_userId",
          "type": "uint256"
        }
      ],
      "name": "hasSignedUp",
      "outputs": [
        {
          "internalType": "bool",
          "name": "",
          "type": "bool"
        }
      ],
      "stateMutability": "view",
      "type": "function"
    },
    {
      "inputs": [],
      "name": "jobId",
      "outputs": [
        {
          "internalType": "bytes32",
          "name": "",
          "type": "bytes32"
        }
      ],
      "stateMutability": "view",
      "type": "function"
    },
    {
      "inputs": [],
      "name": "keeper",
      "outputs": [
        {
          "internalType": "address",
          "name": "",
          "type": "address"
        }
      ],
      "stateMutability": "view",
      "type": "function"
    },
    {
      "inputs": [],
      "name": "owner",
      "outputs": [
        {
          "internalType": "address",
          "name": "",
          "type": "address"
        }
      ],
      "stateMutability": "view",
      "type": "function"
    },
    {
      "inputs": [],
      "name": "paused",
      "outputs": [
        {
          "internalType": "bool",
          "name": "",
          "type": "bool"
        }
      ],
      "stateMutability": "view",
      "type": "function"
    },
    {
      "inputs": [],
      "name": "renounceOwnership",
      "outputs": [],
      "stateMutability": "nonpayable",
      "type": "function"
    },
    {
      "inputs": [],
      "name": "requestBaseURI",
      "outputs": [
        {
          "internalType": "string",
          "name": "",
          "type": "string"
        }
      ],
      "stateMutability": "view",
      "type": "function"
    },
    {
      "inputs": [
        {
          "internalType": "string",
          "name": "_requestBaseURI",
          "type": "string"
        }
      ],
      "name": "setRequestBaseURI",
      "outputs": [],
      "stateMutability": "nonpayable",
      "type": "function"
    },
    {
      "inputs": [
        {
          "internalType": "uint256",
          "name": "_userId",
          "type": "uint256"
        }
      ],
      "name": "signUp",
      "outputs": [],
      "stateMutability": "nonpayable",
      "type": "function"
    },
    {
      "inputs": [
        {
          "internalType": "address",
          "name": "newOwner",
          "type": "address"
        }
      ],
      "name": "transferOwnership",
      "outputs": [],
      "stateMutability": "nonpayable",
      "type": "function"
    },
    {
      "inputs": [],
      "name": "treasuryAmount",
      "outputs": [
        {
          "internalType": "uint256",
          "name": "",
          "type": "uint256"
        }
      ],
      "stateMutability": "view",
      "type": "function"
    },
    {
      "inputs": [],
      "name": "treasuryFee",
      "outputs": [
        {
          "internalType": "uint256",
          "name": "",
          "type": "uint256"
        }
      ],
      "stateMutability": "view",
      "type": "function"
    },
    {
      "inputs": [],
      "name": "withdrawLink",
      "outputs": [],
      "stateMutability": "nonpayable",
      "type": "function"
    }
  ],
  "bytecode": "0x60c060405260016006553480156200001657600080fd5b50604051620049583803806200495883398181016040528101906200003c9190620003c6565b60008060006101000a81548160ff021916908315150217905550620000766200006a620000fe60201b60201c565b6200010660201b60201c565b600180819055506200008e82620001cb60201b60201c565b6200009f836200020f60201b60201c565b8460808181525050600a670de0b6b3a76400006001620000c0919062000504565b620000cc9190620004cc565b60a08181525050806011819055508360099080519060200190620000f292919062000253565b5050505050506200077e565b600033905090565b60008060019054906101000a900473ffffffffffffffffffffffffffffffffffffffff16905081600060016101000a81548173ffffffffffffffffffffffffffffffffffffffff021916908373ffffffffffffffffffffffffffffffffffffffff1602179055508173ffffffffffffffffffffffffffffffffffffffff168173ffffffffffffffffffffffffffffffffffffffff167f8be0079c531659141344cd1fd0a4f28419497f9722a3daafe3b4186f6b6457e060405160405180910390a35050565b80600460006101000a81548173ffffffffffffffffffffffffffffffffffffffff021916908373ffffffffffffffffffffffffffffffffffffffff16021790555050565b80600560006101000a81548173ffffffffffffffffffffffffffffffffffffffff021916908373ffffffffffffffffffffffffffffffffffffffff16021790555050565b8280546200026190620005e3565b90600052602060002090601f016020900481019282620002855760008555620002d1565b82601f10620002a057805160ff1916838001178555620002d1565b82800160010185558215620002d1579182015b82811115620002d0578251825591602001919060010190620002b3565b5b509050620002e09190620002e4565b5090565b5b80821115620002ff576000816000905550600101620002e5565b5090565b60006200031a620003148462000496565b6200046d565b90508281526020810184848401111562000339576200033862000710565b5b62000346848285620005ad565b509392505050565b6000815190506200035f8162000730565b92915050565b60008151905062000376816200074a565b92915050565b600082601f8301126200039457620003936200070b565b5b8151620003a684826020860162000303565b91505092915050565b600081519050620003c08162000764565b92915050565b600080600080600060a08688031215620003e557620003e46200071a565b5b6000620003f58882890162000365565b955050602086015167ffffffffffffffff81111562000419576200041862000715565b5b62000427888289016200037c565b94505060406200043a888289016200034e565b93505060606200044d888289016200034e565b92505060806200046088828901620003af565b9150509295509295909350565b6000620004796200048c565b905062000487828262000619565b919050565b6000604051905090565b600067ffffffffffffffff821115620004b457620004b3620006dc565b5b620004bf826200071f565b9050602081019050919050565b6000620004d982620005a3565b9150620004e683620005a3565b925082620004f957620004f86200067e565b5b828204905092915050565b60006200051182620005a3565b91506200051e83620005a3565b9250817fffffffffffffffffffffffffffffffffffffffffffffffffffffffffffffffff04831182151516156200055a57620005596200064f565b5b828202905092915050565b6000620005728262000583565b9050919050565b6000819050919050565b600073ffffffffffffffffffffffffffffffffffffffff82169050919050565b6000819050919050565b60005b83811015620005cd578082015181840152602081019050620005b0565b83811115620005dd576000848401525b50505050565b60006002820490506001821680620005fc57607f821691505b60208210811415620006135762000612620006ad565b5b50919050565b62000624826200071f565b810181811067ffffffffffffffff82111715620006465762000645620006dc565b5b80604052505050565b7f4e487b7100000000000000000000000000000000000000000000000000000000600052601160045260246000fd5b7f4e487b7100000000000000000000000000000000000000000000000000000000600052601260045260246000fd5b7f4e487b7100000000000000000000000000000000000000000000000000000000600052602260045260246000fd5b7f4e487b7100000000000000000000000000000000000000000000000000000000600052604160045260246000fd5b600080fd5b600080fd5b600080fd5b600080fd5b6000601f19601f8301169050919050565b6200073b8162000565565b81146200074757600080fd5b50565b620007558162000579565b81146200076157600080fd5b50565b6200076f81620005a3565b81146200077b57600080fd5b50565b60805160a0516141ad620007ab600039600061160601526000818161113d01526114fe01526141ad6000f3fe608060405234801561001057600080fd5b50600436106101735760003560e01c8063a9654ad4116100de578063c2939d9711610097578063ec65d0f811610071578063ec65d0f814610400578063ec8f04e91461041c578063f2b3c80914610438578063f2fde38b1461045657610173565b8063c2939d97146103a6578063cc32d176146103c4578063dc4d5efb146103e257610173565b8063a9654ad4146102d4578063aa2bdef914610304578063aced166114610334578063b0e1c1e114610352578063b1d3c7001461036e578063b5a898ae1461038a57610173565b80635c975abb116101305780635c975abb1461024a5780635ec4bc3814610268578063715018a6146102865780638da5cb5b146102905780638dc654a2146102ae578063a4e336c3146102b857610173565b80630a944292146101785780631fc645c7146101a8578063368acb09146101c45780634a732795146101e25780635598f8cc146101fe57806358d9fa041461022e575b600080fd5b610192600480360381019061018d9190612c02565b610472565b60405161019f9190613428565b60405180910390f35b6101c260048036038101906101bd9190612c02565b6104a0565b005b6101cc6104fc565b6040516101d9919061362c565b60405180910390f35b6101fc60048036038101906101f79190612c02565b610502565b005b61021860048036038101906102139190612c02565b6106e0565b604051610225919061360a565b60405180910390f35b61024860048036038101906102439190612c5c565b61082e565b005b6102526108d7565b60405161025f91906133ad565b60405180910390f35b6102706108ed565b60405161027d91906133ad565b60405180910390f35b61028e61096f565b005b6102986109f7565b6040516102a591906132a6565b60405180910390f35b6102b6610a20565b005b6102d260048036038101906102cd9190612a73565b610bff565b005b6102ee60048036038101906102e99190612c02565b610d25565b6040516102fb91906133ad565b60405180910390f35b61031e60048036038101906103199190612c02565b610d42565b60405161032b9190613428565b60405180910390f35b61033c610d6e565b60405161034991906132a6565b60405180910390f35b61036c60048036038101906103679190612c02565b610d94565b005b61038860048036038101906103839190612c9c565b610e8b565b005b6103a4600480360381019061039f9190612b7a565b610f2a565b005b6103ae61113b565b6040516103bb91906133c8565b60405180910390f35b6103cc61115f565b6040516103d9919061362c565b60405180910390f35b6103ea611165565b6040516103f79190613428565b60405180910390f35b61041a60048036038101906104159190612ac6565b6111f3565b005b61043660048036038101906104319190612b2d565b61127a565b005b610440611305565b60405161044d919061362c565b60405180910390f35b610470600480360381019061046b9190612a19565b61130b565b005b60606009468360405160200161048a9392919061324c565b6040516020818303038152906040529050919050565b6104b68133600a6114039092919063ffffffff16565b50807f98eacf4f33e6a76b9b0916f3a1f00cbfe38f5728e60c71cdec75362365c23a15336040516104e791906132a6565b60405180910390a26104f881611438565b5050565b60125481565b6000601060008381526020019081526020016000209050600115158160010160003373ffffffffffffffffffffffffffffffffffffffff1673ffffffffffffffffffffffffffffffffffffffff16815260200190815260200160002060009054906101000a900460ff161515146105ae576040517f08c379a00000000000000000000000000000000000000000000000000000000081526004016105a59061346a565b60405180910390fd5b600015158160020160003373ffffffffffffffffffffffffffffffffffffffff1673ffffffffffffffffffffffffffffffffffffffff16815260200190815260200160002060009054906101000a900460ff16151514610643576040517f08c379a000000000000000000000000000000000000000000000000000000000815260040161063a9061356a565b60405180910390fd5b600061064e83611664565b905061065983611694565b3373ffffffffffffffffffffffffffffffffffffffff166108fc829081150290604051600060405180830381858888f1935050505015801561069f573d6000803e3d6000fd5b507f834b5fc2655a3b64cb9dfbbf39cb1b67bff9e533ab318dbb3677e4edcf9dc25d8333836040516106d393929190613670565b60405180910390a1505050565b6106e86126b4565b6106f182611709565b6040518060e00160405290816000820154815260200160018201805461071690613ad0565b80601f016020809104026020016040519081016040528092919081815260200182805461074290613ad0565b801561078f5780601f106107645761010080835404028352916020019161078f565b820191906000526020600020905b81548152906001019060200180831161077257829003601f168201915b505050505081526020016002820160009054906101000a900473ffffffffffffffffffffffffffffffffffffffff1673ffffffffffffffffffffffffffffffffffffffff1673ffffffffffffffffffffffffffffffffffffffff1681526020016003820154815260200160048201548152602001600582015481526020016006820160009054906101000a900460ff1615151515815250509050919050565b6108366109f7565b73ffffffffffffffffffffffffffffffffffffffff163373ffffffffffffffffffffffffffffffffffffffff16146108a3576040517f08c379a000000000000000000000000000000000000000000000000000000000815260040161089a9061352a565b60405180910390fd5b6108b782600a61172590919063ffffffff16565b6108d3576108d18282600a6114039092919063ffffffff16565b505b5050565b60008060009054906101000a900460ff16905090565b6000806000905060005b610901600a61173f565b811015610967573373ffffffffffffffffffffffffffffffffffffffff1661093382600a61175490919063ffffffff16565b73ffffffffffffffffffffffffffffffffffffffff16141561095457600191505b808061095f90613b33565b9150506108f7565b508091505090565b610977611771565b73ffffffffffffffffffffffffffffffffffffffff166109956109f7565b73ffffffffffffffffffffffffffffffffffffffff16146109eb576040517f08c379a00000000000000000000000000000000000000000000000000000000081526004016109e29061350a565b60405180910390fd5b6109f56000611779565b565b60008060019054906101000a900473ffffffffffffffffffffffffffffffffffffffff16905090565b610a286109f7565b73ffffffffffffffffffffffffffffffffffffffff163373ffffffffffffffffffffffffffffffffffffffff1614610a95576040517f08c379a0000000000000000000000000000000000000000000000000000000008152600401610a8c9061352a565b60405180910390fd5b6000610a9f61183e565b90508073ffffffffffffffffffffffffffffffffffffffff1663a9059cbb610ac56109f7565b8373ffffffffffffffffffffffffffffffffffffffff166370a08231306040518263ffffffff1660e01b8152600401610afe91906132a6565b60206040518083038186803b158015610b1657600080fd5b505afa158015610b2a573d6000803e3d6000fd5b505050506040513d601f19601f82011682018060405250810190610b4e9190612c2f565b6040518363ffffffff1660e01b8152600401610b6b9291906132c1565b602060405180830381600087803b158015610b8557600080fd5b505af1158015610b99573d6000803e3d6000fd5b505050506040513d601f19601f82011682018060405250810190610bbd9190612a46565b610bfc576040517f08c379a0000000000000000000000000000000000000000000000000000000008152600401610bf3906134ea565b60405180910390fd5b50565b826007600082815260200190815260200160002060009054906101000a900473ffffffffffffffffffffffffffffffffffffffff1673ffffffffffffffffffffffffffffffffffffffff163373ffffffffffffffffffffffffffffffffffffffff1614610ca1576040517f08c379a0000000000000000000000000000000000000000000000000000000008152600401610c98906135ca565b60405180910390fd5b6007600082815260200190815260200160002060006101000a81549073ffffffffffffffffffffffffffffffffffffffff0219169055807f7cc135e0cebb02c3480ae5d74d377283180a2601f8f644edf7987b009316c63a60405160405180910390a281610d1f57610d1d83600a61186890919063ffffffff16565b505b50505050565b6000610d3b82600a61172590919063ffffffff16565b9050919050565b6060600982604051602001610d58929190613219565b6040516020818303038152906040529050919050565b600860009054906101000a900473ffffffffffffffffffffffffffffffffffffffff1681565b6000610d9f82611709565b90508060020160009054906101000a900473ffffffffffffffffffffffffffffffffffffffff1673ffffffffffffffffffffffffffffffffffffffff163373ffffffffffffffffffffffffffffffffffffffff1614610e33576040517f08c379a0000000000000000000000000000000000000000000000000000000008152600401610e2a9061354a565b60405180910390fd5b60018160060160006101000a81548160ff0219169083151502179055507f5e6eb33a418de5dbbc17f989f7ae362cdfbb1748c5d603137c767027a354edbc82604051610e7f919061362c565b60405180910390a15050565b6000610e98848484611882565b90506001151581151514610ee1576040517f08c379a0000000000000000000000000000000000000000000000000000000008152600401610ed89061358a565b60405180910390fd5b610eeb84336118a2565b7f7c29733edbbbc7f83fc8c5fb3231ab4c21421e8da3e7bb05cddc0c2be2d0cf658433604051610f1c929190613647565b60405180910390a150505050565b600d6000815480929190610f3d90613b33565b91905055506000600d5490506000600f600083815260200190815260200160002090508481600301819055508686826001019190610f7c929190612709565b50838160040181905550828160050181905550338160020160006101000a81548173ffffffffffffffffffffffffffffffffffffffff021916908373ffffffffffffffffffffffffffffffffffffffff16021790555060008160060160006101000a81548160ff021916908315150217905550600e81908060018154018082558091505060019003906000526020600020906007020160009091909190915060008201548160000155600182018160010190805461103990613ad0565b61104492919061278f565b506002820160009054906101000a900473ffffffffffffffffffffffffffffffffffffffff168160020160006101000a81548173ffffffffffffffffffffffffffffffffffffffff021916908373ffffffffffffffffffffffffffffffffffffffff1602179055506003820154816003015560048201548160040155600582015481600501556006820160009054906101000a900460ff168160060160006101000a81548160ff02191690831515021790555050507f633109eec20320eded000fc1e2634211aa7e92ba3f5b15faf6dcdafca05094e4823360405161112a929190613647565b60405180910390a150505050505050565b7f000000000000000000000000000000000000000000000000000000000000000081565b60115481565b6009805461117290613ad0565b80601f016020809104026020016040519081016040528092919081815260200182805461119e90613ad0565b80156111eb5780601f106111c0576101008083540402835291602001916111eb565b820191906000526020600020905b8154815290600101906020018083116111ce57829003601f168201915b505050505081565b6111fb6109f7565b73ffffffffffffffffffffffffffffffffffffffff163373ffffffffffffffffffffffffffffffffffffffff1614611268576040517f08c379a000000000000000000000000000000000000000000000000000000000815260040161125f9061352a565b60405180910390fd5b61127484848484611a23565b50505050565b6112826109f7565b73ffffffffffffffffffffffffffffffffffffffff163373ffffffffffffffffffffffffffffffffffffffff16146112ef576040517f08c379a00000000000000000000000000000000000000000000000000000000081526004016112e69061352a565b60405180910390fd5b818160099190611300929190612709565b505050565b6103e881565b611313611771565b73ffffffffffffffffffffffffffffffffffffffff166113316109f7565b73ffffffffffffffffffffffffffffffffffffffff1614611387576040517f08c379a000000000000000000000000000000000000000000000000000000000815260040161137e9061350a565b60405180910390fd5b600073ffffffffffffffffffffffffffffffffffffffff168173ffffffffffffffffffffffffffffffffffffffff1614156113f7576040517f08c379a00000000000000000000000000000000000000000000000000000000081526004016113ee9061348a565b60405180910390fd5b61140081611779565b50565b600061142f846000018460001b8473ffffffffffffffffffffffffffffffffffffffff1660001b611b36565b90509392505050565b60006114426109f7565b73ffffffffffffffffffffffffffffffffffffffff163373ffffffffffffffffffffffffffffffffffffffff16146114af576040517f08c379a00000000000000000000000000000000000000000000000000000000081526004016114a69061352a565b60405180910390fd5b6114b76108d7565b156114f7576040517f08c379a00000000000000000000000000000000000000000000000000000000081526004016114ee906134ca565b60405180910390fd5b600061152b7f00000000000000000000000000000000000000000000000000000000000000003063a4e336c360e01b611b71565b905061157f6040518060400160405280600381526020017f676574000000000000000000000000000000000000000000000000000000000081525061156f85610d42565b83611ba29092919063ffffffff16565b6115fe6040518060400160405280600481526020017f70617468000000000000000000000000000000000000000000000000000000008152506040518060400160405280600b81526020017f6861735369676e6564557000000000000000000000000000000000000000000081525083611ba29092919063ffffffff16565b600061162a827f0000000000000000000000000000000000000000000000000000000000000000611bd5565b905080847fbe1937b7feca9c000f1f748ebba989954549c773449bbab49ab3d6f796af50d760405160405180910390a38092505050919050565b60008061167083611709565b905060008160050154826003015461168891906137bc565b90508092505050919050565b600060106000838152602001908152602001600020905060018160020160003373ffffffffffffffffffffffffffffffffffffffff1673ffffffffffffffffffffffffffffffffffffffff16815260200190815260200160002060006101000a81548160ff0219169083151502179055505050565b6000600f60008381526020019081526020016000209050919050565b6000611737836000018360001b611c0c565b905092915050565b600061174d82600001611c2c565b9050919050565b6000611766836000018360001b611c41565b60001c905092915050565b600033905090565b60008060019054906101000a900473ffffffffffffffffffffffffffffffffffffffff16905081600060016101000a81548173ffffffffffffffffffffffffffffffffffffffff021916908373ffffffffffffffffffffffffffffffffffffffff1602179055508173ffffffffffffffffffffffffffffffffffffffff168173ffffffffffffffffffffffffffffffffffffffff167f8be0079c531659141344cd1fd0a4f28419497f9722a3daafe3b4186f6b6457e060405160405180910390a35050565b6000600460009054906101000a900473ffffffffffffffffffffffffffffffffffffffff16905090565b600061187a836000018360001b611cbd565b905092915050565b60008061188e85611709565b905080600401548310159150509392505050565b60006118ad83611709565b90506000601060008581526020019081526020016000209050806000015482600501541015611911576040517f08c379a0000000000000000000000000000000000000000000000000000000008152600401611908906135ea565b60405180910390fd5b600015158260060160009054906101000a900460ff16151514611969576040517f08c379a00000000000000000000000000000000000000000000000000000000081526004016119609061344a565b60405180910390fd5b60018160010160008573ffffffffffffffffffffffffffffffffffffffff1673ffffffffffffffffffffffffffffffffffffffff16815260200190815260200160002060006101000a81548160ff02191690831515021790555060008160020160008573ffffffffffffffffffffffffffffffffffffffff1673ffffffffffffffffffffffffffffffffffffffff16815260200190815260200160002060006101000a81548160ff02191690831515021790555050505050565b60006007600086815260200190815260200160002060009054906101000a900473ffffffffffffffffffffffffffffffffffffffff1690506007600086815260200190815260200160002060006101000a81549073ffffffffffffffffffffffffffffffffffffffff0219169055847fe1fe3afa0f7f761ff0a8b89086790efd5140d2907ebd5b7ff6bfcb5e075fd4c560405160405180910390a28073ffffffffffffffffffffffffffffffffffffffff16636ee4d553868686866040518563ffffffff1660e01b8152600401611afd94939291906133e3565b600060405180830381600087803b158015611b1757600080fd5b505af1158015611b2b573d6000803e3d6000fd5b505050505050505050565b60008184600201600085815260200190815260200160002081905550611b688385600001611cf690919063ffffffff16565b90509392505050565b611b7961281c565b611b8161281c565b611b9885858584611d0d909392919063ffffffff16565b9150509392505050565b611bb9828460800151611dbd90919063ffffffff16565b611bd0818460800151611dbd90919063ffffffff16565b505050565b6000611c04600560009054906101000a900473ffffffffffffffffffffffffffffffffffffffff168484611de2565b905092915050565b6000611c248284600001611eae90919063ffffffff16565b905092915050565b6000611c3a82600001611ec5565b9050919050565b6000808360020160008481526020019081526020016000205490506000801b81141580611c745750611c738484611c0c565b5b611cb3576040517f08c379a0000000000000000000000000000000000000000000000000000000008152600401611caa906135aa565b60405180910390fd5b8091505092915050565b600082600201600083815260200190815260200160002060009055611cee8284600001611eda90919063ffffffff16565b905092915050565b6000611d058360000183611ef1565b905092915050565b611d1561281c565b611d258560800151610100611f61565b508385600001818152505082856020019073ffffffffffffffffffffffffffffffffffffffff16908173ffffffffffffffffffffffffffffffffffffffff16815250508185604001907bffffffffffffffffffffffffffffffffffffffffffffffffffffffff191690817bffffffffffffffffffffffffffffffffffffffffffffffffffffffff191681525050849050949350505050565b611dca8260038351611fcb565b611ddd818361215090919063ffffffff16565b505050565b6000806006549050600181611df79190613766565b6006819055506000634042994660e01b60008087600001513089604001518760018c6080015160000151604051602401611e389897969594939291906132ea565b604051602081830303815290604052907bffffffffffffffffffffffffffffffffffffffffffffffffffffffff19166020820180517bffffffffffffffffffffffffffffffffffffffffffffffffffffffff83818316178352505050509050611ea386838684612172565b925050509392505050565b6000611ebd8360000183612316565b905092915050565b6000611ed382600001612339565b9050919050565b6000611ee9836000018361234a565b905092915050565b6000611efd8383612316565b611f56578260000182908060018154018082558091505060019003906000526020600020016000909190919091505582600001805490508360010160008481526020019081526020016000208190555060019050611f5b565b600090505b92915050565b611f69612889565b6000602083611f789190613baa565b14611fa457602082611f8a9190613baa565b6020611f9691906139b8565b82611fa19190613766565b91505b81836020018181525050604051808452600081528281016020016040525082905092915050565b60178167ffffffffffffffff161161200257611ffc8160058460ff16901b60ff16178461245e90919063ffffffff16565b5061214b565b60ff8167ffffffffffffffff161161205857612031601860058460ff16901b178461245e90919063ffffffff16565b506120528167ffffffffffffffff1660018561247e9092919063ffffffff16565b5061214a565b61ffff8167ffffffffffffffff16116120af57612088601960058460ff16901b178461245e90919063ffffffff16565b506120a98167ffffffffffffffff1660028561247e9092919063ffffffff16565b50612149565b63ffffffff8167ffffffffffffffff1611612108576120e1601a60058460ff16901b178461245e90919063ffffffff16565b506121028167ffffffffffffffff1660048561247e9092919063ffffffff16565b50612148565b612125601b60058460ff16901b178461245e90919063ffffffff16565b506121468167ffffffffffffffff1660088561247e9092919063ffffffff16565b505b5b5b5b505050565b612158612889565b61216a838460000151518485516124a0565b905092915050565b600030846040516020016121879291906131ed565b604051602081830303815290604052805190602001209050846007600083815260200190815260200160002060006101000a81548173ffffffffffffffffffffffffffffffffffffffff021916908373ffffffffffffffffffffffffffffffffffffffff160217905550807fb5e6e01e79f91267dc17b4e6314d5d4d03593d2ceee0fbb452b750bd70ea5af960405160405180910390a2600460009054906101000a900473ffffffffffffffffffffffffffffffffffffffff1673ffffffffffffffffffffffffffffffffffffffff16634000aea08685856040518463ffffffff1660e01b815260040161227d9392919061336f565b602060405180830381600087803b15801561229757600080fd5b505af11580156122ab573d6000803e3d6000fd5b505050506040513d601f19601f820116820180604052508101906122cf9190612a46565b61230e576040517f08c379a0000000000000000000000000000000000000000000000000000000008152600401612305906134aa565b60405180910390fd5b949350505050565b600080836001016000848152602001908152602001600020541415905092915050565b600081600001805490509050919050565b6000808360010160008481526020019081526020016000205490506000811461245257600060018261237c91906139b8565b905060006001866000018054905061239491906139b8565b90508181146124035760008660000182815481106123b5576123b4613c97565b5b90600052602060002001549050808760000184815481106123d9576123d8613c97565b5b90600052602060002001819055508387600101600083815260200190815260200160002081905550505b8560000180548061241757612416613c68565b5b600190038181906000526020600020016000905590558560010160008681526020019081526020016000206000905560019350505050612458565b60009150505b92915050565b612466612889565b612476838460000151518461258f565b905092915050565b612486612889565b6124978485600001515185856125e6565b90509392505050565b6124a8612889565b82518211156124b657600080fd5b846020015182856124c79190613766565b11156124fc576124fb8560026124ec886020015188876124e79190613766565b612674565b6124f6919061395e565b612690565b5b60008086518051876020830101935080888701111561251b5787860182525b60208701925050505b60208410612562578051825260208261253d9190613766565b915060208161254c9190613766565b905060208461255b91906139b8565b9350612524565b60006001856020036101000a03905080198251168184511681811785525050508692505050949350505050565b612597612889565b836020015183106125bd576125bc84600286602001516125b7919061395e565b612690565b5b83518051602085830101848153818614156125d9576001820183525b5050508390509392505050565b6125ee612889565b846020015184836125ff9190613766565b11156126275761262685600286856126179190613766565b612621919061395e565b612690565b5b60006001836101006126399190613840565b61264391906139b8565b905085518386820101858319825116178152815185880111156126665784870182525b505085915050949350505050565b6000818311156126865782905061268a565b8190505b92915050565b6000826000015190506126a38383611f61565b506126ae8382612150565b50505050565b6040518060e001604052806000815260200160608152602001600073ffffffffffffffffffffffffffffffffffffffff1681526020016000815260200160008152602001600081526020016000151581525090565b82805461271590613ad0565b90600052602060002090601f016020900481019282612737576000855561277e565b82601f1061275057803560ff191683800117855561277e565b8280016001018555821561277e579182015b8281111561277d578235825591602001919060010190612762565b5b50905061278b91906128a3565b5090565b82805461279b90613ad0565b90600052602060002090601f0160209004810192826127bd576000855561280b565b82601f106127ce578054855561280b565b8280016001018555821561280b57600052602060002091601f016020900482015b8281111561280a5782548255916001019190600101906127ef565b5b50905061281891906128a3565b5090565b6040518060a0016040528060008019168152602001600073ffffffffffffffffffffffffffffffffffffffff16815260200160007bffffffffffffffffffffffffffffffffffffffffffffffffffffffff1916815260200160008152602001612883612889565b81525090565b604051806040016040528060608152602001600081525090565b5b808211156128bc5760008160009055506001016128a4565b5090565b60006128d36128ce846136cc565b6136a7565b9050828152602081018484840111156128ef576128ee613d04565b5b6128fa848285613a8e565b509392505050565b60008135905061291181614104565b92915050565b6000813590506129268161411b565b92915050565b60008151905061293b8161411b565b92915050565b60008135905061295081614132565b92915050565b60008135905061296581614149565b92915050565b60008083601f84011261298157612980613cfa565b5b8235905067ffffffffffffffff81111561299e5761299d613cf5565b5b6020830191508360018202830111156129ba576129b9613cff565b5b9250929050565b600082601f8301126129d6576129d5613cfa565b5b81356129e68482602086016128c0565b91505092915050565b6000813590506129fe81614160565b92915050565b600081519050612a1381614160565b92915050565b600060208284031215612a2f57612a2e613d0e565b5b6000612a3d84828501612902565b91505092915050565b600060208284031215612a5c57612a5b613d0e565b5b6000612a6a8482850161292c565b91505092915050565b600080600060608486031215612a8c57612a8b613d0e565b5b6000612a9a86828701612941565b9350506020612aab868287016129ef565b9250506040612abc86828701612917565b9150509250925092565b60008060008060808587031215612ae057612adf613d0e565b5b6000612aee87828801612941565b9450506020612aff878288016129ef565b9350506040612b1087828801612956565b9250506060612b21878288016129ef565b91505092959194509250565b60008060208385031215612b4457612b43613d0e565b5b600083013567ffffffffffffffff811115612b6257612b61613d09565b5b612b6e8582860161296b565b92509250509250929050565b600080600080600060808688031215612b9657612b95613d0e565b5b600086013567ffffffffffffffff811115612bb457612bb3613d09565b5b612bc08882890161296b565b95509550506020612bd3888289016129ef565b9350506040612be4888289016129ef565b9250506060612bf5888289016129ef565b9150509295509295909350565b600060208284031215612c1857612c17613d0e565b5b6000612c26848285016129ef565b91505092915050565b600060208284031215612c4557612c44613d0e565b5b6000612c5384828501612a04565b91505092915050565b60008060408385031215612c7357612c72613d0e565b5b6000612c81858286016129ef565b9250506020612c9285828601612902565b9150509250929050565b600080600060608486031215612cb557612cb4613d0e565b5b6000612cc3868287016129ef565b935050602084013567ffffffffffffffff811115612ce457612ce3613d09565b5b612cf0868287016129c1565b9250506040612d01868287016129ef565b9150509250925092565b612d14816139ec565b82525050565b612d23816139ec565b82525050565b612d32816139fe565b82525050565b612d41816139fe565b82525050565b612d5081613a0a565b82525050565b612d5f81613a14565b82525050565b6000612d7082613712565b612d7a8185613728565b9350612d8a818560208601613a9d565b612d9381613d13565b840191505092915050565b612daf612daa82613a6a565b613b7c565b82525050565b6000612dc08261371d565b612dca8185613739565b9350612dda818560208601613a9d565b612de381613d13565b840191505092915050565b6000612df98261371d565b612e03818561374a565b9350612e13818560208601613a9d565b612e1c81613d13565b840191505092915050565b60008154612e3481613ad0565b612e3e818661375b565b94506001821660008114612e595760018114612e6a57612e9d565b60ff19831686528186019350612e9d565b612e73856136fd565b60005b83811015612e9557815481890152600182019150602081019050612e76565b838801955050505b50505092915050565b6000612eb360128361374a565b9150612ebe82613d3e565b602082019050919050565b6000612ed6602e8361374a565b9150612ee182613d67565b604082019050919050565b6000612ef960268361374a565b9150612f0482613db6565b604082019050919050565b6000612f1c60238361374a565b9150612f2782613e05565b604082019050919050565b6000612f3f60078361375b565b9150612f4a82613e54565b600782019050919050565b6000612f6260108361374a565b9150612f6d82613e7d565b602082019050919050565b6000612f8560128361374a565b9150612f9082613ea6565b602082019050919050565b6000612fa860208361374a565b9150612fb382613ecf565b602082019050919050565b6000612fcb60178361374a565b9150612fd682613ef8565b602082019050919050565b6000612fee60208361374a565b9150612ff982613f21565b602082019050919050565b6000613011601b8361374a565b915061301c82613f4a565b602082019050919050565b6000613034603e8361374a565b915061303f82613f73565b604082019050919050565b6000613057600a8361375b565b915061306282613fc2565b600a82019050919050565b600061307a601e8361374a565b915061308582613feb565b602082019050919050565b600061309d60288361374a565b91506130a882614014565b604082019050919050565b60006130c060088361375b565b91506130cb82614063565b600882019050919050565b60006130e360228361374a565b91506130ee8261408c565b604082019050919050565b600061310660088361375b565b9150613111826140db565b600882019050919050565b600060e08301600083015161313460008601826131b8565b506020830151848203602086015261314c8282612db5565b91505060408301516131616040860182612d0b565b50606083015161317460608601826131b8565b50608083015161318760808601826131b8565b5060a083015161319a60a08601826131b8565b5060c08301516131ad60c0860182612d29565b508091505092915050565b6131c181613a60565b82525050565b6131d081613a60565b82525050565b6131e76131e282613a60565b613ba0565b82525050565b60006131f98285612d9e565b60148201915061320982846131d6565b6020820191508190509392505050565b60006132258285612e27565b915061323082612f32565b915061323c82846131d6565b6020820191508190509392505050565b60006132588286612e27565b9150613263826130b3565b915061326f82856131d6565b60208201915061327e8261304a565b915061328a82846131d6565b602082019150613299826130f9565b9150819050949350505050565b60006020820190506132bb6000830184612d1a565b92915050565b60006040820190506132d66000830185612d1a565b6132e360208301846131c7565b9392505050565b600061010082019050613300600083018b612d1a565b61330d602083018a6131c7565b61331a6040830189612d47565b6133276060830188612d1a565b6133346080830187612d56565b61334160a08301866131c7565b61334e60c08301856131c7565b81810360e08301526133608184612d65565b90509998505050505050505050565b60006060820190506133846000830186612d1a565b61339160208301856131c7565b81810360408301526133a38184612d65565b9050949350505050565b60006020820190506133c26000830184612d38565b92915050565b60006020820190506133dd6000830184612d47565b92915050565b60006080820190506133f86000830187612d47565b61340560208301866131c7565b6134126040830185612d56565b61341f60608301846131c7565b95945050505050565b600060208201905081810360008301526134428184612dee565b905092915050565b6000602082019050818103600083015261346381612ea6565b9050919050565b6000602082019050818103600083015261348381612ec9565b9050919050565b600060208201905081810360008301526134a381612eec565b9050919050565b600060208201905081810360008301526134c381612f0f565b9050919050565b600060208201905081810360008301526134e381612f55565b9050919050565b6000602082019050818103600083015261350381612f78565b9050919050565b6000602082019050818103600083015261352381612f9b565b9050919050565b6000602082019050818103600083015261354381612fbe565b9050919050565b6000602082019050818103600083015261356381612fe1565b9050919050565b6000602082019050818103600083015261358381613004565b9050919050565b600060208201905081810360008301526135a381613027565b9050919050565b600060208201905081810360008301526135c38161306d565b9050919050565b600060208201905081810360008301526135e381613090565b9050919050565b60006020820190508181036000830152613603816130d6565b9050919050565b60006020820190508181036000830152613624818461311c565b905092915050565b600060208201905061364160008301846131c7565b92915050565b600060408201905061365c60008301856131c7565b6136696020830184612d1a565b9392505050565b600060608201905061368560008301866131c7565b6136926020830185612d1a565b61369f60408301846131c7565b949350505050565b60006136b16136c2565b90506136bd8282613b02565b919050565b6000604051905090565b600067ffffffffffffffff8211156136e7576136e6613cc6565b5b6136f082613d13565b9050602081019050919050565b60008190508160005260206000209050919050565b600081519050919050565b600081519050919050565b600082825260208201905092915050565b600082825260208201905092915050565b600082825260208201905092915050565b600081905092915050565b600061377182613a60565b915061377c83613a60565b9250827fffffffffffffffffffffffffffffffffffffffffffffffffffffffffffffffff038211156137b1576137b0613bdb565b5b828201905092915050565b60006137c782613a60565b91506137d283613a60565b9250826137e2576137e1613c0a565b5b828204905092915050565b6000808291508390505b60018511156138375780860481111561381357613812613bdb565b5b60018516156138225780820291505b808102905061383085613d31565b94506137f7565b94509492505050565b600061384b82613a60565b915061385683613a60565b92506138837fffffffffffffffffffffffffffffffffffffffffffffffffffffffffffffffff848461388b565b905092915050565b60008261389b5760019050613957565b816138a95760009050613957565b81600181146138bf57600281146138c9576138f8565b6001915050613957565b60ff8411156138db576138da613bdb565b5b8360020a9150848211156138f2576138f1613bdb565b5b50613957565b5060208310610133831016604e8410600b841016171561392d5782820a90508381111561392857613927613bdb565b5b613957565b61393a84848460016137ed565b9250905081840481111561395157613950613bdb565b5b81810290505b9392505050565b600061396982613a60565b915061397483613a60565b9250817fffffffffffffffffffffffffffffffffffffffffffffffffffffffffffffffff04831182151516156139ad576139ac613bdb565b5b828202905092915050565b60006139c382613a60565b91506139ce83613a60565b9250828210156139e1576139e0613bdb565b5b828203905092915050565b60006139f782613a40565b9050919050565b60008115159050919050565b6000819050919050565b60007fffffffff0000000000000000000000000000000000000000000000000000000082169050919050565b600073ffffffffffffffffffffffffffffffffffffffff82169050919050565b6000819050919050565b6000613a7582613a7c565b9050919050565b6000613a8782613a40565b9050919050565b82818337600083830152505050565b60005b83811015613abb578082015181840152602081019050613aa0565b83811115613aca576000848401525b50505050565b60006002820490506001821680613ae857607f821691505b60208210811415613afc57613afb613c39565b5b50919050565b613b0b82613d13565b810181811067ffffffffffffffff82111715613b2a57613b29613cc6565b5b80604052505050565b6000613b3e82613a60565b91507fffffffffffffffffffffffffffffffffffffffffffffffffffffffffffffffff821415613b7157613b70613bdb565b5b600182019050919050565b6000613b8782613b8e565b9050919050565b6000613b9982613d24565b9050919050565b6000819050919050565b6000613bb582613a60565b9150613bc083613a60565b925082613bd057613bcf613c0a565b5b828206905092915050565b7f4e487b7100000000000000000000000000000000000000000000000000000000600052601160045260246000fd5b7f4e487b7100000000000000000000000000000000000000000000000000000000600052601260045260246000fd5b7f4e487b7100000000000000000000000000000000000000000000000000000000600052602260045260246000fd5b7f4e487b7100000000000000000000000000000000000000000000000000000000600052603160045260246000fd5b7f4e487b7100000000000000000000000000000000000000000000000000000000600052603260045260246000fd5b7f4e487b7100000000000000000000000000000000000000000000000000000000600052604160045260246000fd5b600080fd5b600080fd5b600080fd5b600080fd5b600080fd5b600080fd5b6000601f19601f8301169050919050565b60008160601b9050919050565b60008160011c9050919050565b7f43616d706169676e20697320636c6f7365640000000000000000000000000000600082015250565b7f43616c6c6572206973206e6f7420612076616c6964617465642063616d70616960008201527f676e20636f6e7472696275746f72000000000000000000000000000000000000602082015250565b7f4f776e61626c653a206e6577206f776e657220697320746865207a65726f206160008201527f6464726573730000000000000000000000000000000000000000000000000000602082015250565b7f756e61626c6520746f207472616e73666572416e6443616c6c20746f206f726160008201527f636c650000000000000000000000000000000000000000000000000000000000602082015250565b7f2f75736572732f00000000000000000000000000000000000000000000000000600082015250565b7f5061757361626c653a2070617573656400000000000000000000000000000000600082015250565b7f556e61626c6520746f207472616e736665720000000000000000000000000000600082015250565b7f4f776e61626c653a2063616c6c6572206973206e6f7420746865206f776e6572600082015250565b7f43616c6c6572206973206e6f74207468652061646d696e000000000000000000600082015250565b7f43616c6c6572206973206e6f74207468652063616d706169676e206f776e6572600082015250565b7f5265747269627574696f6e20616c726561647920636c61696d65640000000000600082015250565b7f5468697320636f6e747269627574696f6e20646f6573206e6f7420736174697360008201527f6679207468652063616d706169676e277320726571756972656d656e74730000602082015250565b7f2f74776974746572732f00000000000000000000000000000000000000000000600082015250565b7f456e756d657261626c654d61703a206e6f6e6578697374656e74206b65790000600082015250565b7f536f75726365206d75737420626520746865206f7261636c65206f662074686560008201527f2072657175657374000000000000000000000000000000000000000000000000602082015250565b7f2f636861696e732f000000000000000000000000000000000000000000000000600082015250565b7f436f6e7472696275746f7273206c696d697420616c726561647920726561636860008201527f6564000000000000000000000000000000000000000000000000000000000000602082015250565b7f2f77696e6e657273000000000000000000000000000000000000000000000000600082015250565b61410d816139ec565b811461411857600080fd5b50565b614124816139fe565b811461412f57600080fd5b50565b61413b81613a0a565b811461414657600080fd5b50565b61415281613a14565b811461415d57600080fd5b50565b61416981613a60565b811461417457600080fd5b5056fea26469706673582212201a2964fc114b8bb5f7ea22b1ef8a1be4c960700573d9486c3362d17522e8823964736f6c63430008060033",
  "linkReferences": {},
  "deployedLinkReferences": {}
}