{
  "_format": "hh-sol-artifact-1",
  "contractName": "TwitterV1",
  "sourceName": "contracts/connectors/Twitter.sol",
  "abi": [
    {
      "inputs": [
        {
          "internalType": "bytes32",
          "name": "_jobId",
          "type": "bytes32"
        },
        {
          "internalType": "string",
          "name": "_requestBaseURI",
          "type": "string"
        },
        {
          "internalType": "address",
          "name": "_oracle",
          "type": "address"
        },
        {
          "internalType": "address",
          "name": "_link",
          "type": "address"
        },
        {
          "internalType": "uint256",
          "name": "_treasuryFee",
          "type": "uint256"
        }
      ],
      "stateMutability": "nonpayable",
      "type": "constructor"
    },
    {
      "anonymous": false,
      "inputs": [
        {
          "indexed": false,
          "internalType": "uint256",
          "name": "campaignId",
          "type": "uint256"
        }
      ],
      "name": "CampaignClosed",
      "type": "event"
    },
    {
      "anonymous": false,
      "inputs": [
        {
          "indexed": false,
          "internalType": "uint256",
          "name": "campaignId",
          "type": "uint256"
        },
        {
          "indexed": false,
          "internalType": "address",
          "name": "company",
          "type": "address"
        }
      ],
      "name": "CampaignCreated",
      "type": "event"
    },
    {
      "anonymous": false,
      "inputs": [
        {
          "indexed": true,
          "internalType": "bytes32",
          "name": "id",
          "type": "bytes32"
        }
      ],
      "name": "ChainlinkCancelled",
      "type": "event"
    },
    {
      "anonymous": false,
      "inputs": [
        {
          "indexed": true,
          "internalType": "bytes32",
          "name": "id",
          "type": "bytes32"
        }
      ],
      "name": "ChainlinkFulfilled",
      "type": "event"
    },
    {
      "anonymous": false,
      "inputs": [
        {
          "indexed": true,
          "internalType": "bytes32",
          "name": "id",
          "type": "bytes32"
        }
      ],
      "name": "ChainlinkRequested",
      "type": "event"
    },
    {
      "anonymous": false,
      "inputs": [
        {
          "indexed": false,
          "internalType": "uint256",
          "name": "campaignId",
          "type": "uint256"
        },
        {
          "indexed": false,
          "internalType": "address",
          "name": "contributor",
          "type": "address"
        }
      ],
      "name": "ContributorAdded",
      "type": "event"
    },
    {
      "anonymous": false,
      "inputs": [
        {
          "indexed": false,
          "internalType": "uint256",
          "name": "campaignId",
          "type": "uint256"
        },
        {
          "indexed": false,
          "internalType": "address",
          "name": "contributor",
          "type": "address"
        },
        {
          "indexed": false,
          "internalType": "uint256",
          "name": "retribution",
          "type": "uint256"
        }
      ],
      "name": "ContributorRetributed",
      "type": "event"
    },
    {
      "anonymous": false,
      "inputs": [
        {
          "indexed": true,
          "internalType": "address",
          "name": "previousOwner",
          "type": "address"
        },
        {
          "indexed": true,
          "internalType": "address",
          "name": "newOwner",
          "type": "address"
        }
      ],
      "name": "OwnershipTransferred",
      "type": "event"
    },
    {
      "anonymous": false,
      "inputs": [
        {
          "indexed": false,
          "internalType": "address",
          "name": "account",
          "type": "address"
        }
      ],
      "name": "Paused",
      "type": "event"
    },
    {
      "anonymous": false,
      "inputs": [
        {
          "indexed": true,
          "internalType": "uint256",
          "name": "userId",
          "type": "uint256"
        },
        {
          "indexed": true,
          "internalType": "bytes32",
          "name": "requestId",
          "type": "bytes32"
        }
      ],
      "name": "SignUpRequested",
      "type": "event"
    },
    {
      "anonymous": false,
      "inputs": [
        {
          "indexed": true,
          "internalType": "uint256",
          "name": "userId",
          "type": "uint256"
        },
        {
          "indexed": false,
          "internalType": "address",
          "name": "userAddress",
          "type": "address"
        }
      ],
      "name": "SignedUp",
      "type": "event"
    },
    {
      "anonymous": false,
      "inputs": [
        {
          "indexed": false,
          "internalType": "address",
          "name": "account",
          "type": "address"
        }
      ],
      "name": "Unpaused",
      "type": "event"
    },
    {
      "inputs": [],
      "name": "MAX_TREASURY_FEE",
      "outputs": [
        {
          "internalType": "uint256",
          "name": "",
          "type": "uint256"
        }
      ],
      "stateMutability": "view",
      "type": "function"
    },
    {
      "inputs": [
        {
          "internalType": "uint256",
          "name": "_userId",
          "type": "uint256"
        },
        {
          "internalType": "address",
          "name": "_userAddress",
          "type": "address"
        }
      ],
      "name": "addUser",
      "outputs": [],
      "stateMutability": "nonpayable",
      "type": "function"
    },
    {
      "inputs": [
        {
          "internalType": "bytes32",
          "name": "_requestId",
          "type": "bytes32"
        },
        {
          "internalType": "uint256",
          "name": "_payment",
          "type": "uint256"
        },
        {
          "internalType": "bytes4",
          "name": "_callbackFunctionId",
          "type": "bytes4"
        },
        {
          "internalType": "uint256",
          "name": "_expiration",
          "type": "uint256"
        }
      ],
      "name": "cancelRequest",
      "outputs": [],
      "stateMutability": "nonpayable",
      "type": "function"
    },
    {
      "inputs": [
        {
          "internalType": "uint256",
          "name": "campaignId",
          "type": "uint256"
        },
        {
          "internalType": "string",
          "name": "postId",
          "type": "string"
        },
        {
          "internalType": "uint256",
          "name": "claimedCounter",
          "type": "uint256"
        }
      ],
      "name": "claimCampaignContribution",
      "outputs": [],
      "stateMutability": "nonpayable",
      "type": "function"
    },
    {
      "inputs": [
        {
          "internalType": "uint256",
          "name": "campaignId",
          "type": "uint256"
        }
      ],
      "name": "claimCampaignRetribution",
      "outputs": [],
      "stateMutability": "nonpayable",
      "type": "function"
    },
    {
      "inputs": [
        {
          "internalType": "uint256",
          "name": "campaignId",
          "type": "uint256"
        }
      ],
      "name": "closeCampaign",
      "outputs": [],
      "stateMutability": "nonpayable",
      "type": "function"
    },
    {
      "inputs": [
        {
          "internalType": "string",
          "name": "name",
          "type": "string"
        },
        {
          "internalType": "uint256",
          "name": "budget",
          "type": "uint256"
        },
        {
          "internalType": "uint256",
          "name": "validationThreshold",
          "type": "uint256"
        },
        {
          "internalType": "uint256",
          "name": "partakersLimit",
          "type": "uint256"
        }
      ],
      "name": "createCampaign",
      "outputs": [],
      "stateMutability": "nonpayable",
      "type": "function"
    },
    {
      "inputs": [
        {
          "internalType": "bytes32",
          "name": "_requestId",
          "type": "bytes32"
        },
        {
          "internalType": "uint256",
          "name": "_userId",
          "type": "uint256"
        },
        {
          "internalType": "bool",
          "name": "_hasSignedUp",
          "type": "bool"
        }
      ],
      "name": "fulfillSignUp",
      "outputs": [],
      "stateMutability": "nonpayable",
      "type": "function"
    },
    {
      "inputs": [
        {
          "internalType": "uint256",
          "name": "campaignId",
          "type": "uint256"
        }
      ],
      "name": "getCampaign",
      "outputs": [
        {
          "components": [
            {
              "internalType": "uint256",
              "name": "campaignId",
              "type": "uint256"
            },
            {
              "internalType": "string",
              "name": "name",
              "type": "string"
            },
            {
              "internalType": "address",
              "name": "company",
              "type": "address"
            },
            {
              "internalType": "uint256",
              "name": "budget",
              "type": "uint256"
            },
            {
              "internalType": "uint256",
              "name": "validationThreshold",
              "type": "uint256"
            },
            {
              "internalType": "uint256",
              "name": "partakersLimit",
              "type": "uint256"
            },
            {
              "internalType": "bool",
              "name": "isClosed",
              "type": "bool"
            }
          ],
          "internalType": "struct TwitterV1.Campaign",
          "name": "",
          "type": "tuple"
        }
      ],
      "stateMutability": "view",
      "type": "function"
    },
    {
      "inputs": [
        {
          "internalType": "uint256",
          "name": "_userId",
          "type": "uint256"
        }
      ],
      "name": "getSignUpURI",
      "outputs": [
        {
          "internalType": "string",
          "name": "_signUpURI",
          "type": "string"
        }
      ],
      "stateMutability": "view",
      "type": "function"
    },
    {
      "inputs": [
        {
          "internalType": "uint256",
          "name": "_twitterId",
          "type": "uint256"
        }
      ],
      "name": "getTwitterURI",
      "outputs": [
        {
          "internalType": "string",
          "name": "_twitterURI",
          "type": "string"
        }
      ],
      "stateMutability": "view",
      "type": "function"
    },
    {
      "inputs": [],
      "name": "hasSignedUp",
      "outputs": [
        {
          "internalType": "bool",
          "name": "",
          "type": "bool"
        }
      ],
      "stateMutability": "view",
      "type": "function"
    },
    {
      "inputs": [
        {
          "internalType": "uint256",
          "name": "_userId",
          "type": "uint256"
        }
      ],
      "name": "hasSignedUp",
      "outputs": [
        {
          "internalType": "bool",
          "name": "",
          "type": "bool"
        }
      ],
      "stateMutability": "view",
      "type": "function"
    },
    {
      "inputs": [],
      "name": "jobId",
      "outputs": [
        {
          "internalType": "bytes32",
          "name": "",
          "type": "bytes32"
        }
      ],
      "stateMutability": "view",
      "type": "function"
    },
    {
      "inputs": [],
      "name": "keeper",
      "outputs": [
        {
          "internalType": "address",
          "name": "",
          "type": "address"
        }
      ],
      "stateMutability": "view",
      "type": "function"
    },
    {
      "inputs": [],
      "name": "owner",
      "outputs": [
        {
          "internalType": "address",
          "name": "",
          "type": "address"
        }
      ],
      "stateMutability": "view",
      "type": "function"
    },
    {
      "inputs": [],
      "name": "paused",
      "outputs": [
        {
          "internalType": "bool",
          "name": "",
          "type": "bool"
        }
      ],
      "stateMutability": "view",
      "type": "function"
    },
    {
      "inputs": [],
      "name": "renounceOwnership",
      "outputs": [],
      "stateMutability": "nonpayable",
      "type": "function"
    },
    {
      "inputs": [],
      "name": "requestBaseURI",
      "outputs": [
        {
          "internalType": "string",
          "name": "",
          "type": "string"
        }
      ],
      "stateMutability": "view",
      "type": "function"
    },
    {
      "inputs": [
        {
          "internalType": "string",
          "name": "_requestBaseURI",
          "type": "string"
        }
      ],
      "name": "setRequestBaseURI",
      "outputs": [],
      "stateMutability": "nonpayable",
      "type": "function"
    },
    {
      "inputs": [
        {
          "internalType": "uint256",
          "name": "_userId",
          "type": "uint256"
        }
      ],
      "name": "signUp",
      "outputs": [],
      "stateMutability": "nonpayable",
      "type": "function"
    },
    {
      "inputs": [
        {
          "internalType": "address",
          "name": "newOwner",
          "type": "address"
        }
      ],
      "name": "transferOwnership",
      "outputs": [],
      "stateMutability": "nonpayable",
      "type": "function"
    },
    {
      "inputs": [],
      "name": "treasuryAmount",
      "outputs": [
        {
          "internalType": "uint256",
          "name": "",
          "type": "uint256"
        }
      ],
      "stateMutability": "view",
      "type": "function"
    },
    {
      "inputs": [],
      "name": "treasuryFee",
      "outputs": [
        {
          "internalType": "uint256",
          "name": "",
          "type": "uint256"
        }
      ],
      "stateMutability": "view",
      "type": "function"
    },
    {
      "inputs": [],
      "name": "withdrawLink",
      "outputs": [],
      "stateMutability": "nonpayable",
      "type": "function"
    }
  ],
  "bytecode": "0x60c060405260016006553480156200001657600080fd5b50604051620049713803806200497183398181016040528101906200003c9190620003c6565b60008060006101000a81548160ff021916908315150217905550620000766200006a620000fe60201b60201c565b6200010660201b60201c565b600180819055506200008e82620001cb60201b60201c565b6200009f836200020f60201b60201c565b8460808181525050600a670de0b6b3a76400006001620000c0919062000504565b620000cc9190620004cc565b60a08181525050806011819055508360099080519060200190620000f292919062000253565b5050505050506200077e565b600033905090565b60008060019054906101000a900473ffffffffffffffffffffffffffffffffffffffff16905081600060016101000a81548173ffffffffffffffffffffffffffffffffffffffff021916908373ffffffffffffffffffffffffffffffffffffffff1602179055508173ffffffffffffffffffffffffffffffffffffffff168173ffffffffffffffffffffffffffffffffffffffff167f8be0079c531659141344cd1fd0a4f28419497f9722a3daafe3b4186f6b6457e060405160405180910390a35050565b80600460006101000a81548173ffffffffffffffffffffffffffffffffffffffff021916908373ffffffffffffffffffffffffffffffffffffffff16021790555050565b80600560006101000a81548173ffffffffffffffffffffffffffffffffffffffff021916908373ffffffffffffffffffffffffffffffffffffffff16021790555050565b8280546200026190620005e3565b90600052602060002090601f016020900481019282620002855760008555620002d1565b82601f10620002a057805160ff1916838001178555620002d1565b82800160010185558215620002d1579182015b82811115620002d0578251825591602001919060010190620002b3565b5b509050620002e09190620002e4565b5090565b5b80821115620002ff576000816000905550600101620002e5565b5090565b60006200031a620003148462000496565b6200046d565b90508281526020810184848401111562000339576200033862000710565b5b62000346848285620005ad565b509392505050565b6000815190506200035f8162000730565b92915050565b60008151905062000376816200074a565b92915050565b600082601f8301126200039457620003936200070b565b5b8151620003a684826020860162000303565b91505092915050565b600081519050620003c08162000764565b92915050565b600080600080600060a08688031215620003e557620003e46200071a565b5b6000620003f58882890162000365565b955050602086015167ffffffffffffffff81111562000419576200041862000715565b5b62000427888289016200037c565b94505060406200043a888289016200034e565b93505060606200044d888289016200034e565b92505060806200046088828901620003af565b9150509295509295909350565b6000620004796200048c565b905062000487828262000619565b919050565b6000604051905090565b600067ffffffffffffffff821115620004b457620004b3620006dc565b5b620004bf826200071f565b9050602081019050919050565b6000620004d982620005a3565b9150620004e683620005a3565b925082620004f957620004f86200067e565b5b828204905092915050565b60006200051182620005a3565b91506200051e83620005a3565b9250817fffffffffffffffffffffffffffffffffffffffffffffffffffffffffffffffff04831182151516156200055a57620005596200064f565b5b828202905092915050565b6000620005728262000583565b9050919050565b6000819050919050565b600073ffffffffffffffffffffffffffffffffffffffff82169050919050565b6000819050919050565b60005b83811015620005cd578082015181840152602081019050620005b0565b83811115620005dd576000848401525b50505050565b60006002820490506001821680620005fc57607f821691505b60208210811415620006135762000612620006ad565b5b50919050565b62000624826200071f565b810181811067ffffffffffffffff82111715620006465762000645620006dc565b5b80604052505050565b7f4e487b7100000000000000000000000000000000000000000000000000000000600052601160045260246000fd5b7f4e487b7100000000000000000000000000000000000000000000000000000000600052601260045260246000fd5b7f4e487b7100000000000000000000000000000000000000000000000000000000600052602260045260246000fd5b7f4e487b7100000000000000000000000000000000000000000000000000000000600052604160045260246000fd5b600080fd5b600080fd5b600080fd5b600080fd5b6000601f19601f8301169050919050565b6200073b8162000565565b81146200074757600080fd5b50565b620007558162000579565b81146200076157600080fd5b50565b6200076f81620005a3565b81146200077b57600080fd5b50565b60805160a0516141c6620007ab600039600061161f015260008181611156015261151701526141c66000f3fe608060405234801561001057600080fd5b50600436106101735760003560e01c8063a9654ad4116100de578063c2939d9711610097578063ec65d0f811610071578063ec65d0f814610400578063ec8f04e91461041c578063f2b3c80914610438578063f2fde38b1461045657610173565b8063c2939d97146103a6578063cc32d176146103c4578063dc4d5efb146103e257610173565b8063a9654ad4146102d4578063aa2bdef914610304578063aced166114610334578063b0e1c1e114610352578063b1d3c7001461036e578063b5a898ae1461038a57610173565b80635c975abb116101305780635c975abb1461024a5780635ec4bc3814610268578063715018a6146102865780638da5cb5b146102905780638dc654a2146102ae578063a4e336c3146102b857610173565b80630a944292146101785780631fc645c7146101a8578063368acb09146101c45780634a732795146101e25780635598f8cc146101fe57806358d9fa041461022e575b600080fd5b610192600480360381019061018d9190612c1b565b610472565b60405161019f9190613441565b60405180910390f35b6101c260048036038101906101bd9190612c1b565b6104a0565b005b6101cc6104fc565b6040516101d99190613645565b60405180910390f35b6101fc60048036038101906101f79190612c1b565b610502565b005b61021860048036038101906102139190612c1b565b6106e0565b6040516102259190613623565b60405180910390f35b61024860048036038101906102439190612c75565b61082e565b005b6102526108d7565b60405161025f91906133c6565b60405180910390f35b6102706108ed565b60405161027d91906133c6565b60405180910390f35b61028e61096f565b005b6102986109f7565b6040516102a591906132bf565b60405180910390f35b6102b6610a20565b005b6102d260048036038101906102cd9190612a8c565b610bff565b005b6102ee60048036038101906102e99190612c1b565b610d3e565b6040516102fb91906133c6565b60405180910390f35b61031e60048036038101906103199190612c1b565b610d5b565b60405161032b9190613441565b60405180910390f35b61033c610d87565b60405161034991906132bf565b60405180910390f35b61036c60048036038101906103679190612c1b565b610dad565b005b61038860048036038101906103839190612cb5565b610ea4565b005b6103a4600480360381019061039f9190612b93565b610f43565b005b6103ae611154565b6040516103bb91906133e1565b60405180910390f35b6103cc611178565b6040516103d99190613645565b60405180910390f35b6103ea61117e565b6040516103f79190613441565b60405180910390f35b61041a60048036038101906104159190612adf565b61120c565b005b61043660048036038101906104319190612b46565b611293565b005b61044061131e565b60405161044d9190613645565b60405180910390f35b610470600480360381019061046b9190612a32565b611324565b005b60606009468360405160200161048a93929190613265565b6040516020818303038152906040529050919050565b6104b68133600a61141c9092919063ffffffff16565b50807f98eacf4f33e6a76b9b0916f3a1f00cbfe38f5728e60c71cdec75362365c23a15336040516104e791906132bf565b60405180910390a26104f881611451565b5050565b60125481565b6000601060008381526020019081526020016000209050600115158160010160003373ffffffffffffffffffffffffffffffffffffffff1673ffffffffffffffffffffffffffffffffffffffff16815260200190815260200160002060009054906101000a900460ff161515146105ae576040517f08c379a00000000000000000000000000000000000000000000000000000000081526004016105a590613483565b60405180910390fd5b600015158160020160003373ffffffffffffffffffffffffffffffffffffffff1673ffffffffffffffffffffffffffffffffffffffff16815260200190815260200160002060009054906101000a900460ff16151514610643576040517f08c379a000000000000000000000000000000000000000000000000000000000815260040161063a90613583565b60405180910390fd5b600061064e8361167d565b9050610659836116ad565b3373ffffffffffffffffffffffffffffffffffffffff166108fc829081150290604051600060405180830381858888f1935050505015801561069f573d6000803e3d6000fd5b507f834b5fc2655a3b64cb9dfbbf39cb1b67bff9e533ab318dbb3677e4edcf9dc25d8333836040516106d393929190613689565b60405180910390a1505050565b6106e86126cd565b6106f182611722565b6040518060e00160405290816000820154815260200160018201805461071690613ae9565b80601f016020809104026020016040519081016040528092919081815260200182805461074290613ae9565b801561078f5780601f106107645761010080835404028352916020019161078f565b820191906000526020600020905b81548152906001019060200180831161077257829003601f168201915b505050505081526020016002820160009054906101000a900473ffffffffffffffffffffffffffffffffffffffff1673ffffffffffffffffffffffffffffffffffffffff1673ffffffffffffffffffffffffffffffffffffffff1681526020016003820154815260200160048201548152602001600582015481526020016006820160009054906101000a900460ff1615151515815250509050919050565b6108366109f7565b73ffffffffffffffffffffffffffffffffffffffff163373ffffffffffffffffffffffffffffffffffffffff16146108a3576040517f08c379a000000000000000000000000000000000000000000000000000000000815260040161089a90613543565b60405180910390fd5b6108b782600a61173e90919063ffffffff16565b6108d3576108d18282600a61141c9092919063ffffffff16565b505b5050565b60008060009054906101000a900460ff16905090565b6000806000905060005b610901600a611758565b811015610967573373ffffffffffffffffffffffffffffffffffffffff1661093382600a61176d90919063ffffffff16565b73ffffffffffffffffffffffffffffffffffffffff16141561095457600191505b808061095f90613b4c565b9150506108f7565b508091505090565b61097761178a565b73ffffffffffffffffffffffffffffffffffffffff166109956109f7565b73ffffffffffffffffffffffffffffffffffffffff16146109eb576040517f08c379a00000000000000000000000000000000000000000000000000000000081526004016109e290613523565b60405180910390fd5b6109f56000611792565b565b60008060019054906101000a900473ffffffffffffffffffffffffffffffffffffffff16905090565b610a286109f7565b73ffffffffffffffffffffffffffffffffffffffff163373ffffffffffffffffffffffffffffffffffffffff1614610a95576040517f08c379a0000000000000000000000000000000000000000000000000000000008152600401610a8c90613543565b60405180910390fd5b6000610a9f611857565b90508073ffffffffffffffffffffffffffffffffffffffff1663a9059cbb610ac56109f7565b8373ffffffffffffffffffffffffffffffffffffffff166370a08231306040518263ffffffff1660e01b8152600401610afe91906132bf565b60206040518083038186803b158015610b1657600080fd5b505afa158015610b2a573d6000803e3d6000fd5b505050506040513d601f19601f82011682018060405250810190610b4e9190612c48565b6040518363ffffffff1660e01b8152600401610b6b9291906132da565b602060405180830381600087803b158015610b8557600080fd5b505af1158015610b99573d6000803e3d6000fd5b505050506040513d601f19601f82011682018060405250810190610bbd9190612a5f565b610bfc576040517f08c379a0000000000000000000000000000000000000000000000000000000008152600401610bf390613503565b60405180910390fd5b50565b826007600082815260200190815260200160002060009054906101000a900473ffffffffffffffffffffffffffffffffffffffff1673ffffffffffffffffffffffffffffffffffffffff163373ffffffffffffffffffffffffffffffffffffffff1614610ca1576040517f08c379a0000000000000000000000000000000000000000000000000000000008152600401610c98906135e3565b60405180910390fd5b6007600082815260200190815260200160002060006101000a81549073ffffffffffffffffffffffffffffffffffffffff0219169055807f7cc135e0cebb02c3480ae5d74d377283180a2601f8f644edf7987b009316c63a60405160405180910390a281610d1f57610d1d83600a61188190919063ffffffff16565b505b6000610d3584600a61176d90919063ffffffff16565b90505050505050565b6000610d5482600a61173e90919063ffffffff16565b9050919050565b6060600982604051602001610d71929190613232565b6040516020818303038152906040529050919050565b600860009054906101000a900473ffffffffffffffffffffffffffffffffffffffff1681565b6000610db882611722565b90508060020160009054906101000a900473ffffffffffffffffffffffffffffffffffffffff1673ffffffffffffffffffffffffffffffffffffffff163373ffffffffffffffffffffffffffffffffffffffff1614610e4c576040517f08c379a0000000000000000000000000000000000000000000000000000000008152600401610e4390613563565b60405180910390fd5b60018160060160006101000a81548160ff0219169083151502179055507f5e6eb33a418de5dbbc17f989f7ae362cdfbb1748c5d603137c767027a354edbc82604051610e989190613645565b60405180910390a15050565b6000610eb184848461189b565b90506001151581151514610efa576040517f08c379a0000000000000000000000000000000000000000000000000000000008152600401610ef1906135a3565b60405180910390fd5b610f0484336118bb565b7f7c29733edbbbc7f83fc8c5fb3231ab4c21421e8da3e7bb05cddc0c2be2d0cf658433604051610f35929190613660565b60405180910390a150505050565b600d6000815480929190610f5690613b4c565b91905055506000600d5490506000600f600083815260200190815260200160002090508481600301819055508686826001019190610f95929190612722565b50838160040181905550828160050181905550338160020160006101000a81548173ffffffffffffffffffffffffffffffffffffffff021916908373ffffffffffffffffffffffffffffffffffffffff16021790555060008160060160006101000a81548160ff021916908315150217905550600e81908060018154018082558091505060019003906000526020600020906007020160009091909190915060008201548160000155600182018160010190805461105290613ae9565b61105d9291906127a8565b506002820160009054906101000a900473ffffffffffffffffffffffffffffffffffffffff168160020160006101000a81548173ffffffffffffffffffffffffffffffffffffffff021916908373ffffffffffffffffffffffffffffffffffffffff1602179055506003820154816003015560048201548160040155600582015481600501556006820160009054906101000a900460ff168160060160006101000a81548160ff02191690831515021790555050507f633109eec20320eded000fc1e2634211aa7e92ba3f5b15faf6dcdafca05094e48233604051611143929190613660565b60405180910390a150505050505050565b7f000000000000000000000000000000000000000000000000000000000000000081565b60115481565b6009805461118b90613ae9565b80601f01602080910402602001604051908101604052809291908181526020018280546111b790613ae9565b80156112045780601f106111d957610100808354040283529160200191611204565b820191906000526020600020905b8154815290600101906020018083116111e757829003601f168201915b505050505081565b6112146109f7565b73ffffffffffffffffffffffffffffffffffffffff163373ffffffffffffffffffffffffffffffffffffffff1614611281576040517f08c379a000000000000000000000000000000000000000000000000000000000815260040161127890613543565b60405180910390fd5b61128d84848484611a3c565b50505050565b61129b6109f7565b73ffffffffffffffffffffffffffffffffffffffff163373ffffffffffffffffffffffffffffffffffffffff1614611308576040517f08c379a00000000000000000000000000000000000000000000000000000000081526004016112ff90613543565b60405180910390fd5b818160099190611319929190612722565b505050565b6103e881565b61132c61178a565b73ffffffffffffffffffffffffffffffffffffffff1661134a6109f7565b73ffffffffffffffffffffffffffffffffffffffff16146113a0576040517f08c379a000000000000000000000000000000000000000000000000000000000815260040161139790613523565b60405180910390fd5b600073ffffffffffffffffffffffffffffffffffffffff168173ffffffffffffffffffffffffffffffffffffffff161415611410576040517f08c379a0000000000000000000000000000000000000000000000000000000008152600401611407906134a3565b60405180910390fd5b61141981611792565b50565b6000611448846000018460001b8473ffffffffffffffffffffffffffffffffffffffff1660001b611b4f565b90509392505050565b600061145b6109f7565b73ffffffffffffffffffffffffffffffffffffffff163373ffffffffffffffffffffffffffffffffffffffff16146114c8576040517f08c379a00000000000000000000000000000000000000000000000000000000081526004016114bf90613543565b60405180910390fd5b6114d06108d7565b15611510576040517f08c379a0000000000000000000000000000000000000000000000000000000008152600401611507906134e3565b60405180910390fd5b60006115447f00000000000000000000000000000000000000000000000000000000000000003063a4e336c360e01b611b8a565b90506115986040518060400160405280600381526020017f676574000000000000000000000000000000000000000000000000000000000081525061158885610d5b565b83611bbb9092919063ffffffff16565b6116176040518060400160405280600481526020017f70617468000000000000000000000000000000000000000000000000000000008152506040518060400160405280600b81526020017f6861735369676e6564557000000000000000000000000000000000000000000081525083611bbb9092919063ffffffff16565b6000611643827f0000000000000000000000000000000000000000000000000000000000000000611bee565b905080847fbe1937b7feca9c000f1f748ebba989954549c773449bbab49ab3d6f796af50d760405160405180910390a38092505050919050565b60008061168983611722565b90506000816005015482600301546116a191906137d5565b90508092505050919050565b600060106000838152602001908152602001600020905060018160020160003373ffffffffffffffffffffffffffffffffffffffff1673ffffffffffffffffffffffffffffffffffffffff16815260200190815260200160002060006101000a81548160ff0219169083151502179055505050565b6000600f60008381526020019081526020016000209050919050565b6000611750836000018360001b611c25565b905092915050565b600061176682600001611c45565b9050919050565b600061177f836000018360001b611c5a565b60001c905092915050565b600033905090565b60008060019054906101000a900473ffffffffffffffffffffffffffffffffffffffff16905081600060016101000a81548173ffffffffffffffffffffffffffffffffffffffff021916908373ffffffffffffffffffffffffffffffffffffffff1602179055508173ffffffffffffffffffffffffffffffffffffffff168173ffffffffffffffffffffffffffffffffffffffff167f8be0079c531659141344cd1fd0a4f28419497f9722a3daafe3b4186f6b6457e060405160405180910390a35050565b6000600460009054906101000a900473ffffffffffffffffffffffffffffffffffffffff16905090565b6000611893836000018360001b611cd6565b905092915050565b6000806118a785611722565b905080600401548310159150509392505050565b60006118c683611722565b9050600060106000858152602001908152602001600020905080600001548260050154101561192a576040517f08c379a000000000000000000000000000000000000000000000000000000000815260040161192190613603565b60405180910390fd5b600015158260060160009054906101000a900460ff16151514611982576040517f08c379a000000000000000000000000000000000000000000000000000000000815260040161197990613463565b60405180910390fd5b60018160010160008573ffffffffffffffffffffffffffffffffffffffff1673ffffffffffffffffffffffffffffffffffffffff16815260200190815260200160002060006101000a81548160ff02191690831515021790555060008160020160008573ffffffffffffffffffffffffffffffffffffffff1673ffffffffffffffffffffffffffffffffffffffff16815260200190815260200160002060006101000a81548160ff02191690831515021790555050505050565b60006007600086815260200190815260200160002060009054906101000a900473ffffffffffffffffffffffffffffffffffffffff1690506007600086815260200190815260200160002060006101000a81549073ffffffffffffffffffffffffffffffffffffffff0219169055847fe1fe3afa0f7f761ff0a8b89086790efd5140d2907ebd5b7ff6bfcb5e075fd4c560405160405180910390a28073ffffffffffffffffffffffffffffffffffffffff16636ee4d553868686866040518563ffffffff1660e01b8152600401611b1694939291906133fc565b600060405180830381600087803b158015611b3057600080fd5b505af1158015611b44573d6000803e3d6000fd5b505050505050505050565b60008184600201600085815260200190815260200160002081905550611b818385600001611d0f90919063ffffffff16565b90509392505050565b611b92612835565b611b9a612835565b611bb185858584611d26909392919063ffffffff16565b9150509392505050565b611bd2828460800151611dd690919063ffffffff16565b611be9818460800151611dd690919063ffffffff16565b505050565b6000611c1d600560009054906101000a900473ffffffffffffffffffffffffffffffffffffffff168484611dfb565b905092915050565b6000611c3d8284600001611ec790919063ffffffff16565b905092915050565b6000611c5382600001611ede565b9050919050565b6000808360020160008481526020019081526020016000205490506000801b81141580611c8d5750611c8c8484611c25565b5b611ccc576040517f08c379a0000000000000000000000000000000000000000000000000000000008152600401611cc3906135c3565b60405180910390fd5b8091505092915050565b600082600201600083815260200190815260200160002060009055611d078284600001611ef390919063ffffffff16565b905092915050565b6000611d1e8360000183611f0a565b905092915050565b611d2e612835565b611d3e8560800151610100611f7a565b508385600001818152505082856020019073ffffffffffffffffffffffffffffffffffffffff16908173ffffffffffffffffffffffffffffffffffffffff16815250508185604001907bffffffffffffffffffffffffffffffffffffffffffffffffffffffff191690817bffffffffffffffffffffffffffffffffffffffffffffffffffffffff191681525050849050949350505050565b611de38260038351611fe4565b611df6818361216990919063ffffffff16565b505050565b6000806006549050600181611e10919061377f565b6006819055506000634042994660e01b60008087600001513089604001518760018c6080015160000151604051602401611e51989796959493929190613303565b604051602081830303815290604052907bffffffffffffffffffffffffffffffffffffffffffffffffffffffff19166020820180517bffffffffffffffffffffffffffffffffffffffffffffffffffffffff83818316178352505050509050611ebc8683868461218b565b925050509392505050565b6000611ed6836000018361232f565b905092915050565b6000611eec82600001612352565b9050919050565b6000611f028360000183612363565b905092915050565b6000611f16838361232f565b611f6f578260000182908060018154018082558091505060019003906000526020600020016000909190919091505582600001805490508360010160008481526020019081526020016000208190555060019050611f74565b600090505b92915050565b611f826128a2565b6000602083611f919190613bc3565b14611fbd57602082611fa39190613bc3565b6020611faf91906139d1565b82611fba919061377f565b91505b81836020018181525050604051808452600081528281016020016040525082905092915050565b60178167ffffffffffffffff161161201b576120158160058460ff16901b60ff16178461247790919063ffffffff16565b50612164565b60ff8167ffffffffffffffff16116120715761204a601860058460ff16901b178461247790919063ffffffff16565b5061206b8167ffffffffffffffff166001856124979092919063ffffffff16565b50612163565b61ffff8167ffffffffffffffff16116120c8576120a1601960058460ff16901b178461247790919063ffffffff16565b506120c28167ffffffffffffffff166002856124979092919063ffffffff16565b50612162565b63ffffffff8167ffffffffffffffff1611612121576120fa601a60058460ff16901b178461247790919063ffffffff16565b5061211b8167ffffffffffffffff166004856124979092919063ffffffff16565b50612161565b61213e601b60058460ff16901b178461247790919063ffffffff16565b5061215f8167ffffffffffffffff166008856124979092919063ffffffff16565b505b5b5b5b505050565b6121716128a2565b612183838460000151518485516124b9565b905092915050565b600030846040516020016121a0929190613206565b604051602081830303815290604052805190602001209050846007600083815260200190815260200160002060006101000a81548173ffffffffffffffffffffffffffffffffffffffff021916908373ffffffffffffffffffffffffffffffffffffffff160217905550807fb5e6e01e79f91267dc17b4e6314d5d4d03593d2ceee0fbb452b750bd70ea5af960405160405180910390a2600460009054906101000a900473ffffffffffffffffffffffffffffffffffffffff1673ffffffffffffffffffffffffffffffffffffffff16634000aea08685856040518463ffffffff1660e01b815260040161229693929190613388565b602060405180830381600087803b1580156122b057600080fd5b505af11580156122c4573d6000803e3d6000fd5b505050506040513d601f19601f820116820180604052508101906122e89190612a5f565b612327576040517f08c379a000000000000000000000000000000000000000000000000000000000815260040161231e906134c3565b60405180910390fd5b949350505050565b600080836001016000848152602001908152602001600020541415905092915050565b600081600001805490509050919050565b6000808360010160008481526020019081526020016000205490506000811461246b57600060018261239591906139d1565b90506000600186600001805490506123ad91906139d1565b905081811461241c5760008660000182815481106123ce576123cd613cb0565b5b90600052602060002001549050808760000184815481106123f2576123f1613cb0565b5b90600052602060002001819055508387600101600083815260200190815260200160002081905550505b856000018054806124305761242f613c81565b5b600190038181906000526020600020016000905590558560010160008681526020019081526020016000206000905560019350505050612471565b60009150505b92915050565b61247f6128a2565b61248f83846000015151846125a8565b905092915050565b61249f6128a2565b6124b08485600001515185856125ff565b90509392505050565b6124c16128a2565b82518211156124cf57600080fd5b846020015182856124e0919061377f565b11156125155761251485600261250588602001518887612500919061377f565b61268d565b61250f9190613977565b6126a9565b5b6000808651805187602083010193508088870111156125345787860182525b60208701925050505b6020841061257b5780518252602082612556919061377f565b9150602081612565919061377f565b905060208461257491906139d1565b935061253d565b60006001856020036101000a03905080198251168184511681811785525050508692505050949350505050565b6125b06128a2565b836020015183106125d6576125d584600286602001516125d09190613977565b6126a9565b5b83518051602085830101848153818614156125f2576001820183525b5050508390509392505050565b6126076128a2565b84602001518483612618919061377f565b11156126405761263f8560028685612630919061377f565b61263a9190613977565b6126a9565b5b60006001836101006126529190613859565b61265c91906139d1565b9050855183868201018583198251161781528151858801111561267f5784870182525b505085915050949350505050565b60008183111561269f578290506126a3565b8190505b92915050565b6000826000015190506126bc8383611f7a565b506126c78382612169565b50505050565b6040518060e001604052806000815260200160608152602001600073ffffffffffffffffffffffffffffffffffffffff1681526020016000815260200160008152602001600081526020016000151581525090565b82805461272e90613ae9565b90600052602060002090601f0160209004810192826127505760008555612797565b82601f1061276957803560ff1916838001178555612797565b82800160010185558215612797579182015b8281111561279657823582559160200191906001019061277b565b5b5090506127a491906128bc565b5090565b8280546127b490613ae9565b90600052602060002090601f0160209004810192826127d65760008555612824565b82601f106127e75780548555612824565b8280016001018555821561282457600052602060002091601f016020900482015b82811115612823578254825591600101919060010190612808565b5b50905061283191906128bc565b5090565b6040518060a0016040528060008019168152602001600073ffffffffffffffffffffffffffffffffffffffff16815260200160007bffffffffffffffffffffffffffffffffffffffffffffffffffffffff191681526020016000815260200161289c6128a2565b81525090565b604051806040016040528060608152602001600081525090565b5b808211156128d55760008160009055506001016128bd565b5090565b60006128ec6128e7846136e5565b6136c0565b90508281526020810184848401111561290857612907613d1d565b5b612913848285613aa7565b509392505050565b60008135905061292a8161411d565b92915050565b60008135905061293f81614134565b92915050565b60008151905061295481614134565b92915050565b6000813590506129698161414b565b92915050565b60008135905061297e81614162565b92915050565b60008083601f84011261299a57612999613d13565b5b8235905067ffffffffffffffff8111156129b7576129b6613d0e565b5b6020830191508360018202830111156129d3576129d2613d18565b5b9250929050565b600082601f8301126129ef576129ee613d13565b5b81356129ff8482602086016128d9565b91505092915050565b600081359050612a1781614179565b92915050565b600081519050612a2c81614179565b92915050565b600060208284031215612a4857612a47613d27565b5b6000612a568482850161291b565b91505092915050565b600060208284031215612a7557612a74613d27565b5b6000612a8384828501612945565b91505092915050565b600080600060608486031215612aa557612aa4613d27565b5b6000612ab38682870161295a565b9350506020612ac486828701612a08565b9250506040612ad586828701612930565b9150509250925092565b60008060008060808587031215612af957612af8613d27565b5b6000612b078782880161295a565b9450506020612b1887828801612a08565b9350506040612b298782880161296f565b9250506060612b3a87828801612a08565b91505092959194509250565b60008060208385031215612b5d57612b5c613d27565b5b600083013567ffffffffffffffff811115612b7b57612b7a613d22565b5b612b8785828601612984565b92509250509250929050565b600080600080600060808688031215612baf57612bae613d27565b5b600086013567ffffffffffffffff811115612bcd57612bcc613d22565b5b612bd988828901612984565b95509550506020612bec88828901612a08565b9350506040612bfd88828901612a08565b9250506060612c0e88828901612a08565b9150509295509295909350565b600060208284031215612c3157612c30613d27565b5b6000612c3f84828501612a08565b91505092915050565b600060208284031215612c5e57612c5d613d27565b5b6000612c6c84828501612a1d565b91505092915050565b60008060408385031215612c8c57612c8b613d27565b5b6000612c9a85828601612a08565b9250506020612cab8582860161291b565b9150509250929050565b600080600060608486031215612cce57612ccd613d27565b5b6000612cdc86828701612a08565b935050602084013567ffffffffffffffff811115612cfd57612cfc613d22565b5b612d09868287016129da565b9250506040612d1a86828701612a08565b9150509250925092565b612d2d81613a05565b82525050565b612d3c81613a05565b82525050565b612d4b81613a17565b82525050565b612d5a81613a17565b82525050565b612d6981613a23565b82525050565b612d7881613a2d565b82525050565b6000612d898261372b565b612d938185613741565b9350612da3818560208601613ab6565b612dac81613d2c565b840191505092915050565b612dc8612dc382613a83565b613b95565b82525050565b6000612dd982613736565b612de38185613752565b9350612df3818560208601613ab6565b612dfc81613d2c565b840191505092915050565b6000612e1282613736565b612e1c8185613763565b9350612e2c818560208601613ab6565b612e3581613d2c565b840191505092915050565b60008154612e4d81613ae9565b612e578186613774565b94506001821660008114612e725760018114612e8357612eb6565b60ff19831686528186019350612eb6565b612e8c85613716565b60005b83811015612eae57815481890152600182019150602081019050612e8f565b838801955050505b50505092915050565b6000612ecc601283613763565b9150612ed782613d57565b602082019050919050565b6000612eef602e83613763565b9150612efa82613d80565b604082019050919050565b6000612f12602683613763565b9150612f1d82613dcf565b604082019050919050565b6000612f35602383613763565b9150612f4082613e1e565b604082019050919050565b6000612f58600783613774565b9150612f6382613e6d565b600782019050919050565b6000612f7b601083613763565b9150612f8682613e96565b602082019050919050565b6000612f9e601283613763565b9150612fa982613ebf565b602082019050919050565b6000612fc1602083613763565b9150612fcc82613ee8565b602082019050919050565b6000612fe4601783613763565b9150612fef82613f11565b602082019050919050565b6000613007602083613763565b915061301282613f3a565b602082019050919050565b600061302a601b83613763565b915061303582613f63565b602082019050919050565b600061304d603e83613763565b915061305882613f8c565b604082019050919050565b6000613070600a83613774565b915061307b82613fdb565b600a82019050919050565b6000613093601e83613763565b915061309e82614004565b602082019050919050565b60006130b6602883613763565b91506130c18261402d565b604082019050919050565b60006130d9600883613774565b91506130e48261407c565b600882019050919050565b60006130fc602283613763565b9150613107826140a5565b604082019050919050565b600061311f600883613774565b915061312a826140f4565b600882019050919050565b600060e08301600083015161314d60008601826131d1565b50602083015184820360208601526131658282612dce565b915050604083015161317a6040860182612d24565b50606083015161318d60608601826131d1565b5060808301516131a060808601826131d1565b5060a08301516131b360a08601826131d1565b5060c08301516131c660c0860182612d42565b508091505092915050565b6131da81613a79565b82525050565b6131e981613a79565b82525050565b6132006131fb82613a79565b613bb9565b82525050565b60006132128285612db7565b60148201915061322282846131ef565b6020820191508190509392505050565b600061323e8285612e40565b915061324982612f4b565b915061325582846131ef565b6020820191508190509392505050565b60006132718286612e40565b915061327c826130cc565b915061328882856131ef565b60208201915061329782613063565b91506132a382846131ef565b6020820191506132b282613112565b9150819050949350505050565b60006020820190506132d46000830184612d33565b92915050565b60006040820190506132ef6000830185612d33565b6132fc60208301846131e0565b9392505050565b600061010082019050613319600083018b612d33565b613326602083018a6131e0565b6133336040830189612d60565b6133406060830188612d33565b61334d6080830187612d6f565b61335a60a08301866131e0565b61336760c08301856131e0565b81810360e08301526133798184612d7e565b90509998505050505050505050565b600060608201905061339d6000830186612d33565b6133aa60208301856131e0565b81810360408301526133bc8184612d7e565b9050949350505050565b60006020820190506133db6000830184612d51565b92915050565b60006020820190506133f66000830184612d60565b92915050565b60006080820190506134116000830187612d60565b61341e60208301866131e0565b61342b6040830185612d6f565b61343860608301846131e0565b95945050505050565b6000602082019050818103600083015261345b8184612e07565b905092915050565b6000602082019050818103600083015261347c81612ebf565b9050919050565b6000602082019050818103600083015261349c81612ee2565b9050919050565b600060208201905081810360008301526134bc81612f05565b9050919050565b600060208201905081810360008301526134dc81612f28565b9050919050565b600060208201905081810360008301526134fc81612f6e565b9050919050565b6000602082019050818103600083015261351c81612f91565b9050919050565b6000602082019050818103600083015261353c81612fb4565b9050919050565b6000602082019050818103600083015261355c81612fd7565b9050919050565b6000602082019050818103600083015261357c81612ffa565b9050919050565b6000602082019050818103600083015261359c8161301d565b9050919050565b600060208201905081810360008301526135bc81613040565b9050919050565b600060208201905081810360008301526135dc81613086565b9050919050565b600060208201905081810360008301526135fc816130a9565b9050919050565b6000602082019050818103600083015261361c816130ef565b9050919050565b6000602082019050818103600083015261363d8184613135565b905092915050565b600060208201905061365a60008301846131e0565b92915050565b600060408201905061367560008301856131e0565b6136826020830184612d33565b9392505050565b600060608201905061369e60008301866131e0565b6136ab6020830185612d33565b6136b860408301846131e0565b949350505050565b60006136ca6136db565b90506136d68282613b1b565b919050565b6000604051905090565b600067ffffffffffffffff821115613700576136ff613cdf565b5b61370982613d2c565b9050602081019050919050565b60008190508160005260206000209050919050565b600081519050919050565b600081519050919050565b600082825260208201905092915050565b600082825260208201905092915050565b600082825260208201905092915050565b600081905092915050565b600061378a82613a79565b915061379583613a79565b9250827fffffffffffffffffffffffffffffffffffffffffffffffffffffffffffffffff038211156137ca576137c9613bf4565b5b828201905092915050565b60006137e082613a79565b91506137eb83613a79565b9250826137fb576137fa613c23565b5b828204905092915050565b6000808291508390505b60018511156138505780860481111561382c5761382b613bf4565b5b600185161561383b5780820291505b808102905061384985613d4a565b9450613810565b94509492505050565b600061386482613a79565b915061386f83613a79565b925061389c7fffffffffffffffffffffffffffffffffffffffffffffffffffffffffffffffff84846138a4565b905092915050565b6000826138b45760019050613970565b816138c25760009050613970565b81600181146138d857600281146138e257613911565b6001915050613970565b60ff8411156138f4576138f3613bf4565b5b8360020a91508482111561390b5761390a613bf4565b5b50613970565b5060208310610133831016604e8410600b84101617156139465782820a90508381111561394157613940613bf4565b5b613970565b6139538484846001613806565b9250905081840481111561396a57613969613bf4565b5b81810290505b9392505050565b600061398282613a79565b915061398d83613a79565b9250817fffffffffffffffffffffffffffffffffffffffffffffffffffffffffffffffff04831182151516156139c6576139c5613bf4565b5b828202905092915050565b60006139dc82613a79565b91506139e783613a79565b9250828210156139fa576139f9613bf4565b5b828203905092915050565b6000613a1082613a59565b9050919050565b60008115159050919050565b6000819050919050565b60007fffffffff0000000000000000000000000000000000000000000000000000000082169050919050565b600073ffffffffffffffffffffffffffffffffffffffff82169050919050565b6000819050919050565b6000613a8e82613a95565b9050919050565b6000613aa082613a59565b9050919050565b82818337600083830152505050565b60005b83811015613ad4578082015181840152602081019050613ab9565b83811115613ae3576000848401525b50505050565b60006002820490506001821680613b0157607f821691505b60208210811415613b1557613b14613c52565b5b50919050565b613b2482613d2c565b810181811067ffffffffffffffff82111715613b4357613b42613cdf565b5b80604052505050565b6000613b5782613a79565b91507fffffffffffffffffffffffffffffffffffffffffffffffffffffffffffffffff821415613b8a57613b89613bf4565b5b600182019050919050565b6000613ba082613ba7565b9050919050565b6000613bb282613d3d565b9050919050565b6000819050919050565b6000613bce82613a79565b9150613bd983613a79565b925082613be957613be8613c23565b5b828206905092915050565b7f4e487b7100000000000000000000000000000000000000000000000000000000600052601160045260246000fd5b7f4e487b7100000000000000000000000000000000000000000000000000000000600052601260045260246000fd5b7f4e487b7100000000000000000000000000000000000000000000000000000000600052602260045260246000fd5b7f4e487b7100000000000000000000000000000000000000000000000000000000600052603160045260246000fd5b7f4e487b7100000000000000000000000000000000000000000000000000000000600052603260045260246000fd5b7f4e487b7100000000000000000000000000000000000000000000000000000000600052604160045260246000fd5b600080fd5b600080fd5b600080fd5b600080fd5b600080fd5b600080fd5b6000601f19601f8301169050919050565b60008160601b9050919050565b60008160011c9050919050565b7f43616d706169676e20697320636c6f7365640000000000000000000000000000600082015250565b7f43616c6c6572206973206e6f7420612076616c6964617465642063616d70616960008201527f676e20636f6e7472696275746f72000000000000000000000000000000000000602082015250565b7f4f776e61626c653a206e6577206f776e657220697320746865207a65726f206160008201527f6464726573730000000000000000000000000000000000000000000000000000602082015250565b7f756e61626c6520746f207472616e73666572416e6443616c6c20746f206f726160008201527f636c650000000000000000000000000000000000000000000000000000000000602082015250565b7f2f75736572732f00000000000000000000000000000000000000000000000000600082015250565b7f5061757361626c653a2070617573656400000000000000000000000000000000600082015250565b7f556e61626c6520746f207472616e736665720000000000000000000000000000600082015250565b7f4f776e61626c653a2063616c6c6572206973206e6f7420746865206f776e6572600082015250565b7f43616c6c6572206973206e6f74207468652061646d696e000000000000000000600082015250565b7f43616c6c6572206973206e6f74207468652063616d706169676e206f776e6572600082015250565b7f5265747269627574696f6e20616c726561647920636c61696d65640000000000600082015250565b7f5468697320636f6e747269627574696f6e20646f6573206e6f7420736174697360008201527f6679207468652063616d706169676e277320726571756972656d656e74730000602082015250565b7f2f74776974746572732f00000000000000000000000000000000000000000000600082015250565b7f456e756d657261626c654d61703a206e6f6e6578697374656e74206b65790000600082015250565b7f536f75726365206d75737420626520746865206f7261636c65206f662074686560008201527f2072657175657374000000000000000000000000000000000000000000000000602082015250565b7f2f636861696e732f000000000000000000000000000000000000000000000000600082015250565b7f436f6e7472696275746f7273206c696d697420616c726561647920726561636860008201527f6564000000000000000000000000000000000000000000000000000000000000602082015250565b7f2f77696e6e657273000000000000000000000000000000000000000000000000600082015250565b61412681613a05565b811461413157600080fd5b50565b61413d81613a17565b811461414857600080fd5b50565b61415481613a23565b811461415f57600080fd5b50565b61416b81613a2d565b811461417657600080fd5b50565b61418281613a79565b811461418d57600080fd5b5056fea2646970667358221220dc85cead4b73d74ca463bf01c638beb93abeddccb8a4c886ce10bf4692d95abf64736f6c63430008060033",
  "linkReferences": {},
  "deployedLinkReferences": {}
}