{
  "_format": "hh-sol-artifact-1",
  "contractName": "VRFV2Wrapper",
  "sourceName": "@chainlink/contracts/src/v0.8/VRFV2Wrapper.sol",
  "abi": [
    {
      "inputs": [
        {
          "internalType": "address",
          "name": "_link",
          "type": "address"
        },
        {
          "internalType": "address",
          "name": "_linkEthFeed",
          "type": "address"
        },
        {
          "internalType": "address",
          "name": "_coordinator",
          "type": "address"
        }
      ],
      "stateMutability": "nonpayable",
      "type": "constructor"
    },
    {
      "inputs": [
        {
          "internalType": "address",
          "name": "have",
          "type": "address"
        },
        {
          "internalType": "address",
          "name": "want",
          "type": "address"
        }
      ],
      "name": "OnlyCoordinatorCanFulfill",
      "type": "error"
    },
    {
      "anonymous": false,
      "inputs": [
        {
          "indexed": true,
          "internalType": "address",
          "name": "from",
          "type": "address"
        },
        {
          "indexed": true,
          "internalType": "address",
          "name": "to",
          "type": "address"
        }
      ],
      "name": "OwnershipTransferRequested",
      "type": "event"
    },
    {
      "anonymous": false,
      "inputs": [
        {
          "indexed": true,
          "internalType": "address",
          "name": "from",
          "type": "address"
        },
        {
          "indexed": true,
          "internalType": "address",
          "name": "to",
          "type": "address"
        }
      ],
      "name": "OwnershipTransferred",
      "type": "event"
    },
    {
      "anonymous": false,
      "inputs": [
        {
          "indexed": true,
          "internalType": "uint256",
          "name": "requestId",
          "type": "uint256"
        },
        {
          "indexed": true,
          "internalType": "address",
          "name": "consumer",
          "type": "address"
        }
      ],
      "name": "WrapperFulfillmentFailed",
      "type": "event"
    },
    {
      "inputs": [],
      "name": "COORDINATOR",
      "outputs": [
        {
          "internalType": "contract ExtendedVRFCoordinatorV2Interface",
          "name": "",
          "type": "address"
        }
      ],
      "stateMutability": "view",
      "type": "function"
    },
    {
      "inputs": [],
      "name": "LINK",
      "outputs": [
        {
          "internalType": "contract LinkTokenInterface",
          "name": "",
          "type": "address"
        }
      ],
      "stateMutability": "view",
      "type": "function"
    },
    {
      "inputs": [],
      "name": "LINK_ETH_FEED",
      "outputs": [
        {
          "internalType": "contract AggregatorV3Interface",
          "name": "",
          "type": "address"
        }
      ],
      "stateMutability": "view",
      "type": "function"
    },
    {
      "inputs": [],
      "name": "SUBSCRIPTION_ID",
      "outputs": [
        {
          "internalType": "uint64",
          "name": "",
          "type": "uint64"
        }
      ],
      "stateMutability": "view",
      "type": "function"
    },
    {
      "inputs": [],
      "name": "acceptOwnership",
      "outputs": [],
      "stateMutability": "nonpayable",
      "type": "function"
    },
    {
      "inputs": [
        {
          "internalType": "uint32",
          "name": "_callbackGasLimit",
          "type": "uint32"
        }
      ],
      "name": "calculateRequestPrice",
      "outputs": [
        {
          "internalType": "uint256",
          "name": "",
          "type": "uint256"
        }
      ],
      "stateMutability": "view",
      "type": "function"
    },
    {
      "inputs": [],
      "name": "disable",
      "outputs": [],
      "stateMutability": "nonpayable",
      "type": "function"
    },
    {
      "inputs": [],
      "name": "enable",
      "outputs": [],
      "stateMutability": "nonpayable",
      "type": "function"
    },
    {
      "inputs": [
        {
          "internalType": "uint32",
          "name": "_callbackGasLimit",
          "type": "uint32"
        },
        {
          "internalType": "uint256",
          "name": "_requestGasPriceWei",
          "type": "uint256"
        }
      ],
      "name": "estimateRequestPrice",
      "outputs": [
        {
          "internalType": "uint256",
          "name": "",
          "type": "uint256"
        }
      ],
      "stateMutability": "view",
      "type": "function"
    },
    {
      "inputs": [],
      "name": "getConfig",
      "outputs": [
        {
          "internalType": "int256",
          "name": "fallbackWeiPerUnitLink",
          "type": "int256"
        },
        {
          "internalType": "uint32",
          "name": "stalenessSeconds",
          "type": "uint32"
        },
        {
          "internalType": "uint32",
          "name": "fulfillmentFlatFeeLinkPPM",
          "type": "uint32"
        },
        {
          "internalType": "uint32",
          "name": "wrapperGasOverhead",
          "type": "uint32"
        },
        {
          "internalType": "uint32",
          "name": "coordinatorGasOverhead",
          "type": "uint32"
        },
        {
          "internalType": "uint8",
          "name": "wrapperPremiumPercentage",
          "type": "uint8"
        },
        {
          "internalType": "bytes32",
          "name": "keyHash",
          "type": "bytes32"
        },
        {
          "internalType": "uint8",
          "name": "maxNumWords",
          "type": "uint8"
        }
      ],
      "stateMutability": "view",
      "type": "function"
    },
    {
      "inputs": [],
      "name": "lastRequestId",
      "outputs": [
        {
          "internalType": "uint256",
          "name": "",
          "type": "uint256"
        }
      ],
      "stateMutability": "view",
      "type": "function"
    },
    {
      "inputs": [
        {
          "internalType": "address",
          "name": "_sender",
          "type": "address"
        },
        {
          "internalType": "uint256",
          "name": "_amount",
          "type": "uint256"
        },
        {
          "internalType": "bytes",
          "name": "_data",
          "type": "bytes"
        }
      ],
      "name": "onTokenTransfer",
      "outputs": [],
      "stateMutability": "nonpayable",
      "type": "function"
    },
    {
      "inputs": [],
      "name": "owner",
      "outputs": [
        {
          "internalType": "address",
          "name": "",
          "type": "address"
        }
      ],
      "stateMutability": "view",
      "type": "function"
    },
    {
      "inputs": [
        {
          "internalType": "uint256",
          "name": "requestId",
          "type": "uint256"
        },
        {
          "internalType": "uint256[]",
          "name": "randomWords",
          "type": "uint256[]"
        }
      ],
      "name": "rawFulfillRandomWords",
      "outputs": [],
      "stateMutability": "nonpayable",
      "type": "function"
    },
    {
      "inputs": [
        {
          "internalType": "uint256",
          "name": "",
          "type": "uint256"
        }
      ],
      "name": "s_callbacks",
      "outputs": [
        {
          "internalType": "address",
          "name": "callbackAddress",
          "type": "address"
        },
        {
          "internalType": "uint32",
          "name": "callbackGasLimit",
          "type": "uint32"
        },
        {
          "internalType": "uint256",
          "name": "requestGasPrice",
          "type": "uint256"
        },
        {
          "internalType": "int256",
          "name": "requestWeiPerUnitLink",
          "type": "int256"
        },
        {
          "internalType": "uint256",
          "name": "juelsPaid",
          "type": "uint256"
        }
      ],
      "stateMutability": "view",
      "type": "function"
    },
    {
      "inputs": [],
      "name": "s_configured",
      "outputs": [
        {
          "internalType": "bool",
          "name": "",
          "type": "bool"
        }
      ],
      "stateMutability": "view",
      "type": "function"
    },
    {
      "inputs": [],
      "name": "s_disabled",
      "outputs": [
        {
          "internalType": "bool",
          "name": "",
          "type": "bool"
        }
      ],
      "stateMutability": "view",
      "type": "function"
    },
    {
      "inputs": [
        {
          "internalType": "uint32",
          "name": "_wrapperGasOverhead",
          "type": "uint32"
        },
        {
          "internalType": "uint32",
          "name": "_coordinatorGasOverhead",
          "type": "uint32"
        },
        {
          "internalType": "uint8",
          "name": "_wrapperPremiumPercentage",
          "type": "uint8"
        },
        {
          "internalType": "bytes32",
          "name": "_keyHash",
          "type": "bytes32"
        },
        {
          "internalType": "uint8",
          "name": "_maxNumWords",
          "type": "uint8"
        }
      ],
      "name": "setConfig",
      "outputs": [],
      "stateMutability": "nonpayable",
      "type": "function"
    },
    {
      "inputs": [
        {
          "internalType": "address",
          "name": "to",
          "type": "address"
        }
      ],
      "name": "transferOwnership",
      "outputs": [],
      "stateMutability": "nonpayable",
      "type": "function"
    },
    {
      "inputs": [],
      "name": "typeAndVersion",
      "outputs": [
        {
          "internalType": "string",
          "name": "",
          "type": "string"
        }
      ],
      "stateMutability": "pure",
      "type": "function"
    },
    {
      "inputs": [
        {
          "internalType": "address",
          "name": "_recipient",
          "type": "address"
        },
        {
          "internalType": "uint256",
          "name": "_amount",
          "type": "uint256"
        }
      ],
      "name": "withdraw",
      "outputs": [],
      "stateMutability": "nonpayable",
      "type": "function"
    }
  ],
  "bytecode": "0x6101206040523480156200001257600080fd5b50604051620034b4380380620034b4833981810160405281019062000038919062000497565b80338060008073ffffffffffffffffffffffffffffffffffffffff168273ffffffffffffffffffffffffffffffffffffffff161415620000af576040517f08c379a0000000000000000000000000000000000000000000000000000000008152600401620000a69062000595565b60405180910390fd5b816000806101000a81548173ffffffffffffffffffffffffffffffffffffffff021916908373ffffffffffffffffffffffffffffffffffffffff160217905550600073ffffffffffffffffffffffffffffffffffffffff168173ffffffffffffffffffffffffffffffffffffffff1614620001365762000135816200033960201b60201c565b5b5050508073ffffffffffffffffffffffffffffffffffffffff1660808173ffffffffffffffffffffffffffffffffffffffff1660601b81525050508273ffffffffffffffffffffffffffffffffffffffff1660a08173ffffffffffffffffffffffffffffffffffffffff1660601b815250508173ffffffffffffffffffffffffffffffffffffffff1660c08173ffffffffffffffffffffffffffffffffffffffff1660601b815250508073ffffffffffffffffffffffffffffffffffffffff1660e08173ffffffffffffffffffffffffffffffffffffffff1660601b8152505060008173ffffffffffffffffffffffffffffffffffffffff1663a21a23e46040518163ffffffff1660e01b8152600401602060405180830381600087803b1580156200026157600080fd5b505af115801562000276573d6000803e3d6000fd5b505050506040513d601f19601f820116820180604052508101906200029c9190620004f3565b90508067ffffffffffffffff166101008167ffffffffffffffff1660c01b815250508173ffffffffffffffffffffffffffffffffffffffff16637341c10c82306040518363ffffffff1660e01b8152600401620002fb929190620005d9565b600060405180830381600087803b1580156200031657600080fd5b505af11580156200032b573d6000803e3d6000fd5b5050505050505050620006ea565b3373ffffffffffffffffffffffffffffffffffffffff168173ffffffffffffffffffffffffffffffffffffffff161415620003ab576040517f08c379a0000000000000000000000000000000000000000000000000000000008152600401620003a290620005b7565b60405180910390fd5b80600160006101000a81548173ffffffffffffffffffffffffffffffffffffffff021916908373ffffffffffffffffffffffffffffffffffffffff1602179055508073ffffffffffffffffffffffffffffffffffffffff1660008054906101000a900473ffffffffffffffffffffffffffffffffffffffff1673ffffffffffffffffffffffffffffffffffffffff167fed8889f560326eb138920d842192f0eb3dd22b4f139c87a2c57538e05bae127860405160405180910390a350565b6000815190506200047a81620006b6565b92915050565b6000815190506200049181620006d0565b92915050565b600080600060608486031215620004b357620004b26200065f565b5b6000620004c38682870162000469565b9350506020620004d68682870162000469565b9250506040620004e98682870162000469565b9150509250925092565b6000602082840312156200050c576200050b6200065f565b5b60006200051c8482850162000480565b91505092915050565b620005308162000617565b82525050565b60006200054560188362000606565b9150620005528262000664565b602082019050919050565b60006200056c60178362000606565b915062000579826200068d565b602082019050919050565b6200058f816200064b565b82525050565b60006020820190508181036000830152620005b08162000536565b9050919050565b60006020820190508181036000830152620005d2816200055d565b9050919050565b6000604082019050620005f0600083018562000584565b620005ff602083018462000525565b9392505050565b600082825260208201905092915050565b600062000624826200062b565b9050919050565b600073ffffffffffffffffffffffffffffffffffffffff82169050919050565b600067ffffffffffffffff82169050919050565b600080fd5b7f43616e6e6f7420736574206f776e657220746f207a65726f0000000000000000600082015250565b7f43616e6e6f74207472616e7366657220746f2073656c66000000000000000000600082015250565b620006c18162000617565b8114620006cd57600080fd5b50565b620006db816200064b565b8114620006e757600080fd5b50565b60805160601c60a05160601c60c05160601c60e05160601c6101005160c01c612d376200077d600039600081816103af0152610b6d01526000818161051901528181610b2e01528181610df301528181610ebd0152610f61015260008181610d2d01526114fb015260008181610410015281816109c5015261110301526000818161043401526104880152612d376000f3fe608060405234801561001057600080fd5b50600436106101375760003560e01c80637fb5d19d116100b8578063ad1783611161007c578063ad178361146102f8578063c15ce4d714610316578063c3f909d414610332578063f2fde38b14610357578063f3fef3a314610373578063fc2a88c31461038f57610137565b80637fb5d19d146102665780638da5cb5b14610296578063a3907d71146102b4578063a4c0ed36146102be578063a608a1e1146102da57610137565b80633b2bcbf1116100ff5780633b2bcbf1146101bc5780634306d354146101da57806348baa1c51461020a57806357a8070a1461023e57806379ba50971461025c57610137565b8063030932bb1461013c578063181f5a771461015a5780631b6b6d23146101785780631fe543e3146101965780632f2770db146101b2575b600080fd5b6101446103ad565b60405161015191906125f3565b60405180910390f35b6101626103d1565b60405161016f9190612446565b60405180910390f35b61018061040e565b60405161018d91906123ad565b60405180910390f35b6101b060048036038101906101ab9190611c9d565b610432565b005b6101ba6104f2565b005b6101c4610517565b6040516101d19190612392565b60405180910390f35b6101f460048036038101906101ef9190611cf9565b61053b565b60405161020191906125a8565b60405180910390f35b610224600480360381019061021f9190611c43565b610601565b6040516102359594939291906122b6565b60405180910390f35b610246610667565b6040516102539190612309565b60405180910390f35b61026461067a565b005b610280600480360381019061027b9190611d79565b61080f565b60405161028d91906125a8565b60405180910390f35b61029e6108d6565b6040516102ab9190612249565b60405180910390f35b6102bc6108ff565b005b6102d860048036038101906102d39190611b0e565b610924565b005b6102e2610d18565b6040516102ef9190612309565b60405180910390f35b610300610d2b565b60405161030d9190612377565b60405180910390f35b610330600480360381019061032b9190611e83565b610d4f565b005b61033a61104d565b60405161034e9897969594939291906123c8565b60405180910390f35b610371600480360381019061036c9190611aa1565b6110e5565b005b61038d60048036038101906103889190611ace565b6110f9565b005b6103976111b3565b6040516103a491906125a8565b60405180910390f35b7f000000000000000000000000000000000000000000000000000000000000000081565b60606040518060400160405280601281526020017f56524656325772617070657220312e302e300000000000000000000000000000815250905090565b7f000000000000000000000000000000000000000000000000000000000000000081565b7f000000000000000000000000000000000000000000000000000000000000000073ffffffffffffffffffffffffffffffffffffffff163373ffffffffffffffffffffffffffffffffffffffff16146104e457337f00000000000000000000000000000000000000000000000000000000000000006040517f1cf993f40000000000000000000000000000000000000000000000000000000081526004016104db929190612264565b60405180910390fd5b6104ee82826111b9565b5050565b6104fa611445565b6001600360016101000a81548160ff021916908315150217905550565b7f000000000000000000000000000000000000000000000000000000000000000081565b6000600360009054906101000a900460ff1661058c576040517f08c379a000000000000000000000000000000000000000000000000000000000815260040161058390612488565b60405180910390fd5b600360019054906101000a900460ff16156105dc576040517f08c379a00000000000000000000000000000000000000000000000000000000081526004016105d390612588565b60405180910390fd5b60006105e66114d5565b90506105f98363ffffffff163a8361162f565b915050919050565b60086020528060005260406000206000915090508060000160009054906101000a900473ffffffffffffffffffffffffffffffffffffffff16908060000160149054906101000a900463ffffffff16908060010154908060020154908060030154905085565b600360009054906101000a900460ff1681565b600160009054906101000a900473ffffffffffffffffffffffffffffffffffffffff1673ffffffffffffffffffffffffffffffffffffffff163373ffffffffffffffffffffffffffffffffffffffff161461070a576040517f08c379a0000000000000000000000000000000000000000000000000000000008152600401610701906124a8565b60405180910390fd5b60008060009054906101000a900473ffffffffffffffffffffffffffffffffffffffff169050336000806101000a81548173ffffffffffffffffffffffffffffffffffffffff021916908373ffffffffffffffffffffffffffffffffffffffff1602179055506000600160006101000a81548173ffffffffffffffffffffffffffffffffffffffff021916908373ffffffffffffffffffffffffffffffffffffffff1602179055503373ffffffffffffffffffffffffffffffffffffffff168173ffffffffffffffffffffffffffffffffffffffff167f8be0079c531659141344cd1fd0a4f28419497f9722a3daafe3b4186f6b6457e060405160405180910390a350565b6000600360009054906101000a900460ff16610860576040517f08c379a000000000000000000000000000000000000000000000000000000000815260040161085790612488565b60405180910390fd5b600360019054906101000a900460ff16156108b0576040517f08c379a00000000000000000000000000000000000000000000000000000000081526004016108a790612588565b60405180910390fd5b60006108ba6114d5565b90506108cd8463ffffffff16848361162f565b91505092915050565b60008060009054906101000a900473ffffffffffffffffffffffffffffffffffffffff16905090565b610907611445565b6000600360016101000a81548160ff021916908315150217905550565b600360009054906101000a900460ff16610973576040517f08c379a000000000000000000000000000000000000000000000000000000000815260040161096a90612488565b60405180910390fd5b600360019054906101000a900460ff16156109c3576040517f08c379a00000000000000000000000000000000000000000000000000000000081526004016109ba90612588565b60405180910390fd5b7f000000000000000000000000000000000000000000000000000000000000000073ffffffffffffffffffffffffffffffffffffffff163373ffffffffffffffffffffffffffffffffffffffff1614610a51576040517f08c379a0000000000000000000000000000000000000000000000000000000008152600401610a4890612548565b60405180910390fd5b60008060008484810190610a659190611d26565b9250925092506000610a756114d5565b90506000610a8a8563ffffffff163a8461162f565b905080881015610acf576040517f08c379a0000000000000000000000000000000000000000000000000000000008152600401610ac690612508565b60405180910390fd5b600760009054906101000a900460ff1660ff168363ffffffff161115610b2a576040517f08c379a0000000000000000000000000000000000000000000000000000000008152600401610b2190612568565b60405180910390fd5b60007f000000000000000000000000000000000000000000000000000000000000000073ffffffffffffffffffffffffffffffffffffffff16635d3b1d306006547f000000000000000000000000000000000000000000000000000000000000000088600560089054906101000a900463ffffffff168b610bab919061270a565b896040518663ffffffff1660e01b8152600401610bcc959493929190612324565b602060405180830381600087803b158015610be657600080fd5b505af1158015610bfa573d6000803e3d6000fd5b505050506040513d601f19601f82011682018060405250810190610c1e9190611c70565b90506040518060a001604052808b73ffffffffffffffffffffffffffffffffffffffff1681526020018763ffffffff1681526020013a81526020018481526020018a8152506008600083815260200190815260200160002060008201518160000160006101000a81548173ffffffffffffffffffffffffffffffffffffffff021916908373ffffffffffffffffffffffffffffffffffffffff16021790555060208201518160000160146101000a81548163ffffffff021916908363ffffffff1602179055506040820151816001015560608201518160020155608082015181600301559050508060028190555050505050505050505050565b600360019054906101000a900460ff1681565b7f000000000000000000000000000000000000000000000000000000000000000081565b610d57611445565b84600560086101000a81548163ffffffff021916908363ffffffff160217905550836005600c6101000a81548163ffffffff021916908363ffffffff16021790555082600560106101000a81548160ff021916908360ff1602179055508160068190555080600760006101000a81548160ff021916908360ff1602179055506001600360006101000a81548160ff0219169083151502179055507f000000000000000000000000000000000000000000000000000000000000000073ffffffffffffffffffffffffffffffffffffffff1663c3f909d46040518163ffffffff1660e01b815260040160806040518083038186803b158015610e5757600080fd5b505afa158015610e6b573d6000803e3d6000fd5b505050506040513d601f19601f82011682018060405250810190610e8f9190611bdc565b9091925090915050600560008291906101000a81548163ffffffff021916908363ffffffff160217905550507f000000000000000000000000000000000000000000000000000000000000000073ffffffffffffffffffffffffffffffffffffffff1663356dac716040518163ffffffff1660e01b815260040160206040518083038186803b158015610f2157600080fd5b505afa158015610f35573d6000803e3d6000fd5b505050506040513d601f19601f82011682018060405250810190610f599190611baf565b6004819055507f000000000000000000000000000000000000000000000000000000000000000073ffffffffffffffffffffffffffffffffffffffff16635fbbc0d26040518163ffffffff1660e01b81526004016101206040518083038186803b158015610fc657600080fd5b505afa158015610fda573d6000803e3d6000fd5b505050506040513d601f19601f82011682018060405250810190610ffe9190611db9565b909192939495965090919293949550909192939450909192935090919250909150905050600560048291906101000a81548163ffffffff021916908363ffffffff160217905550505050505050565b600080600080600080600080600454600560009054906101000a900463ffffffff16600560049054906101000a900463ffffffff16600560089054906101000a900463ffffffff166005600c9054906101000a900463ffffffff16600560109054906101000a900460ff16600654600760009054906101000a900460ff16975097509750975097509750975097509091929394959697565b6110ed611445565b6110f681611722565b50565b611101611445565b7f000000000000000000000000000000000000000000000000000000000000000073ffffffffffffffffffffffffffffffffffffffff1663a9059cbb83836040518363ffffffff1660e01b815260040161115c92919061228d565b602060405180830381600087803b15801561117657600080fd5b505af115801561118a573d6000803e3d6000fd5b505050506040513d601f19601f820116820180604052508101906111ae9190611b82565b505050565b60025481565b6000600860008481526020019081526020016000206040518060a00160405290816000820160009054906101000a900473ffffffffffffffffffffffffffffffffffffffff1673ffffffffffffffffffffffffffffffffffffffff1673ffffffffffffffffffffffffffffffffffffffff1681526020016000820160149054906101000a900463ffffffff1663ffffffff1663ffffffff1681526020016001820154815260200160028201548152602001600382015481525050905060086000848152602001908152602001600020600080820160006101000a81549073ffffffffffffffffffffffffffffffffffffffff02191690556000820160146101000a81549063ffffffff02191690556001820160009055600282016000905560038201600090555050600073ffffffffffffffffffffffffffffffffffffffff16816000015173ffffffffffffffffffffffffffffffffffffffff161415611355576040517f08c379a000000000000000000000000000000000000000000000000000000000815260040161134c90612468565b60405180910390fd5b600080631fe543e360e01b85856040516024016113739291906125c3565b604051602081830303815290604052907bffffffffffffffffffffffffffffffffffffffffffffffffffffffff19166020820180517bffffffffffffffffffffffffffffffffffffffffffffffffffffffff8381831617835250505050905060006113ed846020015163ffffffff1685600001518461184f565b90508061143d57836000015173ffffffffffffffffffffffffffffffffffffffff16867fc551b83c151f2d1c7eeb938ac59008e0409f1c1dc1e2f112449d4d79b458902260405160405180910390a35b505050505050565b60008054906101000a900473ffffffffffffffffffffffffffffffffffffffff1673ffffffffffffffffffffffffffffffffffffffff163373ffffffffffffffffffffffffffffffffffffffff16146114d3576040517f08c379a00000000000000000000000000000000000000000000000000000000081526004016114ca906124c8565b60405180910390fd5b565b6000806000600560009054906101000a900463ffffffff1663ffffffff161190506000807f000000000000000000000000000000000000000000000000000000000000000073ffffffffffffffffffffffffffffffffffffffff1663feaf968c6040518163ffffffff1660e01b815260040160a06040518083038186803b15801561155f57600080fd5b505afa158015611573573d6000803e3d6000fd5b505050506040513d601f19601f820116820180604052508101906115979190611efe565b90919293509091505080935081925050508280156115d7575081426115bc9190612806565b600560009054906101000a900463ffffffff1663ffffffff16105b156115e25760045490505b6000811215611626576040517f08c379a000000000000000000000000000000000000000000000000000000000815260040161161d906124e8565b60405180910390fd5b80935050505090565b600080826005600c9054906101000a900463ffffffff1663ffffffff16600560089054906101000a900463ffffffff1663ffffffff168761167091906126b4565b61167a91906126b4565b85670de0b6b3a764000061168e91906127ac565b61169891906127ac565b6116a2919061277b565b90506000606480600560109054906101000a900460ff166116c39190612744565b60ff16836116d191906127ac565b6116db919061277b565b90506000600560049054906101000a900463ffffffff1663ffffffff1664e8d4a5100061170891906127ac565b8261171391906126b4565b90508093505050509392505050565b3373ffffffffffffffffffffffffffffffffffffffff168173ffffffffffffffffffffffffffffffffffffffff161415611791576040517f08c379a000000000000000000000000000000000000000000000000000000000815260040161178890612528565b60405180910390fd5b80600160006101000a81548173ffffffffffffffffffffffffffffffffffffffff021916908373ffffffffffffffffffffffffffffffffffffffff1602179055508073ffffffffffffffffffffffffffffffffffffffff1660008054906101000a900473ffffffffffffffffffffffffffffffffffffffff1673ffffffffffffffffffffffffffffffffffffffff167fed8889f560326eb138920d842192f0eb3dd22b4f139c87a2c57538e05bae127860405160405180910390a350565b60005a61138881101561186157600080fd5b61138881039050846040820482031161187957600080fd5b833b61188457600080fd5b6000808451602086016000888af19150509392505050565b60006118af6118aa84612633565b61260e565b905080838252602082019050828560208602820111156118d2576118d1612a61565b5b60005b8581101561190257816118e88882611a23565b8452602084019350602083019250506001810190506118d5565b5050509392505050565b60008135905061191b81612c1b565b92915050565b600082601f83011261193657611935612a5c565b5b813561194684826020860161189c565b91505092915050565b60008151905061195e81612c32565b92915050565b60008135905061197381612c49565b92915050565b60008083601f84011261198f5761198e612a5c565b5b8235905067ffffffffffffffff8111156119ac576119ab612a57565b5b6020830191508360018202830111156119c8576119c7612a61565b5b9250929050565b6000815190506119de81612c60565b92915050565b6000813590506119f381612c77565b92915050565b600081519050611a0881612c77565b92915050565b600081519050611a1d81612c8e565b92915050565b600081359050611a3281612ca5565b92915050565b600081519050611a4781612ca5565b92915050565b600081359050611a5c81612cbc565b92915050565b600081519050611a7181612cbc565b92915050565b600081359050611a8681612cd3565b92915050565b600081519050611a9b81612cea565b92915050565b600060208284031215611ab757611ab6612a6b565b5b6000611ac58482850161190c565b91505092915050565b60008060408385031215611ae557611ae4612a6b565b5b6000611af38582860161190c565b9250506020611b0485828601611a23565b9150509250929050565b60008060008060608587031215611b2857611b27612a6b565b5b6000611b368782880161190c565b9450506020611b4787828801611a23565b935050604085013567ffffffffffffffff811115611b6857611b67612a66565b5b611b7487828801611979565b925092505092959194509250565b600060208284031215611b9857611b97612a6b565b5b6000611ba68482850161194f565b91505092915050565b600060208284031215611bc557611bc4612a6b565b5b6000611bd3848285016119cf565b91505092915050565b60008060008060808587031215611bf657611bf5612a6b565b5b6000611c04878288016119f9565b9450506020611c1587828801611a62565b9350506040611c2687828801611a62565b9250506060611c3787828801611a62565b91505092959194509250565b600060208284031215611c5957611c58612a6b565b5b6000611c6784828501611a23565b91505092915050565b600060208284031215611c8657611c85612a6b565b5b6000611c9484828501611a38565b91505092915050565b60008060408385031215611cb457611cb3612a6b565b5b6000611cc285828601611a23565b925050602083013567ffffffffffffffff811115611ce357611ce2612a66565b5b611cef85828601611921565b9150509250929050565b600060208284031215611d0f57611d0e612a6b565b5b6000611d1d84828501611a4d565b91505092915050565b600080600060608486031215611d3f57611d3e612a6b565b5b6000611d4d86828701611a4d565b9350506020611d5e868287016119e4565b9250506040611d6f86828701611a4d565b9150509250925092565b60008060408385031215611d9057611d8f612a6b565b5b6000611d9e85828601611a4d565b9250506020611daf85828601611a23565b9150509250929050565b60008060008060008060008060006101208a8c031215611ddc57611ddb612a6b565b5b6000611dea8c828d01611a62565b9950506020611dfb8c828d01611a62565b9850506040611e0c8c828d01611a62565b9750506060611e1d8c828d01611a62565b9650506080611e2e8c828d01611a62565b95505060a0611e3f8c828d01611a0e565b94505060c0611e508c828d01611a0e565b93505060e0611e618c828d01611a0e565b925050610100611e738c828d01611a0e565b9150509295985092959850929598565b600080600080600060a08688031215611e9f57611e9e612a6b565b5b6000611ead88828901611a4d565b9550506020611ebe88828901611a4d565b9450506040611ecf88828901611a77565b9350506060611ee088828901611964565b9250506080611ef188828901611a77565b9150509295509295909350565b600080600080600060a08688031215611f1a57611f19612a6b565b5b6000611f2888828901611a8c565b9550506020611f39888289016119cf565b9450506040611f4a88828901611a38565b9350506060611f5b88828901611a38565b9250506080611f6c88828901611a8c565b9150509295509295909350565b6000611f8583836121fe565b60208301905092915050565b611f9a8161283a565b82525050565b6000611fab8261266f565b611fb58185612692565b9350611fc08361265f565b8060005b83811015611ff1578151611fd88882611f79565b9750611fe383612685565b925050600181019050611fc4565b5085935050505092915050565b6120078161284c565b82525050565b61201681612858565b82525050565b612025816128fa565b82525050565b6120348161291e565b82525050565b61204381612942565b82525050565b61205281612862565b82525050565b60006120638261267a565b61206d81856126a3565b935061207d818560208601612966565b61208681612a70565b840191505092915050565b600061209e6011836126a3565b91506120a982612a81565b602082019050919050565b60006120c16019836126a3565b91506120cc82612aaa565b602082019050919050565b60006120e46016836126a3565b91506120ef82612ad3565b602082019050919050565b60006121076016836126a3565b915061211282612afc565b602082019050919050565b600061212a6016836126a3565b915061213582612b25565b602082019050919050565b600061214d600b836126a3565b915061215882612b4e565b602082019050919050565b60006121706017836126a3565b915061217b82612b77565b602082019050919050565b60006121936017836126a3565b915061219e82612ba0565b602082019050919050565b60006121b66011836126a3565b91506121c182612bc9565b602082019050919050565b60006121d96013836126a3565b91506121e482612bf2565b602082019050919050565b6121f88161286c565b82525050565b612207816128a9565b82525050565b612216816128a9565b82525050565b612225816128b3565b82525050565b612234816128c3565b82525050565b612243816128d7565b82525050565b600060208201905061225e6000830184611f91565b92915050565b60006040820190506122796000830185611f91565b6122866020830184611f91565b9392505050565b60006040820190506122a26000830185611f91565b6122af602083018461220d565b9392505050565b600060a0820190506122cb6000830188611f91565b6122d8602083018761221c565b6122e5604083018661220d565b6122f26060830185612049565b6122ff608083018461220d565b9695505050505050565b600060208201905061231e6000830184611ffe565b92915050565b600060a082019050612339600083018861200d565b612346602083018761222b565b61235360408301866121ef565b612360606083018561221c565b61236d608083018461221c565b9695505050505050565b600060208201905061238c600083018461201c565b92915050565b60006020820190506123a7600083018461202b565b92915050565b60006020820190506123c2600083018461203a565b92915050565b6000610100820190506123de600083018b612049565b6123eb602083018a61221c565b6123f8604083018961221c565b612405606083018861221c565b612412608083018761221c565b61241f60a083018661223a565b61242c60c083018561200d565b61243960e083018461223a565b9998505050505050505050565b600060208201905081810360008301526124608184612058565b905092915050565b6000602082019050818103600083015261248181612091565b9050919050565b600060208201905081810360008301526124a1816120b4565b9050919050565b600060208201905081810360008301526124c1816120d7565b9050919050565b600060208201905081810360008301526124e1816120fa565b9050919050565b600060208201905081810360008301526125018161211d565b9050919050565b6000602082019050818103600083015261252181612140565b9050919050565b6000602082019050818103600083015261254181612163565b9050919050565b6000602082019050818103600083015261256181612186565b9050919050565b60006020820190508181036000830152612581816121a9565b9050919050565b600060208201905081810360008301526125a1816121cc565b9050919050565b60006020820190506125bd600083018461220d565b92915050565b60006040820190506125d8600083018561220d565b81810360208301526125ea8184611fa0565b90509392505050565b6000602082019050612608600083018461222b565b92915050565b6000612618612629565b90506126248282612999565b919050565b6000604051905090565b600067ffffffffffffffff82111561264e5761264d612a28565b5b602082029050602081019050919050565b6000819050602082019050919050565b600081519050919050565b600081519050919050565b6000602082019050919050565b600082825260208201905092915050565b600082825260208201905092915050565b60006126bf826128a9565b91506126ca836128a9565b9250827fffffffffffffffffffffffffffffffffffffffffffffffffffffffffffffffff038211156126ff576126fe6129ca565b5b828201905092915050565b6000612715826128b3565b9150612720836128b3565b92508263ffffffff03821115612739576127386129ca565b5b828201905092915050565b600061274f826128d7565b915061275a836128d7565b92508260ff038211156127705761276f6129ca565b5b828201905092915050565b6000612786826128a9565b9150612791836128a9565b9250826127a1576127a06129f9565b5b828204905092915050565b60006127b7826128a9565b91506127c2836128a9565b9250817fffffffffffffffffffffffffffffffffffffffffffffffffffffffffffffffff04831182151516156127fb576127fa6129ca565b5b828202905092915050565b6000612811826128a9565b915061281c836128a9565b92508282101561282f5761282e6129ca565b5b828203905092915050565b60006128458261287a565b9050919050565b60008115159050919050565b6000819050919050565b6000819050919050565b600061ffff82169050919050565b600073ffffffffffffffffffffffffffffffffffffffff82169050919050565b600062ffffff82169050919050565b6000819050919050565b600063ffffffff82169050919050565b600067ffffffffffffffff82169050919050565b600060ff82169050919050565b600069ffffffffffffffffffff82169050919050565b60006129058261290c565b9050919050565b60006129178261287a565b9050919050565b600061292982612930565b9050919050565b600061293b8261287a565b9050919050565b600061294d82612954565b9050919050565b600061295f8261287a565b9050919050565b60005b83811015612984578082015181840152602081019050612969565b83811115612993576000848401525b50505050565b6129a282612a70565b810181811067ffffffffffffffff821117156129c1576129c0612a28565b5b80604052505050565b7f4e487b7100000000000000000000000000000000000000000000000000000000600052601160045260246000fd5b7f4e487b7100000000000000000000000000000000000000000000000000000000600052601260045260246000fd5b7f4e487b7100000000000000000000000000000000000000000000000000000000600052604160045260246000fd5b600080fd5b600080fd5b600080fd5b600080fd5b600080fd5b6000601f19601f8301169050919050565b7f72657175657374206e6f7420666f756e64000000000000000000000000000000600082015250565b7f77726170706572206973206e6f7420636f6e6669677572656400000000000000600082015250565b7f4d7573742062652070726f706f736564206f776e657200000000000000000000600082015250565b7f4f6e6c792063616c6c61626c65206279206f776e657200000000000000000000600082015250565b7f496e76616c6964204c494e4b2077656920707269636500000000000000000000600082015250565b7f66656520746f6f206c6f77000000000000000000000000000000000000000000600082015250565b7f43616e6e6f74207472616e7366657220746f2073656c66000000000000000000600082015250565b7f6f6e6c792063616c6c61626c652066726f6d204c494e4b000000000000000000600082015250565b7f6e756d576f72647320746f6f2068696768000000000000000000000000000000600082015250565b7f777261707065722069732064697361626c656400000000000000000000000000600082015250565b612c248161283a565b8114612c2f57600080fd5b50565b612c3b8161284c565b8114612c4657600080fd5b50565b612c5281612858565b8114612c5d57600080fd5b50565b612c6981612862565b8114612c7457600080fd5b50565b612c808161286c565b8114612c8b57600080fd5b50565b612c978161289a565b8114612ca257600080fd5b50565b612cae816128a9565b8114612cb957600080fd5b50565b612cc5816128b3565b8114612cd057600080fd5b50565b612cdc816128d7565b8114612ce757600080fd5b50565b612cf3816128e4565b8114612cfe57600080fd5b5056fea26469706673582212200ba0db19f006f99f42cd1dea44d204dcf28321d3e671d1e4ff9b44019c03d35a64736f6c63430008060033",
  "linkReferences": {},
  "deployedLinkReferences": {}
}