{
  "_format": "hh-sol-artifact-1",
  "contractName": "FeedRegistryConsumer",
  "sourceName": "contracts/chainlink/FeedRegistryConsumer.sol",
  "abi": [
    {
      "inputs": [
        {
          "internalType": "address",
          "name": "_registry",
          "type": "address"
        }
      ],
      "stateMutability": "nonpayable",
      "type": "constructor"
    },
    {
      "inputs": [],
      "name": "getEthUsdPrice",
      "outputs": [
        {
          "internalType": "int256",
          "name": "",
          "type": "int256"
        }
      ],
      "stateMutability": "view",
      "type": "function"
    },
    {
      "inputs": [
        {
          "internalType": "address",
          "name": "base",
          "type": "address"
        },
        {
          "internalType": "address",
          "name": "quote",
          "type": "address"
        }
      ],
      "name": "getPrice",
      "outputs": [
        {
          "internalType": "int256",
          "name": "",
          "type": "int256"
        }
      ],
      "stateMutability": "view",
      "type": "function"
    }
  ],
  "bytecode": "0x608060405234801561001057600080fd5b506040516105933803806105938339818101604052810190610032919061008d565b806000806101000a81548173ffffffffffffffffffffffffffffffffffffffff021916908373ffffffffffffffffffffffffffffffffffffffff16021790555050610108565b600081519050610087816100f1565b92915050565b6000602082840312156100a3576100a26100ec565b5b60006100b184828501610078565b91505092915050565b60006100c5826100cc565b9050919050565b600073ffffffffffffffffffffffffffffffffffffffff82169050919050565b600080fd5b6100fa816100ba565b811461010557600080fd5b50565b61047c806101176000396000f3fe608060405234801561001057600080fd5b50600436106100365760003560e01c8063a0a8045e1461003b578063ac41865a14610059575b600080fd5b610043610089565b604051610050919061036e565b60405180910390f35b610073600480360381019061006e919061026c565b61015a565b604051610080919061036e565b60405180910390f35b60008060008054906101000a900473ffffffffffffffffffffffffffffffffffffffff1673ffffffffffffffffffffffffffffffffffffffff1663bcfd032d73eeeeeeeeeeeeeeeeeeeeeeeeeeeeeeeeeeeeeeee6103486040518363ffffffff1660e01b81526004016100fd929190610345565b60a06040518083038186803b15801561011557600080fd5b505afa158015610129573d6000803e3d6000fd5b505050506040513d601f19601f8201168201806040525081019061014d91906102ac565b5050509150508091505090565b60008060008054906101000a900473ffffffffffffffffffffffffffffffffffffffff1673ffffffffffffffffffffffffffffffffffffffff1663bcfd032d85856040518363ffffffff1660e01b81526004016101b8929190610345565b60a06040518083038186803b1580156101d057600080fd5b505afa1580156101e4573d6000803e3d6000fd5b505050506040513d601f19601f8201168201806040525081019061020891906102ac565b5050509150508091505092915050565b600081359050610227816103ea565b92915050565b60008151905061023c81610401565b92915050565b60008151905061025181610418565b92915050565b6000815190506102668161042f565b92915050565b60008060408385031215610283576102826103e5565b5b600061029185828601610218565b92505060206102a285828601610218565b9150509250929050565b600080600080600060a086880312156102c8576102c76103e5565b5b60006102d688828901610257565b95505060206102e78882890161022d565b94505060406102f888828901610242565b935050606061030988828901610242565b925050608061031a88828901610257565b9150509295509295909350565b61033081610389565b82525050565b61033f8161039b565b82525050565b600060408201905061035a6000830185610327565b6103676020830184610327565b9392505050565b60006020820190506103836000830184610336565b92915050565b6000610394826103a5565b9050919050565b6000819050919050565b600073ffffffffffffffffffffffffffffffffffffffff82169050919050565b6000819050919050565b600069ffffffffffffffffffff82169050919050565b600080fd5b6103f381610389565b81146103fe57600080fd5b50565b61040a8161039b565b811461041557600080fd5b50565b610421816103c5565b811461042c57600080fd5b50565b610438816103cf565b811461044357600080fd5b5056fea264697066735822122030dc543a318cad142e70c360299e2df64f1e243d180f0b0c8f58611a26977e5d64736f6c63430008060033",
  "linkReferences": {},
  "deployedLinkReferences": {}
}