{"contracts/connectors/Twitter.sol":{"TwitterV1":{"abi":[{"inputs":[{"internalType":"bytes32","name":"_jobId","type":"bytes32"},{"internalType":"string","name":"_requestBaseURI","type":"string"},{"internalType":"address","name":"_oracle","type":"address"},{"internalType":"address","name":"_link","type":"address"},{"internalType":"uint256","name":"_treasuryFee","type":"uint256"}],"stateMutability":"nonpayable","type":"constructor"},{"anonymous":false,"inputs":[{"indexed":false,"internalType":"uint256","name":"campaignId","type":"uint256"}],"name":"CampaignClosed","type":"event"},{"anonymous":false,"inputs":[{"indexed":false,"internalType":"uint256","name":"campaignId","type":"uint256"},{"indexed":false,"internalType":"address","name":"company","type":"address"}],"name":"CampaignCreated","type":"event"},{"anonymous":false,"inputs":[{"indexed":true,"internalType":"bytes32","name":"id","type":"bytes32"}],"name":"ChainlinkCancelled","type":"event"},{"anonymous":false,"inputs":[{"indexed":true,"internalType":"bytes32","name":"id","type":"bytes32"}],"name":"ChainlinkFulfilled","type":"event"},{"anonymous":false,"inputs":[{"indexed":true,"internalType":"bytes32","name":"id","type":"bytes32"}],"name":"ChainlinkRequested","type":"event"},{"anonymous":false,"inputs":[{"indexed":false,"internalType":"uint256","name":"campaignId","type":"uint256"},{"indexed":false,"internalType":"address","name":"contributor","type":"address"}],"name":"ContributorAdded","type":"event"},{"anonymous":false,"inputs":[{"indexed":false,"internalType":"uint256","name":"campaignId","type":"uint256"},{"indexed":false,"internalType":"address","name":"contributor","type":"address"},{"indexed":false,"internalType":"uint256","name":"retribution","type":"uint256"}],"name":"ContributorRetributed","type":"event"},{"anonymous":false,"inputs":[{"indexed":true,"internalType":"address","name":"previousOwner","type":"address"},{"indexed":true,"internalType":"address","name":"newOwner","type":"address"}],"name":"OwnershipTransferred","type":"event"},{"anonymous":false,"inputs":[{"indexed":false,"internalType":"address","name":"account","type":"address"}],"name":"Paused","type":"event"},{"anonymous":false,"inputs":[{"indexed":true,"internalType":"uint256","name":"userId","type":"uint256"},{"indexed":true,"internalType":"bytes32","name":"requestId","type":"bytes32"}],"name":"SignUpRequested","type":"event"},{"anonymous":false,"inputs":[{"indexed":true,"internalType":"uint256","name":"userId","type":"uint256"},{"indexed":false,"internalType":"address","name":"userAddress","type":"address"}],"name":"SignedUp","type":"event"},{"anonymous":false,"inputs":[{"indexed":false,"internalType":"address","name":"account","type":"address"}],"name":"Unpaused","type":"event"},{"inputs":[],"name":"MAX_TREASURY_FEE","outputs":[{"internalType":"uint256","name":"","type":"uint256"}],"stateMutability":"view","type":"function"},{"inputs":[{"internalType":"uint256","name":"_userId","type":"uint256"},{"internalType":"address","name":"_userAddress","type":"address"}],"name":"addUser","outputs":[],"stateMutability":"nonpayable","type":"function"},{"inputs":[{"internalType":"bytes32","name":"_requestId","type":"bytes32"},{"internalType":"uint256","name":"_payment","type":"uint256"},{"internalType":"bytes4","name":"_callbackFunctionId","type":"bytes4"},{"internalType":"uint256","name":"_expiration","type":"uint256"}],"name":"cancelRequest","outputs":[],"stateMutability":"nonpayable","type":"function"},{"inputs":[{"internalType":"uint256","name":"campaignId","type":"uint256"},{"internalType":"string","name":"postId","type":"string"},{"internalType":"uint256","name":"claimedCounter","type":"uint256"}],"name":"claimCampaignContribution","outputs":[],"stateMutability":"nonpayable","type":"function"},{"inputs":[{"internalType":"uint256","name":"campaignId","type":"uint256"}],"name":"claimCampaignRetribution","outputs":[],"stateMutability":"nonpayable","type":"function"},{"inputs":[{"internalType":"uint256","name":"campaignId","type":"uint256"}],"name":"closeCampaign","outputs":[],"stateMutability":"nonpayable","type":"function"},{"inputs":[{"internalType":"string","name":"name","type":"string"},{"internalType":"uint256","name":"budget","type":"uint256"},{"internalType":"uint256","name":"validationThreshold","type":"uint256"},{"internalType":"uint256","name":"partakersLimit","type":"uint256"}],"name":"createCampaign","outputs":[],"stateMutability":"nonpayable","type":"function"},{"inputs":[{"internalType":"bytes32","name":"_requestId","type":"bytes32"},{"internalType":"uint256","name":"_userId","type":"uint256"},{"internalType":"bool","name":"_hasSignedUp","type":"bool"}],"name":"fulfillSignUp","outputs":[],"stateMutability":"nonpayable","type":"function"},{"inputs":[{"internalType":"uint256","name":"campaignId","type":"uint256"}],"name":"getCampaign","outputs":[{"components":[{"internalType":"uint256","name":"campaignId","type":"uint256"},{"internalType":"string","name":"name","type":"string"},{"internalType":"address","name":"company","type":"address"},{"internalType":"uint256","name":"budget","type":"uint256"},{"internalType":"uint256","name":"validationThreshold","type":"uint256"},{"internalType":"uint256","name":"partakersLimit","type":"uint256"},{"internalType":"bool","name":"isClosed","type":"bool"}],"internalType":"struct TwitterV1.Campaign","name":"","type":"tuple"}],"stateMutability":"view","type":"function"},{"inputs":[{"internalType":"uint256","name":"_userId","type":"uint256"}],"name":"getSignUpURI","outputs":[{"internalType":"string","name":"_signUpURI","type":"string"}],"stateMutability":"view","type":"function"},{"inputs":[{"internalType":"uint256","name":"_twitterId","type":"uint256"}],"name":"getTwitterURI","outputs":[{"internalType":"string","name":"_twitterURI","type":"string"}],"stateMutability":"view","type":"function"},{"inputs":[],"name":"hasSignedUp","outputs":[{"internalType":"bool","name":"","type":"bool"}],"stateMutability":"view","type":"function"},{"inputs":[{"internalType":"uint256","name":"_userId","type":"uint256"}],"name":"hasSignedUp","outputs":[{"internalType":"bool","name":"","type":"bool"}],"stateMutability":"view","type":"function"},{"inputs":[],"name":"jobId","outputs":[{"internalType":"bytes32","name":"","type":"bytes32"}],"stateMutability":"view","type":"function"},{"inputs":[],"name":"keeper","outputs":[{"internalType":"address","name":"","type":"address"}],"stateMutability":"view","type":"function"},{"inputs":[],"name":"owner","outputs":[{"internalType":"address","name":"","type":"address"}],"stateMutability":"view","type":"function"},{"inputs":[],"name":"paused","outputs":[{"internalType":"bool","name":"","type":"bool"}],"stateMutability":"view","type":"function"},{"inputs":[],"name":"renounceOwnership","outputs":[],"stateMutability":"nonpayable","type":"function"},{"inputs":[],"name":"requestBaseURI","outputs":[{"internalType":"string","name":"","type":"string"}],"stateMutability":"view","type":"function"},{"inputs":[{"internalType":"string","name":"_requestBaseURI","type":"string"}],"name":"setRequestBaseURI","outputs":[],"stateMutability":"nonpayable","type":"function"},{"inputs":[{"internalType":"uint256","name":"_userId","type":"uint256"}],"name":"signUp","outputs":[],"stateMutability":"nonpayable","type":"function"},{"inputs":[{"internalType":"address","name":"newOwner","type":"address"}],"name":"transferOwnership","outputs":[],"stateMutability":"nonpayable","type":"function"},{"inputs":[],"name":"treasuryAmount","outputs":[{"internalType":"uint256","name":"","type":"uint256"}],"stateMutability":"view","type":"function"},{"inputs":[],"name":"treasuryFee","outputs":[{"internalType":"uint256","name":"","type":"uint256"}],"stateMutability":"view","type":"function"},{"inputs":[],"name":"withdrawLink","outputs":[],"stateMutability":"nonpayable","type":"function"}],"devdoc":{"kind":"dev","methods":{"addUser(uint256,address)":{"details":"only admin can call this function"},"cancelRequest(bytes32,uint256,bytes4,uint256)":{"details":"only admin can call this function","params":{"_callbackFunctionId":"The bytes4 callback function ID specified for the request to cancel","_expiration":"The expiration generated for the request to cancel","_payment":"The payment specified for the request to cancel","_requestId":"The ID that was generated for the request to cancel"}},"claimCampaignContribution(uint256,string,uint256)":{"params":{"campaignId":"- The id of the campaign"}},"closeCampaign(uint256)":{"params":{"campaignId":"- The id of the campaign"}},"createCampaign(string,uint256,uint256,uint256)":{"params":{"budget":"- Budget each winning partaker will share with each other","partakersLimit":"- Maximum amount of winning partakers for this campaign","validationThreshold":"- Minimum amount of retweet, likes etc for a partaker to win"}},"fulfillSignUp(bytes32,uint256,bool)":{"params":{"_hasSignedUp":"- true if  twitter userId match msg.sender address","_requestId":"- id of the request","_userId":"- twitter user id"}},"hasSignedUp(uint256)":{"params":{"_userId":"- twitter user id"}},"owner()":{"details":"Returns the address of the current owner."},"paused()":{"details":"Returns true if the contract is paused, and false otherwise."},"renounceOwnership()":{"details":"Leaves the contract without owner. It will not be possible to call `onlyOwner` functions anymore. Can only be called by the current owner. NOTE: Renouncing ownership will leave the contract without an owner, thereby removing any functionality that is only available to the owner."},"setRequestBaseURI(string)":{"details":"only admin can call this function"},"transferOwnership(address)":{"details":"Transfers ownership of the contract to a new account (`newOwner`). Can only be called by the current owner."},"withdrawLink()":{"details":"only admin can call this function"}},"version":1},"evm":{"bytecode":{"linkReferences":{},"object":"60c060405260016006553480156200001657600080fd5b50604051620049713803806200497183398181016040528101906200003c9190620003c6565b60008060006101000a81548160ff021916908315150217905550620000766200006a620000fe60201b60201c565b6200010660201b60201c565b600180819055506200008e82620001cb60201b60201c565b6200009f836200020f60201b60201c565b8460808181525050600a670de0b6b3a76400006001620000c0919062000504565b620000cc9190620004cc565b60a08181525050806011819055508360099080519060200190620000f292919062000253565b5050505050506200077e565b600033905090565b60008060019054906101000a900473ffffffffffffffffffffffffffffffffffffffff16905081600060016101000a81548173ffffffffffffffffffffffffffffffffffffffff021916908373ffffffffffffffffffffffffffffffffffffffff1602179055508173ffffffffffffffffffffffffffffffffffffffff168173ffffffffffffffffffffffffffffffffffffffff167f8be0079c531659141344cd1fd0a4f28419497f9722a3daafe3b4186f6b6457e060405160405180910390a35050565b80600460006101000a81548173ffffffffffffffffffffffffffffffffffffffff021916908373ffffffffffffffffffffffffffffffffffffffff16021790555050565b80600560006101000a81548173ffffffffffffffffffffffffffffffffffffffff021916908373ffffffffffffffffffffffffffffffffffffffff16021790555050565b8280546200026190620005e3565b90600052602060002090601f016020900481019282620002855760008555620002d1565b82601f10620002a057805160ff1916838001178555620002d1565b82800160010185558215620002d1579182015b82811115620002d0578251825591602001919060010190620002b3565b5b509050620002e09190620002e4565b5090565b5b80821115620002ff576000816000905550600101620002e5565b5090565b60006200031a620003148462000496565b6200046d565b90508281526020810184848401111562000339576200033862000710565b5b62000346848285620005ad565b509392505050565b6000815190506200035f8162000730565b92915050565b60008151905062000376816200074a565b92915050565b600082601f8301126200039457620003936200070b565b5b8151620003a684826020860162000303565b91505092915050565b600081519050620003c08162000764565b92915050565b600080600080600060a08688031215620003e557620003e46200071a565b5b6000620003f58882890162000365565b955050602086015167ffffffffffffffff81111562000419576200041862000715565b5b62000427888289016200037c565b94505060406200043a888289016200034e565b93505060606200044d888289016200034e565b92505060806200046088828901620003af565b9150509295509295909350565b6000620004796200048c565b905062000487828262000619565b919050565b6000604051905090565b600067ffffffffffffffff821115620004b457620004b3620006dc565b5b620004bf826200071f565b9050602081019050919050565b6000620004d982620005a3565b9150620004e683620005a3565b925082620004f957620004f86200067e565b5b828204905092915050565b60006200051182620005a3565b91506200051e83620005a3565b9250817fffffffffffffffffffffffffffffffffffffffffffffffffffffffffffffffff04831182151516156200055a57620005596200064f565b5b828202905092915050565b6000620005728262000583565b9050919050565b6000819050919050565b600073ffffffffffffffffffffffffffffffffffffffff82169050919050565b6000819050919050565b60005b83811015620005cd578082015181840152602081019050620005b0565b83811115620005dd576000848401525b50505050565b60006002820490506001821680620005fc57607f821691505b60208210811415620006135762000612620006ad565b5b50919050565b62000624826200071f565b810181811067ffffffffffffffff82111715620006465762000645620006dc565b5b80604052505050565b7f4e487b7100000000000000000000000000000000000000000000000000000000600052601160045260246000fd5b7f4e487b7100000000000000000000000000000000000000000000000000000000600052601260045260246000fd5b7f4e487b7100000000000000000000000000000000000000000000000000000000600052602260045260246000fd5b7f4e487b7100000000000000000000000000000000000000000000000000000000600052604160045260246000fd5b600080fd5b600080fd5b600080fd5b600080fd5b6000601f19601f8301169050919050565b6200073b8162000565565b81146200074757600080fd5b50565b620007558162000579565b81146200076157600080fd5b50565b6200076f81620005a3565b81146200077b57600080fd5b50565b60805160a0516141c6620007ab600039600061161f015260008181611156015261151701526141c66000f3fe608060405234801561001057600080fd5b50600436106101735760003560e01c8063a9654ad4116100de578063c2939d9711610097578063ec65d0f811610071578063ec65d0f814610400578063ec8f04e91461041c578063f2b3c80914610438578063f2fde38b1461045657610173565b8063c2939d97146103a6578063cc32d176146103c4578063dc4d5efb146103e257610173565b8063a9654ad4146102d4578063aa2bdef914610304578063aced166114610334578063b0e1c1e114610352578063b1d3c7001461036e578063b5a898ae1461038a57610173565b80635c975abb116101305780635c975abb1461024a5780635ec4bc3814610268578063715018a6146102865780638da5cb5b146102905780638dc654a2146102ae578063a4e336c3146102b857610173565b80630a944292146101785780631fc645c7146101a8578063368acb09146101c45780634a732795146101e25780635598f8cc146101fe57806358d9fa041461022e575b600080fd5b610192600480360381019061018d9190612c1b565b610472565b60405161019f9190613441565b60405180910390f35b6101c260048036038101906101bd9190612c1b565b6104a0565b005b6101cc6104fc565b6040516101d99190613645565b60405180910390f35b6101fc60048036038101906101f79190612c1b565b610502565b005b61021860048036038101906102139190612c1b565b6106e0565b6040516102259190613623565b60405180910390f35b61024860048036038101906102439190612c75565b61082e565b005b6102526108d7565b60405161025f91906133c6565b60405180910390f35b6102706108ed565b60405161027d91906133c6565b60405180910390f35b61028e61096f565b005b6102986109f7565b6040516102a591906132bf565b60405180910390f35b6102b6610a20565b005b6102d260048036038101906102cd9190612a8c565b610bff565b005b6102ee60048036038101906102e99190612c1b565b610d3e565b6040516102fb91906133c6565b60405180910390f35b61031e60048036038101906103199190612c1b565b610d5b565b60405161032b9190613441565b60405180910390f35b61033c610d87565b60405161034991906132bf565b60405180910390f35b61036c60048036038101906103679190612c1b565b610dad565b005b61038860048036038101906103839190612cb5565b610ea4565b005b6103a4600480360381019061039f9190612b93565b610f43565b005b6103ae611154565b6040516103bb91906133e1565b60405180910390f35b6103cc611178565b6040516103d99190613645565b60405180910390f35b6103ea61117e565b6040516103f79190613441565b60405180910390f35b61041a60048036038101906104159190612adf565b61120c565b005b61043660048036038101906104319190612b46565b611293565b005b61044061131e565b60405161044d9190613645565b60405180910390f35b610470600480360381019061046b9190612a32565b611324565b005b60606009468360405160200161048a93929190613265565b6040516020818303038152906040529050919050565b6104b68133600a61141c9092919063ffffffff16565b50807f98eacf4f33e6a76b9b0916f3a1f00cbfe38f5728e60c71cdec75362365c23a15336040516104e791906132bf565b60405180910390a26104f881611451565b5050565b60125481565b6000601060008381526020019081526020016000209050600115158160010160003373ffffffffffffffffffffffffffffffffffffffff1673ffffffffffffffffffffffffffffffffffffffff16815260200190815260200160002060009054906101000a900460ff161515146105ae576040517f08c379a00000000000000000000000000000000000000000000000000000000081526004016105a590613483565b60405180910390fd5b600015158160020160003373ffffffffffffffffffffffffffffffffffffffff1673ffffffffffffffffffffffffffffffffffffffff16815260200190815260200160002060009054906101000a900460ff16151514610643576040517f08c379a000000000000000000000000000000000000000000000000000000000815260040161063a90613583565b60405180910390fd5b600061064e8361167d565b9050610659836116ad565b3373ffffffffffffffffffffffffffffffffffffffff166108fc829081150290604051600060405180830381858888f1935050505015801561069f573d6000803e3d6000fd5b507f834b5fc2655a3b64cb9dfbbf39cb1b67bff9e533ab318dbb3677e4edcf9dc25d8333836040516106d393929190613689565b60405180910390a1505050565b6106e86126cd565b6106f182611722565b6040518060e00160405290816000820154815260200160018201805461071690613ae9565b80601f016020809104026020016040519081016040528092919081815260200182805461074290613ae9565b801561078f5780601f106107645761010080835404028352916020019161078f565b820191906000526020600020905b81548152906001019060200180831161077257829003601f168201915b505050505081526020016002820160009054906101000a900473ffffffffffffffffffffffffffffffffffffffff1673ffffffffffffffffffffffffffffffffffffffff1673ffffffffffffffffffffffffffffffffffffffff1681526020016003820154815260200160048201548152602001600582015481526020016006820160009054906101000a900460ff1615151515815250509050919050565b6108366109f7565b73ffffffffffffffffffffffffffffffffffffffff163373ffffffffffffffffffffffffffffffffffffffff16146108a3576040517f08c379a000000000000000000000000000000000000000000000000000000000815260040161089a90613543565b60405180910390fd5b6108b782600a61173e90919063ffffffff16565b6108d3576108d18282600a61141c9092919063ffffffff16565b505b5050565b60008060009054906101000a900460ff16905090565b6000806000905060005b610901600a611758565b811015610967573373ffffffffffffffffffffffffffffffffffffffff1661093382600a61176d90919063ffffffff16565b73ffffffffffffffffffffffffffffffffffffffff16141561095457600191505b808061095f90613b4c565b9150506108f7565b508091505090565b61097761178a565b73ffffffffffffffffffffffffffffffffffffffff166109956109f7565b73ffffffffffffffffffffffffffffffffffffffff16146109eb576040517f08c379a00000000000000000000000000000000000000000000000000000000081526004016109e290613523565b60405180910390fd5b6109f56000611792565b565b60008060019054906101000a900473ffffffffffffffffffffffffffffffffffffffff16905090565b610a286109f7565b73ffffffffffffffffffffffffffffffffffffffff163373ffffffffffffffffffffffffffffffffffffffff1614610a95576040517f08c379a0000000000000000000000000000000000000000000000000000000008152600401610a8c90613543565b60405180910390fd5b6000610a9f611857565b90508073ffffffffffffffffffffffffffffffffffffffff1663a9059cbb610ac56109f7565b8373ffffffffffffffffffffffffffffffffffffffff166370a08231306040518263ffffffff1660e01b8152600401610afe91906132bf565b60206040518083038186803b158015610b1657600080fd5b505afa158015610b2a573d6000803e3d6000fd5b505050506040513d601f19601f82011682018060405250810190610b4e9190612c48565b6040518363ffffffff1660e01b8152600401610b6b9291906132da565b602060405180830381600087803b158015610b8557600080fd5b505af1158015610b99573d6000803e3d6000fd5b505050506040513d601f19601f82011682018060405250810190610bbd9190612a5f565b610bfc576040517f08c379a0000000000000000000000000000000000000000000000000000000008152600401610bf390613503565b60405180910390fd5b50565b826007600082815260200190815260200160002060009054906101000a900473ffffffffffffffffffffffffffffffffffffffff1673ffffffffffffffffffffffffffffffffffffffff163373ffffffffffffffffffffffffffffffffffffffff1614610ca1576040517f08c379a0000000000000000000000000000000000000000000000000000000008152600401610c98906135e3565b60405180910390fd5b6007600082815260200190815260200160002060006101000a81549073ffffffffffffffffffffffffffffffffffffffff0219169055807f7cc135e0cebb02c3480ae5d74d377283180a2601f8f644edf7987b009316c63a60405160405180910390a281610d1f57610d1d83600a61188190919063ffffffff16565b505b6000610d3584600a61176d90919063ffffffff16565b90505050505050565b6000610d5482600a61173e90919063ffffffff16565b9050919050565b6060600982604051602001610d71929190613232565b6040516020818303038152906040529050919050565b600860009054906101000a900473ffffffffffffffffffffffffffffffffffffffff1681565b6000610db882611722565b90508060020160009054906101000a900473ffffffffffffffffffffffffffffffffffffffff1673ffffffffffffffffffffffffffffffffffffffff163373ffffffffffffffffffffffffffffffffffffffff1614610e4c576040517f08c379a0000000000000000000000000000000000000000000000000000000008152600401610e4390613563565b60405180910390fd5b60018160060160006101000a81548160ff0219169083151502179055507f5e6eb33a418de5dbbc17f989f7ae362cdfbb1748c5d603137c767027a354edbc82604051610e989190613645565b60405180910390a15050565b6000610eb184848461189b565b90506001151581151514610efa576040517f08c379a0000000000000000000000000000000000000000000000000000000008152600401610ef1906135a3565b60405180910390fd5b610f0484336118bb565b7f7c29733edbbbc7f83fc8c5fb3231ab4c21421e8da3e7bb05cddc0c2be2d0cf658433604051610f35929190613660565b60405180910390a150505050565b600d6000815480929190610f5690613b4c565b91905055506000600d5490506000600f600083815260200190815260200160002090508481600301819055508686826001019190610f95929190612722565b50838160040181905550828160050181905550338160020160006101000a81548173ffffffffffffffffffffffffffffffffffffffff021916908373ffffffffffffffffffffffffffffffffffffffff16021790555060008160060160006101000a81548160ff021916908315150217905550600e81908060018154018082558091505060019003906000526020600020906007020160009091909190915060008201548160000155600182018160010190805461105290613ae9565b61105d9291906127a8565b506002820160009054906101000a900473ffffffffffffffffffffffffffffffffffffffff168160020160006101000a81548173ffffffffffffffffffffffffffffffffffffffff021916908373ffffffffffffffffffffffffffffffffffffffff1602179055506003820154816003015560048201548160040155600582015481600501556006820160009054906101000a900460ff168160060160006101000a81548160ff02191690831515021790555050507f633109eec20320eded000fc1e2634211aa7e92ba3f5b15faf6dcdafca05094e48233604051611143929190613660565b60405180910390a150505050505050565b7f000000000000000000000000000000000000000000000000000000000000000081565b60115481565b6009805461118b90613ae9565b80601f01602080910402602001604051908101604052809291908181526020018280546111b790613ae9565b80156112045780601f106111d957610100808354040283529160200191611204565b820191906000526020600020905b8154815290600101906020018083116111e757829003601f168201915b505050505081565b6112146109f7565b73ffffffffffffffffffffffffffffffffffffffff163373ffffffffffffffffffffffffffffffffffffffff1614611281576040517f08c379a000000000000000000000000000000000000000000000000000000000815260040161127890613543565b60405180910390fd5b61128d84848484611a3c565b50505050565b61129b6109f7565b73ffffffffffffffffffffffffffffffffffffffff163373ffffffffffffffffffffffffffffffffffffffff1614611308576040517f08c379a00000000000000000000000000000000000000000000000000000000081526004016112ff90613543565b60405180910390fd5b818160099190611319929190612722565b505050565b6103e881565b61132c61178a565b73ffffffffffffffffffffffffffffffffffffffff1661134a6109f7565b73ffffffffffffffffffffffffffffffffffffffff16146113a0576040517f08c379a000000000000000000000000000000000000000000000000000000000815260040161139790613523565b60405180910390fd5b600073ffffffffffffffffffffffffffffffffffffffff168173ffffffffffffffffffffffffffffffffffffffff161415611410576040517f08c379a0000000000000000000000000000000000000000000000000000000008152600401611407906134a3565b60405180910390fd5b61141981611792565b50565b6000611448846000018460001b8473ffffffffffffffffffffffffffffffffffffffff1660001b611b4f565b90509392505050565b600061145b6109f7565b73ffffffffffffffffffffffffffffffffffffffff163373ffffffffffffffffffffffffffffffffffffffff16146114c8576040517f08c379a00000000000000000000000000000000000000000000000000000000081526004016114bf90613543565b60405180910390fd5b6114d06108d7565b15611510576040517f08c379a0000000000000000000000000000000000000000000000000000000008152600401611507906134e3565b60405180910390fd5b60006115447f00000000000000000000000000000000000000000000000000000000000000003063a4e336c360e01b611b8a565b90506115986040518060400160405280600381526020017f676574000000000000000000000000000000000000000000000000000000000081525061158885610d5b565b83611bbb9092919063ffffffff16565b6116176040518060400160405280600481526020017f70617468000000000000000000000000000000000000000000000000000000008152506040518060400160405280600b81526020017f6861735369676e6564557000000000000000000000000000000000000000000081525083611bbb9092919063ffffffff16565b6000611643827f0000000000000000000000000000000000000000000000000000000000000000611bee565b905080847fbe1937b7feca9c000f1f748ebba989954549c773449bbab49ab3d6f796af50d760405160405180910390a38092505050919050565b60008061168983611722565b90506000816005015482600301546116a191906137d5565b90508092505050919050565b600060106000838152602001908152602001600020905060018160020160003373ffffffffffffffffffffffffffffffffffffffff1673ffffffffffffffffffffffffffffffffffffffff16815260200190815260200160002060006101000a81548160ff0219169083151502179055505050565b6000600f60008381526020019081526020016000209050919050565b6000611750836000018360001b611c25565b905092915050565b600061176682600001611c45565b9050919050565b600061177f836000018360001b611c5a565b60001c905092915050565b600033905090565b60008060019054906101000a900473ffffffffffffffffffffffffffffffffffffffff16905081600060016101000a81548173ffffffffffffffffffffffffffffffffffffffff021916908373ffffffffffffffffffffffffffffffffffffffff1602179055508173ffffffffffffffffffffffffffffffffffffffff168173ffffffffffffffffffffffffffffffffffffffff167f8be0079c531659141344cd1fd0a4f28419497f9722a3daafe3b4186f6b6457e060405160405180910390a35050565b6000600460009054906101000a900473ffffffffffffffffffffffffffffffffffffffff16905090565b6000611893836000018360001b611cd6565b905092915050565b6000806118a785611722565b905080600401548310159150509392505050565b60006118c683611722565b9050600060106000858152602001908152602001600020905080600001548260050154101561192a576040517f08c379a000000000000000000000000000000000000000000000000000000000815260040161192190613603565b60405180910390fd5b600015158260060160009054906101000a900460ff16151514611982576040517f08c379a000000000000000000000000000000000000000000000000000000000815260040161197990613463565b60405180910390fd5b60018160010160008573ffffffffffffffffffffffffffffffffffffffff1673ffffffffffffffffffffffffffffffffffffffff16815260200190815260200160002060006101000a81548160ff02191690831515021790555060008160020160008573ffffffffffffffffffffffffffffffffffffffff1673ffffffffffffffffffffffffffffffffffffffff16815260200190815260200160002060006101000a81548160ff02191690831515021790555050505050565b60006007600086815260200190815260200160002060009054906101000a900473ffffffffffffffffffffffffffffffffffffffff1690506007600086815260200190815260200160002060006101000a81549073ffffffffffffffffffffffffffffffffffffffff0219169055847fe1fe3afa0f7f761ff0a8b89086790efd5140d2907ebd5b7ff6bfcb5e075fd4c560405160405180910390a28073ffffffffffffffffffffffffffffffffffffffff16636ee4d553868686866040518563ffffffff1660e01b8152600401611b1694939291906133fc565b600060405180830381600087803b158015611b3057600080fd5b505af1158015611b44573d6000803e3d6000fd5b505050505050505050565b60008184600201600085815260200190815260200160002081905550611b818385600001611d0f90919063ffffffff16565b90509392505050565b611b92612835565b611b9a612835565b611bb185858584611d26909392919063ffffffff16565b9150509392505050565b611bd2828460800151611dd690919063ffffffff16565b611be9818460800151611dd690919063ffffffff16565b505050565b6000611c1d600560009054906101000a900473ffffffffffffffffffffffffffffffffffffffff168484611dfb565b905092915050565b6000611c3d8284600001611ec790919063ffffffff16565b905092915050565b6000611c5382600001611ede565b9050919050565b6000808360020160008481526020019081526020016000205490506000801b81141580611c8d5750611c8c8484611c25565b5b611ccc576040517f08c379a0000000000000000000000000000000000000000000000000000000008152600401611cc3906135c3565b60405180910390fd5b8091505092915050565b600082600201600083815260200190815260200160002060009055611d078284600001611ef390919063ffffffff16565b905092915050565b6000611d1e8360000183611f0a565b905092915050565b611d2e612835565b611d3e8560800151610100611f7a565b508385600001818152505082856020019073ffffffffffffffffffffffffffffffffffffffff16908173ffffffffffffffffffffffffffffffffffffffff16815250508185604001907bffffffffffffffffffffffffffffffffffffffffffffffffffffffff191690817bffffffffffffffffffffffffffffffffffffffffffffffffffffffff191681525050849050949350505050565b611de38260038351611fe4565b611df6818361216990919063ffffffff16565b505050565b6000806006549050600181611e10919061377f565b6006819055506000634042994660e01b60008087600001513089604001518760018c6080015160000151604051602401611e51989796959493929190613303565b604051602081830303815290604052907bffffffffffffffffffffffffffffffffffffffffffffffffffffffff19166020820180517bffffffffffffffffffffffffffffffffffffffffffffffffffffffff83818316178352505050509050611ebc8683868461218b565b925050509392505050565b6000611ed6836000018361232f565b905092915050565b6000611eec82600001612352565b9050919050565b6000611f028360000183612363565b905092915050565b6000611f16838361232f565b611f6f578260000182908060018154018082558091505060019003906000526020600020016000909190919091505582600001805490508360010160008481526020019081526020016000208190555060019050611f74565b600090505b92915050565b611f826128a2565b6000602083611f919190613bc3565b14611fbd57602082611fa39190613bc3565b6020611faf91906139d1565b82611fba919061377f565b91505b81836020018181525050604051808452600081528281016020016040525082905092915050565b60178167ffffffffffffffff161161201b576120158160058460ff16901b60ff16178461247790919063ffffffff16565b50612164565b60ff8167ffffffffffffffff16116120715761204a601860058460ff16901b178461247790919063ffffffff16565b5061206b8167ffffffffffffffff166001856124979092919063ffffffff16565b50612163565b61ffff8167ffffffffffffffff16116120c8576120a1601960058460ff16901b178461247790919063ffffffff16565b506120c28167ffffffffffffffff166002856124979092919063ffffffff16565b50612162565b63ffffffff8167ffffffffffffffff1611612121576120fa601a60058460ff16901b178461247790919063ffffffff16565b5061211b8167ffffffffffffffff166004856124979092919063ffffffff16565b50612161565b61213e601b60058460ff16901b178461247790919063ffffffff16565b5061215f8167ffffffffffffffff166008856124979092919063ffffffff16565b505b5b5b5b505050565b6121716128a2565b612183838460000151518485516124b9565b905092915050565b600030846040516020016121a0929190613206565b604051602081830303815290604052805190602001209050846007600083815260200190815260200160002060006101000a81548173ffffffffffffffffffffffffffffffffffffffff021916908373ffffffffffffffffffffffffffffffffffffffff160217905550807fb5e6e01e79f91267dc17b4e6314d5d4d03593d2ceee0fbb452b750bd70ea5af960405160405180910390a2600460009054906101000a900473ffffffffffffffffffffffffffffffffffffffff1673ffffffffffffffffffffffffffffffffffffffff16634000aea08685856040518463ffffffff1660e01b815260040161229693929190613388565b602060405180830381600087803b1580156122b057600080fd5b505af11580156122c4573d6000803e3d6000fd5b505050506040513d601f19601f820116820180604052508101906122e89190612a5f565b612327576040517f08c379a000000000000000000000000000000000000000000000000000000000815260040161231e906134c3565b60405180910390fd5b949350505050565b600080836001016000848152602001908152602001600020541415905092915050565b600081600001805490509050919050565b6000808360010160008481526020019081526020016000205490506000811461246b57600060018261239591906139d1565b90506000600186600001805490506123ad91906139d1565b905081811461241c5760008660000182815481106123ce576123cd613cb0565b5b90600052602060002001549050808760000184815481106123f2576123f1613cb0565b5b90600052602060002001819055508387600101600083815260200190815260200160002081905550505b856000018054806124305761242f613c81565b5b600190038181906000526020600020016000905590558560010160008681526020019081526020016000206000905560019350505050612471565b60009150505b92915050565b61247f6128a2565b61248f83846000015151846125a8565b905092915050565b61249f6128a2565b6124b08485600001515185856125ff565b90509392505050565b6124c16128a2565b82518211156124cf57600080fd5b846020015182856124e0919061377f565b11156125155761251485600261250588602001518887612500919061377f565b61268d565b61250f9190613977565b6126a9565b5b6000808651805187602083010193508088870111156125345787860182525b60208701925050505b6020841061257b5780518252602082612556919061377f565b9150602081612565919061377f565b905060208461257491906139d1565b935061253d565b60006001856020036101000a03905080198251168184511681811785525050508692505050949350505050565b6125b06128a2565b836020015183106125d6576125d584600286602001516125d09190613977565b6126a9565b5b83518051602085830101848153818614156125f2576001820183525b5050508390509392505050565b6126076128a2565b84602001518483612618919061377f565b11156126405761263f8560028685612630919061377f565b61263a9190613977565b6126a9565b5b60006001836101006126529190613859565b61265c91906139d1565b9050855183868201018583198251161781528151858801111561267f5784870182525b505085915050949350505050565b60008183111561269f578290506126a3565b8190505b92915050565b6000826000015190506126bc8383611f7a565b506126c78382612169565b50505050565b6040518060e001604052806000815260200160608152602001600073ffffffffffffffffffffffffffffffffffffffff1681526020016000815260200160008152602001600081526020016000151581525090565b82805461272e90613ae9565b90600052602060002090601f0160209004810192826127505760008555612797565b82601f1061276957803560ff1916838001178555612797565b82800160010185558215612797579182015b8281111561279657823582559160200191906001019061277b565b5b5090506127a491906128bc565b5090565b8280546127b490613ae9565b90600052602060002090601f0160209004810192826127d65760008555612824565b82601f106127e75780548555612824565b8280016001018555821561282457600052602060002091601f016020900482015b82811115612823578254825591600101919060010190612808565b5b50905061283191906128bc565b5090565b6040518060a0016040528060008019168152602001600073ffffffffffffffffffffffffffffffffffffffff16815260200160007bffffffffffffffffffffffffffffffffffffffffffffffffffffffff191681526020016000815260200161289c6128a2565b81525090565b604051806040016040528060608152602001600081525090565b5b808211156128d55760008160009055506001016128bd565b5090565b60006128ec6128e7846136e5565b6136c0565b90508281526020810184848401111561290857612907613d1d565b5b612913848285613aa7565b509392505050565b60008135905061292a8161411d565b92915050565b60008135905061293f81614134565b92915050565b60008151905061295481614134565b92915050565b6000813590506129698161414b565b92915050565b60008135905061297e81614162565b92915050565b60008083601f84011261299a57612999613d13565b5b8235905067ffffffffffffffff8111156129b7576129b6613d0e565b5b6020830191508360018202830111156129d3576129d2613d18565b5b9250929050565b600082601f8301126129ef576129ee613d13565b5b81356129ff8482602086016128d9565b91505092915050565b600081359050612a1781614179565b92915050565b600081519050612a2c81614179565b92915050565b600060208284031215612a4857612a47613d27565b5b6000612a568482850161291b565b91505092915050565b600060208284031215612a7557612a74613d27565b5b6000612a8384828501612945565b91505092915050565b600080600060608486031215612aa557612aa4613d27565b5b6000612ab38682870161295a565b9350506020612ac486828701612a08565b9250506040612ad586828701612930565b9150509250925092565b60008060008060808587031215612af957612af8613d27565b5b6000612b078782880161295a565b9450506020612b1887828801612a08565b9350506040612b298782880161296f565b9250506060612b3a87828801612a08565b91505092959194509250565b60008060208385031215612b5d57612b5c613d27565b5b600083013567ffffffffffffffff811115612b7b57612b7a613d22565b5b612b8785828601612984565b92509250509250929050565b600080600080600060808688031215612baf57612bae613d27565b5b600086013567ffffffffffffffff811115612bcd57612bcc613d22565b5b612bd988828901612984565b95509550506020612bec88828901612a08565b9350506040612bfd88828901612a08565b9250506060612c0e88828901612a08565b9150509295509295909350565b600060208284031215612c3157612c30613d27565b5b6000612c3f84828501612a08565b91505092915050565b600060208284031215612c5e57612c5d613d27565b5b6000612c6c84828501612a1d565b91505092915050565b60008060408385031215612c8c57612c8b613d27565b5b6000612c9a85828601612a08565b9250506020612cab8582860161291b565b9150509250929050565b600080600060608486031215612cce57612ccd613d27565b5b6000612cdc86828701612a08565b935050602084013567ffffffffffffffff811115612cfd57612cfc613d22565b5b612d09868287016129da565b9250506040612d1a86828701612a08565b9150509250925092565b612d2d81613a05565b82525050565b612d3c81613a05565b82525050565b612d4b81613a17565b82525050565b612d5a81613a17565b82525050565b612d6981613a23565b82525050565b612d7881613a2d565b82525050565b6000612d898261372b565b612d938185613741565b9350612da3818560208601613ab6565b612dac81613d2c565b840191505092915050565b612dc8612dc382613a83565b613b95565b82525050565b6000612dd982613736565b612de38185613752565b9350612df3818560208601613ab6565b612dfc81613d2c565b840191505092915050565b6000612e1282613736565b612e1c8185613763565b9350612e2c818560208601613ab6565b612e3581613d2c565b840191505092915050565b60008154612e4d81613ae9565b612e578186613774565b94506001821660008114612e725760018114612e8357612eb6565b60ff19831686528186019350612eb6565b612e8c85613716565b60005b83811015612eae57815481890152600182019150602081019050612e8f565b838801955050505b50505092915050565b6000612ecc601283613763565b9150612ed782613d57565b602082019050919050565b6000612eef602e83613763565b9150612efa82613d80565b604082019050919050565b6000612f12602683613763565b9150612f1d82613dcf565b604082019050919050565b6000612f35602383613763565b9150612f4082613e1e565b604082019050919050565b6000612f58600783613774565b9150612f6382613e6d565b600782019050919050565b6000612f7b601083613763565b9150612f8682613e96565b602082019050919050565b6000612f9e601283613763565b9150612fa982613ebf565b602082019050919050565b6000612fc1602083613763565b9150612fcc82613ee8565b602082019050919050565b6000612fe4601783613763565b9150612fef82613f11565b602082019050919050565b6000613007602083613763565b915061301282613f3a565b602082019050919050565b600061302a601b83613763565b915061303582613f63565b602082019050919050565b600061304d603e83613763565b915061305882613f8c565b604082019050919050565b6000613070600a83613774565b915061307b82613fdb565b600a82019050919050565b6000613093601e83613763565b915061309e82614004565b602082019050919050565b60006130b6602883613763565b91506130c18261402d565b604082019050919050565b60006130d9600883613774565b91506130e48261407c565b600882019050919050565b60006130fc602283613763565b9150613107826140a5565b604082019050919050565b600061311f600883613774565b915061312a826140f4565b600882019050919050565b600060e08301600083015161314d60008601826131d1565b50602083015184820360208601526131658282612dce565b915050604083015161317a6040860182612d24565b50606083015161318d60608601826131d1565b5060808301516131a060808601826131d1565b5060a08301516131b360a08601826131d1565b5060c08301516131c660c0860182612d42565b508091505092915050565b6131da81613a79565b82525050565b6131e981613a79565b82525050565b6132006131fb82613a79565b613bb9565b82525050565b60006132128285612db7565b60148201915061322282846131ef565b6020820191508190509392505050565b600061323e8285612e40565b915061324982612f4b565b915061325582846131ef565b6020820191508190509392505050565b60006132718286612e40565b915061327c826130cc565b915061328882856131ef565b60208201915061329782613063565b91506132a382846131ef565b6020820191506132b282613112565b9150819050949350505050565b60006020820190506132d46000830184612d33565b92915050565b60006040820190506132ef6000830185612d33565b6132fc60208301846131e0565b9392505050565b600061010082019050613319600083018b612d33565b613326602083018a6131e0565b6133336040830189612d60565b6133406060830188612d33565b61334d6080830187612d6f565b61335a60a08301866131e0565b61336760c08301856131e0565b81810360e08301526133798184612d7e565b90509998505050505050505050565b600060608201905061339d6000830186612d33565b6133aa60208301856131e0565b81810360408301526133bc8184612d7e565b9050949350505050565b60006020820190506133db6000830184612d51565b92915050565b60006020820190506133f66000830184612d60565b92915050565b60006080820190506134116000830187612d60565b61341e60208301866131e0565b61342b6040830185612d6f565b61343860608301846131e0565b95945050505050565b6000602082019050818103600083015261345b8184612e07565b905092915050565b6000602082019050818103600083015261347c81612ebf565b9050919050565b6000602082019050818103600083015261349c81612ee2565b9050919050565b600060208201905081810360008301526134bc81612f05565b9050919050565b600060208201905081810360008301526134dc81612f28565b9050919050565b600060208201905081810360008301526134fc81612f6e565b9050919050565b6000602082019050818103600083015261351c81612f91565b9050919050565b6000602082019050818103600083015261353c81612fb4565b9050919050565b6000602082019050818103600083015261355c81612fd7565b9050919050565b6000602082019050818103600083015261357c81612ffa565b9050919050565b6000602082019050818103600083015261359c8161301d565b9050919050565b600060208201905081810360008301526135bc81613040565b9050919050565b600060208201905081810360008301526135dc81613086565b9050919050565b600060208201905081810360008301526135fc816130a9565b9050919050565b6000602082019050818103600083015261361c816130ef565b9050919050565b6000602082019050818103600083015261363d8184613135565b905092915050565b600060208201905061365a60008301846131e0565b92915050565b600060408201905061367560008301856131e0565b6136826020830184612d33565b9392505050565b600060608201905061369e60008301866131e0565b6136ab6020830185612d33565b6136b860408301846131e0565b949350505050565b60006136ca6136db565b90506136d68282613b1b565b919050565b6000604051905090565b600067ffffffffffffffff821115613700576136ff613cdf565b5b61370982613d2c565b9050602081019050919050565b60008190508160005260206000209050919050565b600081519050919050565b600081519050919050565b600082825260208201905092915050565b600082825260208201905092915050565b600082825260208201905092915050565b600081905092915050565b600061378a82613a79565b915061379583613a79565b9250827fffffffffffffffffffffffffffffffffffffffffffffffffffffffffffffffff038211156137ca576137c9613bf4565b5b828201905092915050565b60006137e082613a79565b91506137eb83613a79565b9250826137fb576137fa613c23565b5b828204905092915050565b6000808291508390505b60018511156138505780860481111561382c5761382b613bf4565b5b600185161561383b5780820291505b808102905061384985613d4a565b9450613810565b94509492505050565b600061386482613a79565b915061386f83613a79565b925061389c7fffffffffffffffffffffffffffffffffffffffffffffffffffffffffffffffff84846138a4565b905092915050565b6000826138b45760019050613970565b816138c25760009050613970565b81600181146138d857600281146138e257613911565b6001915050613970565b60ff8411156138f4576138f3613bf4565b5b8360020a91508482111561390b5761390a613bf4565b5b50613970565b5060208310610133831016604e8410600b84101617156139465782820a90508381111561394157613940613bf4565b5b613970565b6139538484846001613806565b9250905081840481111561396a57613969613bf4565b5b81810290505b9392505050565b600061398282613a79565b915061398d83613a79565b9250817fffffffffffffffffffffffffffffffffffffffffffffffffffffffffffffffff04831182151516156139c6576139c5613bf4565b5b828202905092915050565b60006139dc82613a79565b91506139e783613a79565b9250828210156139fa576139f9613bf4565b5b828203905092915050565b6000613a1082613a59565b9050919050565b60008115159050919050565b6000819050919050565b60007fffffffff0000000000000000000000000000000000000000000000000000000082169050919050565b600073ffffffffffffffffffffffffffffffffffffffff82169050919050565b6000819050919050565b6000613a8e82613a95565b9050919050565b6000613aa082613a59565b9050919050565b82818337600083830152505050565b60005b83811015613ad4578082015181840152602081019050613ab9565b83811115613ae3576000848401525b50505050565b60006002820490506001821680613b0157607f821691505b60208210811415613b1557613b14613c52565b5b50919050565b613b2482613d2c565b810181811067ffffffffffffffff82111715613b4357613b42613cdf565b5b80604052505050565b6000613b5782613a79565b91507fffffffffffffffffffffffffffffffffffffffffffffffffffffffffffffffff821415613b8a57613b89613bf4565b5b600182019050919050565b6000613ba082613ba7565b9050919050565b6000613bb282613d3d565b9050919050565b6000819050919050565b6000613bce82613a79565b9150613bd983613a79565b925082613be957613be8613c23565b5b828206905092915050565b7f4e487b7100000000000000000000000000000000000000000000000000000000600052601160045260246000fd5b7f4e487b7100000000000000000000000000000000000000000000000000000000600052601260045260246000fd5b7f4e487b7100000000000000000000000000000000000000000000000000000000600052602260045260246000fd5b7f4e487b7100000000000000000000000000000000000000000000000000000000600052603160045260246000fd5b7f4e487b7100000000000000000000000000000000000000000000000000000000600052603260045260246000fd5b7f4e487b7100000000000000000000000000000000000000000000000000000000600052604160045260246000fd5b600080fd5b600080fd5b600080fd5b600080fd5b600080fd5b600080fd5b6000601f19601f8301169050919050565b60008160601b9050919050565b60008160011c9050919050565b7f43616d706169676e20697320636c6f7365640000000000000000000000000000600082015250565b7f43616c6c6572206973206e6f7420612076616c6964617465642063616d70616960008201527f676e20636f6e7472696275746f72000000000000000000000000000000000000602082015250565b7f4f776e61626c653a206e6577206f776e657220697320746865207a65726f206160008201527f6464726573730000000000000000000000000000000000000000000000000000602082015250565b7f756e61626c6520746f207472616e73666572416e6443616c6c20746f206f726160008201527f636c650000000000000000000000000000000000000000000000000000000000602082015250565b7f2f75736572732f00000000000000000000000000000000000000000000000000600082015250565b7f5061757361626c653a2070617573656400000000000000000000000000000000600082015250565b7f556e61626c6520746f207472616e736665720000000000000000000000000000600082015250565b7f4f776e61626c653a2063616c6c6572206973206e6f7420746865206f776e6572600082015250565b7f43616c6c6572206973206e6f74207468652061646d696e000000000000000000600082015250565b7f43616c6c6572206973206e6f74207468652063616d706169676e206f776e6572600082015250565b7f5265747269627574696f6e20616c726561647920636c61696d65640000000000600082015250565b7f5468697320636f6e747269627574696f6e20646f6573206e6f7420736174697360008201527f6679207468652063616d706169676e277320726571756972656d656e74730000602082015250565b7f2f74776974746572732f00000000000000000000000000000000000000000000600082015250565b7f456e756d657261626c654d61703a206e6f6e6578697374656e74206b65790000600082015250565b7f536f75726365206d75737420626520746865206f7261636c65206f662074686560008201527f2072657175657374000000000000000000000000000000000000000000000000602082015250565b7f2f636861696e732f000000000000000000000000000000000000000000000000600082015250565b7f436f6e7472696275746f7273206c696d697420616c726561647920726561636860008201527f6564000000000000000000000000000000000000000000000000000000000000602082015250565b7f2f77696e6e657273000000000000000000000000000000000000000000000000600082015250565b61412681613a05565b811461413157600080fd5b50565b61413d81613a17565b811461414857600080fd5b50565b61415481613a23565b811461415f57600080fd5b50565b61416b81613a2d565b811461417657600080fd5b50565b61418281613a79565b811461418d57600080fd5b5056fea2646970667358221220dc85cead4b73d74ca463bf01c638beb93abeddccb8a4c886ce10bf4692d95abf64736f6c63430008060033","opcodes":"PUSH1 0xC0 PUSH1 0x40 MSTORE PUSH1 0x1 PUSH1 0x6 SSTORE CALLVALUE DUP1 ISZERO PUSH3 0x16 JUMPI PUSH1 0x0 DUP1 REVERT JUMPDEST POP PUSH1 0x40 MLOAD PUSH3 0x4971 CODESIZE SUB DUP1 PUSH3 0x4971 DUP4 CODECOPY DUP2 DUP2 ADD PUSH1 0x40 MSTORE DUP2 ADD SWAP1 PUSH3 0x3C SWAP2 SWAP1 PUSH3 0x3C6 JUMP JUMPDEST PUSH1 0x0 DUP1 PUSH1 0x0 PUSH2 0x100 EXP DUP2 SLOAD DUP2 PUSH1 0xFF MUL NOT AND SWAP1 DUP4 ISZERO ISZERO MUL OR SWAP1 SSTORE POP PUSH3 0x76 PUSH3 0x6A PUSH3 0xFE PUSH1 0x20 SHL PUSH1 0x20 SHR JUMP JUMPDEST PUSH3 0x106 PUSH1 0x20 SHL PUSH1 0x20 SHR JUMP JUMPDEST PUSH1 0x1 DUP1 DUP2 SWAP1 SSTORE POP PUSH3 0x8E DUP3 PUSH3 0x1CB PUSH1 0x20 SHL PUSH1 0x20 SHR JUMP JUMPDEST PUSH3 0x9F DUP4 PUSH3 0x20F PUSH1 0x20 SHL PUSH1 0x20 SHR JUMP JUMPDEST DUP5 PUSH1 0x80 DUP2 DUP2 MSTORE POP POP PUSH1 0xA PUSH8 0xDE0B6B3A7640000 PUSH1 0x1 PUSH3 0xC0 SWAP2 SWAP1 PUSH3 0x504 JUMP JUMPDEST PUSH3 0xCC SWAP2 SWAP1 PUSH3 0x4CC JUMP JUMPDEST PUSH1 0xA0 DUP2 DUP2 MSTORE POP POP DUP1 PUSH1 0x11 DUP2 SWAP1 SSTORE POP DUP4 PUSH1 0x9 SWAP1 DUP1 MLOAD SWAP1 PUSH1 0x20 ADD SWAP1 PUSH3 0xF2 SWAP3 SWAP2 SWAP1 PUSH3 0x253 JUMP JUMPDEST POP POP POP POP POP POP PUSH3 0x77E JUMP JUMPDEST PUSH1 0x0 CALLER SWAP1 POP SWAP1 JUMP JUMPDEST PUSH1 0x0 DUP1 PUSH1 0x1 SWAP1 SLOAD SWAP1 PUSH2 0x100 EXP SWAP1 DIV PUSH20 0xFFFFFFFFFFFFFFFFFFFFFFFFFFFFFFFFFFFFFFFF AND SWAP1 POP DUP2 PUSH1 0x0 PUSH1 0x1 PUSH2 0x100 EXP DUP2 SLOAD DUP2 PUSH20 0xFFFFFFFFFFFFFFFFFFFFFFFFFFFFFFFFFFFFFFFF MUL NOT AND SWAP1 DUP4 PUSH20 0xFFFFFFFFFFFFFFFFFFFFFFFFFFFFFFFFFFFFFFFF AND MUL OR SWAP1 SSTORE POP DUP2 PUSH20 0xFFFFFFFFFFFFFFFFFFFFFFFFFFFFFFFFFFFFFFFF AND DUP2 PUSH20 0xFFFFFFFFFFFFFFFFFFFFFFFFFFFFFFFFFFFFFFFF AND PUSH32 0x8BE0079C531659141344CD1FD0A4F28419497F9722A3DAAFE3B4186F6B6457E0 PUSH1 0x40 MLOAD PUSH1 0x40 MLOAD DUP1 SWAP2 SUB SWAP1 LOG3 POP POP JUMP JUMPDEST DUP1 PUSH1 0x4 PUSH1 0x0 PUSH2 0x100 EXP DUP2 SLOAD DUP2 PUSH20 0xFFFFFFFFFFFFFFFFFFFFFFFFFFFFFFFFFFFFFFFF MUL NOT AND SWAP1 DUP4 PUSH20 0xFFFFFFFFFFFFFFFFFFFFFFFFFFFFFFFFFFFFFFFF AND MUL OR SWAP1 SSTORE POP POP JUMP JUMPDEST DUP1 PUSH1 0x5 PUSH1 0x0 PUSH2 0x100 EXP DUP2 SLOAD DUP2 PUSH20 0xFFFFFFFFFFFFFFFFFFFFFFFFFFFFFFFFFFFFFFFF MUL NOT AND SWAP1 DUP4 PUSH20 0xFFFFFFFFFFFFFFFFFFFFFFFFFFFFFFFFFFFFFFFF AND MUL OR SWAP1 SSTORE POP POP JUMP JUMPDEST DUP3 DUP1 SLOAD PUSH3 0x261 SWAP1 PUSH3 0x5E3 JUMP JUMPDEST SWAP1 PUSH1 0x0 MSTORE PUSH1 0x20 PUSH1 0x0 KECCAK256 SWAP1 PUSH1 0x1F ADD PUSH1 0x20 SWAP1 DIV DUP2 ADD SWAP3 DUP3 PUSH3 0x285 JUMPI PUSH1 0x0 DUP6 SSTORE PUSH3 0x2D1 JUMP JUMPDEST DUP3 PUSH1 0x1F LT PUSH3 0x2A0 JUMPI DUP1 MLOAD PUSH1 0xFF NOT AND DUP4 DUP1 ADD OR DUP6 SSTORE PUSH3 0x2D1 JUMP JUMPDEST DUP3 DUP1 ADD PUSH1 0x1 ADD DUP6 SSTORE DUP3 ISZERO PUSH3 0x2D1 JUMPI SWAP2 DUP3 ADD JUMPDEST DUP3 DUP2 GT ISZERO PUSH3 0x2D0 JUMPI DUP3 MLOAD DUP3 SSTORE SWAP2 PUSH1 0x20 ADD SWAP2 SWAP1 PUSH1 0x1 ADD SWAP1 PUSH3 0x2B3 JUMP JUMPDEST JUMPDEST POP SWAP1 POP PUSH3 0x2E0 SWAP2 SWAP1 PUSH3 0x2E4 JUMP JUMPDEST POP SWAP1 JUMP JUMPDEST JUMPDEST DUP1 DUP3 GT ISZERO PUSH3 0x2FF JUMPI PUSH1 0x0 DUP2 PUSH1 0x0 SWAP1 SSTORE POP PUSH1 0x1 ADD PUSH3 0x2E5 JUMP JUMPDEST POP SWAP1 JUMP JUMPDEST PUSH1 0x0 PUSH3 0x31A PUSH3 0x314 DUP5 PUSH3 0x496 JUMP JUMPDEST PUSH3 0x46D JUMP JUMPDEST SWAP1 POP DUP3 DUP2 MSTORE PUSH1 0x20 DUP2 ADD DUP5 DUP5 DUP5 ADD GT ISZERO PUSH3 0x339 JUMPI PUSH3 0x338 PUSH3 0x710 JUMP JUMPDEST JUMPDEST PUSH3 0x346 DUP5 DUP3 DUP6 PUSH3 0x5AD JUMP JUMPDEST POP SWAP4 SWAP3 POP POP POP JUMP JUMPDEST PUSH1 0x0 DUP2 MLOAD SWAP1 POP PUSH3 0x35F DUP2 PUSH3 0x730 JUMP JUMPDEST SWAP3 SWAP2 POP POP JUMP JUMPDEST PUSH1 0x0 DUP2 MLOAD SWAP1 POP PUSH3 0x376 DUP2 PUSH3 0x74A JUMP JUMPDEST SWAP3 SWAP2 POP POP JUMP JUMPDEST PUSH1 0x0 DUP3 PUSH1 0x1F DUP4 ADD SLT PUSH3 0x394 JUMPI PUSH3 0x393 PUSH3 0x70B JUMP JUMPDEST JUMPDEST DUP2 MLOAD PUSH3 0x3A6 DUP5 DUP3 PUSH1 0x20 DUP7 ADD PUSH3 0x303 JUMP JUMPDEST SWAP2 POP POP SWAP3 SWAP2 POP POP JUMP JUMPDEST PUSH1 0x0 DUP2 MLOAD SWAP1 POP PUSH3 0x3C0 DUP2 PUSH3 0x764 JUMP JUMPDEST SWAP3 SWAP2 POP POP JUMP JUMPDEST PUSH1 0x0 DUP1 PUSH1 0x0 DUP1 PUSH1 0x0 PUSH1 0xA0 DUP7 DUP9 SUB SLT ISZERO PUSH3 0x3E5 JUMPI PUSH3 0x3E4 PUSH3 0x71A JUMP JUMPDEST JUMPDEST PUSH1 0x0 PUSH3 0x3F5 DUP9 DUP3 DUP10 ADD PUSH3 0x365 JUMP JUMPDEST SWAP6 POP POP PUSH1 0x20 DUP7 ADD MLOAD PUSH8 0xFFFFFFFFFFFFFFFF DUP2 GT ISZERO PUSH3 0x419 JUMPI PUSH3 0x418 PUSH3 0x715 JUMP JUMPDEST JUMPDEST PUSH3 0x427 DUP9 DUP3 DUP10 ADD PUSH3 0x37C JUMP JUMPDEST SWAP5 POP POP PUSH1 0x40 PUSH3 0x43A DUP9 DUP3 DUP10 ADD PUSH3 0x34E JUMP JUMPDEST SWAP4 POP POP PUSH1 0x60 PUSH3 0x44D DUP9 DUP3 DUP10 ADD PUSH3 0x34E JUMP JUMPDEST SWAP3 POP POP PUSH1 0x80 PUSH3 0x460 DUP9 DUP3 DUP10 ADD PUSH3 0x3AF JUMP JUMPDEST SWAP2 POP POP SWAP3 SWAP6 POP SWAP3 SWAP6 SWAP1 SWAP4 POP JUMP JUMPDEST PUSH1 0x0 PUSH3 0x479 PUSH3 0x48C JUMP JUMPDEST SWAP1 POP PUSH3 0x487 DUP3 DUP3 PUSH3 0x619 JUMP JUMPDEST SWAP2 SWAP1 POP JUMP JUMPDEST PUSH1 0x0 PUSH1 0x40 MLOAD SWAP1 POP SWAP1 JUMP JUMPDEST PUSH1 0x0 PUSH8 0xFFFFFFFFFFFFFFFF DUP3 GT ISZERO PUSH3 0x4B4 JUMPI PUSH3 0x4B3 PUSH3 0x6DC JUMP JUMPDEST JUMPDEST PUSH3 0x4BF DUP3 PUSH3 0x71F JUMP JUMPDEST SWAP1 POP PUSH1 0x20 DUP2 ADD SWAP1 POP SWAP2 SWAP1 POP JUMP JUMPDEST PUSH1 0x0 PUSH3 0x4D9 DUP3 PUSH3 0x5A3 JUMP JUMPDEST SWAP2 POP PUSH3 0x4E6 DUP4 PUSH3 0x5A3 JUMP JUMPDEST SWAP3 POP DUP3 PUSH3 0x4F9 JUMPI PUSH3 0x4F8 PUSH3 0x67E JUMP JUMPDEST JUMPDEST DUP3 DUP3 DIV SWAP1 POP SWAP3 SWAP2 POP POP JUMP JUMPDEST PUSH1 0x0 PUSH3 0x511 DUP3 PUSH3 0x5A3 JUMP JUMPDEST SWAP2 POP PUSH3 0x51E DUP4 PUSH3 0x5A3 JUMP JUMPDEST SWAP3 POP DUP2 PUSH32 0xFFFFFFFFFFFFFFFFFFFFFFFFFFFFFFFFFFFFFFFFFFFFFFFFFFFFFFFFFFFFFFFF DIV DUP4 GT DUP3 ISZERO ISZERO AND ISZERO PUSH3 0x55A JUMPI PUSH3 0x559 PUSH3 0x64F JUMP JUMPDEST JUMPDEST DUP3 DUP3 MUL SWAP1 POP SWAP3 SWAP2 POP POP JUMP JUMPDEST PUSH1 0x0 PUSH3 0x572 DUP3 PUSH3 0x583 JUMP JUMPDEST SWAP1 POP SWAP2 SWAP1 POP JUMP JUMPDEST PUSH1 0x0 DUP2 SWAP1 POP SWAP2 SWAP1 POP JUMP JUMPDEST PUSH1 0x0 PUSH20 0xFFFFFFFFFFFFFFFFFFFFFFFFFFFFFFFFFFFFFFFF DUP3 AND SWAP1 POP SWAP2 SWAP1 POP JUMP JUMPDEST PUSH1 0x0 DUP2 SWAP1 POP SWAP2 SWAP1 POP JUMP JUMPDEST PUSH1 0x0 JUMPDEST DUP4 DUP2 LT ISZERO PUSH3 0x5CD JUMPI DUP1 DUP3 ADD MLOAD DUP2 DUP5 ADD MSTORE PUSH1 0x20 DUP2 ADD SWAP1 POP PUSH3 0x5B0 JUMP JUMPDEST DUP4 DUP2 GT ISZERO PUSH3 0x5DD JUMPI PUSH1 0x0 DUP5 DUP5 ADD MSTORE JUMPDEST POP POP POP POP JUMP JUMPDEST PUSH1 0x0 PUSH1 0x2 DUP3 DIV SWAP1 POP PUSH1 0x1 DUP3 AND DUP1 PUSH3 0x5FC JUMPI PUSH1 0x7F DUP3 AND SWAP2 POP JUMPDEST PUSH1 0x20 DUP3 LT DUP2 EQ ISZERO PUSH3 0x613 JUMPI PUSH3 0x612 PUSH3 0x6AD JUMP JUMPDEST JUMPDEST POP SWAP2 SWAP1 POP JUMP JUMPDEST PUSH3 0x624 DUP3 PUSH3 0x71F JUMP JUMPDEST DUP2 ADD DUP2 DUP2 LT PUSH8 0xFFFFFFFFFFFFFFFF DUP3 GT OR ISZERO PUSH3 0x646 JUMPI PUSH3 0x645 PUSH3 0x6DC JUMP JUMPDEST JUMPDEST DUP1 PUSH1 0x40 MSTORE POP POP POP JUMP JUMPDEST PUSH32 0x4E487B7100000000000000000000000000000000000000000000000000000000 PUSH1 0x0 MSTORE PUSH1 0x11 PUSH1 0x4 MSTORE PUSH1 0x24 PUSH1 0x0 REVERT JUMPDEST PUSH32 0x4E487B7100000000000000000000000000000000000000000000000000000000 PUSH1 0x0 MSTORE PUSH1 0x12 PUSH1 0x4 MSTORE PUSH1 0x24 PUSH1 0x0 REVERT JUMPDEST PUSH32 0x4E487B7100000000000000000000000000000000000000000000000000000000 PUSH1 0x0 MSTORE PUSH1 0x22 PUSH1 0x4 MSTORE PUSH1 0x24 PUSH1 0x0 REVERT JUMPDEST PUSH32 0x4E487B7100000000000000000000000000000000000000000000000000000000 PUSH1 0x0 MSTORE PUSH1 0x41 PUSH1 0x4 MSTORE PUSH1 0x24 PUSH1 0x0 REVERT JUMPDEST PUSH1 0x0 DUP1 REVERT JUMPDEST PUSH1 0x0 DUP1 REVERT JUMPDEST PUSH1 0x0 DUP1 REVERT JUMPDEST PUSH1 0x0 DUP1 REVERT JUMPDEST PUSH1 0x0 PUSH1 0x1F NOT PUSH1 0x1F DUP4 ADD AND SWAP1 POP SWAP2 SWAP1 POP JUMP JUMPDEST PUSH3 0x73B DUP2 PUSH3 0x565 JUMP JUMPDEST DUP2 EQ PUSH3 0x747 JUMPI PUSH1 0x0 DUP1 REVERT JUMPDEST POP JUMP JUMPDEST PUSH3 0x755 DUP2 PUSH3 0x579 JUMP JUMPDEST DUP2 EQ PUSH3 0x761 JUMPI PUSH1 0x0 DUP1 REVERT JUMPDEST POP JUMP JUMPDEST PUSH3 0x76F DUP2 PUSH3 0x5A3 JUMP JUMPDEST DUP2 EQ PUSH3 0x77B JUMPI PUSH1 0x0 DUP1 REVERT JUMPDEST POP JUMP JUMPDEST PUSH1 0x80 MLOAD PUSH1 0xA0 MLOAD PUSH2 0x41C6 PUSH3 0x7AB PUSH1 0x0 CODECOPY PUSH1 0x0 PUSH2 0x161F ADD MSTORE PUSH1 0x0 DUP2 DUP2 PUSH2 0x1156 ADD MSTORE PUSH2 0x1517 ADD MSTORE PUSH2 0x41C6 PUSH1 0x0 RETURN INVALID PUSH1 0x80 PUSH1 0x40 MSTORE CALLVALUE DUP1 ISZERO PUSH2 0x10 JUMPI PUSH1 0x0 DUP1 REVERT JUMPDEST POP PUSH1 0x4 CALLDATASIZE LT PUSH2 0x173 JUMPI PUSH1 0x0 CALLDATALOAD PUSH1 0xE0 SHR DUP1 PUSH4 0xA9654AD4 GT PUSH2 0xDE JUMPI DUP1 PUSH4 0xC2939D97 GT PUSH2 0x97 JUMPI DUP1 PUSH4 0xEC65D0F8 GT PUSH2 0x71 JUMPI DUP1 PUSH4 0xEC65D0F8 EQ PUSH2 0x400 JUMPI DUP1 PUSH4 0xEC8F04E9 EQ PUSH2 0x41C JUMPI DUP1 PUSH4 0xF2B3C809 EQ PUSH2 0x438 JUMPI DUP1 PUSH4 0xF2FDE38B EQ PUSH2 0x456 JUMPI PUSH2 0x173 JUMP JUMPDEST DUP1 PUSH4 0xC2939D97 EQ PUSH2 0x3A6 JUMPI DUP1 PUSH4 0xCC32D176 EQ PUSH2 0x3C4 JUMPI DUP1 PUSH4 0xDC4D5EFB EQ PUSH2 0x3E2 JUMPI PUSH2 0x173 JUMP JUMPDEST DUP1 PUSH4 0xA9654AD4 EQ PUSH2 0x2D4 JUMPI DUP1 PUSH4 0xAA2BDEF9 EQ PUSH2 0x304 JUMPI DUP1 PUSH4 0xACED1661 EQ PUSH2 0x334 JUMPI DUP1 PUSH4 0xB0E1C1E1 EQ PUSH2 0x352 JUMPI DUP1 PUSH4 0xB1D3C700 EQ PUSH2 0x36E JUMPI DUP1 PUSH4 0xB5A898AE EQ PUSH2 0x38A JUMPI PUSH2 0x173 JUMP JUMPDEST DUP1 PUSH4 0x5C975ABB GT PUSH2 0x130 JUMPI DUP1 PUSH4 0x5C975ABB EQ PUSH2 0x24A JUMPI DUP1 PUSH4 0x5EC4BC38 EQ PUSH2 0x268 JUMPI DUP1 PUSH4 0x715018A6 EQ PUSH2 0x286 JUMPI DUP1 PUSH4 0x8DA5CB5B EQ PUSH2 0x290 JUMPI DUP1 PUSH4 0x8DC654A2 EQ PUSH2 0x2AE JUMPI DUP1 PUSH4 0xA4E336C3 EQ PUSH2 0x2B8 JUMPI PUSH2 0x173 JUMP JUMPDEST DUP1 PUSH4 0xA944292 EQ PUSH2 0x178 JUMPI DUP1 PUSH4 0x1FC645C7 EQ PUSH2 0x1A8 JUMPI DUP1 PUSH4 0x368ACB09 EQ PUSH2 0x1C4 JUMPI DUP1 PUSH4 0x4A732795 EQ PUSH2 0x1E2 JUMPI DUP1 PUSH4 0x5598F8CC EQ PUSH2 0x1FE JUMPI DUP1 PUSH4 0x58D9FA04 EQ PUSH2 0x22E JUMPI JUMPDEST PUSH1 0x0 DUP1 REVERT JUMPDEST PUSH2 0x192 PUSH1 0x4 DUP1 CALLDATASIZE SUB DUP2 ADD SWAP1 PUSH2 0x18D SWAP2 SWAP1 PUSH2 0x2C1B JUMP JUMPDEST PUSH2 0x472 JUMP JUMPDEST PUSH1 0x40 MLOAD PUSH2 0x19F SWAP2 SWAP1 PUSH2 0x3441 JUMP JUMPDEST PUSH1 0x40 MLOAD DUP1 SWAP2 SUB SWAP1 RETURN JUMPDEST PUSH2 0x1C2 PUSH1 0x4 DUP1 CALLDATASIZE SUB DUP2 ADD SWAP1 PUSH2 0x1BD SWAP2 SWAP1 PUSH2 0x2C1B JUMP JUMPDEST PUSH2 0x4A0 JUMP JUMPDEST STOP JUMPDEST PUSH2 0x1CC PUSH2 0x4FC JUMP JUMPDEST PUSH1 0x40 MLOAD PUSH2 0x1D9 SWAP2 SWAP1 PUSH2 0x3645 JUMP JUMPDEST PUSH1 0x40 MLOAD DUP1 SWAP2 SUB SWAP1 RETURN JUMPDEST PUSH2 0x1FC PUSH1 0x4 DUP1 CALLDATASIZE SUB DUP2 ADD SWAP1 PUSH2 0x1F7 SWAP2 SWAP1 PUSH2 0x2C1B JUMP JUMPDEST PUSH2 0x502 JUMP JUMPDEST STOP JUMPDEST PUSH2 0x218 PUSH1 0x4 DUP1 CALLDATASIZE SUB DUP2 ADD SWAP1 PUSH2 0x213 SWAP2 SWAP1 PUSH2 0x2C1B JUMP JUMPDEST PUSH2 0x6E0 JUMP JUMPDEST PUSH1 0x40 MLOAD PUSH2 0x225 SWAP2 SWAP1 PUSH2 0x3623 JUMP JUMPDEST PUSH1 0x40 MLOAD DUP1 SWAP2 SUB SWAP1 RETURN JUMPDEST PUSH2 0x248 PUSH1 0x4 DUP1 CALLDATASIZE SUB DUP2 ADD SWAP1 PUSH2 0x243 SWAP2 SWAP1 PUSH2 0x2C75 JUMP JUMPDEST PUSH2 0x82E JUMP JUMPDEST STOP JUMPDEST PUSH2 0x252 PUSH2 0x8D7 JUMP JUMPDEST PUSH1 0x40 MLOAD PUSH2 0x25F SWAP2 SWAP1 PUSH2 0x33C6 JUMP JUMPDEST PUSH1 0x40 MLOAD DUP1 SWAP2 SUB SWAP1 RETURN JUMPDEST PUSH2 0x270 PUSH2 0x8ED JUMP JUMPDEST PUSH1 0x40 MLOAD PUSH2 0x27D SWAP2 SWAP1 PUSH2 0x33C6 JUMP JUMPDEST PUSH1 0x40 MLOAD DUP1 SWAP2 SUB SWAP1 RETURN JUMPDEST PUSH2 0x28E PUSH2 0x96F JUMP JUMPDEST STOP JUMPDEST PUSH2 0x298 PUSH2 0x9F7 JUMP JUMPDEST PUSH1 0x40 MLOAD PUSH2 0x2A5 SWAP2 SWAP1 PUSH2 0x32BF JUMP JUMPDEST PUSH1 0x40 MLOAD DUP1 SWAP2 SUB SWAP1 RETURN JUMPDEST PUSH2 0x2B6 PUSH2 0xA20 JUMP JUMPDEST STOP JUMPDEST PUSH2 0x2D2 PUSH1 0x4 DUP1 CALLDATASIZE SUB DUP2 ADD SWAP1 PUSH2 0x2CD SWAP2 SWAP1 PUSH2 0x2A8C JUMP JUMPDEST PUSH2 0xBFF JUMP JUMPDEST STOP JUMPDEST PUSH2 0x2EE PUSH1 0x4 DUP1 CALLDATASIZE SUB DUP2 ADD SWAP1 PUSH2 0x2E9 SWAP2 SWAP1 PUSH2 0x2C1B JUMP JUMPDEST PUSH2 0xD3E JUMP JUMPDEST PUSH1 0x40 MLOAD PUSH2 0x2FB SWAP2 SWAP1 PUSH2 0x33C6 JUMP JUMPDEST PUSH1 0x40 MLOAD DUP1 SWAP2 SUB SWAP1 RETURN JUMPDEST PUSH2 0x31E PUSH1 0x4 DUP1 CALLDATASIZE SUB DUP2 ADD SWAP1 PUSH2 0x319 SWAP2 SWAP1 PUSH2 0x2C1B JUMP JUMPDEST PUSH2 0xD5B JUMP JUMPDEST PUSH1 0x40 MLOAD PUSH2 0x32B SWAP2 SWAP1 PUSH2 0x3441 JUMP JUMPDEST PUSH1 0x40 MLOAD DUP1 SWAP2 SUB SWAP1 RETURN JUMPDEST PUSH2 0x33C PUSH2 0xD87 JUMP JUMPDEST PUSH1 0x40 MLOAD PUSH2 0x349 SWAP2 SWAP1 PUSH2 0x32BF JUMP JUMPDEST PUSH1 0x40 MLOAD DUP1 SWAP2 SUB SWAP1 RETURN JUMPDEST PUSH2 0x36C PUSH1 0x4 DUP1 CALLDATASIZE SUB DUP2 ADD SWAP1 PUSH2 0x367 SWAP2 SWAP1 PUSH2 0x2C1B JUMP JUMPDEST PUSH2 0xDAD JUMP JUMPDEST STOP JUMPDEST PUSH2 0x388 PUSH1 0x4 DUP1 CALLDATASIZE SUB DUP2 ADD SWAP1 PUSH2 0x383 SWAP2 SWAP1 PUSH2 0x2CB5 JUMP JUMPDEST PUSH2 0xEA4 JUMP JUMPDEST STOP JUMPDEST PUSH2 0x3A4 PUSH1 0x4 DUP1 CALLDATASIZE SUB DUP2 ADD SWAP1 PUSH2 0x39F SWAP2 SWAP1 PUSH2 0x2B93 JUMP JUMPDEST PUSH2 0xF43 JUMP JUMPDEST STOP JUMPDEST PUSH2 0x3AE PUSH2 0x1154 JUMP JUMPDEST PUSH1 0x40 MLOAD PUSH2 0x3BB SWAP2 SWAP1 PUSH2 0x33E1 JUMP JUMPDEST PUSH1 0x40 MLOAD DUP1 SWAP2 SUB SWAP1 RETURN JUMPDEST PUSH2 0x3CC PUSH2 0x1178 JUMP JUMPDEST PUSH1 0x40 MLOAD PUSH2 0x3D9 SWAP2 SWAP1 PUSH2 0x3645 JUMP JUMPDEST PUSH1 0x40 MLOAD DUP1 SWAP2 SUB SWAP1 RETURN JUMPDEST PUSH2 0x3EA PUSH2 0x117E JUMP JUMPDEST PUSH1 0x40 MLOAD PUSH2 0x3F7 SWAP2 SWAP1 PUSH2 0x3441 JUMP JUMPDEST PUSH1 0x40 MLOAD DUP1 SWAP2 SUB SWAP1 RETURN JUMPDEST PUSH2 0x41A PUSH1 0x4 DUP1 CALLDATASIZE SUB DUP2 ADD SWAP1 PUSH2 0x415 SWAP2 SWAP1 PUSH2 0x2ADF JUMP JUMPDEST PUSH2 0x120C JUMP JUMPDEST STOP JUMPDEST PUSH2 0x436 PUSH1 0x4 DUP1 CALLDATASIZE SUB DUP2 ADD SWAP1 PUSH2 0x431 SWAP2 SWAP1 PUSH2 0x2B46 JUMP JUMPDEST PUSH2 0x1293 JUMP JUMPDEST STOP JUMPDEST PUSH2 0x440 PUSH2 0x131E JUMP JUMPDEST PUSH1 0x40 MLOAD PUSH2 0x44D SWAP2 SWAP1 PUSH2 0x3645 JUMP JUMPDEST PUSH1 0x40 MLOAD DUP1 SWAP2 SUB SWAP1 RETURN JUMPDEST PUSH2 0x470 PUSH1 0x4 DUP1 CALLDATASIZE SUB DUP2 ADD SWAP1 PUSH2 0x46B SWAP2 SWAP1 PUSH2 0x2A32 JUMP JUMPDEST PUSH2 0x1324 JUMP JUMPDEST STOP JUMPDEST PUSH1 0x60 PUSH1 0x9 CHAINID DUP4 PUSH1 0x40 MLOAD PUSH1 0x20 ADD PUSH2 0x48A SWAP4 SWAP3 SWAP2 SWAP1 PUSH2 0x3265 JUMP JUMPDEST PUSH1 0x40 MLOAD PUSH1 0x20 DUP2 DUP4 SUB SUB DUP2 MSTORE SWAP1 PUSH1 0x40 MSTORE SWAP1 POP SWAP2 SWAP1 POP JUMP JUMPDEST PUSH2 0x4B6 DUP2 CALLER PUSH1 0xA PUSH2 0x141C SWAP1 SWAP3 SWAP2 SWAP1 PUSH4 0xFFFFFFFF AND JUMP JUMPDEST POP DUP1 PUSH32 0x98EACF4F33E6A76B9B0916F3A1F00CBFE38F5728E60C71CDEC75362365C23A15 CALLER PUSH1 0x40 MLOAD PUSH2 0x4E7 SWAP2 SWAP1 PUSH2 0x32BF JUMP JUMPDEST PUSH1 0x40 MLOAD DUP1 SWAP2 SUB SWAP1 LOG2 PUSH2 0x4F8 DUP2 PUSH2 0x1451 JUMP JUMPDEST POP POP JUMP JUMPDEST PUSH1 0x12 SLOAD DUP2 JUMP JUMPDEST PUSH1 0x0 PUSH1 0x10 PUSH1 0x0 DUP4 DUP2 MSTORE PUSH1 0x20 ADD SWAP1 DUP2 MSTORE PUSH1 0x20 ADD PUSH1 0x0 KECCAK256 SWAP1 POP PUSH1 0x1 ISZERO ISZERO DUP2 PUSH1 0x1 ADD PUSH1 0x0 CALLER PUSH20 0xFFFFFFFFFFFFFFFFFFFFFFFFFFFFFFFFFFFFFFFF AND PUSH20 0xFFFFFFFFFFFFFFFFFFFFFFFFFFFFFFFFFFFFFFFF AND DUP2 MSTORE PUSH1 0x20 ADD SWAP1 DUP2 MSTORE PUSH1 0x20 ADD PUSH1 0x0 KECCAK256 PUSH1 0x0 SWAP1 SLOAD SWAP1 PUSH2 0x100 EXP SWAP1 DIV PUSH1 0xFF AND ISZERO ISZERO EQ PUSH2 0x5AE JUMPI PUSH1 0x40 MLOAD PUSH32 0x8C379A000000000000000000000000000000000000000000000000000000000 DUP2 MSTORE PUSH1 0x4 ADD PUSH2 0x5A5 SWAP1 PUSH2 0x3483 JUMP JUMPDEST PUSH1 0x40 MLOAD DUP1 SWAP2 SUB SWAP1 REVERT JUMPDEST PUSH1 0x0 ISZERO ISZERO DUP2 PUSH1 0x2 ADD PUSH1 0x0 CALLER PUSH20 0xFFFFFFFFFFFFFFFFFFFFFFFFFFFFFFFFFFFFFFFF AND PUSH20 0xFFFFFFFFFFFFFFFFFFFFFFFFFFFFFFFFFFFFFFFF AND DUP2 MSTORE PUSH1 0x20 ADD SWAP1 DUP2 MSTORE PUSH1 0x20 ADD PUSH1 0x0 KECCAK256 PUSH1 0x0 SWAP1 SLOAD SWAP1 PUSH2 0x100 EXP SWAP1 DIV PUSH1 0xFF AND ISZERO ISZERO EQ PUSH2 0x643 JUMPI PUSH1 0x40 MLOAD PUSH32 0x8C379A000000000000000000000000000000000000000000000000000000000 DUP2 MSTORE PUSH1 0x4 ADD PUSH2 0x63A SWAP1 PUSH2 0x3583 JUMP JUMPDEST PUSH1 0x40 MLOAD DUP1 SWAP2 SUB SWAP1 REVERT JUMPDEST PUSH1 0x0 PUSH2 0x64E DUP4 PUSH2 0x167D JUMP JUMPDEST SWAP1 POP PUSH2 0x659 DUP4 PUSH2 0x16AD JUMP JUMPDEST CALLER PUSH20 0xFFFFFFFFFFFFFFFFFFFFFFFFFFFFFFFFFFFFFFFF AND PUSH2 0x8FC DUP3 SWAP1 DUP2 ISZERO MUL SWAP1 PUSH1 0x40 MLOAD PUSH1 0x0 PUSH1 0x40 MLOAD DUP1 DUP4 SUB DUP2 DUP6 DUP9 DUP9 CALL SWAP4 POP POP POP POP ISZERO DUP1 ISZERO PUSH2 0x69F JUMPI RETURNDATASIZE PUSH1 0x0 DUP1 RETURNDATACOPY RETURNDATASIZE PUSH1 0x0 REVERT JUMPDEST POP PUSH32 0x834B5FC2655A3B64CB9DFBBF39CB1B67BFF9E533AB318DBB3677E4EDCF9DC25D DUP4 CALLER DUP4 PUSH1 0x40 MLOAD PUSH2 0x6D3 SWAP4 SWAP3 SWAP2 SWAP1 PUSH2 0x3689 JUMP JUMPDEST PUSH1 0x40 MLOAD DUP1 SWAP2 SUB SWAP1 LOG1 POP POP POP JUMP JUMPDEST PUSH2 0x6E8 PUSH2 0x26CD JUMP JUMPDEST PUSH2 0x6F1 DUP3 PUSH2 0x1722 JUMP JUMPDEST PUSH1 0x40 MLOAD DUP1 PUSH1 0xE0 ADD PUSH1 0x40 MSTORE SWAP1 DUP2 PUSH1 0x0 DUP3 ADD SLOAD DUP2 MSTORE PUSH1 0x20 ADD PUSH1 0x1 DUP3 ADD DUP1 SLOAD PUSH2 0x716 SWAP1 PUSH2 0x3AE9 JUMP JUMPDEST DUP1 PUSH1 0x1F ADD PUSH1 0x20 DUP1 SWAP2 DIV MUL PUSH1 0x20 ADD PUSH1 0x40 MLOAD SWAP1 DUP2 ADD PUSH1 0x40 MSTORE DUP1 SWAP3 SWAP2 SWAP1 DUP2 DUP2 MSTORE PUSH1 0x20 ADD DUP3 DUP1 SLOAD PUSH2 0x742 SWAP1 PUSH2 0x3AE9 JUMP JUMPDEST DUP1 ISZERO PUSH2 0x78F JUMPI DUP1 PUSH1 0x1F LT PUSH2 0x764 JUMPI PUSH2 0x100 DUP1 DUP4 SLOAD DIV MUL DUP4 MSTORE SWAP2 PUSH1 0x20 ADD SWAP2 PUSH2 0x78F JUMP JUMPDEST DUP3 ADD SWAP2 SWAP1 PUSH1 0x0 MSTORE PUSH1 0x20 PUSH1 0x0 KECCAK256 SWAP1 JUMPDEST DUP2 SLOAD DUP2 MSTORE SWAP1 PUSH1 0x1 ADD SWAP1 PUSH1 0x20 ADD DUP1 DUP4 GT PUSH2 0x772 JUMPI DUP3 SWAP1 SUB PUSH1 0x1F AND DUP3 ADD SWAP2 JUMPDEST POP POP POP POP POP DUP2 MSTORE PUSH1 0x20 ADD PUSH1 0x2 DUP3 ADD PUSH1 0x0 SWAP1 SLOAD SWAP1 PUSH2 0x100 EXP SWAP1 DIV PUSH20 0xFFFFFFFFFFFFFFFFFFFFFFFFFFFFFFFFFFFFFFFF AND PUSH20 0xFFFFFFFFFFFFFFFFFFFFFFFFFFFFFFFFFFFFFFFF AND PUSH20 0xFFFFFFFFFFFFFFFFFFFFFFFFFFFFFFFFFFFFFFFF AND DUP2 MSTORE PUSH1 0x20 ADD PUSH1 0x3 DUP3 ADD SLOAD DUP2 MSTORE PUSH1 0x20 ADD PUSH1 0x4 DUP3 ADD SLOAD DUP2 MSTORE PUSH1 0x20 ADD PUSH1 0x5 DUP3 ADD SLOAD DUP2 MSTORE PUSH1 0x20 ADD PUSH1 0x6 DUP3 ADD PUSH1 0x0 SWAP1 SLOAD SWAP1 PUSH2 0x100 EXP SWAP1 DIV PUSH1 0xFF AND ISZERO ISZERO ISZERO ISZERO DUP2 MSTORE POP POP SWAP1 POP SWAP2 SWAP1 POP JUMP JUMPDEST PUSH2 0x836 PUSH2 0x9F7 JUMP JUMPDEST PUSH20 0xFFFFFFFFFFFFFFFFFFFFFFFFFFFFFFFFFFFFFFFF AND CALLER PUSH20 0xFFFFFFFFFFFFFFFFFFFFFFFFFFFFFFFFFFFFFFFF AND EQ PUSH2 0x8A3 JUMPI PUSH1 0x40 MLOAD PUSH32 0x8C379A000000000000000000000000000000000000000000000000000000000 DUP2 MSTORE PUSH1 0x4 ADD PUSH2 0x89A SWAP1 PUSH2 0x3543 JUMP JUMPDEST PUSH1 0x40 MLOAD DUP1 SWAP2 SUB SWAP1 REVERT JUMPDEST PUSH2 0x8B7 DUP3 PUSH1 0xA PUSH2 0x173E SWAP1 SWAP2 SWAP1 PUSH4 0xFFFFFFFF AND JUMP JUMPDEST PUSH2 0x8D3 JUMPI PUSH2 0x8D1 DUP3 DUP3 PUSH1 0xA PUSH2 0x141C SWAP1 SWAP3 SWAP2 SWAP1 PUSH4 0xFFFFFFFF AND JUMP JUMPDEST POP JUMPDEST POP POP JUMP JUMPDEST PUSH1 0x0 DUP1 PUSH1 0x0 SWAP1 SLOAD SWAP1 PUSH2 0x100 EXP SWAP1 DIV PUSH1 0xFF AND SWAP1 POP SWAP1 JUMP JUMPDEST PUSH1 0x0 DUP1 PUSH1 0x0 SWAP1 POP PUSH1 0x0 JUMPDEST PUSH2 0x901 PUSH1 0xA PUSH2 0x1758 JUMP JUMPDEST DUP2 LT ISZERO PUSH2 0x967 JUMPI CALLER PUSH20 0xFFFFFFFFFFFFFFFFFFFFFFFFFFFFFFFFFFFFFFFF AND PUSH2 0x933 DUP3 PUSH1 0xA PUSH2 0x176D SWAP1 SWAP2 SWAP1 PUSH4 0xFFFFFFFF AND JUMP JUMPDEST PUSH20 0xFFFFFFFFFFFFFFFFFFFFFFFFFFFFFFFFFFFFFFFF AND EQ ISZERO PUSH2 0x954 JUMPI PUSH1 0x1 SWAP2 POP JUMPDEST DUP1 DUP1 PUSH2 0x95F SWAP1 PUSH2 0x3B4C JUMP JUMPDEST SWAP2 POP POP PUSH2 0x8F7 JUMP JUMPDEST POP DUP1 SWAP2 POP POP SWAP1 JUMP JUMPDEST PUSH2 0x977 PUSH2 0x178A JUMP JUMPDEST PUSH20 0xFFFFFFFFFFFFFFFFFFFFFFFFFFFFFFFFFFFFFFFF AND PUSH2 0x995 PUSH2 0x9F7 JUMP JUMPDEST PUSH20 0xFFFFFFFFFFFFFFFFFFFFFFFFFFFFFFFFFFFFFFFF AND EQ PUSH2 0x9EB JUMPI PUSH1 0x40 MLOAD PUSH32 0x8C379A000000000000000000000000000000000000000000000000000000000 DUP2 MSTORE PUSH1 0x4 ADD PUSH2 0x9E2 SWAP1 PUSH2 0x3523 JUMP JUMPDEST PUSH1 0x40 MLOAD DUP1 SWAP2 SUB SWAP1 REVERT JUMPDEST PUSH2 0x9F5 PUSH1 0x0 PUSH2 0x1792 JUMP JUMPDEST JUMP JUMPDEST PUSH1 0x0 DUP1 PUSH1 0x1 SWAP1 SLOAD SWAP1 PUSH2 0x100 EXP SWAP1 DIV PUSH20 0xFFFFFFFFFFFFFFFFFFFFFFFFFFFFFFFFFFFFFFFF AND SWAP1 POP SWAP1 JUMP JUMPDEST PUSH2 0xA28 PUSH2 0x9F7 JUMP JUMPDEST PUSH20 0xFFFFFFFFFFFFFFFFFFFFFFFFFFFFFFFFFFFFFFFF AND CALLER PUSH20 0xFFFFFFFFFFFFFFFFFFFFFFFFFFFFFFFFFFFFFFFF AND EQ PUSH2 0xA95 JUMPI PUSH1 0x40 MLOAD PUSH32 0x8C379A000000000000000000000000000000000000000000000000000000000 DUP2 MSTORE PUSH1 0x4 ADD PUSH2 0xA8C SWAP1 PUSH2 0x3543 JUMP JUMPDEST PUSH1 0x40 MLOAD DUP1 SWAP2 SUB SWAP1 REVERT JUMPDEST PUSH1 0x0 PUSH2 0xA9F PUSH2 0x1857 JUMP JUMPDEST SWAP1 POP DUP1 PUSH20 0xFFFFFFFFFFFFFFFFFFFFFFFFFFFFFFFFFFFFFFFF AND PUSH4 0xA9059CBB PUSH2 0xAC5 PUSH2 0x9F7 JUMP JUMPDEST DUP4 PUSH20 0xFFFFFFFFFFFFFFFFFFFFFFFFFFFFFFFFFFFFFFFF AND PUSH4 0x70A08231 ADDRESS PUSH1 0x40 MLOAD DUP3 PUSH4 0xFFFFFFFF AND PUSH1 0xE0 SHL DUP2 MSTORE PUSH1 0x4 ADD PUSH2 0xAFE SWAP2 SWAP1 PUSH2 0x32BF JUMP JUMPDEST PUSH1 0x20 PUSH1 0x40 MLOAD DUP1 DUP4 SUB DUP2 DUP7 DUP1 EXTCODESIZE ISZERO DUP1 ISZERO PUSH2 0xB16 JUMPI PUSH1 0x0 DUP1 REVERT JUMPDEST POP GAS STATICCALL ISZERO DUP1 ISZERO PUSH2 0xB2A JUMPI RETURNDATASIZE PUSH1 0x0 DUP1 RETURNDATACOPY RETURNDATASIZE PUSH1 0x0 REVERT JUMPDEST POP POP POP POP PUSH1 0x40 MLOAD RETURNDATASIZE PUSH1 0x1F NOT PUSH1 0x1F DUP3 ADD AND DUP3 ADD DUP1 PUSH1 0x40 MSTORE POP DUP2 ADD SWAP1 PUSH2 0xB4E SWAP2 SWAP1 PUSH2 0x2C48 JUMP JUMPDEST PUSH1 0x40 MLOAD DUP4 PUSH4 0xFFFFFFFF AND PUSH1 0xE0 SHL DUP2 MSTORE PUSH1 0x4 ADD PUSH2 0xB6B SWAP3 SWAP2 SWAP1 PUSH2 0x32DA JUMP JUMPDEST PUSH1 0x20 PUSH1 0x40 MLOAD DUP1 DUP4 SUB DUP2 PUSH1 0x0 DUP8 DUP1 EXTCODESIZE ISZERO DUP1 ISZERO PUSH2 0xB85 JUMPI PUSH1 0x0 DUP1 REVERT JUMPDEST POP GAS CALL ISZERO DUP1 ISZERO PUSH2 0xB99 JUMPI RETURNDATASIZE PUSH1 0x0 DUP1 RETURNDATACOPY RETURNDATASIZE PUSH1 0x0 REVERT JUMPDEST POP POP POP POP PUSH1 0x40 MLOAD RETURNDATASIZE PUSH1 0x1F NOT PUSH1 0x1F DUP3 ADD AND DUP3 ADD DUP1 PUSH1 0x40 MSTORE POP DUP2 ADD SWAP1 PUSH2 0xBBD SWAP2 SWAP1 PUSH2 0x2A5F JUMP JUMPDEST PUSH2 0xBFC JUMPI PUSH1 0x40 MLOAD PUSH32 0x8C379A000000000000000000000000000000000000000000000000000000000 DUP2 MSTORE PUSH1 0x4 ADD PUSH2 0xBF3 SWAP1 PUSH2 0x3503 JUMP JUMPDEST PUSH1 0x40 MLOAD DUP1 SWAP2 SUB SWAP1 REVERT JUMPDEST POP JUMP JUMPDEST DUP3 PUSH1 0x7 PUSH1 0x0 DUP3 DUP2 MSTORE PUSH1 0x20 ADD SWAP1 DUP2 MSTORE PUSH1 0x20 ADD PUSH1 0x0 KECCAK256 PUSH1 0x0 SWAP1 SLOAD SWAP1 PUSH2 0x100 EXP SWAP1 DIV PUSH20 0xFFFFFFFFFFFFFFFFFFFFFFFFFFFFFFFFFFFFFFFF AND PUSH20 0xFFFFFFFFFFFFFFFFFFFFFFFFFFFFFFFFFFFFFFFF AND CALLER PUSH20 0xFFFFFFFFFFFFFFFFFFFFFFFFFFFFFFFFFFFFFFFF AND EQ PUSH2 0xCA1 JUMPI PUSH1 0x40 MLOAD PUSH32 0x8C379A000000000000000000000000000000000000000000000000000000000 DUP2 MSTORE PUSH1 0x4 ADD PUSH2 0xC98 SWAP1 PUSH2 0x35E3 JUMP JUMPDEST PUSH1 0x40 MLOAD DUP1 SWAP2 SUB SWAP1 REVERT JUMPDEST PUSH1 0x7 PUSH1 0x0 DUP3 DUP2 MSTORE PUSH1 0x20 ADD SWAP1 DUP2 MSTORE PUSH1 0x20 ADD PUSH1 0x0 KECCAK256 PUSH1 0x0 PUSH2 0x100 EXP DUP2 SLOAD SWAP1 PUSH20 0xFFFFFFFFFFFFFFFFFFFFFFFFFFFFFFFFFFFFFFFF MUL NOT AND SWAP1 SSTORE DUP1 PUSH32 0x7CC135E0CEBB02C3480AE5D74D377283180A2601F8F644EDF7987B009316C63A PUSH1 0x40 MLOAD PUSH1 0x40 MLOAD DUP1 SWAP2 SUB SWAP1 LOG2 DUP2 PUSH2 0xD1F JUMPI PUSH2 0xD1D DUP4 PUSH1 0xA PUSH2 0x1881 SWAP1 SWAP2 SWAP1 PUSH4 0xFFFFFFFF AND JUMP JUMPDEST POP JUMPDEST PUSH1 0x0 PUSH2 0xD35 DUP5 PUSH1 0xA PUSH2 0x176D SWAP1 SWAP2 SWAP1 PUSH4 0xFFFFFFFF AND JUMP JUMPDEST SWAP1 POP POP POP POP POP POP JUMP JUMPDEST PUSH1 0x0 PUSH2 0xD54 DUP3 PUSH1 0xA PUSH2 0x173E SWAP1 SWAP2 SWAP1 PUSH4 0xFFFFFFFF AND JUMP JUMPDEST SWAP1 POP SWAP2 SWAP1 POP JUMP JUMPDEST PUSH1 0x60 PUSH1 0x9 DUP3 PUSH1 0x40 MLOAD PUSH1 0x20 ADD PUSH2 0xD71 SWAP3 SWAP2 SWAP1 PUSH2 0x3232 JUMP JUMPDEST PUSH1 0x40 MLOAD PUSH1 0x20 DUP2 DUP4 SUB SUB DUP2 MSTORE SWAP1 PUSH1 0x40 MSTORE SWAP1 POP SWAP2 SWAP1 POP JUMP JUMPDEST PUSH1 0x8 PUSH1 0x0 SWAP1 SLOAD SWAP1 PUSH2 0x100 EXP SWAP1 DIV PUSH20 0xFFFFFFFFFFFFFFFFFFFFFFFFFFFFFFFFFFFFFFFF AND DUP2 JUMP JUMPDEST PUSH1 0x0 PUSH2 0xDB8 DUP3 PUSH2 0x1722 JUMP JUMPDEST SWAP1 POP DUP1 PUSH1 0x2 ADD PUSH1 0x0 SWAP1 SLOAD SWAP1 PUSH2 0x100 EXP SWAP1 DIV PUSH20 0xFFFFFFFFFFFFFFFFFFFFFFFFFFFFFFFFFFFFFFFF AND PUSH20 0xFFFFFFFFFFFFFFFFFFFFFFFFFFFFFFFFFFFFFFFF AND CALLER PUSH20 0xFFFFFFFFFFFFFFFFFFFFFFFFFFFFFFFFFFFFFFFF AND EQ PUSH2 0xE4C JUMPI PUSH1 0x40 MLOAD PUSH32 0x8C379A000000000000000000000000000000000000000000000000000000000 DUP2 MSTORE PUSH1 0x4 ADD PUSH2 0xE43 SWAP1 PUSH2 0x3563 JUMP JUMPDEST PUSH1 0x40 MLOAD DUP1 SWAP2 SUB SWAP1 REVERT JUMPDEST PUSH1 0x1 DUP2 PUSH1 0x6 ADD PUSH1 0x0 PUSH2 0x100 EXP DUP2 SLOAD DUP2 PUSH1 0xFF MUL NOT AND SWAP1 DUP4 ISZERO ISZERO MUL OR SWAP1 SSTORE POP PUSH32 0x5E6EB33A418DE5DBBC17F989F7AE362CDFBB1748C5D603137C767027A354EDBC DUP3 PUSH1 0x40 MLOAD PUSH2 0xE98 SWAP2 SWAP1 PUSH2 0x3645 JUMP JUMPDEST PUSH1 0x40 MLOAD DUP1 SWAP2 SUB SWAP1 LOG1 POP POP JUMP JUMPDEST PUSH1 0x0 PUSH2 0xEB1 DUP5 DUP5 DUP5 PUSH2 0x189B JUMP JUMPDEST SWAP1 POP PUSH1 0x1 ISZERO ISZERO DUP2 ISZERO ISZERO EQ PUSH2 0xEFA JUMPI PUSH1 0x40 MLOAD PUSH32 0x8C379A000000000000000000000000000000000000000000000000000000000 DUP2 MSTORE PUSH1 0x4 ADD PUSH2 0xEF1 SWAP1 PUSH2 0x35A3 JUMP JUMPDEST PUSH1 0x40 MLOAD DUP1 SWAP2 SUB SWAP1 REVERT JUMPDEST PUSH2 0xF04 DUP5 CALLER PUSH2 0x18BB JUMP JUMPDEST PUSH32 0x7C29733EDBBBC7F83FC8C5FB3231AB4C21421E8DA3E7BB05CDDC0C2BE2D0CF65 DUP5 CALLER PUSH1 0x40 MLOAD PUSH2 0xF35 SWAP3 SWAP2 SWAP1 PUSH2 0x3660 JUMP JUMPDEST PUSH1 0x40 MLOAD DUP1 SWAP2 SUB SWAP1 LOG1 POP POP POP POP JUMP JUMPDEST PUSH1 0xD PUSH1 0x0 DUP2 SLOAD DUP1 SWAP3 SWAP2 SWAP1 PUSH2 0xF56 SWAP1 PUSH2 0x3B4C JUMP JUMPDEST SWAP2 SWAP1 POP SSTORE POP PUSH1 0x0 PUSH1 0xD SLOAD SWAP1 POP PUSH1 0x0 PUSH1 0xF PUSH1 0x0 DUP4 DUP2 MSTORE PUSH1 0x20 ADD SWAP1 DUP2 MSTORE PUSH1 0x20 ADD PUSH1 0x0 KECCAK256 SWAP1 POP DUP5 DUP2 PUSH1 0x3 ADD DUP2 SWAP1 SSTORE POP DUP7 DUP7 DUP3 PUSH1 0x1 ADD SWAP2 SWAP1 PUSH2 0xF95 SWAP3 SWAP2 SWAP1 PUSH2 0x2722 JUMP JUMPDEST POP DUP4 DUP2 PUSH1 0x4 ADD DUP2 SWAP1 SSTORE POP DUP3 DUP2 PUSH1 0x5 ADD DUP2 SWAP1 SSTORE POP CALLER DUP2 PUSH1 0x2 ADD PUSH1 0x0 PUSH2 0x100 EXP DUP2 SLOAD DUP2 PUSH20 0xFFFFFFFFFFFFFFFFFFFFFFFFFFFFFFFFFFFFFFFF MUL NOT AND SWAP1 DUP4 PUSH20 0xFFFFFFFFFFFFFFFFFFFFFFFFFFFFFFFFFFFFFFFF AND MUL OR SWAP1 SSTORE POP PUSH1 0x0 DUP2 PUSH1 0x6 ADD PUSH1 0x0 PUSH2 0x100 EXP DUP2 SLOAD DUP2 PUSH1 0xFF MUL NOT AND SWAP1 DUP4 ISZERO ISZERO MUL OR SWAP1 SSTORE POP PUSH1 0xE DUP2 SWAP1 DUP1 PUSH1 0x1 DUP2 SLOAD ADD DUP1 DUP3 SSTORE DUP1 SWAP2 POP POP PUSH1 0x1 SWAP1 SUB SWAP1 PUSH1 0x0 MSTORE PUSH1 0x20 PUSH1 0x0 KECCAK256 SWAP1 PUSH1 0x7 MUL ADD PUSH1 0x0 SWAP1 SWAP2 SWAP1 SWAP2 SWAP1 SWAP2 POP PUSH1 0x0 DUP3 ADD SLOAD DUP2 PUSH1 0x0 ADD SSTORE PUSH1 0x1 DUP3 ADD DUP2 PUSH1 0x1 ADD SWAP1 DUP1 SLOAD PUSH2 0x1052 SWAP1 PUSH2 0x3AE9 JUMP JUMPDEST PUSH2 0x105D SWAP3 SWAP2 SWAP1 PUSH2 0x27A8 JUMP JUMPDEST POP PUSH1 0x2 DUP3 ADD PUSH1 0x0 SWAP1 SLOAD SWAP1 PUSH2 0x100 EXP SWAP1 DIV PUSH20 0xFFFFFFFFFFFFFFFFFFFFFFFFFFFFFFFFFFFFFFFF AND DUP2 PUSH1 0x2 ADD PUSH1 0x0 PUSH2 0x100 EXP DUP2 SLOAD DUP2 PUSH20 0xFFFFFFFFFFFFFFFFFFFFFFFFFFFFFFFFFFFFFFFF MUL NOT AND SWAP1 DUP4 PUSH20 0xFFFFFFFFFFFFFFFFFFFFFFFFFFFFFFFFFFFFFFFF AND MUL OR SWAP1 SSTORE POP PUSH1 0x3 DUP3 ADD SLOAD DUP2 PUSH1 0x3 ADD SSTORE PUSH1 0x4 DUP3 ADD SLOAD DUP2 PUSH1 0x4 ADD SSTORE PUSH1 0x5 DUP3 ADD SLOAD DUP2 PUSH1 0x5 ADD SSTORE PUSH1 0x6 DUP3 ADD PUSH1 0x0 SWAP1 SLOAD SWAP1 PUSH2 0x100 EXP SWAP1 DIV PUSH1 0xFF AND DUP2 PUSH1 0x6 ADD PUSH1 0x0 PUSH2 0x100 EXP DUP2 SLOAD DUP2 PUSH1 0xFF MUL NOT AND SWAP1 DUP4 ISZERO ISZERO MUL OR SWAP1 SSTORE POP POP POP PUSH32 0x633109EEC20320EDED000FC1E2634211AA7E92BA3F5B15FAF6DCDAFCA05094E4 DUP3 CALLER PUSH1 0x40 MLOAD PUSH2 0x1143 SWAP3 SWAP2 SWAP1 PUSH2 0x3660 JUMP JUMPDEST PUSH1 0x40 MLOAD DUP1 SWAP2 SUB SWAP1 LOG1 POP POP POP POP POP POP POP JUMP JUMPDEST PUSH32 0x0 DUP2 JUMP JUMPDEST PUSH1 0x11 SLOAD DUP2 JUMP JUMPDEST PUSH1 0x9 DUP1 SLOAD PUSH2 0x118B SWAP1 PUSH2 0x3AE9 JUMP JUMPDEST DUP1 PUSH1 0x1F ADD PUSH1 0x20 DUP1 SWAP2 DIV MUL PUSH1 0x20 ADD PUSH1 0x40 MLOAD SWAP1 DUP2 ADD PUSH1 0x40 MSTORE DUP1 SWAP3 SWAP2 SWAP1 DUP2 DUP2 MSTORE PUSH1 0x20 ADD DUP3 DUP1 SLOAD PUSH2 0x11B7 SWAP1 PUSH2 0x3AE9 JUMP JUMPDEST DUP1 ISZERO PUSH2 0x1204 JUMPI DUP1 PUSH1 0x1F LT PUSH2 0x11D9 JUMPI PUSH2 0x100 DUP1 DUP4 SLOAD DIV MUL DUP4 MSTORE SWAP2 PUSH1 0x20 ADD SWAP2 PUSH2 0x1204 JUMP JUMPDEST DUP3 ADD SWAP2 SWAP1 PUSH1 0x0 MSTORE PUSH1 0x20 PUSH1 0x0 KECCAK256 SWAP1 JUMPDEST DUP2 SLOAD DUP2 MSTORE SWAP1 PUSH1 0x1 ADD SWAP1 PUSH1 0x20 ADD DUP1 DUP4 GT PUSH2 0x11E7 JUMPI DUP3 SWAP1 SUB PUSH1 0x1F AND DUP3 ADD SWAP2 JUMPDEST POP POP POP POP POP DUP2 JUMP JUMPDEST PUSH2 0x1214 PUSH2 0x9F7 JUMP JUMPDEST PUSH20 0xFFFFFFFFFFFFFFFFFFFFFFFFFFFFFFFFFFFFFFFF AND CALLER PUSH20 0xFFFFFFFFFFFFFFFFFFFFFFFFFFFFFFFFFFFFFFFF AND EQ PUSH2 0x1281 JUMPI PUSH1 0x40 MLOAD PUSH32 0x8C379A000000000000000000000000000000000000000000000000000000000 DUP2 MSTORE PUSH1 0x4 ADD PUSH2 0x1278 SWAP1 PUSH2 0x3543 JUMP JUMPDEST PUSH1 0x40 MLOAD DUP1 SWAP2 SUB SWAP1 REVERT JUMPDEST PUSH2 0x128D DUP5 DUP5 DUP5 DUP5 PUSH2 0x1A3C JUMP JUMPDEST POP POP POP POP JUMP JUMPDEST PUSH2 0x129B PUSH2 0x9F7 JUMP JUMPDEST PUSH20 0xFFFFFFFFFFFFFFFFFFFFFFFFFFFFFFFFFFFFFFFF AND CALLER PUSH20 0xFFFFFFFFFFFFFFFFFFFFFFFFFFFFFFFFFFFFFFFF AND EQ PUSH2 0x1308 JUMPI PUSH1 0x40 MLOAD PUSH32 0x8C379A000000000000000000000000000000000000000000000000000000000 DUP2 MSTORE PUSH1 0x4 ADD PUSH2 0x12FF SWAP1 PUSH2 0x3543 JUMP JUMPDEST PUSH1 0x40 MLOAD DUP1 SWAP2 SUB SWAP1 REVERT JUMPDEST DUP2 DUP2 PUSH1 0x9 SWAP2 SWAP1 PUSH2 0x1319 SWAP3 SWAP2 SWAP1 PUSH2 0x2722 JUMP JUMPDEST POP POP POP JUMP JUMPDEST PUSH2 0x3E8 DUP2 JUMP JUMPDEST PUSH2 0x132C PUSH2 0x178A JUMP JUMPDEST PUSH20 0xFFFFFFFFFFFFFFFFFFFFFFFFFFFFFFFFFFFFFFFF AND PUSH2 0x134A PUSH2 0x9F7 JUMP JUMPDEST PUSH20 0xFFFFFFFFFFFFFFFFFFFFFFFFFFFFFFFFFFFFFFFF AND EQ PUSH2 0x13A0 JUMPI PUSH1 0x40 MLOAD PUSH32 0x8C379A000000000000000000000000000000000000000000000000000000000 DUP2 MSTORE PUSH1 0x4 ADD PUSH2 0x1397 SWAP1 PUSH2 0x3523 JUMP JUMPDEST PUSH1 0x40 MLOAD DUP1 SWAP2 SUB SWAP1 REVERT JUMPDEST PUSH1 0x0 PUSH20 0xFFFFFFFFFFFFFFFFFFFFFFFFFFFFFFFFFFFFFFFF AND DUP2 PUSH20 0xFFFFFFFFFFFFFFFFFFFFFFFFFFFFFFFFFFFFFFFF AND EQ ISZERO PUSH2 0x1410 JUMPI PUSH1 0x40 MLOAD PUSH32 0x8C379A000000000000000000000000000000000000000000000000000000000 DUP2 MSTORE PUSH1 0x4 ADD PUSH2 0x1407 SWAP1 PUSH2 0x34A3 JUMP JUMPDEST PUSH1 0x40 MLOAD DUP1 SWAP2 SUB SWAP1 REVERT JUMPDEST PUSH2 0x1419 DUP2 PUSH2 0x1792 JUMP JUMPDEST POP JUMP JUMPDEST PUSH1 0x0 PUSH2 0x1448 DUP5 PUSH1 0x0 ADD DUP5 PUSH1 0x0 SHL DUP5 PUSH20 0xFFFFFFFFFFFFFFFFFFFFFFFFFFFFFFFFFFFFFFFF AND PUSH1 0x0 SHL PUSH2 0x1B4F JUMP JUMPDEST SWAP1 POP SWAP4 SWAP3 POP POP POP JUMP JUMPDEST PUSH1 0x0 PUSH2 0x145B PUSH2 0x9F7 JUMP JUMPDEST PUSH20 0xFFFFFFFFFFFFFFFFFFFFFFFFFFFFFFFFFFFFFFFF AND CALLER PUSH20 0xFFFFFFFFFFFFFFFFFFFFFFFFFFFFFFFFFFFFFFFF AND EQ PUSH2 0x14C8 JUMPI PUSH1 0x40 MLOAD PUSH32 0x8C379A000000000000000000000000000000000000000000000000000000000 DUP2 MSTORE PUSH1 0x4 ADD PUSH2 0x14BF SWAP1 PUSH2 0x3543 JUMP JUMPDEST PUSH1 0x40 MLOAD DUP1 SWAP2 SUB SWAP1 REVERT JUMPDEST PUSH2 0x14D0 PUSH2 0x8D7 JUMP JUMPDEST ISZERO PUSH2 0x1510 JUMPI PUSH1 0x40 MLOAD PUSH32 0x8C379A000000000000000000000000000000000000000000000000000000000 DUP2 MSTORE PUSH1 0x4 ADD PUSH2 0x1507 SWAP1 PUSH2 0x34E3 JUMP JUMPDEST PUSH1 0x40 MLOAD DUP1 SWAP2 SUB SWAP1 REVERT JUMPDEST PUSH1 0x0 PUSH2 0x1544 PUSH32 0x0 ADDRESS PUSH4 0xA4E336C3 PUSH1 0xE0 SHL PUSH2 0x1B8A JUMP JUMPDEST SWAP1 POP PUSH2 0x1598 PUSH1 0x40 MLOAD DUP1 PUSH1 0x40 ADD PUSH1 0x40 MSTORE DUP1 PUSH1 0x3 DUP2 MSTORE PUSH1 0x20 ADD PUSH32 0x6765740000000000000000000000000000000000000000000000000000000000 DUP2 MSTORE POP PUSH2 0x1588 DUP6 PUSH2 0xD5B JUMP JUMPDEST DUP4 PUSH2 0x1BBB SWAP1 SWAP3 SWAP2 SWAP1 PUSH4 0xFFFFFFFF AND JUMP JUMPDEST PUSH2 0x1617 PUSH1 0x40 MLOAD DUP1 PUSH1 0x40 ADD PUSH1 0x40 MSTORE DUP1 PUSH1 0x4 DUP2 MSTORE PUSH1 0x20 ADD PUSH32 0x7061746800000000000000000000000000000000000000000000000000000000 DUP2 MSTORE POP PUSH1 0x40 MLOAD DUP1 PUSH1 0x40 ADD PUSH1 0x40 MSTORE DUP1 PUSH1 0xB DUP2 MSTORE PUSH1 0x20 ADD PUSH32 0x6861735369676E65645570000000000000000000000000000000000000000000 DUP2 MSTORE POP DUP4 PUSH2 0x1BBB SWAP1 SWAP3 SWAP2 SWAP1 PUSH4 0xFFFFFFFF AND JUMP JUMPDEST PUSH1 0x0 PUSH2 0x1643 DUP3 PUSH32 0x0 PUSH2 0x1BEE JUMP JUMPDEST SWAP1 POP DUP1 DUP5 PUSH32 0xBE1937B7FECA9C000F1F748EBBA989954549C773449BBAB49AB3D6F796AF50D7 PUSH1 0x40 MLOAD PUSH1 0x40 MLOAD DUP1 SWAP2 SUB SWAP1 LOG3 DUP1 SWAP3 POP POP POP SWAP2 SWAP1 POP JUMP JUMPDEST PUSH1 0x0 DUP1 PUSH2 0x1689 DUP4 PUSH2 0x1722 JUMP JUMPDEST SWAP1 POP PUSH1 0x0 DUP2 PUSH1 0x5 ADD SLOAD DUP3 PUSH1 0x3 ADD SLOAD PUSH2 0x16A1 SWAP2 SWAP1 PUSH2 0x37D5 JUMP JUMPDEST SWAP1 POP DUP1 SWAP3 POP POP POP SWAP2 SWAP1 POP JUMP JUMPDEST PUSH1 0x0 PUSH1 0x10 PUSH1 0x0 DUP4 DUP2 MSTORE PUSH1 0x20 ADD SWAP1 DUP2 MSTORE PUSH1 0x20 ADD PUSH1 0x0 KECCAK256 SWAP1 POP PUSH1 0x1 DUP2 PUSH1 0x2 ADD PUSH1 0x0 CALLER PUSH20 0xFFFFFFFFFFFFFFFFFFFFFFFFFFFFFFFFFFFFFFFF AND PUSH20 0xFFFFFFFFFFFFFFFFFFFFFFFFFFFFFFFFFFFFFFFF AND DUP2 MSTORE PUSH1 0x20 ADD SWAP1 DUP2 MSTORE PUSH1 0x20 ADD PUSH1 0x0 KECCAK256 PUSH1 0x0 PUSH2 0x100 EXP DUP2 SLOAD DUP2 PUSH1 0xFF MUL NOT AND SWAP1 DUP4 ISZERO ISZERO MUL OR SWAP1 SSTORE POP POP POP JUMP JUMPDEST PUSH1 0x0 PUSH1 0xF PUSH1 0x0 DUP4 DUP2 MSTORE PUSH1 0x20 ADD SWAP1 DUP2 MSTORE PUSH1 0x20 ADD PUSH1 0x0 KECCAK256 SWAP1 POP SWAP2 SWAP1 POP JUMP JUMPDEST PUSH1 0x0 PUSH2 0x1750 DUP4 PUSH1 0x0 ADD DUP4 PUSH1 0x0 SHL PUSH2 0x1C25 JUMP JUMPDEST SWAP1 POP SWAP3 SWAP2 POP POP JUMP JUMPDEST PUSH1 0x0 PUSH2 0x1766 DUP3 PUSH1 0x0 ADD PUSH2 0x1C45 JUMP JUMPDEST SWAP1 POP SWAP2 SWAP1 POP JUMP JUMPDEST PUSH1 0x0 PUSH2 0x177F DUP4 PUSH1 0x0 ADD DUP4 PUSH1 0x0 SHL PUSH2 0x1C5A JUMP JUMPDEST PUSH1 0x0 SHR SWAP1 POP SWAP3 SWAP2 POP POP JUMP JUMPDEST PUSH1 0x0 CALLER SWAP1 POP SWAP1 JUMP JUMPDEST PUSH1 0x0 DUP1 PUSH1 0x1 SWAP1 SLOAD SWAP1 PUSH2 0x100 EXP SWAP1 DIV PUSH20 0xFFFFFFFFFFFFFFFFFFFFFFFFFFFFFFFFFFFFFFFF AND SWAP1 POP DUP2 PUSH1 0x0 PUSH1 0x1 PUSH2 0x100 EXP DUP2 SLOAD DUP2 PUSH20 0xFFFFFFFFFFFFFFFFFFFFFFFFFFFFFFFFFFFFFFFF MUL NOT AND SWAP1 DUP4 PUSH20 0xFFFFFFFFFFFFFFFFFFFFFFFFFFFFFFFFFFFFFFFF AND MUL OR SWAP1 SSTORE POP DUP2 PUSH20 0xFFFFFFFFFFFFFFFFFFFFFFFFFFFFFFFFFFFFFFFF AND DUP2 PUSH20 0xFFFFFFFFFFFFFFFFFFFFFFFFFFFFFFFFFFFFFFFF AND PUSH32 0x8BE0079C531659141344CD1FD0A4F28419497F9722A3DAAFE3B4186F6B6457E0 PUSH1 0x40 MLOAD PUSH1 0x40 MLOAD DUP1 SWAP2 SUB SWAP1 LOG3 POP POP JUMP JUMPDEST PUSH1 0x0 PUSH1 0x4 PUSH1 0x0 SWAP1 SLOAD SWAP1 PUSH2 0x100 EXP SWAP1 DIV PUSH20 0xFFFFFFFFFFFFFFFFFFFFFFFFFFFFFFFFFFFFFFFF AND SWAP1 POP SWAP1 JUMP JUMPDEST PUSH1 0x0 PUSH2 0x1893 DUP4 PUSH1 0x0 ADD DUP4 PUSH1 0x0 SHL PUSH2 0x1CD6 JUMP JUMPDEST SWAP1 POP SWAP3 SWAP2 POP POP JUMP JUMPDEST PUSH1 0x0 DUP1 PUSH2 0x18A7 DUP6 PUSH2 0x1722 JUMP JUMPDEST SWAP1 POP DUP1 PUSH1 0x4 ADD SLOAD DUP4 LT ISZERO SWAP2 POP POP SWAP4 SWAP3 POP POP POP JUMP JUMPDEST PUSH1 0x0 PUSH2 0x18C6 DUP4 PUSH2 0x1722 JUMP JUMPDEST SWAP1 POP PUSH1 0x0 PUSH1 0x10 PUSH1 0x0 DUP6 DUP2 MSTORE PUSH1 0x20 ADD SWAP1 DUP2 MSTORE PUSH1 0x20 ADD PUSH1 0x0 KECCAK256 SWAP1 POP DUP1 PUSH1 0x0 ADD SLOAD DUP3 PUSH1 0x5 ADD SLOAD LT ISZERO PUSH2 0x192A JUMPI PUSH1 0x40 MLOAD PUSH32 0x8C379A000000000000000000000000000000000000000000000000000000000 DUP2 MSTORE PUSH1 0x4 ADD PUSH2 0x1921 SWAP1 PUSH2 0x3603 JUMP JUMPDEST PUSH1 0x40 MLOAD DUP1 SWAP2 SUB SWAP1 REVERT JUMPDEST PUSH1 0x0 ISZERO ISZERO DUP3 PUSH1 0x6 ADD PUSH1 0x0 SWAP1 SLOAD SWAP1 PUSH2 0x100 EXP SWAP1 DIV PUSH1 0xFF AND ISZERO ISZERO EQ PUSH2 0x1982 JUMPI PUSH1 0x40 MLOAD PUSH32 0x8C379A000000000000000000000000000000000000000000000000000000000 DUP2 MSTORE PUSH1 0x4 ADD PUSH2 0x1979 SWAP1 PUSH2 0x3463 JUMP JUMPDEST PUSH1 0x40 MLOAD DUP1 SWAP2 SUB SWAP1 REVERT JUMPDEST PUSH1 0x1 DUP2 PUSH1 0x1 ADD PUSH1 0x0 DUP6 PUSH20 0xFFFFFFFFFFFFFFFFFFFFFFFFFFFFFFFFFFFFFFFF AND PUSH20 0xFFFFFFFFFFFFFFFFFFFFFFFFFFFFFFFFFFFFFFFF AND DUP2 MSTORE PUSH1 0x20 ADD SWAP1 DUP2 MSTORE PUSH1 0x20 ADD PUSH1 0x0 KECCAK256 PUSH1 0x0 PUSH2 0x100 EXP DUP2 SLOAD DUP2 PUSH1 0xFF MUL NOT AND SWAP1 DUP4 ISZERO ISZERO MUL OR SWAP1 SSTORE POP PUSH1 0x0 DUP2 PUSH1 0x2 ADD PUSH1 0x0 DUP6 PUSH20 0xFFFFFFFFFFFFFFFFFFFFFFFFFFFFFFFFFFFFFFFF AND PUSH20 0xFFFFFFFFFFFFFFFFFFFFFFFFFFFFFFFFFFFFFFFF AND DUP2 MSTORE PUSH1 0x20 ADD SWAP1 DUP2 MSTORE PUSH1 0x20 ADD PUSH1 0x0 KECCAK256 PUSH1 0x0 PUSH2 0x100 EXP DUP2 SLOAD DUP2 PUSH1 0xFF MUL NOT AND SWAP1 DUP4 ISZERO ISZERO MUL OR SWAP1 SSTORE POP POP POP POP POP JUMP JUMPDEST PUSH1 0x0 PUSH1 0x7 PUSH1 0x0 DUP7 DUP2 MSTORE PUSH1 0x20 ADD SWAP1 DUP2 MSTORE PUSH1 0x20 ADD PUSH1 0x0 KECCAK256 PUSH1 0x0 SWAP1 SLOAD SWAP1 PUSH2 0x100 EXP SWAP1 DIV PUSH20 0xFFFFFFFFFFFFFFFFFFFFFFFFFFFFFFFFFFFFFFFF AND SWAP1 POP PUSH1 0x7 PUSH1 0x0 DUP7 DUP2 MSTORE PUSH1 0x20 ADD SWAP1 DUP2 MSTORE PUSH1 0x20 ADD PUSH1 0x0 KECCAK256 PUSH1 0x0 PUSH2 0x100 EXP DUP2 SLOAD SWAP1 PUSH20 0xFFFFFFFFFFFFFFFFFFFFFFFFFFFFFFFFFFFFFFFF MUL NOT AND SWAP1 SSTORE DUP5 PUSH32 0xE1FE3AFA0F7F761FF0A8B89086790EFD5140D2907EBD5B7FF6BFCB5E075FD4C5 PUSH1 0x40 MLOAD PUSH1 0x40 MLOAD DUP1 SWAP2 SUB SWAP1 LOG2 DUP1 PUSH20 0xFFFFFFFFFFFFFFFFFFFFFFFFFFFFFFFFFFFFFFFF AND PUSH4 0x6EE4D553 DUP7 DUP7 DUP7 DUP7 PUSH1 0x40 MLOAD DUP6 PUSH4 0xFFFFFFFF AND PUSH1 0xE0 SHL DUP2 MSTORE PUSH1 0x4 ADD PUSH2 0x1B16 SWAP5 SWAP4 SWAP3 SWAP2 SWAP1 PUSH2 0x33FC JUMP JUMPDEST PUSH1 0x0 PUSH1 0x40 MLOAD DUP1 DUP4 SUB DUP2 PUSH1 0x0 DUP8 DUP1 EXTCODESIZE ISZERO DUP1 ISZERO PUSH2 0x1B30 JUMPI PUSH1 0x0 DUP1 REVERT JUMPDEST POP GAS CALL ISZERO DUP1 ISZERO PUSH2 0x1B44 JUMPI RETURNDATASIZE PUSH1 0x0 DUP1 RETURNDATACOPY RETURNDATASIZE PUSH1 0x0 REVERT JUMPDEST POP POP POP POP POP POP POP POP POP JUMP JUMPDEST PUSH1 0x0 DUP2 DUP5 PUSH1 0x2 ADD PUSH1 0x0 DUP6 DUP2 MSTORE PUSH1 0x20 ADD SWAP1 DUP2 MSTORE PUSH1 0x20 ADD PUSH1 0x0 KECCAK256 DUP2 SWAP1 SSTORE POP PUSH2 0x1B81 DUP4 DUP6 PUSH1 0x0 ADD PUSH2 0x1D0F SWAP1 SWAP2 SWAP1 PUSH4 0xFFFFFFFF AND JUMP JUMPDEST SWAP1 POP SWAP4 SWAP3 POP POP POP JUMP JUMPDEST PUSH2 0x1B92 PUSH2 0x2835 JUMP JUMPDEST PUSH2 0x1B9A PUSH2 0x2835 JUMP JUMPDEST PUSH2 0x1BB1 DUP6 DUP6 DUP6 DUP5 PUSH2 0x1D26 SWAP1 SWAP4 SWAP3 SWAP2 SWAP1 PUSH4 0xFFFFFFFF AND JUMP JUMPDEST SWAP2 POP POP SWAP4 SWAP3 POP POP POP JUMP JUMPDEST PUSH2 0x1BD2 DUP3 DUP5 PUSH1 0x80 ADD MLOAD PUSH2 0x1DD6 SWAP1 SWAP2 SWAP1 PUSH4 0xFFFFFFFF AND JUMP JUMPDEST PUSH2 0x1BE9 DUP2 DUP5 PUSH1 0x80 ADD MLOAD PUSH2 0x1DD6 SWAP1 SWAP2 SWAP1 PUSH4 0xFFFFFFFF AND JUMP JUMPDEST POP POP POP JUMP JUMPDEST PUSH1 0x0 PUSH2 0x1C1D PUSH1 0x5 PUSH1 0x0 SWAP1 SLOAD SWAP1 PUSH2 0x100 EXP SWAP1 DIV PUSH20 0xFFFFFFFFFFFFFFFFFFFFFFFFFFFFFFFFFFFFFFFF AND DUP5 DUP5 PUSH2 0x1DFB JUMP JUMPDEST SWAP1 POP SWAP3 SWAP2 POP POP JUMP JUMPDEST PUSH1 0x0 PUSH2 0x1C3D DUP3 DUP5 PUSH1 0x0 ADD PUSH2 0x1EC7 SWAP1 SWAP2 SWAP1 PUSH4 0xFFFFFFFF AND JUMP JUMPDEST SWAP1 POP SWAP3 SWAP2 POP POP JUMP JUMPDEST PUSH1 0x0 PUSH2 0x1C53 DUP3 PUSH1 0x0 ADD PUSH2 0x1EDE JUMP JUMPDEST SWAP1 POP SWAP2 SWAP1 POP JUMP JUMPDEST PUSH1 0x0 DUP1 DUP4 PUSH1 0x2 ADD PUSH1 0x0 DUP5 DUP2 MSTORE PUSH1 0x20 ADD SWAP1 DUP2 MSTORE PUSH1 0x20 ADD PUSH1 0x0 KECCAK256 SLOAD SWAP1 POP PUSH1 0x0 DUP1 SHL DUP2 EQ ISZERO DUP1 PUSH2 0x1C8D JUMPI POP PUSH2 0x1C8C DUP5 DUP5 PUSH2 0x1C25 JUMP JUMPDEST JUMPDEST PUSH2 0x1CCC JUMPI PUSH1 0x40 MLOAD PUSH32 0x8C379A000000000000000000000000000000000000000000000000000000000 DUP2 MSTORE PUSH1 0x4 ADD PUSH2 0x1CC3 SWAP1 PUSH2 0x35C3 JUMP JUMPDEST PUSH1 0x40 MLOAD DUP1 SWAP2 SUB SWAP1 REVERT JUMPDEST DUP1 SWAP2 POP POP SWAP3 SWAP2 POP POP JUMP JUMPDEST PUSH1 0x0 DUP3 PUSH1 0x2 ADD PUSH1 0x0 DUP4 DUP2 MSTORE PUSH1 0x20 ADD SWAP1 DUP2 MSTORE PUSH1 0x20 ADD PUSH1 0x0 KECCAK256 PUSH1 0x0 SWAP1 SSTORE PUSH2 0x1D07 DUP3 DUP5 PUSH1 0x0 ADD PUSH2 0x1EF3 SWAP1 SWAP2 SWAP1 PUSH4 0xFFFFFFFF AND JUMP JUMPDEST SWAP1 POP SWAP3 SWAP2 POP POP JUMP JUMPDEST PUSH1 0x0 PUSH2 0x1D1E DUP4 PUSH1 0x0 ADD DUP4 PUSH2 0x1F0A JUMP JUMPDEST SWAP1 POP SWAP3 SWAP2 POP POP JUMP JUMPDEST PUSH2 0x1D2E PUSH2 0x2835 JUMP JUMPDEST PUSH2 0x1D3E DUP6 PUSH1 0x80 ADD MLOAD PUSH2 0x100 PUSH2 0x1F7A JUMP JUMPDEST POP DUP4 DUP6 PUSH1 0x0 ADD DUP2 DUP2 MSTORE POP POP DUP3 DUP6 PUSH1 0x20 ADD SWAP1 PUSH20 0xFFFFFFFFFFFFFFFFFFFFFFFFFFFFFFFFFFFFFFFF AND SWAP1 DUP2 PUSH20 0xFFFFFFFFFFFFFFFFFFFFFFFFFFFFFFFFFFFFFFFF AND DUP2 MSTORE POP POP DUP2 DUP6 PUSH1 0x40 ADD SWAP1 PUSH28 0xFFFFFFFFFFFFFFFFFFFFFFFFFFFFFFFFFFFFFFFFFFFFFFFFFFFFFFFF NOT AND SWAP1 DUP2 PUSH28 0xFFFFFFFFFFFFFFFFFFFFFFFFFFFFFFFFFFFFFFFFFFFFFFFFFFFFFFFF NOT AND DUP2 MSTORE POP POP DUP5 SWAP1 POP SWAP5 SWAP4 POP POP POP POP JUMP JUMPDEST PUSH2 0x1DE3 DUP3 PUSH1 0x3 DUP4 MLOAD PUSH2 0x1FE4 JUMP JUMPDEST PUSH2 0x1DF6 DUP2 DUP4 PUSH2 0x2169 SWAP1 SWAP2 SWAP1 PUSH4 0xFFFFFFFF AND JUMP JUMPDEST POP POP POP JUMP JUMPDEST PUSH1 0x0 DUP1 PUSH1 0x6 SLOAD SWAP1 POP PUSH1 0x1 DUP2 PUSH2 0x1E10 SWAP2 SWAP1 PUSH2 0x377F JUMP JUMPDEST PUSH1 0x6 DUP2 SWAP1 SSTORE POP PUSH1 0x0 PUSH4 0x40429946 PUSH1 0xE0 SHL PUSH1 0x0 DUP1 DUP8 PUSH1 0x0 ADD MLOAD ADDRESS DUP10 PUSH1 0x40 ADD MLOAD DUP8 PUSH1 0x1 DUP13 PUSH1 0x80 ADD MLOAD PUSH1 0x0 ADD MLOAD PUSH1 0x40 MLOAD PUSH1 0x24 ADD PUSH2 0x1E51 SWAP9 SWAP8 SWAP7 SWAP6 SWAP5 SWAP4 SWAP3 SWAP2 SWAP1 PUSH2 0x3303 JUMP JUMPDEST PUSH1 0x40 MLOAD PUSH1 0x20 DUP2 DUP4 SUB SUB DUP2 MSTORE SWAP1 PUSH1 0x40 MSTORE SWAP1 PUSH28 0xFFFFFFFFFFFFFFFFFFFFFFFFFFFFFFFFFFFFFFFFFFFFFFFFFFFFFFFF NOT AND PUSH1 0x20 DUP3 ADD DUP1 MLOAD PUSH28 0xFFFFFFFFFFFFFFFFFFFFFFFFFFFFFFFFFFFFFFFFFFFFFFFFFFFFFFFF DUP4 DUP2 DUP4 AND OR DUP4 MSTORE POP POP POP POP SWAP1 POP PUSH2 0x1EBC DUP7 DUP4 DUP7 DUP5 PUSH2 0x218B JUMP JUMPDEST SWAP3 POP POP POP SWAP4 SWAP3 POP POP POP JUMP JUMPDEST PUSH1 0x0 PUSH2 0x1ED6 DUP4 PUSH1 0x0 ADD DUP4 PUSH2 0x232F JUMP JUMPDEST SWAP1 POP SWAP3 SWAP2 POP POP JUMP JUMPDEST PUSH1 0x0 PUSH2 0x1EEC DUP3 PUSH1 0x0 ADD PUSH2 0x2352 JUMP JUMPDEST SWAP1 POP SWAP2 SWAP1 POP JUMP JUMPDEST PUSH1 0x0 PUSH2 0x1F02 DUP4 PUSH1 0x0 ADD DUP4 PUSH2 0x2363 JUMP JUMPDEST SWAP1 POP SWAP3 SWAP2 POP POP JUMP JUMPDEST PUSH1 0x0 PUSH2 0x1F16 DUP4 DUP4 PUSH2 0x232F JUMP JUMPDEST PUSH2 0x1F6F JUMPI DUP3 PUSH1 0x0 ADD DUP3 SWAP1 DUP1 PUSH1 0x1 DUP2 SLOAD ADD DUP1 DUP3 SSTORE DUP1 SWAP2 POP POP PUSH1 0x1 SWAP1 SUB SWAP1 PUSH1 0x0 MSTORE PUSH1 0x20 PUSH1 0x0 KECCAK256 ADD PUSH1 0x0 SWAP1 SWAP2 SWAP1 SWAP2 SWAP1 SWAP2 POP SSTORE DUP3 PUSH1 0x0 ADD DUP1 SLOAD SWAP1 POP DUP4 PUSH1 0x1 ADD PUSH1 0x0 DUP5 DUP2 MSTORE PUSH1 0x20 ADD SWAP1 DUP2 MSTORE PUSH1 0x20 ADD PUSH1 0x0 KECCAK256 DUP2 SWAP1 SSTORE POP PUSH1 0x1 SWAP1 POP PUSH2 0x1F74 JUMP JUMPDEST PUSH1 0x0 SWAP1 POP JUMPDEST SWAP3 SWAP2 POP POP JUMP JUMPDEST PUSH2 0x1F82 PUSH2 0x28A2 JUMP JUMPDEST PUSH1 0x0 PUSH1 0x20 DUP4 PUSH2 0x1F91 SWAP2 SWAP1 PUSH2 0x3BC3 JUMP JUMPDEST EQ PUSH2 0x1FBD JUMPI PUSH1 0x20 DUP3 PUSH2 0x1FA3 SWAP2 SWAP1 PUSH2 0x3BC3 JUMP JUMPDEST PUSH1 0x20 PUSH2 0x1FAF SWAP2 SWAP1 PUSH2 0x39D1 JUMP JUMPDEST DUP3 PUSH2 0x1FBA SWAP2 SWAP1 PUSH2 0x377F JUMP JUMPDEST SWAP2 POP JUMPDEST DUP2 DUP4 PUSH1 0x20 ADD DUP2 DUP2 MSTORE POP POP PUSH1 0x40 MLOAD DUP1 DUP5 MSTORE PUSH1 0x0 DUP2 MSTORE DUP3 DUP2 ADD PUSH1 0x20 ADD PUSH1 0x40 MSTORE POP DUP3 SWAP1 POP SWAP3 SWAP2 POP POP JUMP JUMPDEST PUSH1 0x17 DUP2 PUSH8 0xFFFFFFFFFFFFFFFF AND GT PUSH2 0x201B JUMPI PUSH2 0x2015 DUP2 PUSH1 0x5 DUP5 PUSH1 0xFF AND SWAP1 SHL PUSH1 0xFF AND OR DUP5 PUSH2 0x2477 SWAP1 SWAP2 SWAP1 PUSH4 0xFFFFFFFF AND JUMP JUMPDEST POP PUSH2 0x2164 JUMP JUMPDEST PUSH1 0xFF DUP2 PUSH8 0xFFFFFFFFFFFFFFFF AND GT PUSH2 0x2071 JUMPI PUSH2 0x204A PUSH1 0x18 PUSH1 0x5 DUP5 PUSH1 0xFF AND SWAP1 SHL OR DUP5 PUSH2 0x2477 SWAP1 SWAP2 SWAP1 PUSH4 0xFFFFFFFF AND JUMP JUMPDEST POP PUSH2 0x206B DUP2 PUSH8 0xFFFFFFFFFFFFFFFF AND PUSH1 0x1 DUP6 PUSH2 0x2497 SWAP1 SWAP3 SWAP2 SWAP1 PUSH4 0xFFFFFFFF AND JUMP JUMPDEST POP PUSH2 0x2163 JUMP JUMPDEST PUSH2 0xFFFF DUP2 PUSH8 0xFFFFFFFFFFFFFFFF AND GT PUSH2 0x20C8 JUMPI PUSH2 0x20A1 PUSH1 0x19 PUSH1 0x5 DUP5 PUSH1 0xFF AND SWAP1 SHL OR DUP5 PUSH2 0x2477 SWAP1 SWAP2 SWAP1 PUSH4 0xFFFFFFFF AND JUMP JUMPDEST POP PUSH2 0x20C2 DUP2 PUSH8 0xFFFFFFFFFFFFFFFF AND PUSH1 0x2 DUP6 PUSH2 0x2497 SWAP1 SWAP3 SWAP2 SWAP1 PUSH4 0xFFFFFFFF AND JUMP JUMPDEST POP PUSH2 0x2162 JUMP JUMPDEST PUSH4 0xFFFFFFFF DUP2 PUSH8 0xFFFFFFFFFFFFFFFF AND GT PUSH2 0x2121 JUMPI PUSH2 0x20FA PUSH1 0x1A PUSH1 0x5 DUP5 PUSH1 0xFF AND SWAP1 SHL OR DUP5 PUSH2 0x2477 SWAP1 SWAP2 SWAP1 PUSH4 0xFFFFFFFF AND JUMP JUMPDEST POP PUSH2 0x211B DUP2 PUSH8 0xFFFFFFFFFFFFFFFF AND PUSH1 0x4 DUP6 PUSH2 0x2497 SWAP1 SWAP3 SWAP2 SWAP1 PUSH4 0xFFFFFFFF AND JUMP JUMPDEST POP PUSH2 0x2161 JUMP JUMPDEST PUSH2 0x213E PUSH1 0x1B PUSH1 0x5 DUP5 PUSH1 0xFF AND SWAP1 SHL OR DUP5 PUSH2 0x2477 SWAP1 SWAP2 SWAP1 PUSH4 0xFFFFFFFF AND JUMP JUMPDEST POP PUSH2 0x215F DUP2 PUSH8 0xFFFFFFFFFFFFFFFF AND PUSH1 0x8 DUP6 PUSH2 0x2497 SWAP1 SWAP3 SWAP2 SWAP1 PUSH4 0xFFFFFFFF AND JUMP JUMPDEST POP JUMPDEST JUMPDEST JUMPDEST JUMPDEST POP POP POP JUMP JUMPDEST PUSH2 0x2171 PUSH2 0x28A2 JUMP JUMPDEST PUSH2 0x2183 DUP4 DUP5 PUSH1 0x0 ADD MLOAD MLOAD DUP5 DUP6 MLOAD PUSH2 0x24B9 JUMP JUMPDEST SWAP1 POP SWAP3 SWAP2 POP POP JUMP JUMPDEST PUSH1 0x0 ADDRESS DUP5 PUSH1 0x40 MLOAD PUSH1 0x20 ADD PUSH2 0x21A0 SWAP3 SWAP2 SWAP1 PUSH2 0x3206 JUMP JUMPDEST PUSH1 0x40 MLOAD PUSH1 0x20 DUP2 DUP4 SUB SUB DUP2 MSTORE SWAP1 PUSH1 0x40 MSTORE DUP1 MLOAD SWAP1 PUSH1 0x20 ADD KECCAK256 SWAP1 POP DUP5 PUSH1 0x7 PUSH1 0x0 DUP4 DUP2 MSTORE PUSH1 0x20 ADD SWAP1 DUP2 MSTORE PUSH1 0x20 ADD PUSH1 0x0 KECCAK256 PUSH1 0x0 PUSH2 0x100 EXP DUP2 SLOAD DUP2 PUSH20 0xFFFFFFFFFFFFFFFFFFFFFFFFFFFFFFFFFFFFFFFF MUL NOT AND SWAP1 DUP4 PUSH20 0xFFFFFFFFFFFFFFFFFFFFFFFFFFFFFFFFFFFFFFFF AND MUL OR SWAP1 SSTORE POP DUP1 PUSH32 0xB5E6E01E79F91267DC17B4E6314D5D4D03593D2CEEE0FBB452B750BD70EA5AF9 PUSH1 0x40 MLOAD PUSH1 0x40 MLOAD DUP1 SWAP2 SUB SWAP1 LOG2 PUSH1 0x4 PUSH1 0x0 SWAP1 SLOAD SWAP1 PUSH2 0x100 EXP SWAP1 DIV PUSH20 0xFFFFFFFFFFFFFFFFFFFFFFFFFFFFFFFFFFFFFFFF AND PUSH20 0xFFFFFFFFFFFFFFFFFFFFFFFFFFFFFFFFFFFFFFFF AND PUSH4 0x4000AEA0 DUP7 DUP6 DUP6 PUSH1 0x40 MLOAD DUP5 PUSH4 0xFFFFFFFF AND PUSH1 0xE0 SHL DUP2 MSTORE PUSH1 0x4 ADD PUSH2 0x2296 SWAP4 SWAP3 SWAP2 SWAP1 PUSH2 0x3388 JUMP JUMPDEST PUSH1 0x20 PUSH1 0x40 MLOAD DUP1 DUP4 SUB DUP2 PUSH1 0x0 DUP8 DUP1 EXTCODESIZE ISZERO DUP1 ISZERO PUSH2 0x22B0 JUMPI PUSH1 0x0 DUP1 REVERT JUMPDEST POP GAS CALL ISZERO DUP1 ISZERO PUSH2 0x22C4 JUMPI RETURNDATASIZE PUSH1 0x0 DUP1 RETURNDATACOPY RETURNDATASIZE PUSH1 0x0 REVERT JUMPDEST POP POP POP POP PUSH1 0x40 MLOAD RETURNDATASIZE PUSH1 0x1F NOT PUSH1 0x1F DUP3 ADD AND DUP3 ADD DUP1 PUSH1 0x40 MSTORE POP DUP2 ADD SWAP1 PUSH2 0x22E8 SWAP2 SWAP1 PUSH2 0x2A5F JUMP JUMPDEST PUSH2 0x2327 JUMPI PUSH1 0x40 MLOAD PUSH32 0x8C379A000000000000000000000000000000000000000000000000000000000 DUP2 MSTORE PUSH1 0x4 ADD PUSH2 0x231E SWAP1 PUSH2 0x34C3 JUMP JUMPDEST PUSH1 0x40 MLOAD DUP1 SWAP2 SUB SWAP1 REVERT JUMPDEST SWAP5 SWAP4 POP POP POP POP JUMP JUMPDEST PUSH1 0x0 DUP1 DUP4 PUSH1 0x1 ADD PUSH1 0x0 DUP5 DUP2 MSTORE PUSH1 0x20 ADD SWAP1 DUP2 MSTORE PUSH1 0x20 ADD PUSH1 0x0 KECCAK256 SLOAD EQ ISZERO SWAP1 POP SWAP3 SWAP2 POP POP JUMP JUMPDEST PUSH1 0x0 DUP2 PUSH1 0x0 ADD DUP1 SLOAD SWAP1 POP SWAP1 POP SWAP2 SWAP1 POP JUMP JUMPDEST PUSH1 0x0 DUP1 DUP4 PUSH1 0x1 ADD PUSH1 0x0 DUP5 DUP2 MSTORE PUSH1 0x20 ADD SWAP1 DUP2 MSTORE PUSH1 0x20 ADD PUSH1 0x0 KECCAK256 SLOAD SWAP1 POP PUSH1 0x0 DUP2 EQ PUSH2 0x246B JUMPI PUSH1 0x0 PUSH1 0x1 DUP3 PUSH2 0x2395 SWAP2 SWAP1 PUSH2 0x39D1 JUMP JUMPDEST SWAP1 POP PUSH1 0x0 PUSH1 0x1 DUP7 PUSH1 0x0 ADD DUP1 SLOAD SWAP1 POP PUSH2 0x23AD SWAP2 SWAP1 PUSH2 0x39D1 JUMP JUMPDEST SWAP1 POP DUP2 DUP2 EQ PUSH2 0x241C JUMPI PUSH1 0x0 DUP7 PUSH1 0x0 ADD DUP3 DUP2 SLOAD DUP2 LT PUSH2 0x23CE JUMPI PUSH2 0x23CD PUSH2 0x3CB0 JUMP JUMPDEST JUMPDEST SWAP1 PUSH1 0x0 MSTORE PUSH1 0x20 PUSH1 0x0 KECCAK256 ADD SLOAD SWAP1 POP DUP1 DUP8 PUSH1 0x0 ADD DUP5 DUP2 SLOAD DUP2 LT PUSH2 0x23F2 JUMPI PUSH2 0x23F1 PUSH2 0x3CB0 JUMP JUMPDEST JUMPDEST SWAP1 PUSH1 0x0 MSTORE PUSH1 0x20 PUSH1 0x0 KECCAK256 ADD DUP2 SWAP1 SSTORE POP DUP4 DUP8 PUSH1 0x1 ADD PUSH1 0x0 DUP4 DUP2 MSTORE PUSH1 0x20 ADD SWAP1 DUP2 MSTORE PUSH1 0x20 ADD PUSH1 0x0 KECCAK256 DUP2 SWAP1 SSTORE POP POP JUMPDEST DUP6 PUSH1 0x0 ADD DUP1 SLOAD DUP1 PUSH2 0x2430 JUMPI PUSH2 0x242F PUSH2 0x3C81 JUMP JUMPDEST JUMPDEST PUSH1 0x1 SWAP1 SUB DUP2 DUP2 SWAP1 PUSH1 0x0 MSTORE PUSH1 0x20 PUSH1 0x0 KECCAK256 ADD PUSH1 0x0 SWAP1 SSTORE SWAP1 SSTORE DUP6 PUSH1 0x1 ADD PUSH1 0x0 DUP7 DUP2 MSTORE PUSH1 0x20 ADD SWAP1 DUP2 MSTORE PUSH1 0x20 ADD PUSH1 0x0 KECCAK256 PUSH1 0x0 SWAP1 SSTORE PUSH1 0x1 SWAP4 POP POP POP POP PUSH2 0x2471 JUMP JUMPDEST PUSH1 0x0 SWAP2 POP POP JUMPDEST SWAP3 SWAP2 POP POP JUMP JUMPDEST PUSH2 0x247F PUSH2 0x28A2 JUMP JUMPDEST PUSH2 0x248F DUP4 DUP5 PUSH1 0x0 ADD MLOAD MLOAD DUP5 PUSH2 0x25A8 JUMP JUMPDEST SWAP1 POP SWAP3 SWAP2 POP POP JUMP JUMPDEST PUSH2 0x249F PUSH2 0x28A2 JUMP JUMPDEST PUSH2 0x24B0 DUP5 DUP6 PUSH1 0x0 ADD MLOAD MLOAD DUP6 DUP6 PUSH2 0x25FF JUMP JUMPDEST SWAP1 POP SWAP4 SWAP3 POP POP POP JUMP JUMPDEST PUSH2 0x24C1 PUSH2 0x28A2 JUMP JUMPDEST DUP3 MLOAD DUP3 GT ISZERO PUSH2 0x24CF JUMPI PUSH1 0x0 DUP1 REVERT JUMPDEST DUP5 PUSH1 0x20 ADD MLOAD DUP3 DUP6 PUSH2 0x24E0 SWAP2 SWAP1 PUSH2 0x377F JUMP JUMPDEST GT ISZERO PUSH2 0x2515 JUMPI PUSH2 0x2514 DUP6 PUSH1 0x2 PUSH2 0x2505 DUP9 PUSH1 0x20 ADD MLOAD DUP9 DUP8 PUSH2 0x2500 SWAP2 SWAP1 PUSH2 0x377F JUMP JUMPDEST PUSH2 0x268D JUMP JUMPDEST PUSH2 0x250F SWAP2 SWAP1 PUSH2 0x3977 JUMP JUMPDEST PUSH2 0x26A9 JUMP JUMPDEST JUMPDEST PUSH1 0x0 DUP1 DUP7 MLOAD DUP1 MLOAD DUP8 PUSH1 0x20 DUP4 ADD ADD SWAP4 POP DUP1 DUP9 DUP8 ADD GT ISZERO PUSH2 0x2534 JUMPI DUP8 DUP7 ADD DUP3 MSTORE JUMPDEST PUSH1 0x20 DUP8 ADD SWAP3 POP POP POP JUMPDEST PUSH1 0x20 DUP5 LT PUSH2 0x257B JUMPI DUP1 MLOAD DUP3 MSTORE PUSH1 0x20 DUP3 PUSH2 0x2556 SWAP2 SWAP1 PUSH2 0x377F JUMP JUMPDEST SWAP2 POP PUSH1 0x20 DUP2 PUSH2 0x2565 SWAP2 SWAP1 PUSH2 0x377F JUMP JUMPDEST SWAP1 POP PUSH1 0x20 DUP5 PUSH2 0x2574 SWAP2 SWAP1 PUSH2 0x39D1 JUMP JUMPDEST SWAP4 POP PUSH2 0x253D JUMP JUMPDEST PUSH1 0x0 PUSH1 0x1 DUP6 PUSH1 0x20 SUB PUSH2 0x100 EXP SUB SWAP1 POP DUP1 NOT DUP3 MLOAD AND DUP2 DUP5 MLOAD AND DUP2 DUP2 OR DUP6 MSTORE POP POP POP DUP7 SWAP3 POP POP POP SWAP5 SWAP4 POP POP POP POP JUMP JUMPDEST PUSH2 0x25B0 PUSH2 0x28A2 JUMP JUMPDEST DUP4 PUSH1 0x20 ADD MLOAD DUP4 LT PUSH2 0x25D6 JUMPI PUSH2 0x25D5 DUP5 PUSH1 0x2 DUP7 PUSH1 0x20 ADD MLOAD PUSH2 0x25D0 SWAP2 SWAP1 PUSH2 0x3977 JUMP JUMPDEST PUSH2 0x26A9 JUMP JUMPDEST JUMPDEST DUP4 MLOAD DUP1 MLOAD PUSH1 0x20 DUP6 DUP4 ADD ADD DUP5 DUP2 MSTORE8 DUP2 DUP7 EQ ISZERO PUSH2 0x25F2 JUMPI PUSH1 0x1 DUP3 ADD DUP4 MSTORE JUMPDEST POP POP POP DUP4 SWAP1 POP SWAP4 SWAP3 POP POP POP JUMP JUMPDEST PUSH2 0x2607 PUSH2 0x28A2 JUMP JUMPDEST DUP5 PUSH1 0x20 ADD MLOAD DUP5 DUP4 PUSH2 0x2618 SWAP2 SWAP1 PUSH2 0x377F JUMP JUMPDEST GT ISZERO PUSH2 0x2640 JUMPI PUSH2 0x263F DUP6 PUSH1 0x2 DUP7 DUP6 PUSH2 0x2630 SWAP2 SWAP1 PUSH2 0x377F JUMP JUMPDEST PUSH2 0x263A SWAP2 SWAP1 PUSH2 0x3977 JUMP JUMPDEST PUSH2 0x26A9 JUMP JUMPDEST JUMPDEST PUSH1 0x0 PUSH1 0x1 DUP4 PUSH2 0x100 PUSH2 0x2652 SWAP2 SWAP1 PUSH2 0x3859 JUMP JUMPDEST PUSH2 0x265C SWAP2 SWAP1 PUSH2 0x39D1 JUMP JUMPDEST SWAP1 POP DUP6 MLOAD DUP4 DUP7 DUP3 ADD ADD DUP6 DUP4 NOT DUP3 MLOAD AND OR DUP2 MSTORE DUP2 MLOAD DUP6 DUP9 ADD GT ISZERO PUSH2 0x267F JUMPI DUP5 DUP8 ADD DUP3 MSTORE JUMPDEST POP POP DUP6 SWAP2 POP POP SWAP5 SWAP4 POP POP POP POP JUMP JUMPDEST PUSH1 0x0 DUP2 DUP4 GT ISZERO PUSH2 0x269F JUMPI DUP3 SWAP1 POP PUSH2 0x26A3 JUMP JUMPDEST DUP2 SWAP1 POP JUMPDEST SWAP3 SWAP2 POP POP JUMP JUMPDEST PUSH1 0x0 DUP3 PUSH1 0x0 ADD MLOAD SWAP1 POP PUSH2 0x26BC DUP4 DUP4 PUSH2 0x1F7A JUMP JUMPDEST POP PUSH2 0x26C7 DUP4 DUP3 PUSH2 0x2169 JUMP JUMPDEST POP POP POP POP JUMP JUMPDEST PUSH1 0x40 MLOAD DUP1 PUSH1 0xE0 ADD PUSH1 0x40 MSTORE DUP1 PUSH1 0x0 DUP2 MSTORE PUSH1 0x20 ADD PUSH1 0x60 DUP2 MSTORE PUSH1 0x20 ADD PUSH1 0x0 PUSH20 0xFFFFFFFFFFFFFFFFFFFFFFFFFFFFFFFFFFFFFFFF AND DUP2 MSTORE PUSH1 0x20 ADD PUSH1 0x0 DUP2 MSTORE PUSH1 0x20 ADD PUSH1 0x0 DUP2 MSTORE PUSH1 0x20 ADD PUSH1 0x0 DUP2 MSTORE PUSH1 0x20 ADD PUSH1 0x0 ISZERO ISZERO DUP2 MSTORE POP SWAP1 JUMP JUMPDEST DUP3 DUP1 SLOAD PUSH2 0x272E SWAP1 PUSH2 0x3AE9 JUMP JUMPDEST SWAP1 PUSH1 0x0 MSTORE PUSH1 0x20 PUSH1 0x0 KECCAK256 SWAP1 PUSH1 0x1F ADD PUSH1 0x20 SWAP1 DIV DUP2 ADD SWAP3 DUP3 PUSH2 0x2750 JUMPI PUSH1 0x0 DUP6 SSTORE PUSH2 0x2797 JUMP JUMPDEST DUP3 PUSH1 0x1F LT PUSH2 0x2769 JUMPI DUP1 CALLDATALOAD PUSH1 0xFF NOT AND DUP4 DUP1 ADD OR DUP6 SSTORE PUSH2 0x2797 JUMP JUMPDEST DUP3 DUP1 ADD PUSH1 0x1 ADD DUP6 SSTORE DUP3 ISZERO PUSH2 0x2797 JUMPI SWAP2 DUP3 ADD JUMPDEST DUP3 DUP2 GT ISZERO PUSH2 0x2796 JUMPI DUP3 CALLDATALOAD DUP3 SSTORE SWAP2 PUSH1 0x20 ADD SWAP2 SWAP1 PUSH1 0x1 ADD SWAP1 PUSH2 0x277B JUMP JUMPDEST JUMPDEST POP SWAP1 POP PUSH2 0x27A4 SWAP2 SWAP1 PUSH2 0x28BC JUMP JUMPDEST POP SWAP1 JUMP JUMPDEST DUP3 DUP1 SLOAD PUSH2 0x27B4 SWAP1 PUSH2 0x3AE9 JUMP JUMPDEST SWAP1 PUSH1 0x0 MSTORE PUSH1 0x20 PUSH1 0x0 KECCAK256 SWAP1 PUSH1 0x1F ADD PUSH1 0x20 SWAP1 DIV DUP2 ADD SWAP3 DUP3 PUSH2 0x27D6 JUMPI PUSH1 0x0 DUP6 SSTORE PUSH2 0x2824 JUMP JUMPDEST DUP3 PUSH1 0x1F LT PUSH2 0x27E7 JUMPI DUP1 SLOAD DUP6 SSTORE PUSH2 0x2824 JUMP JUMPDEST DUP3 DUP1 ADD PUSH1 0x1 ADD DUP6 SSTORE DUP3 ISZERO PUSH2 0x2824 JUMPI PUSH1 0x0 MSTORE PUSH1 0x20 PUSH1 0x0 KECCAK256 SWAP2 PUSH1 0x1F ADD PUSH1 0x20 SWAP1 DIV DUP3 ADD JUMPDEST DUP3 DUP2 GT ISZERO PUSH2 0x2823 JUMPI DUP3 SLOAD DUP3 SSTORE SWAP2 PUSH1 0x1 ADD SWAP2 SWAP1 PUSH1 0x1 ADD SWAP1 PUSH2 0x2808 JUMP JUMPDEST JUMPDEST POP SWAP1 POP PUSH2 0x2831 SWAP2 SWAP1 PUSH2 0x28BC JUMP JUMPDEST POP SWAP1 JUMP JUMPDEST PUSH1 0x40 MLOAD DUP1 PUSH1 0xA0 ADD PUSH1 0x40 MSTORE DUP1 PUSH1 0x0 DUP1 NOT AND DUP2 MSTORE PUSH1 0x20 ADD PUSH1 0x0 PUSH20 0xFFFFFFFFFFFFFFFFFFFFFFFFFFFFFFFFFFFFFFFF AND DUP2 MSTORE PUSH1 0x20 ADD PUSH1 0x0 PUSH28 0xFFFFFFFFFFFFFFFFFFFFFFFFFFFFFFFFFFFFFFFFFFFFFFFFFFFFFFFF NOT AND DUP2 MSTORE PUSH1 0x20 ADD PUSH1 0x0 DUP2 MSTORE PUSH1 0x20 ADD PUSH2 0x289C PUSH2 0x28A2 JUMP JUMPDEST DUP2 MSTORE POP SWAP1 JUMP JUMPDEST PUSH1 0x40 MLOAD DUP1 PUSH1 0x40 ADD PUSH1 0x40 MSTORE DUP1 PUSH1 0x60 DUP2 MSTORE PUSH1 0x20 ADD PUSH1 0x0 DUP2 MSTORE POP SWAP1 JUMP JUMPDEST JUMPDEST DUP1 DUP3 GT ISZERO PUSH2 0x28D5 JUMPI PUSH1 0x0 DUP2 PUSH1 0x0 SWAP1 SSTORE POP PUSH1 0x1 ADD PUSH2 0x28BD JUMP JUMPDEST POP SWAP1 JUMP JUMPDEST PUSH1 0x0 PUSH2 0x28EC PUSH2 0x28E7 DUP5 PUSH2 0x36E5 JUMP JUMPDEST PUSH2 0x36C0 JUMP JUMPDEST SWAP1 POP DUP3 DUP2 MSTORE PUSH1 0x20 DUP2 ADD DUP5 DUP5 DUP5 ADD GT ISZERO PUSH2 0x2908 JUMPI PUSH2 0x2907 PUSH2 0x3D1D JUMP JUMPDEST JUMPDEST PUSH2 0x2913 DUP5 DUP3 DUP6 PUSH2 0x3AA7 JUMP JUMPDEST POP SWAP4 SWAP3 POP POP POP JUMP JUMPDEST PUSH1 0x0 DUP2 CALLDATALOAD SWAP1 POP PUSH2 0x292A DUP2 PUSH2 0x411D JUMP JUMPDEST SWAP3 SWAP2 POP POP JUMP JUMPDEST PUSH1 0x0 DUP2 CALLDATALOAD SWAP1 POP PUSH2 0x293F DUP2 PUSH2 0x4134 JUMP JUMPDEST SWAP3 SWAP2 POP POP JUMP JUMPDEST PUSH1 0x0 DUP2 MLOAD SWAP1 POP PUSH2 0x2954 DUP2 PUSH2 0x4134 JUMP JUMPDEST SWAP3 SWAP2 POP POP JUMP JUMPDEST PUSH1 0x0 DUP2 CALLDATALOAD SWAP1 POP PUSH2 0x2969 DUP2 PUSH2 0x414B JUMP JUMPDEST SWAP3 SWAP2 POP POP JUMP JUMPDEST PUSH1 0x0 DUP2 CALLDATALOAD SWAP1 POP PUSH2 0x297E DUP2 PUSH2 0x4162 JUMP JUMPDEST SWAP3 SWAP2 POP POP JUMP JUMPDEST PUSH1 0x0 DUP1 DUP4 PUSH1 0x1F DUP5 ADD SLT PUSH2 0x299A JUMPI PUSH2 0x2999 PUSH2 0x3D13 JUMP JUMPDEST JUMPDEST DUP3 CALLDATALOAD SWAP1 POP PUSH8 0xFFFFFFFFFFFFFFFF DUP2 GT ISZERO PUSH2 0x29B7 JUMPI PUSH2 0x29B6 PUSH2 0x3D0E JUMP JUMPDEST JUMPDEST PUSH1 0x20 DUP4 ADD SWAP2 POP DUP4 PUSH1 0x1 DUP3 MUL DUP4 ADD GT ISZERO PUSH2 0x29D3 JUMPI PUSH2 0x29D2 PUSH2 0x3D18 JUMP JUMPDEST JUMPDEST SWAP3 POP SWAP3 SWAP1 POP JUMP JUMPDEST PUSH1 0x0 DUP3 PUSH1 0x1F DUP4 ADD SLT PUSH2 0x29EF JUMPI PUSH2 0x29EE PUSH2 0x3D13 JUMP JUMPDEST JUMPDEST DUP2 CALLDATALOAD PUSH2 0x29FF DUP5 DUP3 PUSH1 0x20 DUP7 ADD PUSH2 0x28D9 JUMP JUMPDEST SWAP2 POP POP SWAP3 SWAP2 POP POP JUMP JUMPDEST PUSH1 0x0 DUP2 CALLDATALOAD SWAP1 POP PUSH2 0x2A17 DUP2 PUSH2 0x4179 JUMP JUMPDEST SWAP3 SWAP2 POP POP JUMP JUMPDEST PUSH1 0x0 DUP2 MLOAD SWAP1 POP PUSH2 0x2A2C DUP2 PUSH2 0x4179 JUMP JUMPDEST SWAP3 SWAP2 POP POP JUMP JUMPDEST PUSH1 0x0 PUSH1 0x20 DUP3 DUP5 SUB SLT ISZERO PUSH2 0x2A48 JUMPI PUSH2 0x2A47 PUSH2 0x3D27 JUMP JUMPDEST JUMPDEST PUSH1 0x0 PUSH2 0x2A56 DUP5 DUP3 DUP6 ADD PUSH2 0x291B JUMP JUMPDEST SWAP2 POP POP SWAP3 SWAP2 POP POP JUMP JUMPDEST PUSH1 0x0 PUSH1 0x20 DUP3 DUP5 SUB SLT ISZERO PUSH2 0x2A75 JUMPI PUSH2 0x2A74 PUSH2 0x3D27 JUMP JUMPDEST JUMPDEST PUSH1 0x0 PUSH2 0x2A83 DUP5 DUP3 DUP6 ADD PUSH2 0x2945 JUMP JUMPDEST SWAP2 POP POP SWAP3 SWAP2 POP POP JUMP JUMPDEST PUSH1 0x0 DUP1 PUSH1 0x0 PUSH1 0x60 DUP5 DUP7 SUB SLT ISZERO PUSH2 0x2AA5 JUMPI PUSH2 0x2AA4 PUSH2 0x3D27 JUMP JUMPDEST JUMPDEST PUSH1 0x0 PUSH2 0x2AB3 DUP7 DUP3 DUP8 ADD PUSH2 0x295A JUMP JUMPDEST SWAP4 POP POP PUSH1 0x20 PUSH2 0x2AC4 DUP7 DUP3 DUP8 ADD PUSH2 0x2A08 JUMP JUMPDEST SWAP3 POP POP PUSH1 0x40 PUSH2 0x2AD5 DUP7 DUP3 DUP8 ADD PUSH2 0x2930 JUMP JUMPDEST SWAP2 POP POP SWAP3 POP SWAP3 POP SWAP3 JUMP JUMPDEST PUSH1 0x0 DUP1 PUSH1 0x0 DUP1 PUSH1 0x80 DUP6 DUP8 SUB SLT ISZERO PUSH2 0x2AF9 JUMPI PUSH2 0x2AF8 PUSH2 0x3D27 JUMP JUMPDEST JUMPDEST PUSH1 0x0 PUSH2 0x2B07 DUP8 DUP3 DUP9 ADD PUSH2 0x295A JUMP JUMPDEST SWAP5 POP POP PUSH1 0x20 PUSH2 0x2B18 DUP8 DUP3 DUP9 ADD PUSH2 0x2A08 JUMP JUMPDEST SWAP4 POP POP PUSH1 0x40 PUSH2 0x2B29 DUP8 DUP3 DUP9 ADD PUSH2 0x296F JUMP JUMPDEST SWAP3 POP POP PUSH1 0x60 PUSH2 0x2B3A DUP8 DUP3 DUP9 ADD PUSH2 0x2A08 JUMP JUMPDEST SWAP2 POP POP SWAP3 SWAP6 SWAP2 SWAP5 POP SWAP3 POP JUMP JUMPDEST PUSH1 0x0 DUP1 PUSH1 0x20 DUP4 DUP6 SUB SLT ISZERO PUSH2 0x2B5D JUMPI PUSH2 0x2B5C PUSH2 0x3D27 JUMP JUMPDEST JUMPDEST PUSH1 0x0 DUP4 ADD CALLDATALOAD PUSH8 0xFFFFFFFFFFFFFFFF DUP2 GT ISZERO PUSH2 0x2B7B JUMPI PUSH2 0x2B7A PUSH2 0x3D22 JUMP JUMPDEST JUMPDEST PUSH2 0x2B87 DUP6 DUP3 DUP7 ADD PUSH2 0x2984 JUMP JUMPDEST SWAP3 POP SWAP3 POP POP SWAP3 POP SWAP3 SWAP1 POP JUMP JUMPDEST PUSH1 0x0 DUP1 PUSH1 0x0 DUP1 PUSH1 0x0 PUSH1 0x80 DUP7 DUP9 SUB SLT ISZERO PUSH2 0x2BAF JUMPI PUSH2 0x2BAE PUSH2 0x3D27 JUMP JUMPDEST JUMPDEST PUSH1 0x0 DUP7 ADD CALLDATALOAD PUSH8 0xFFFFFFFFFFFFFFFF DUP2 GT ISZERO PUSH2 0x2BCD JUMPI PUSH2 0x2BCC PUSH2 0x3D22 JUMP JUMPDEST JUMPDEST PUSH2 0x2BD9 DUP9 DUP3 DUP10 ADD PUSH2 0x2984 JUMP JUMPDEST SWAP6 POP SWAP6 POP POP PUSH1 0x20 PUSH2 0x2BEC DUP9 DUP3 DUP10 ADD PUSH2 0x2A08 JUMP JUMPDEST SWAP4 POP POP PUSH1 0x40 PUSH2 0x2BFD DUP9 DUP3 DUP10 ADD PUSH2 0x2A08 JUMP JUMPDEST SWAP3 POP POP PUSH1 0x60 PUSH2 0x2C0E DUP9 DUP3 DUP10 ADD PUSH2 0x2A08 JUMP JUMPDEST SWAP2 POP POP SWAP3 SWAP6 POP SWAP3 SWAP6 SWAP1 SWAP4 POP JUMP JUMPDEST PUSH1 0x0 PUSH1 0x20 DUP3 DUP5 SUB SLT ISZERO PUSH2 0x2C31 JUMPI PUSH2 0x2C30 PUSH2 0x3D27 JUMP JUMPDEST JUMPDEST PUSH1 0x0 PUSH2 0x2C3F DUP5 DUP3 DUP6 ADD PUSH2 0x2A08 JUMP JUMPDEST SWAP2 POP POP SWAP3 SWAP2 POP POP JUMP JUMPDEST PUSH1 0x0 PUSH1 0x20 DUP3 DUP5 SUB SLT ISZERO PUSH2 0x2C5E JUMPI PUSH2 0x2C5D PUSH2 0x3D27 JUMP JUMPDEST JUMPDEST PUSH1 0x0 PUSH2 0x2C6C DUP5 DUP3 DUP6 ADD PUSH2 0x2A1D JUMP JUMPDEST SWAP2 POP POP SWAP3 SWAP2 POP POP JUMP JUMPDEST PUSH1 0x0 DUP1 PUSH1 0x40 DUP4 DUP6 SUB SLT ISZERO PUSH2 0x2C8C JUMPI PUSH2 0x2C8B PUSH2 0x3D27 JUMP JUMPDEST JUMPDEST PUSH1 0x0 PUSH2 0x2C9A DUP6 DUP3 DUP7 ADD PUSH2 0x2A08 JUMP JUMPDEST SWAP3 POP POP PUSH1 0x20 PUSH2 0x2CAB DUP6 DUP3 DUP7 ADD PUSH2 0x291B JUMP JUMPDEST SWAP2 POP POP SWAP3 POP SWAP3 SWAP1 POP JUMP JUMPDEST PUSH1 0x0 DUP1 PUSH1 0x0 PUSH1 0x60 DUP5 DUP7 SUB SLT ISZERO PUSH2 0x2CCE JUMPI PUSH2 0x2CCD PUSH2 0x3D27 JUMP JUMPDEST JUMPDEST PUSH1 0x0 PUSH2 0x2CDC DUP7 DUP3 DUP8 ADD PUSH2 0x2A08 JUMP JUMPDEST SWAP4 POP POP PUSH1 0x20 DUP5 ADD CALLDATALOAD PUSH8 0xFFFFFFFFFFFFFFFF DUP2 GT ISZERO PUSH2 0x2CFD JUMPI PUSH2 0x2CFC PUSH2 0x3D22 JUMP JUMPDEST JUMPDEST PUSH2 0x2D09 DUP7 DUP3 DUP8 ADD PUSH2 0x29DA JUMP JUMPDEST SWAP3 POP POP PUSH1 0x40 PUSH2 0x2D1A DUP7 DUP3 DUP8 ADD PUSH2 0x2A08 JUMP JUMPDEST SWAP2 POP POP SWAP3 POP SWAP3 POP SWAP3 JUMP JUMPDEST PUSH2 0x2D2D DUP2 PUSH2 0x3A05 JUMP JUMPDEST DUP3 MSTORE POP POP JUMP JUMPDEST PUSH2 0x2D3C DUP2 PUSH2 0x3A05 JUMP JUMPDEST DUP3 MSTORE POP POP JUMP JUMPDEST PUSH2 0x2D4B DUP2 PUSH2 0x3A17 JUMP JUMPDEST DUP3 MSTORE POP POP JUMP JUMPDEST PUSH2 0x2D5A DUP2 PUSH2 0x3A17 JUMP JUMPDEST DUP3 MSTORE POP POP JUMP JUMPDEST PUSH2 0x2D69 DUP2 PUSH2 0x3A23 JUMP JUMPDEST DUP3 MSTORE POP POP JUMP JUMPDEST PUSH2 0x2D78 DUP2 PUSH2 0x3A2D JUMP JUMPDEST DUP3 MSTORE POP POP JUMP JUMPDEST PUSH1 0x0 PUSH2 0x2D89 DUP3 PUSH2 0x372B JUMP JUMPDEST PUSH2 0x2D93 DUP2 DUP6 PUSH2 0x3741 JUMP JUMPDEST SWAP4 POP PUSH2 0x2DA3 DUP2 DUP6 PUSH1 0x20 DUP7 ADD PUSH2 0x3AB6 JUMP JUMPDEST PUSH2 0x2DAC DUP2 PUSH2 0x3D2C JUMP JUMPDEST DUP5 ADD SWAP2 POP POP SWAP3 SWAP2 POP POP JUMP JUMPDEST PUSH2 0x2DC8 PUSH2 0x2DC3 DUP3 PUSH2 0x3A83 JUMP JUMPDEST PUSH2 0x3B95 JUMP JUMPDEST DUP3 MSTORE POP POP JUMP JUMPDEST PUSH1 0x0 PUSH2 0x2DD9 DUP3 PUSH2 0x3736 JUMP JUMPDEST PUSH2 0x2DE3 DUP2 DUP6 PUSH2 0x3752 JUMP JUMPDEST SWAP4 POP PUSH2 0x2DF3 DUP2 DUP6 PUSH1 0x20 DUP7 ADD PUSH2 0x3AB6 JUMP JUMPDEST PUSH2 0x2DFC DUP2 PUSH2 0x3D2C JUMP JUMPDEST DUP5 ADD SWAP2 POP POP SWAP3 SWAP2 POP POP JUMP JUMPDEST PUSH1 0x0 PUSH2 0x2E12 DUP3 PUSH2 0x3736 JUMP JUMPDEST PUSH2 0x2E1C DUP2 DUP6 PUSH2 0x3763 JUMP JUMPDEST SWAP4 POP PUSH2 0x2E2C DUP2 DUP6 PUSH1 0x20 DUP7 ADD PUSH2 0x3AB6 JUMP JUMPDEST PUSH2 0x2E35 DUP2 PUSH2 0x3D2C JUMP JUMPDEST DUP5 ADD SWAP2 POP POP SWAP3 SWAP2 POP POP JUMP JUMPDEST PUSH1 0x0 DUP2 SLOAD PUSH2 0x2E4D DUP2 PUSH2 0x3AE9 JUMP JUMPDEST PUSH2 0x2E57 DUP2 DUP7 PUSH2 0x3774 JUMP JUMPDEST SWAP5 POP PUSH1 0x1 DUP3 AND PUSH1 0x0 DUP2 EQ PUSH2 0x2E72 JUMPI PUSH1 0x1 DUP2 EQ PUSH2 0x2E83 JUMPI PUSH2 0x2EB6 JUMP JUMPDEST PUSH1 0xFF NOT DUP4 AND DUP7 MSTORE DUP2 DUP7 ADD SWAP4 POP PUSH2 0x2EB6 JUMP JUMPDEST PUSH2 0x2E8C DUP6 PUSH2 0x3716 JUMP JUMPDEST PUSH1 0x0 JUMPDEST DUP4 DUP2 LT ISZERO PUSH2 0x2EAE JUMPI DUP2 SLOAD DUP2 DUP10 ADD MSTORE PUSH1 0x1 DUP3 ADD SWAP2 POP PUSH1 0x20 DUP2 ADD SWAP1 POP PUSH2 0x2E8F JUMP JUMPDEST DUP4 DUP9 ADD SWAP6 POP POP POP JUMPDEST POP POP POP SWAP3 SWAP2 POP POP JUMP JUMPDEST PUSH1 0x0 PUSH2 0x2ECC PUSH1 0x12 DUP4 PUSH2 0x3763 JUMP JUMPDEST SWAP2 POP PUSH2 0x2ED7 DUP3 PUSH2 0x3D57 JUMP JUMPDEST PUSH1 0x20 DUP3 ADD SWAP1 POP SWAP2 SWAP1 POP JUMP JUMPDEST PUSH1 0x0 PUSH2 0x2EEF PUSH1 0x2E DUP4 PUSH2 0x3763 JUMP JUMPDEST SWAP2 POP PUSH2 0x2EFA DUP3 PUSH2 0x3D80 JUMP JUMPDEST PUSH1 0x40 DUP3 ADD SWAP1 POP SWAP2 SWAP1 POP JUMP JUMPDEST PUSH1 0x0 PUSH2 0x2F12 PUSH1 0x26 DUP4 PUSH2 0x3763 JUMP JUMPDEST SWAP2 POP PUSH2 0x2F1D DUP3 PUSH2 0x3DCF JUMP JUMPDEST PUSH1 0x40 DUP3 ADD SWAP1 POP SWAP2 SWAP1 POP JUMP JUMPDEST PUSH1 0x0 PUSH2 0x2F35 PUSH1 0x23 DUP4 PUSH2 0x3763 JUMP JUMPDEST SWAP2 POP PUSH2 0x2F40 DUP3 PUSH2 0x3E1E JUMP JUMPDEST PUSH1 0x40 DUP3 ADD SWAP1 POP SWAP2 SWAP1 POP JUMP JUMPDEST PUSH1 0x0 PUSH2 0x2F58 PUSH1 0x7 DUP4 PUSH2 0x3774 JUMP JUMPDEST SWAP2 POP PUSH2 0x2F63 DUP3 PUSH2 0x3E6D JUMP JUMPDEST PUSH1 0x7 DUP3 ADD SWAP1 POP SWAP2 SWAP1 POP JUMP JUMPDEST PUSH1 0x0 PUSH2 0x2F7B PUSH1 0x10 DUP4 PUSH2 0x3763 JUMP JUMPDEST SWAP2 POP PUSH2 0x2F86 DUP3 PUSH2 0x3E96 JUMP JUMPDEST PUSH1 0x20 DUP3 ADD SWAP1 POP SWAP2 SWAP1 POP JUMP JUMPDEST PUSH1 0x0 PUSH2 0x2F9E PUSH1 0x12 DUP4 PUSH2 0x3763 JUMP JUMPDEST SWAP2 POP PUSH2 0x2FA9 DUP3 PUSH2 0x3EBF JUMP JUMPDEST PUSH1 0x20 DUP3 ADD SWAP1 POP SWAP2 SWAP1 POP JUMP JUMPDEST PUSH1 0x0 PUSH2 0x2FC1 PUSH1 0x20 DUP4 PUSH2 0x3763 JUMP JUMPDEST SWAP2 POP PUSH2 0x2FCC DUP3 PUSH2 0x3EE8 JUMP JUMPDEST PUSH1 0x20 DUP3 ADD SWAP1 POP SWAP2 SWAP1 POP JUMP JUMPDEST PUSH1 0x0 PUSH2 0x2FE4 PUSH1 0x17 DUP4 PUSH2 0x3763 JUMP JUMPDEST SWAP2 POP PUSH2 0x2FEF DUP3 PUSH2 0x3F11 JUMP JUMPDEST PUSH1 0x20 DUP3 ADD SWAP1 POP SWAP2 SWAP1 POP JUMP JUMPDEST PUSH1 0x0 PUSH2 0x3007 PUSH1 0x20 DUP4 PUSH2 0x3763 JUMP JUMPDEST SWAP2 POP PUSH2 0x3012 DUP3 PUSH2 0x3F3A JUMP JUMPDEST PUSH1 0x20 DUP3 ADD SWAP1 POP SWAP2 SWAP1 POP JUMP JUMPDEST PUSH1 0x0 PUSH2 0x302A PUSH1 0x1B DUP4 PUSH2 0x3763 JUMP JUMPDEST SWAP2 POP PUSH2 0x3035 DUP3 PUSH2 0x3F63 JUMP JUMPDEST PUSH1 0x20 DUP3 ADD SWAP1 POP SWAP2 SWAP1 POP JUMP JUMPDEST PUSH1 0x0 PUSH2 0x304D PUSH1 0x3E DUP4 PUSH2 0x3763 JUMP JUMPDEST SWAP2 POP PUSH2 0x3058 DUP3 PUSH2 0x3F8C JUMP JUMPDEST PUSH1 0x40 DUP3 ADD SWAP1 POP SWAP2 SWAP1 POP JUMP JUMPDEST PUSH1 0x0 PUSH2 0x3070 PUSH1 0xA DUP4 PUSH2 0x3774 JUMP JUMPDEST SWAP2 POP PUSH2 0x307B DUP3 PUSH2 0x3FDB JUMP JUMPDEST PUSH1 0xA DUP3 ADD SWAP1 POP SWAP2 SWAP1 POP JUMP JUMPDEST PUSH1 0x0 PUSH2 0x3093 PUSH1 0x1E DUP4 PUSH2 0x3763 JUMP JUMPDEST SWAP2 POP PUSH2 0x309E DUP3 PUSH2 0x4004 JUMP JUMPDEST PUSH1 0x20 DUP3 ADD SWAP1 POP SWAP2 SWAP1 POP JUMP JUMPDEST PUSH1 0x0 PUSH2 0x30B6 PUSH1 0x28 DUP4 PUSH2 0x3763 JUMP JUMPDEST SWAP2 POP PUSH2 0x30C1 DUP3 PUSH2 0x402D JUMP JUMPDEST PUSH1 0x40 DUP3 ADD SWAP1 POP SWAP2 SWAP1 POP JUMP JUMPDEST PUSH1 0x0 PUSH2 0x30D9 PUSH1 0x8 DUP4 PUSH2 0x3774 JUMP JUMPDEST SWAP2 POP PUSH2 0x30E4 DUP3 PUSH2 0x407C JUMP JUMPDEST PUSH1 0x8 DUP3 ADD SWAP1 POP SWAP2 SWAP1 POP JUMP JUMPDEST PUSH1 0x0 PUSH2 0x30FC PUSH1 0x22 DUP4 PUSH2 0x3763 JUMP JUMPDEST SWAP2 POP PUSH2 0x3107 DUP3 PUSH2 0x40A5 JUMP JUMPDEST PUSH1 0x40 DUP3 ADD SWAP1 POP SWAP2 SWAP1 POP JUMP JUMPDEST PUSH1 0x0 PUSH2 0x311F PUSH1 0x8 DUP4 PUSH2 0x3774 JUMP JUMPDEST SWAP2 POP PUSH2 0x312A DUP3 PUSH2 0x40F4 JUMP JUMPDEST PUSH1 0x8 DUP3 ADD SWAP1 POP SWAP2 SWAP1 POP JUMP JUMPDEST PUSH1 0x0 PUSH1 0xE0 DUP4 ADD PUSH1 0x0 DUP4 ADD MLOAD PUSH2 0x314D PUSH1 0x0 DUP7 ADD DUP3 PUSH2 0x31D1 JUMP JUMPDEST POP PUSH1 0x20 DUP4 ADD MLOAD DUP5 DUP3 SUB PUSH1 0x20 DUP7 ADD MSTORE PUSH2 0x3165 DUP3 DUP3 PUSH2 0x2DCE JUMP JUMPDEST SWAP2 POP POP PUSH1 0x40 DUP4 ADD MLOAD PUSH2 0x317A PUSH1 0x40 DUP7 ADD DUP3 PUSH2 0x2D24 JUMP JUMPDEST POP PUSH1 0x60 DUP4 ADD MLOAD PUSH2 0x318D PUSH1 0x60 DUP7 ADD DUP3 PUSH2 0x31D1 JUMP JUMPDEST POP PUSH1 0x80 DUP4 ADD MLOAD PUSH2 0x31A0 PUSH1 0x80 DUP7 ADD DUP3 PUSH2 0x31D1 JUMP JUMPDEST POP PUSH1 0xA0 DUP4 ADD MLOAD PUSH2 0x31B3 PUSH1 0xA0 DUP7 ADD DUP3 PUSH2 0x31D1 JUMP JUMPDEST POP PUSH1 0xC0 DUP4 ADD MLOAD PUSH2 0x31C6 PUSH1 0xC0 DUP7 ADD DUP3 PUSH2 0x2D42 JUMP JUMPDEST POP DUP1 SWAP2 POP POP SWAP3 SWAP2 POP POP JUMP JUMPDEST PUSH2 0x31DA DUP2 PUSH2 0x3A79 JUMP JUMPDEST DUP3 MSTORE POP POP JUMP JUMPDEST PUSH2 0x31E9 DUP2 PUSH2 0x3A79 JUMP JUMPDEST DUP3 MSTORE POP POP JUMP JUMPDEST PUSH2 0x3200 PUSH2 0x31FB DUP3 PUSH2 0x3A79 JUMP JUMPDEST PUSH2 0x3BB9 JUMP JUMPDEST DUP3 MSTORE POP POP JUMP JUMPDEST PUSH1 0x0 PUSH2 0x3212 DUP3 DUP6 PUSH2 0x2DB7 JUMP JUMPDEST PUSH1 0x14 DUP3 ADD SWAP2 POP PUSH2 0x3222 DUP3 DUP5 PUSH2 0x31EF JUMP JUMPDEST PUSH1 0x20 DUP3 ADD SWAP2 POP DUP2 SWAP1 POP SWAP4 SWAP3 POP POP POP JUMP JUMPDEST PUSH1 0x0 PUSH2 0x323E DUP3 DUP6 PUSH2 0x2E40 JUMP JUMPDEST SWAP2 POP PUSH2 0x3249 DUP3 PUSH2 0x2F4B JUMP JUMPDEST SWAP2 POP PUSH2 0x3255 DUP3 DUP5 PUSH2 0x31EF JUMP JUMPDEST PUSH1 0x20 DUP3 ADD SWAP2 POP DUP2 SWAP1 POP SWAP4 SWAP3 POP POP POP JUMP JUMPDEST PUSH1 0x0 PUSH2 0x3271 DUP3 DUP7 PUSH2 0x2E40 JUMP JUMPDEST SWAP2 POP PUSH2 0x327C DUP3 PUSH2 0x30CC JUMP JUMPDEST SWAP2 POP PUSH2 0x3288 DUP3 DUP6 PUSH2 0x31EF JUMP JUMPDEST PUSH1 0x20 DUP3 ADD SWAP2 POP PUSH2 0x3297 DUP3 PUSH2 0x3063 JUMP JUMPDEST SWAP2 POP PUSH2 0x32A3 DUP3 DUP5 PUSH2 0x31EF JUMP JUMPDEST PUSH1 0x20 DUP3 ADD SWAP2 POP PUSH2 0x32B2 DUP3 PUSH2 0x3112 JUMP JUMPDEST SWAP2 POP DUP2 SWAP1 POP SWAP5 SWAP4 POP POP POP POP JUMP JUMPDEST PUSH1 0x0 PUSH1 0x20 DUP3 ADD SWAP1 POP PUSH2 0x32D4 PUSH1 0x0 DUP4 ADD DUP5 PUSH2 0x2D33 JUMP JUMPDEST SWAP3 SWAP2 POP POP JUMP JUMPDEST PUSH1 0x0 PUSH1 0x40 DUP3 ADD SWAP1 POP PUSH2 0x32EF PUSH1 0x0 DUP4 ADD DUP6 PUSH2 0x2D33 JUMP JUMPDEST PUSH2 0x32FC PUSH1 0x20 DUP4 ADD DUP5 PUSH2 0x31E0 JUMP JUMPDEST SWAP4 SWAP3 POP POP POP JUMP JUMPDEST PUSH1 0x0 PUSH2 0x100 DUP3 ADD SWAP1 POP PUSH2 0x3319 PUSH1 0x0 DUP4 ADD DUP12 PUSH2 0x2D33 JUMP JUMPDEST PUSH2 0x3326 PUSH1 0x20 DUP4 ADD DUP11 PUSH2 0x31E0 JUMP JUMPDEST PUSH2 0x3333 PUSH1 0x40 DUP4 ADD DUP10 PUSH2 0x2D60 JUMP JUMPDEST PUSH2 0x3340 PUSH1 0x60 DUP4 ADD DUP9 PUSH2 0x2D33 JUMP JUMPDEST PUSH2 0x334D PUSH1 0x80 DUP4 ADD DUP8 PUSH2 0x2D6F JUMP JUMPDEST PUSH2 0x335A PUSH1 0xA0 DUP4 ADD DUP7 PUSH2 0x31E0 JUMP JUMPDEST PUSH2 0x3367 PUSH1 0xC0 DUP4 ADD DUP6 PUSH2 0x31E0 JUMP JUMPDEST DUP2 DUP2 SUB PUSH1 0xE0 DUP4 ADD MSTORE PUSH2 0x3379 DUP2 DUP5 PUSH2 0x2D7E JUMP JUMPDEST SWAP1 POP SWAP10 SWAP9 POP POP POP POP POP POP POP POP POP JUMP JUMPDEST PUSH1 0x0 PUSH1 0x60 DUP3 ADD SWAP1 POP PUSH2 0x339D PUSH1 0x0 DUP4 ADD DUP7 PUSH2 0x2D33 JUMP JUMPDEST PUSH2 0x33AA PUSH1 0x20 DUP4 ADD DUP6 PUSH2 0x31E0 JUMP JUMPDEST DUP2 DUP2 SUB PUSH1 0x40 DUP4 ADD MSTORE PUSH2 0x33BC DUP2 DUP5 PUSH2 0x2D7E JUMP JUMPDEST SWAP1 POP SWAP5 SWAP4 POP POP POP POP JUMP JUMPDEST PUSH1 0x0 PUSH1 0x20 DUP3 ADD SWAP1 POP PUSH2 0x33DB PUSH1 0x0 DUP4 ADD DUP5 PUSH2 0x2D51 JUMP JUMPDEST SWAP3 SWAP2 POP POP JUMP JUMPDEST PUSH1 0x0 PUSH1 0x20 DUP3 ADD SWAP1 POP PUSH2 0x33F6 PUSH1 0x0 DUP4 ADD DUP5 PUSH2 0x2D60 JUMP JUMPDEST SWAP3 SWAP2 POP POP JUMP JUMPDEST PUSH1 0x0 PUSH1 0x80 DUP3 ADD SWAP1 POP PUSH2 0x3411 PUSH1 0x0 DUP4 ADD DUP8 PUSH2 0x2D60 JUMP JUMPDEST PUSH2 0x341E PUSH1 0x20 DUP4 ADD DUP7 PUSH2 0x31E0 JUMP JUMPDEST PUSH2 0x342B PUSH1 0x40 DUP4 ADD DUP6 PUSH2 0x2D6F JUMP JUMPDEST PUSH2 0x3438 PUSH1 0x60 DUP4 ADD DUP5 PUSH2 0x31E0 JUMP JUMPDEST SWAP6 SWAP5 POP POP POP POP POP JUMP JUMPDEST PUSH1 0x0 PUSH1 0x20 DUP3 ADD SWAP1 POP DUP2 DUP2 SUB PUSH1 0x0 DUP4 ADD MSTORE PUSH2 0x345B DUP2 DUP5 PUSH2 0x2E07 JUMP JUMPDEST SWAP1 POP SWAP3 SWAP2 POP POP JUMP JUMPDEST PUSH1 0x0 PUSH1 0x20 DUP3 ADD SWAP1 POP DUP2 DUP2 SUB PUSH1 0x0 DUP4 ADD MSTORE PUSH2 0x347C DUP2 PUSH2 0x2EBF JUMP JUMPDEST SWAP1 POP SWAP2 SWAP1 POP JUMP JUMPDEST PUSH1 0x0 PUSH1 0x20 DUP3 ADD SWAP1 POP DUP2 DUP2 SUB PUSH1 0x0 DUP4 ADD MSTORE PUSH2 0x349C DUP2 PUSH2 0x2EE2 JUMP JUMPDEST SWAP1 POP SWAP2 SWAP1 POP JUMP JUMPDEST PUSH1 0x0 PUSH1 0x20 DUP3 ADD SWAP1 POP DUP2 DUP2 SUB PUSH1 0x0 DUP4 ADD MSTORE PUSH2 0x34BC DUP2 PUSH2 0x2F05 JUMP JUMPDEST SWAP1 POP SWAP2 SWAP1 POP JUMP JUMPDEST PUSH1 0x0 PUSH1 0x20 DUP3 ADD SWAP1 POP DUP2 DUP2 SUB PUSH1 0x0 DUP4 ADD MSTORE PUSH2 0x34DC DUP2 PUSH2 0x2F28 JUMP JUMPDEST SWAP1 POP SWAP2 SWAP1 POP JUMP JUMPDEST PUSH1 0x0 PUSH1 0x20 DUP3 ADD SWAP1 POP DUP2 DUP2 SUB PUSH1 0x0 DUP4 ADD MSTORE PUSH2 0x34FC DUP2 PUSH2 0x2F6E JUMP JUMPDEST SWAP1 POP SWAP2 SWAP1 POP JUMP JUMPDEST PUSH1 0x0 PUSH1 0x20 DUP3 ADD SWAP1 POP DUP2 DUP2 SUB PUSH1 0x0 DUP4 ADD MSTORE PUSH2 0x351C DUP2 PUSH2 0x2F91 JUMP JUMPDEST SWAP1 POP SWAP2 SWAP1 POP JUMP JUMPDEST PUSH1 0x0 PUSH1 0x20 DUP3 ADD SWAP1 POP DUP2 DUP2 SUB PUSH1 0x0 DUP4 ADD MSTORE PUSH2 0x353C DUP2 PUSH2 0x2FB4 JUMP JUMPDEST SWAP1 POP SWAP2 SWAP1 POP JUMP JUMPDEST PUSH1 0x0 PUSH1 0x20 DUP3 ADD SWAP1 POP DUP2 DUP2 SUB PUSH1 0x0 DUP4 ADD MSTORE PUSH2 0x355C DUP2 PUSH2 0x2FD7 JUMP JUMPDEST SWAP1 POP SWAP2 SWAP1 POP JUMP JUMPDEST PUSH1 0x0 PUSH1 0x20 DUP3 ADD SWAP1 POP DUP2 DUP2 SUB PUSH1 0x0 DUP4 ADD MSTORE PUSH2 0x357C DUP2 PUSH2 0x2FFA JUMP JUMPDEST SWAP1 POP SWAP2 SWAP1 POP JUMP JUMPDEST PUSH1 0x0 PUSH1 0x20 DUP3 ADD SWAP1 POP DUP2 DUP2 SUB PUSH1 0x0 DUP4 ADD MSTORE PUSH2 0x359C DUP2 PUSH2 0x301D JUMP JUMPDEST SWAP1 POP SWAP2 SWAP1 POP JUMP JUMPDEST PUSH1 0x0 PUSH1 0x20 DUP3 ADD SWAP1 POP DUP2 DUP2 SUB PUSH1 0x0 DUP4 ADD MSTORE PUSH2 0x35BC DUP2 PUSH2 0x3040 JUMP JUMPDEST SWAP1 POP SWAP2 SWAP1 POP JUMP JUMPDEST PUSH1 0x0 PUSH1 0x20 DUP3 ADD SWAP1 POP DUP2 DUP2 SUB PUSH1 0x0 DUP4 ADD MSTORE PUSH2 0x35DC DUP2 PUSH2 0x3086 JUMP JUMPDEST SWAP1 POP SWAP2 SWAP1 POP JUMP JUMPDEST PUSH1 0x0 PUSH1 0x20 DUP3 ADD SWAP1 POP DUP2 DUP2 SUB PUSH1 0x0 DUP4 ADD MSTORE PUSH2 0x35FC DUP2 PUSH2 0x30A9 JUMP JUMPDEST SWAP1 POP SWAP2 SWAP1 POP JUMP JUMPDEST PUSH1 0x0 PUSH1 0x20 DUP3 ADD SWAP1 POP DUP2 DUP2 SUB PUSH1 0x0 DUP4 ADD MSTORE PUSH2 0x361C DUP2 PUSH2 0x30EF JUMP JUMPDEST SWAP1 POP SWAP2 SWAP1 POP JUMP JUMPDEST PUSH1 0x0 PUSH1 0x20 DUP3 ADD SWAP1 POP DUP2 DUP2 SUB PUSH1 0x0 DUP4 ADD MSTORE PUSH2 0x363D DUP2 DUP5 PUSH2 0x3135 JUMP JUMPDEST SWAP1 POP SWAP3 SWAP2 POP POP JUMP JUMPDEST PUSH1 0x0 PUSH1 0x20 DUP3 ADD SWAP1 POP PUSH2 0x365A PUSH1 0x0 DUP4 ADD DUP5 PUSH2 0x31E0 JUMP JUMPDEST SWAP3 SWAP2 POP POP JUMP JUMPDEST PUSH1 0x0 PUSH1 0x40 DUP3 ADD SWAP1 POP PUSH2 0x3675 PUSH1 0x0 DUP4 ADD DUP6 PUSH2 0x31E0 JUMP JUMPDEST PUSH2 0x3682 PUSH1 0x20 DUP4 ADD DUP5 PUSH2 0x2D33 JUMP JUMPDEST SWAP4 SWAP3 POP POP POP JUMP JUMPDEST PUSH1 0x0 PUSH1 0x60 DUP3 ADD SWAP1 POP PUSH2 0x369E PUSH1 0x0 DUP4 ADD DUP7 PUSH2 0x31E0 JUMP JUMPDEST PUSH2 0x36AB PUSH1 0x20 DUP4 ADD DUP6 PUSH2 0x2D33 JUMP JUMPDEST PUSH2 0x36B8 PUSH1 0x40 DUP4 ADD DUP5 PUSH2 0x31E0 JUMP JUMPDEST SWAP5 SWAP4 POP POP POP POP JUMP JUMPDEST PUSH1 0x0 PUSH2 0x36CA PUSH2 0x36DB JUMP JUMPDEST SWAP1 POP PUSH2 0x36D6 DUP3 DUP3 PUSH2 0x3B1B JUMP JUMPDEST SWAP2 SWAP1 POP JUMP JUMPDEST PUSH1 0x0 PUSH1 0x40 MLOAD SWAP1 POP SWAP1 JUMP JUMPDEST PUSH1 0x0 PUSH8 0xFFFFFFFFFFFFFFFF DUP3 GT ISZERO PUSH2 0x3700 JUMPI PUSH2 0x36FF PUSH2 0x3CDF JUMP JUMPDEST JUMPDEST PUSH2 0x3709 DUP3 PUSH2 0x3D2C JUMP JUMPDEST SWAP1 POP PUSH1 0x20 DUP2 ADD SWAP1 POP SWAP2 SWAP1 POP JUMP JUMPDEST PUSH1 0x0 DUP2 SWAP1 POP DUP2 PUSH1 0x0 MSTORE PUSH1 0x20 PUSH1 0x0 KECCAK256 SWAP1 POP SWAP2 SWAP1 POP JUMP JUMPDEST PUSH1 0x0 DUP2 MLOAD SWAP1 POP SWAP2 SWAP1 POP JUMP JUMPDEST PUSH1 0x0 DUP2 MLOAD SWAP1 POP SWAP2 SWAP1 POP JUMP JUMPDEST PUSH1 0x0 DUP3 DUP3 MSTORE PUSH1 0x20 DUP3 ADD SWAP1 POP SWAP3 SWAP2 POP POP JUMP JUMPDEST PUSH1 0x0 DUP3 DUP3 MSTORE PUSH1 0x20 DUP3 ADD SWAP1 POP SWAP3 SWAP2 POP POP JUMP JUMPDEST PUSH1 0x0 DUP3 DUP3 MSTORE PUSH1 0x20 DUP3 ADD SWAP1 POP SWAP3 SWAP2 POP POP JUMP JUMPDEST PUSH1 0x0 DUP2 SWAP1 POP SWAP3 SWAP2 POP POP JUMP JUMPDEST PUSH1 0x0 PUSH2 0x378A DUP3 PUSH2 0x3A79 JUMP JUMPDEST SWAP2 POP PUSH2 0x3795 DUP4 PUSH2 0x3A79 JUMP JUMPDEST SWAP3 POP DUP3 PUSH32 0xFFFFFFFFFFFFFFFFFFFFFFFFFFFFFFFFFFFFFFFFFFFFFFFFFFFFFFFFFFFFFFFF SUB DUP3 GT ISZERO PUSH2 0x37CA JUMPI PUSH2 0x37C9 PUSH2 0x3BF4 JUMP JUMPDEST JUMPDEST DUP3 DUP3 ADD SWAP1 POP SWAP3 SWAP2 POP POP JUMP JUMPDEST PUSH1 0x0 PUSH2 0x37E0 DUP3 PUSH2 0x3A79 JUMP JUMPDEST SWAP2 POP PUSH2 0x37EB DUP4 PUSH2 0x3A79 JUMP JUMPDEST SWAP3 POP DUP3 PUSH2 0x37FB JUMPI PUSH2 0x37FA PUSH2 0x3C23 JUMP JUMPDEST JUMPDEST DUP3 DUP3 DIV SWAP1 POP SWAP3 SWAP2 POP POP JUMP JUMPDEST PUSH1 0x0 DUP1 DUP3 SWAP2 POP DUP4 SWAP1 POP JUMPDEST PUSH1 0x1 DUP6 GT ISZERO PUSH2 0x3850 JUMPI DUP1 DUP7 DIV DUP2 GT ISZERO PUSH2 0x382C JUMPI PUSH2 0x382B PUSH2 0x3BF4 JUMP JUMPDEST JUMPDEST PUSH1 0x1 DUP6 AND ISZERO PUSH2 0x383B JUMPI DUP1 DUP3 MUL SWAP2 POP JUMPDEST DUP1 DUP2 MUL SWAP1 POP PUSH2 0x3849 DUP6 PUSH2 0x3D4A JUMP JUMPDEST SWAP5 POP PUSH2 0x3810 JUMP JUMPDEST SWAP5 POP SWAP5 SWAP3 POP POP POP JUMP JUMPDEST PUSH1 0x0 PUSH2 0x3864 DUP3 PUSH2 0x3A79 JUMP JUMPDEST SWAP2 POP PUSH2 0x386F DUP4 PUSH2 0x3A79 JUMP JUMPDEST SWAP3 POP PUSH2 0x389C PUSH32 0xFFFFFFFFFFFFFFFFFFFFFFFFFFFFFFFFFFFFFFFFFFFFFFFFFFFFFFFFFFFFFFFF DUP5 DUP5 PUSH2 0x38A4 JUMP JUMPDEST SWAP1 POP SWAP3 SWAP2 POP POP JUMP JUMPDEST PUSH1 0x0 DUP3 PUSH2 0x38B4 JUMPI PUSH1 0x1 SWAP1 POP PUSH2 0x3970 JUMP JUMPDEST DUP2 PUSH2 0x38C2 JUMPI PUSH1 0x0 SWAP1 POP PUSH2 0x3970 JUMP JUMPDEST DUP2 PUSH1 0x1 DUP2 EQ PUSH2 0x38D8 JUMPI PUSH1 0x2 DUP2 EQ PUSH2 0x38E2 JUMPI PUSH2 0x3911 JUMP JUMPDEST PUSH1 0x1 SWAP2 POP POP PUSH2 0x3970 JUMP JUMPDEST PUSH1 0xFF DUP5 GT ISZERO PUSH2 0x38F4 JUMPI PUSH2 0x38F3 PUSH2 0x3BF4 JUMP JUMPDEST JUMPDEST DUP4 PUSH1 0x2 EXP SWAP2 POP DUP5 DUP3 GT ISZERO PUSH2 0x390B JUMPI PUSH2 0x390A PUSH2 0x3BF4 JUMP JUMPDEST JUMPDEST POP PUSH2 0x3970 JUMP JUMPDEST POP PUSH1 0x20 DUP4 LT PUSH2 0x133 DUP4 LT AND PUSH1 0x4E DUP5 LT PUSH1 0xB DUP5 LT AND OR ISZERO PUSH2 0x3946 JUMPI DUP3 DUP3 EXP SWAP1 POP DUP4 DUP2 GT ISZERO PUSH2 0x3941 JUMPI PUSH2 0x3940 PUSH2 0x3BF4 JUMP JUMPDEST JUMPDEST PUSH2 0x3970 JUMP JUMPDEST PUSH2 0x3953 DUP5 DUP5 DUP5 PUSH1 0x1 PUSH2 0x3806 JUMP JUMPDEST SWAP3 POP SWAP1 POP DUP2 DUP5 DIV DUP2 GT ISZERO PUSH2 0x396A JUMPI PUSH2 0x3969 PUSH2 0x3BF4 JUMP JUMPDEST JUMPDEST DUP2 DUP2 MUL SWAP1 POP JUMPDEST SWAP4 SWAP3 POP POP POP JUMP JUMPDEST PUSH1 0x0 PUSH2 0x3982 DUP3 PUSH2 0x3A79 JUMP JUMPDEST SWAP2 POP PUSH2 0x398D DUP4 PUSH2 0x3A79 JUMP JUMPDEST SWAP3 POP DUP2 PUSH32 0xFFFFFFFFFFFFFFFFFFFFFFFFFFFFFFFFFFFFFFFFFFFFFFFFFFFFFFFFFFFFFFFF DIV DUP4 GT DUP3 ISZERO ISZERO AND ISZERO PUSH2 0x39C6 JUMPI PUSH2 0x39C5 PUSH2 0x3BF4 JUMP JUMPDEST JUMPDEST DUP3 DUP3 MUL SWAP1 POP SWAP3 SWAP2 POP POP JUMP JUMPDEST PUSH1 0x0 PUSH2 0x39DC DUP3 PUSH2 0x3A79 JUMP JUMPDEST SWAP2 POP PUSH2 0x39E7 DUP4 PUSH2 0x3A79 JUMP JUMPDEST SWAP3 POP DUP3 DUP3 LT ISZERO PUSH2 0x39FA JUMPI PUSH2 0x39F9 PUSH2 0x3BF4 JUMP JUMPDEST JUMPDEST DUP3 DUP3 SUB SWAP1 POP SWAP3 SWAP2 POP POP JUMP JUMPDEST PUSH1 0x0 PUSH2 0x3A10 DUP3 PUSH2 0x3A59 JUMP JUMPDEST SWAP1 POP SWAP2 SWAP1 POP JUMP JUMPDEST PUSH1 0x0 DUP2 ISZERO ISZERO SWAP1 POP SWAP2 SWAP1 POP JUMP JUMPDEST PUSH1 0x0 DUP2 SWAP1 POP SWAP2 SWAP1 POP JUMP JUMPDEST PUSH1 0x0 PUSH32 0xFFFFFFFF00000000000000000000000000000000000000000000000000000000 DUP3 AND SWAP1 POP SWAP2 SWAP1 POP JUMP JUMPDEST PUSH1 0x0 PUSH20 0xFFFFFFFFFFFFFFFFFFFFFFFFFFFFFFFFFFFFFFFF DUP3 AND SWAP1 POP SWAP2 SWAP1 POP JUMP JUMPDEST PUSH1 0x0 DUP2 SWAP1 POP SWAP2 SWAP1 POP JUMP JUMPDEST PUSH1 0x0 PUSH2 0x3A8E DUP3 PUSH2 0x3A95 JUMP JUMPDEST SWAP1 POP SWAP2 SWAP1 POP JUMP JUMPDEST PUSH1 0x0 PUSH2 0x3AA0 DUP3 PUSH2 0x3A59 JUMP JUMPDEST SWAP1 POP SWAP2 SWAP1 POP JUMP JUMPDEST DUP3 DUP2 DUP4 CALLDATACOPY PUSH1 0x0 DUP4 DUP4 ADD MSTORE POP POP POP JUMP JUMPDEST PUSH1 0x0 JUMPDEST DUP4 DUP2 LT ISZERO PUSH2 0x3AD4 JUMPI DUP1 DUP3 ADD MLOAD DUP2 DUP5 ADD MSTORE PUSH1 0x20 DUP2 ADD SWAP1 POP PUSH2 0x3AB9 JUMP JUMPDEST DUP4 DUP2 GT ISZERO PUSH2 0x3AE3 JUMPI PUSH1 0x0 DUP5 DUP5 ADD MSTORE JUMPDEST POP POP POP POP JUMP JUMPDEST PUSH1 0x0 PUSH1 0x2 DUP3 DIV SWAP1 POP PUSH1 0x1 DUP3 AND DUP1 PUSH2 0x3B01 JUMPI PUSH1 0x7F DUP3 AND SWAP2 POP JUMPDEST PUSH1 0x20 DUP3 LT DUP2 EQ ISZERO PUSH2 0x3B15 JUMPI PUSH2 0x3B14 PUSH2 0x3C52 JUMP JUMPDEST JUMPDEST POP SWAP2 SWAP1 POP JUMP JUMPDEST PUSH2 0x3B24 DUP3 PUSH2 0x3D2C JUMP JUMPDEST DUP2 ADD DUP2 DUP2 LT PUSH8 0xFFFFFFFFFFFFFFFF DUP3 GT OR ISZERO PUSH2 0x3B43 JUMPI PUSH2 0x3B42 PUSH2 0x3CDF JUMP JUMPDEST JUMPDEST DUP1 PUSH1 0x40 MSTORE POP POP POP JUMP JUMPDEST PUSH1 0x0 PUSH2 0x3B57 DUP3 PUSH2 0x3A79 JUMP JUMPDEST SWAP2 POP PUSH32 0xFFFFFFFFFFFFFFFFFFFFFFFFFFFFFFFFFFFFFFFFFFFFFFFFFFFFFFFFFFFFFFFF DUP3 EQ ISZERO PUSH2 0x3B8A JUMPI PUSH2 0x3B89 PUSH2 0x3BF4 JUMP JUMPDEST JUMPDEST PUSH1 0x1 DUP3 ADD SWAP1 POP SWAP2 SWAP1 POP JUMP JUMPDEST PUSH1 0x0 PUSH2 0x3BA0 DUP3 PUSH2 0x3BA7 JUMP JUMPDEST SWAP1 POP SWAP2 SWAP1 POP JUMP JUMPDEST PUSH1 0x0 PUSH2 0x3BB2 DUP3 PUSH2 0x3D3D JUMP JUMPDEST SWAP1 POP SWAP2 SWAP1 POP JUMP JUMPDEST PUSH1 0x0 DUP2 SWAP1 POP SWAP2 SWAP1 POP JUMP JUMPDEST PUSH1 0x0 PUSH2 0x3BCE DUP3 PUSH2 0x3A79 JUMP JUMPDEST SWAP2 POP PUSH2 0x3BD9 DUP4 PUSH2 0x3A79 JUMP JUMPDEST SWAP3 POP DUP3 PUSH2 0x3BE9 JUMPI PUSH2 0x3BE8 PUSH2 0x3C23 JUMP JUMPDEST JUMPDEST DUP3 DUP3 MOD SWAP1 POP SWAP3 SWAP2 POP POP JUMP JUMPDEST PUSH32 0x4E487B7100000000000000000000000000000000000000000000000000000000 PUSH1 0x0 MSTORE PUSH1 0x11 PUSH1 0x4 MSTORE PUSH1 0x24 PUSH1 0x0 REVERT JUMPDEST PUSH32 0x4E487B7100000000000000000000000000000000000000000000000000000000 PUSH1 0x0 MSTORE PUSH1 0x12 PUSH1 0x4 MSTORE PUSH1 0x24 PUSH1 0x0 REVERT JUMPDEST PUSH32 0x4E487B7100000000000000000000000000000000000000000000000000000000 PUSH1 0x0 MSTORE PUSH1 0x22 PUSH1 0x4 MSTORE PUSH1 0x24 PUSH1 0x0 REVERT JUMPDEST PUSH32 0x4E487B7100000000000000000000000000000000000000000000000000000000 PUSH1 0x0 MSTORE PUSH1 0x31 PUSH1 0x4 MSTORE PUSH1 0x24 PUSH1 0x0 REVERT JUMPDEST PUSH32 0x4E487B7100000000000000000000000000000000000000000000000000000000 PUSH1 0x0 MSTORE PUSH1 0x32 PUSH1 0x4 MSTORE PUSH1 0x24 PUSH1 0x0 REVERT JUMPDEST PUSH32 0x4E487B7100000000000000000000000000000000000000000000000000000000 PUSH1 0x0 MSTORE PUSH1 0x41 PUSH1 0x4 MSTORE PUSH1 0x24 PUSH1 0x0 REVERT JUMPDEST PUSH1 0x0 DUP1 REVERT JUMPDEST PUSH1 0x0 DUP1 REVERT JUMPDEST PUSH1 0x0 DUP1 REVERT JUMPDEST PUSH1 0x0 DUP1 REVERT JUMPDEST PUSH1 0x0 DUP1 REVERT JUMPDEST PUSH1 0x0 DUP1 REVERT JUMPDEST PUSH1 0x0 PUSH1 0x1F NOT PUSH1 0x1F DUP4 ADD AND SWAP1 POP SWAP2 SWAP1 POP JUMP JUMPDEST PUSH1 0x0 DUP2 PUSH1 0x60 SHL SWAP1 POP SWAP2 SWAP1 POP JUMP JUMPDEST PUSH1 0x0 DUP2 PUSH1 0x1 SHR SWAP1 POP SWAP2 SWAP1 POP JUMP JUMPDEST PUSH32 0x43616D706169676E20697320636C6F7365640000000000000000000000000000 PUSH1 0x0 DUP3 ADD MSTORE POP JUMP JUMPDEST PUSH32 0x43616C6C6572206973206E6F7420612076616C6964617465642063616D706169 PUSH1 0x0 DUP3 ADD MSTORE PUSH32 0x676E20636F6E7472696275746F72000000000000000000000000000000000000 PUSH1 0x20 DUP3 ADD MSTORE POP JUMP JUMPDEST PUSH32 0x4F776E61626C653A206E6577206F776E657220697320746865207A65726F2061 PUSH1 0x0 DUP3 ADD MSTORE PUSH32 0x6464726573730000000000000000000000000000000000000000000000000000 PUSH1 0x20 DUP3 ADD MSTORE POP JUMP JUMPDEST PUSH32 0x756E61626C6520746F207472616E73666572416E6443616C6C20746F206F7261 PUSH1 0x0 DUP3 ADD MSTORE PUSH32 0x636C650000000000000000000000000000000000000000000000000000000000 PUSH1 0x20 DUP3 ADD MSTORE POP JUMP JUMPDEST PUSH32 0x2F75736572732F00000000000000000000000000000000000000000000000000 PUSH1 0x0 DUP3 ADD MSTORE POP JUMP JUMPDEST PUSH32 0x5061757361626C653A2070617573656400000000000000000000000000000000 PUSH1 0x0 DUP3 ADD MSTORE POP JUMP JUMPDEST PUSH32 0x556E61626C6520746F207472616E736665720000000000000000000000000000 PUSH1 0x0 DUP3 ADD MSTORE POP JUMP JUMPDEST PUSH32 0x4F776E61626C653A2063616C6C6572206973206E6F7420746865206F776E6572 PUSH1 0x0 DUP3 ADD MSTORE POP JUMP JUMPDEST PUSH32 0x43616C6C6572206973206E6F74207468652061646D696E000000000000000000 PUSH1 0x0 DUP3 ADD MSTORE POP JUMP JUMPDEST PUSH32 0x43616C6C6572206973206E6F74207468652063616D706169676E206F776E6572 PUSH1 0x0 DUP3 ADD MSTORE POP JUMP JUMPDEST PUSH32 0x5265747269627574696F6E20616C726561647920636C61696D65640000000000 PUSH1 0x0 DUP3 ADD MSTORE POP JUMP JUMPDEST PUSH32 0x5468697320636F6E747269627574696F6E20646F6573206E6F74207361746973 PUSH1 0x0 DUP3 ADD MSTORE PUSH32 0x6679207468652063616D706169676E277320726571756972656D656E74730000 PUSH1 0x20 DUP3 ADD MSTORE POP JUMP JUMPDEST PUSH32 0x2F74776974746572732F00000000000000000000000000000000000000000000 PUSH1 0x0 DUP3 ADD MSTORE POP JUMP JUMPDEST PUSH32 0x456E756D657261626C654D61703A206E6F6E6578697374656E74206B65790000 PUSH1 0x0 DUP3 ADD MSTORE POP JUMP JUMPDEST PUSH32 0x536F75726365206D75737420626520746865206F7261636C65206F6620746865 PUSH1 0x0 DUP3 ADD MSTORE PUSH32 0x2072657175657374000000000000000000000000000000000000000000000000 PUSH1 0x20 DUP3 ADD MSTORE POP JUMP JUMPDEST PUSH32 0x2F636861696E732F000000000000000000000000000000000000000000000000 PUSH1 0x0 DUP3 ADD MSTORE POP JUMP JUMPDEST PUSH32 0x436F6E7472696275746F7273206C696D697420616C7265616479207265616368 PUSH1 0x0 DUP3 ADD MSTORE PUSH32 0x6564000000000000000000000000000000000000000000000000000000000000 PUSH1 0x20 DUP3 ADD MSTORE POP JUMP JUMPDEST PUSH32 0x2F77696E6E657273000000000000000000000000000000000000000000000000 PUSH1 0x0 DUP3 ADD MSTORE POP JUMP JUMPDEST PUSH2 0x4126 DUP2 PUSH2 0x3A05 JUMP JUMPDEST DUP2 EQ PUSH2 0x4131 JUMPI PUSH1 0x0 DUP1 REVERT JUMPDEST POP JUMP JUMPDEST PUSH2 0x413D DUP2 PUSH2 0x3A17 JUMP JUMPDEST DUP2 EQ PUSH2 0x4148 JUMPI PUSH1 0x0 DUP1 REVERT JUMPDEST POP JUMP JUMPDEST PUSH2 0x4154 DUP2 PUSH2 0x3A23 JUMP JUMPDEST DUP2 EQ PUSH2 0x415F JUMPI PUSH1 0x0 DUP1 REVERT JUMPDEST POP JUMP JUMPDEST PUSH2 0x416B DUP2 PUSH2 0x3A2D JUMP JUMPDEST DUP2 EQ PUSH2 0x4176 JUMPI PUSH1 0x0 DUP1 REVERT JUMPDEST POP JUMP JUMPDEST PUSH2 0x4182 DUP2 PUSH2 0x3A79 JUMP JUMPDEST DUP2 EQ PUSH2 0x418D JUMPI PUSH1 0x0 DUP1 REVERT JUMPDEST POP JUMP INVALID LOG2 PUSH5 0x6970667358 0x22 SLT KECCAK256 0xDC DUP6 0xCE 0xAD 0x4B PUSH20 0xD74CA463BF01C638BEB93ABEDDCCB8A4C886CE10 0xBF CHAINID SWAP3 0xD9 GAS 0xBF PUSH5 0x736F6C6343 STOP ADDMOD MOD STOP CALLER "},"gasEstimates":{"creation":{"codeDepositCost":"3367600","executionCost":"infinite","totalCost":"infinite"},"external":{"MAX_TREASURY_FEE()":"417","addUser(uint256,address)":"infinite","cancelRequest(bytes32,uint256,bytes4,uint256)":"infinite","claimCampaignContribution(uint256,string,uint256)":"infinite","claimCampaignRetribution(uint256)":"infinite","closeCampaign(uint256)":"infinite","createCampaign(string,uint256,uint256,uint256)":"infinite","fulfillSignUp(bytes32,uint256,bool)":"infinite","getCampaign(uint256)":"infinite","getSignUpURI(uint256)":"infinite","getTwitterURI(uint256)":"infinite","hasSignedUp()":"infinite","hasSignedUp(uint256)":"infinite","jobId()":"infinite","keeper()":"2581","owner()":"2661","paused()":"2502","renounceOwnership()":"30591","requestBaseURI()":"infinite","setRequestBaseURI(string)":"infinite","signUp(uint256)":"infinite","transferOwnership(address)":"30983","treasuryAmount()":"2497","treasuryFee()":"2496","withdrawLink()":"infinite"},"internal":{"_addPartakerToCampaignContributors(uint256,address)":"infinite","_computeRetributionAmount(uint256)":"infinite","_getCampaign(uint256)":"112","_requestSignUp(uint256)":"infinite","_updateContributorClaimStatus(uint256)":"24470","_validateContributionClaim(uint256,string memory,uint256)":"2287"}},"methodIdentifiers":{"MAX_TREASURY_FEE()":"f2b3c809","addUser(uint256,address)":"58d9fa04","cancelRequest(bytes32,uint256,bytes4,uint256)":"ec65d0f8","claimCampaignContribution(uint256,string,uint256)":"b1d3c700","claimCampaignRetribution(uint256)":"4a732795","closeCampaign(uint256)":"b0e1c1e1","createCampaign(string,uint256,uint256,uint256)":"b5a898ae","fulfillSignUp(bytes32,uint256,bool)":"a4e336c3","getCampaign(uint256)":"5598f8cc","getSignUpURI(uint256)":"aa2bdef9","getTwitterURI(uint256)":"0a944292","hasSignedUp()":"5ec4bc38","hasSignedUp(uint256)":"a9654ad4","jobId()":"c2939d97","keeper()":"aced1661","owner()":"8da5cb5b","paused()":"5c975abb","renounceOwnership()":"715018a6","requestBaseURI()":"dc4d5efb","setRequestBaseURI(string)":"ec8f04e9","signUp(uint256)":"1fc645c7","transferOwnership(address)":"f2fde38b","treasuryAmount()":"368acb09","treasuryFee()":"cc32d176","withdrawLink()":"8dc654a2"}},"storageLayout":{"storage":[{"astId":3224,"contract":"contracts/connectors/Twitter.sol:TwitterV1","label":"_paused","offset":0,"slot":"0","type":"t_bool"},{"astId":3029,"contract":"contracts/connectors/Twitter.sol:TwitterV1","label":"_owner","offset":1,"slot":"0","type":"t_address"},{"astId":3309,"contract":"contracts/connectors/Twitter.sol:TwitterV1","label":"_status","offset":0,"slot":"1","type":"t_uint256"},{"astId":319,"contract":"contracts/connectors/Twitter.sol:TwitterV1","label":"s_ens","offset":0,"slot":"2","type":"t_contract(ENSInterface)974"},{"astId":321,"contract":"contracts/connectors/Twitter.sol:TwitterV1","label":"s_ensNode","offset":0,"slot":"3","type":"t_bytes32"},{"astId":324,"contract":"contracts/connectors/Twitter.sol:TwitterV1","label":"s_link","offset":0,"slot":"4","type":"t_contract(LinkTokenInterface)1069"},{"astId":327,"contract":"contracts/connectors/Twitter.sol:TwitterV1","label":"s_oracle","offset":0,"slot":"5","type":"t_contract(OperatorInterface)1149"},{"astId":330,"contract":"contracts/connectors/Twitter.sol:TwitterV1","label":"s_requestCount","offset":0,"slot":"6","type":"t_uint256"},{"astId":334,"contract":"contracts/connectors/Twitter.sol:TwitterV1","label":"s_pendingRequests","offset":0,"slot":"7","type":"t_mapping(t_bytes32,t_address)"},{"astId":2206,"contract":"contracts/connectors/Twitter.sol:TwitterV1","label":"keeper","offset":0,"slot":"8","type":"t_address"},{"astId":2212,"contract":"contracts/connectors/Twitter.sol:TwitterV1","label":"requestBaseURI","offset":0,"slot":"9","type":"t_string_storage"},{"astId":2215,"contract":"contracts/connectors/Twitter.sol:TwitterV1","label":"users","offset":0,"slot":"10","type":"t_struct(UintToAddressMap)3680_storage"},{"astId":2217,"contract":"contracts/connectors/Twitter.sol:TwitterV1","label":"lastCampaignId","offset":0,"slot":"13","type":"t_uint256"},{"astId":2247,"contract":"contracts/connectors/Twitter.sol:TwitterV1","label":"campaigns","offset":0,"slot":"14","type":"t_array(t_struct(Campaign)2232_storage)dyn_storage"},{"astId":2252,"contract":"contracts/connectors/Twitter.sol:TwitterV1","label":"campaignById","offset":0,"slot":"15","type":"t_mapping(t_uint256,t_struct(Campaign)2232_storage)"},{"astId":2257,"contract":"contracts/connectors/Twitter.sol:TwitterV1","label":"campaignContributorsByCampaignId","offset":0,"slot":"16","type":"t_mapping(t_uint256,t_struct(CampaignContributors)2243_storage)"},{"astId":2262,"contract":"contracts/connectors/Twitter.sol:TwitterV1","label":"treasuryFee","offset":0,"slot":"17","type":"t_uint256"},{"astId":2264,"contract":"contracts/connectors/Twitter.sol:TwitterV1","label":"treasuryAmount","offset":0,"slot":"18","type":"t_uint256"}],"types":{"t_address":{"encoding":"inplace","label":"address","numberOfBytes":"20"},"t_array(t_bytes32)dyn_storage":{"base":"t_bytes32","encoding":"dynamic_array","label":"bytes32[]","numberOfBytes":"32"},"t_array(t_struct(Campaign)2232_storage)dyn_storage":{"base":"t_struct(Campaign)2232_storage","encoding":"dynamic_array","label":"struct TwitterV1.Campaign[]","numberOfBytes":"32"},"t_bool":{"encoding":"inplace","label":"bool","numberOfBytes":"1"},"t_bytes32":{"encoding":"inplace","label":"bytes32","numberOfBytes":"32"},"t_contract(ENSInterface)974":{"encoding":"inplace","label":"contract ENSInterface","numberOfBytes":"20"},"t_contract(LinkTokenInterface)1069":{"encoding":"inplace","label":"contract LinkTokenInterface","numberOfBytes":"20"},"t_contract(OperatorInterface)1149":{"encoding":"inplace","label":"contract OperatorInterface","numberOfBytes":"20"},"t_mapping(t_address,t_bool)":{"encoding":"mapping","key":"t_address","label":"mapping(address => bool)","numberOfBytes":"32","value":"t_bool"},"t_mapping(t_bytes32,t_address)":{"encoding":"mapping","key":"t_bytes32","label":"mapping(bytes32 => address)","numberOfBytes":"32","value":"t_address"},"t_mapping(t_bytes32,t_bytes32)":{"encoding":"mapping","key":"t_bytes32","label":"mapping(bytes32 => bytes32)","numberOfBytes":"32","value":"t_bytes32"},"t_mapping(t_bytes32,t_uint256)":{"encoding":"mapping","key":"t_bytes32","label":"mapping(bytes32 => uint256)","numberOfBytes":"32","value":"t_uint256"},"t_mapping(t_uint256,t_struct(Campaign)2232_storage)":{"encoding":"mapping","key":"t_uint256","label":"mapping(uint256 => struct TwitterV1.Campaign)","numberOfBytes":"32","value":"t_struct(Campaign)2232_storage"},"t_mapping(t_uint256,t_struct(CampaignContributors)2243_storage)":{"encoding":"mapping","key":"t_uint256","label":"mapping(uint256 => struct TwitterV1.CampaignContributors)","numberOfBytes":"32","value":"t_struct(CampaignContributors)2243_storage"},"t_string_storage":{"encoding":"bytes","label":"string","numberOfBytes":"32"},"t_struct(Bytes32Set)4119_storage":{"encoding":"inplace","label":"struct EnumerableSet.Bytes32Set","members":[{"astId":4118,"contract":"contracts/connectors/Twitter.sol:TwitterV1","label":"_inner","offset":0,"slot":"0","type":"t_struct(Set)3925_storage"}],"numberOfBytes":"64"},"t_struct(Campaign)2232_storage":{"encoding":"inplace","label":"struct TwitterV1.Campaign","members":[{"astId":2219,"contract":"contracts/connectors/Twitter.sol:TwitterV1","label":"campaignId","offset":0,"slot":"0","type":"t_uint256"},{"astId":2221,"contract":"contracts/connectors/Twitter.sol:TwitterV1","label":"name","offset":0,"slot":"1","type":"t_string_storage"},{"astId":2223,"contract":"contracts/connectors/Twitter.sol:TwitterV1","label":"company","offset":0,"slot":"2","type":"t_address"},{"astId":2225,"contract":"contracts/connectors/Twitter.sol:TwitterV1","label":"budget","offset":0,"slot":"3","type":"t_uint256"},{"astId":2227,"contract":"contracts/connectors/Twitter.sol:TwitterV1","label":"validationThreshold","offset":0,"slot":"4","type":"t_uint256"},{"astId":2229,"contract":"contracts/connectors/Twitter.sol:TwitterV1","label":"partakersLimit","offset":0,"slot":"5","type":"t_uint256"},{"astId":2231,"contract":"contracts/connectors/Twitter.sol:TwitterV1","label":"isClosed","offset":0,"slot":"6","type":"t_bool"}],"numberOfBytes":"224"},"t_struct(CampaignContributors)2243_storage":{"encoding":"inplace","label":"struct TwitterV1.CampaignContributors","members":[{"astId":2234,"contract":"contracts/connectors/Twitter.sol:TwitterV1","label":"contributorsCount","offset":0,"slot":"0","type":"t_uint256"},{"astId":2238,"contract":"contracts/connectors/Twitter.sol:TwitterV1","label":"contributorsByAddress","offset":0,"slot":"1","type":"t_mapping(t_address,t_bool)"},{"astId":2242,"contract":"contracts/connectors/Twitter.sol:TwitterV1","label":"contributorsClaimStatus","offset":0,"slot":"2","type":"t_mapping(t_address,t_bool)"}],"numberOfBytes":"96"},"t_struct(Map)3450_storage":{"encoding":"inplace","label":"struct EnumerableMap.Map","members":[{"astId":3445,"contract":"contracts/connectors/Twitter.sol:TwitterV1","label":"_keys","offset":0,"slot":"0","type":"t_struct(Bytes32Set)4119_storage"},{"astId":3449,"contract":"contracts/connectors/Twitter.sol:TwitterV1","label":"_values","offset":0,"slot":"2","type":"t_mapping(t_bytes32,t_bytes32)"}],"numberOfBytes":"96"},"t_struct(Set)3925_storage":{"encoding":"inplace","label":"struct EnumerableSet.Set","members":[{"astId":3920,"contract":"contracts/connectors/Twitter.sol:TwitterV1","label":"_values","offset":0,"slot":"0","type":"t_array(t_bytes32)dyn_storage"},{"astId":3924,"contract":"contracts/connectors/Twitter.sol:TwitterV1","label":"_indexes","offset":0,"slot":"1","type":"t_mapping(t_bytes32,t_uint256)"}],"numberOfBytes":"64"},"t_struct(UintToAddressMap)3680_storage":{"encoding":"inplace","label":"struct EnumerableMap.UintToAddressMap","members":[{"astId":3679,"contract":"contracts/connectors/Twitter.sol:TwitterV1","label":"_inner","offset":0,"slot":"0","type":"t_struct(Map)3450_storage"}],"numberOfBytes":"96"},"t_uint256":{"encoding":"inplace","label":"uint256","numberOfBytes":"32"}}},"userdoc":{"events":{"SignUpRequested(uint256,bytes32)":{"notice":"Called when a request to sign up is made"},"SignedUp(uint256,address)":{"notice":"Called when a user signed up"}},"kind":"user","methods":{"addUser(uint256,address)":{"notice":"Add user to users list"},"cancelRequest(bytes32,uint256,bytes4,uint256)":{"notice":"Call this method if no response is received within 5 minutes"},"claimCampaignContribution(uint256,string,uint256)":{"notice":"Function that allows a user to validate his  to close a"},"closeCampaign(uint256)":{"notice":"Function that allows a company to close a"},"constructor":{"notice":"Initialize the link token and target oracle All testnets config : https://docs.chain.link/any-api/testnet-oracles/"},"createCampaign(string,uint256,uint256,uint256)":{"notice":"Function that allows a company to create a new campaign"},"fulfillSignUp(bytes32,uint256,bool)":{"notice":"Fulfill Sign Up request"},"getSignUpURI(uint256)":{"notice":"Return URI for sign up endpoint"},"getTwitterURI(uint256)":{"notice":"Return URI for twitter endpoint"},"hasSignedUp()":{"notice":"Check if caller has signed up"},"hasSignedUp(uint256)":{"notice":"Check if user has signed up"},"setRequestBaseURI(string)":{"notice":"Set requestBaseURI"},"signUp(uint256)":{"notice":"Function that allow user to sign up to twitter and claim won twitters"},"withdrawLink()":{"notice":"Witdraws LINK from the contract to the Owner"}},"version":1}}}}