{
  "_format": "hh-sol-artifact-1",
  "contractName": "RandomNumberConsumer",
  "sourceName": "contracts/chainlink/RandomNumberConsumer.sol",
  "abi": [
    {
      "inputs": [
        {
          "internalType": "address",
          "name": "_wrapperAddress",
          "type": "address"
        },
        {
          "internalType": "address",
          "name": "_link",
          "type": "address"
        },
        {
          "internalType": "uint32",
          "name": "_callbackGasLimit",
          "type": "uint32"
        }
      ],
      "stateMutability": "nonpayable",
      "type": "constructor"
    },
    {
      "anonymous": false,
      "inputs": [
        {
          "indexed": false,
          "internalType": "uint256",
          "name": "requestId",
          "type": "uint256"
        }
      ],
      "name": "FulfilledRandomness",
      "type": "event"
    },
    {
      "anonymous": false,
      "inputs": [
        {
          "indexed": false,
          "internalType": "uint256",
          "name": "requestId",
          "type": "uint256"
        }
      ],
      "name": "RequestedRandomness",
      "type": "event"
    },
    {
      "inputs": [],
      "name": "getRandomNumber",
      "outputs": [
        {
          "internalType": "uint256",
          "name": "requestId",
          "type": "uint256"
        }
      ],
      "stateMutability": "nonpayable",
      "type": "function"
    },
    {
      "inputs": [],
      "name": "randomResult",
      "outputs": [
        {
          "internalType": "uint256",
          "name": "",
          "type": "uint256"
        }
      ],
      "stateMutability": "view",
      "type": "function"
    },
    {
      "inputs": [
        {
          "internalType": "uint256",
          "name": "_requestId",
          "type": "uint256"
        },
        {
          "internalType": "uint256[]",
          "name": "_randomWords",
          "type": "uint256[]"
        }
      ],
      "name": "rawFulfillRandomWords",
      "outputs": [],
      "stateMutability": "nonpayable",
      "type": "function"
    },
    {
      "inputs": [],
      "name": "withdrawLink",
      "outputs": [],
      "stateMutability": "nonpayable",
      "type": "function"
    }
  ],
  "bytecode": "0x60c06040526003600160046101000a81548161ffff021916908361ffff16021790555060018060066101000a81548163ffffffff021916908363ffffffff1602179055503480156200005057600080fd5b5060405162000e6e38038062000e6e833981810160405281019062000076919062000140565b81838173ffffffffffffffffffffffffffffffffffffffff1660808173ffffffffffffffffffffffffffffffffffffffff1660601b815250508073ffffffffffffffffffffffffffffffffffffffff1660a08173ffffffffffffffffffffffffffffffffffffffff1660601b81525050505080600160006101000a81548163ffffffff021916908363ffffffff16021790555050505062000219565b6000815190506200012381620001e5565b92915050565b6000815190506200013a81620001ff565b92915050565b6000806000606084860312156200015c576200015b620001e0565b5b60006200016c8682870162000112565b93505060206200017f8682870162000112565b9250506040620001928682870162000129565b9150509250925092565b6000620001a982620001b0565b9050919050565b600073ffffffffffffffffffffffffffffffffffffffff82169050919050565b600063ffffffff82169050919050565b600080fd5b620001f0816200019c565b8114620001fc57600080fd5b50565b6200020a81620001d0565b81146200021657600080fd5b50565b60805160601c60a05160601c610c07620002676000396000818160b5015281816104050152818161042601526105640152600081816101570152818161019401526103c90152610c076000f3fe608060405234801561001057600080fd5b506004361061004c5760003560e01c80631fe543e31461005157806342619f661461006d5780638dc654a21461008b578063dbdff2c114610095575b600080fd5b61006b60048036038101906100669190610740565b6100b3565b005b61007561014f565b6040516100829190610919565b60405180910390f35b610093610155565b005b61009d6102eb565b6040516100aa9190610919565b60405180910390f35b7f000000000000000000000000000000000000000000000000000000000000000073ffffffffffffffffffffffffffffffffffffffff163373ffffffffffffffffffffffffffffffffffffffff1614610141576040517f08c379a0000000000000000000000000000000000000000000000000000000008152600401610138906108f9565b60405180910390fd5b61014b8282610368565b5050565b60005481565b7f000000000000000000000000000000000000000000000000000000000000000073ffffffffffffffffffffffffffffffffffffffff1663a9059cbb337f000000000000000000000000000000000000000000000000000000000000000073ffffffffffffffffffffffffffffffffffffffff166370a08231306040518263ffffffff1660e01b81526004016101eb9190610857565b60206040518083038186803b15801561020357600080fd5b505afa158015610217573d6000803e3d6000fd5b505050506040513d601f19601f8201168201806040525081019061023b9190610713565b6040518363ffffffff1660e01b8152600401610258929190610872565b602060405180830381600087803b15801561027257600080fd5b505af1158015610286573d6000803e3d6000fd5b505050506040513d601f19601f820116820180604052508101906102aa91906106e6565b6102e9576040517f08c379a00000000000000000000000000000000000000000000000000000000081526004016102e0906108d9565b60405180910390fd5b565b600061032c600160009054906101000a900463ffffffff16600160049054906101000a900461ffff16600160069054906101000a900463ffffffff166103c5565b90507f5d7d0431c4991fcc9f63f03ad0ead4128b866a8ed115a818b6d87a3afedb72648160405161035d9190610919565b60405180910390a190565b8060008151811061037c5761037b610ace565b5b60200260200101516000819055507f54127704d550189e549ecb28f5ce6ae685867cc93bc4f3d8743ea64089b65e99826040516103b99190610919565b60405180910390a15050565b60007f000000000000000000000000000000000000000000000000000000000000000073ffffffffffffffffffffffffffffffffffffffff16634000aea07f00000000000000000000000000000000000000000000000000000000000000007f000000000000000000000000000000000000000000000000000000000000000073ffffffffffffffffffffffffffffffffffffffff16634306d354886040518263ffffffff1660e01b815260040161047d9190610934565b60206040518083038186803b15801561049557600080fd5b505afa1580156104a9573d6000803e3d6000fd5b505050506040513d601f19601f820116820180604052508101906104cd9190610713565b8787876040516020016104e29392919061094f565b6040516020818303038152906040526040518463ffffffff1660e01b815260040161050f9392919061089b565b602060405180830381600087803b15801561052957600080fd5b505af115801561053d573d6000803e3d6000fd5b505050506040513d601f19601f8201168201806040525081019061056191906106e6565b507f000000000000000000000000000000000000000000000000000000000000000073ffffffffffffffffffffffffffffffffffffffff1663fc2a88c36040518163ffffffff1660e01b815260040160206040518083038186803b1580156105c857600080fd5b505afa1580156105dc573d6000803e3d6000fd5b505050506040513d601f19601f820116820180604052508101906106009190610713565b90509392505050565b600061061c610617846109ab565b610986565b9050808382526020820190508285602086028201111561063f5761063e610b31565b5b60005b8581101561066f578161065588826106bc565b845260208401935060208301925050600181019050610642565b5050509392505050565b600082601f83011261068e5761068d610b2c565b5b813561069e848260208601610609565b91505092915050565b6000815190506106b681610ba3565b92915050565b6000813590506106cb81610bba565b92915050565b6000815190506106e081610bba565b92915050565b6000602082840312156106fc576106fb610b3b565b5b600061070a848285016106a7565b91505092915050565b60006020828403121561072957610728610b3b565b5b6000610737848285016106d1565b91505092915050565b6000806040838503121561075757610756610b3b565b5b6000610765858286016106bc565b925050602083013567ffffffffffffffff81111561078657610785610b36565b5b61079285828601610679565b9150509250929050565b6107a581610a04565b82525050565b60006107b6826109d7565b6107c081856109e2565b93506107d0818560208601610a6a565b6107d981610b40565b840191505092915050565b60006107f16012836109f3565b91506107fc82610b51565b602082019050919050565b6000610814601f836109f3565b915061081f82610b7a565b602082019050919050565b61083381610a22565b82525050565b61084281610a50565b82525050565b61085181610a5a565b82525050565b600060208201905061086c600083018461079c565b92915050565b6000604082019050610887600083018561079c565b6108946020830184610839565b9392505050565b60006060820190506108b0600083018661079c565b6108bd6020830185610839565b81810360408301526108cf81846107ab565b9050949350505050565b600060208201905081810360008301526108f2816107e4565b9050919050565b6000602082019050818103600083015261091281610807565b9050919050565b600060208201905061092e6000830184610839565b92915050565b60006020820190506109496000830184610848565b92915050565b60006060820190506109646000830186610848565b610971602083018561082a565b61097e6040830184610848565b949350505050565b60006109906109a1565b905061099c8282610a9d565b919050565b6000604051905090565b600067ffffffffffffffff8211156109c6576109c5610afd565b5b602082029050602081019050919050565b600081519050919050565b600082825260208201905092915050565b600082825260208201905092915050565b6000610a0f82610a30565b9050919050565b60008115159050919050565b600061ffff82169050919050565b600073ffffffffffffffffffffffffffffffffffffffff82169050919050565b6000819050919050565b600063ffffffff82169050919050565b60005b83811015610a88578082015181840152602081019050610a6d565b83811115610a97576000848401525b50505050565b610aa682610b40565b810181811067ffffffffffffffff82111715610ac557610ac4610afd565b5b80604052505050565b7f4e487b7100000000000000000000000000000000000000000000000000000000600052603260045260246000fd5b7f4e487b7100000000000000000000000000000000000000000000000000000000600052604160045260246000fd5b600080fd5b600080fd5b600080fd5b600080fd5b6000601f19601f8301169050919050565b7f556e61626c6520746f207472616e736665720000000000000000000000000000600082015250565b7f6f6e6c792056524620563220777261707065722063616e2066756c66696c6c00600082015250565b610bac81610a16565b8114610bb757600080fd5b50565b610bc381610a50565b8114610bce57600080fd5b5056fea26469706673582212200cf7fe7f09cde3fb00e04fce1893881cc2db0c8e6458fc1b725352081c33eb9a64736f6c63430008060033",
  "linkReferences": {},
  "deployedLinkReferences": {}
}