{
  "_format": "hh-sol-artifact-1",
  "contractName": "RandomSVG",
  "sourceName": "contracts/RandomSVG.sol",
  "abi": [
    {
      "inputs": [
        {
          "internalType": "address",
          "name": "_vrfCoordinatorV2",
          "type": "address"
        },
        {
          "internalType": "uint64",
          "name": "_vrfSubscriptionId",
          "type": "uint64"
        },
        {
          "internalType": "bytes32",
          "name": "_vrfGasLane",
          "type": "bytes32"
        },
        {
          "internalType": "uint32",
          "name": "_vrfCallbackGasLimit",
          "type": "uint32"
        }
      ],
      "stateMutability": "nonpayable",
      "type": "constructor"
    },
    {
      "inputs": [
        {
          "internalType": "address",
          "name": "have",
          "type": "address"
        },
        {
          "internalType": "address",
          "name": "want",
          "type": "address"
        }
      ],
      "name": "OnlyCoordinatorCanFulfill",
      "type": "error"
    },
    {
      "anonymous": false,
      "inputs": [
        {
          "indexed": true,
          "internalType": "address",
          "name": "owner",
          "type": "address"
        },
        {
          "indexed": true,
          "internalType": "address",
          "name": "approved",
          "type": "address"
        },
        {
          "indexed": true,
          "internalType": "uint256",
          "name": "tokenId",
          "type": "uint256"
        }
      ],
      "name": "Approval",
      "type": "event"
    },
    {
      "anonymous": false,
      "inputs": [
        {
          "indexed": true,
          "internalType": "address",
          "name": "owner",
          "type": "address"
        },
        {
          "indexed": true,
          "internalType": "address",
          "name": "operator",
          "type": "address"
        },
        {
          "indexed": false,
          "internalType": "bool",
          "name": "approved",
          "type": "bool"
        }
      ],
      "name": "ApprovalForAll",
      "type": "event"
    },
    {
      "anonymous": false,
      "inputs": [
        {
          "indexed": true,
          "internalType": "uint256",
          "name": "tokenId",
          "type": "uint256"
        },
        {
          "indexed": false,
          "internalType": "string",
          "name": "tokenURI",
          "type": "string"
        }
      ],
      "name": "CreatedRandomSVG",
      "type": "event"
    },
    {
      "anonymous": false,
      "inputs": [
        {
          "indexed": true,
          "internalType": "uint256",
          "name": "tokenId",
          "type": "uint256"
        },
        {
          "indexed": false,
          "internalType": "uint256",
          "name": "randomNumber",
          "type": "uint256"
        }
      ],
      "name": "CreatedUnfinishedRandomSVG",
      "type": "event"
    },
    {
      "anonymous": false,
      "inputs": [
        {
          "indexed": true,
          "internalType": "address",
          "name": "previousOwner",
          "type": "address"
        },
        {
          "indexed": true,
          "internalType": "address",
          "name": "newOwner",
          "type": "address"
        }
      ],
      "name": "OwnershipTransferred",
      "type": "event"
    },
    {
      "anonymous": false,
      "inputs": [
        {
          "indexed": true,
          "internalType": "address",
          "name": "from",
          "type": "address"
        },
        {
          "indexed": true,
          "internalType": "address",
          "name": "to",
          "type": "address"
        },
        {
          "indexed": true,
          "internalType": "uint256",
          "name": "tokenId",
          "type": "uint256"
        }
      ],
      "name": "Transfer",
      "type": "event"
    },
    {
      "anonymous": false,
      "inputs": [
        {
          "indexed": true,
          "internalType": "uint256",
          "name": "requestId",
          "type": "uint256"
        },
        {
          "indexed": true,
          "internalType": "uint256",
          "name": "tokenId",
          "type": "uint256"
        }
      ],
      "name": "requestedRandomSVG",
      "type": "event"
    },
    {
      "inputs": [
        {
          "internalType": "address",
          "name": "to",
          "type": "address"
        },
        {
          "internalType": "uint256",
          "name": "tokenId",
          "type": "uint256"
        }
      ],
      "name": "approve",
      "outputs": [],
      "stateMutability": "nonpayable",
      "type": "function"
    },
    {
      "inputs": [
        {
          "internalType": "address",
          "name": "owner",
          "type": "address"
        }
      ],
      "name": "balanceOf",
      "outputs": [
        {
          "internalType": "uint256",
          "name": "",
          "type": "uint256"
        }
      ],
      "stateMutability": "view",
      "type": "function"
    },
    {
      "inputs": [
        {
          "internalType": "uint256",
          "name": "",
          "type": "uint256"
        }
      ],
      "name": "colors",
      "outputs": [
        {
          "internalType": "string",
          "name": "",
          "type": "string"
        }
      ],
      "stateMutability": "view",
      "type": "function"
    },
    {
      "inputs": [],
      "name": "create",
      "outputs": [],
      "stateMutability": "nonpayable",
      "type": "function"
    },
    {
      "inputs": [
        {
          "internalType": "uint256",
          "name": "tokenId",
          "type": "uint256"
        }
      ],
      "name": "finishMint",
      "outputs": [],
      "stateMutability": "nonpayable",
      "type": "function"
    },
    {
      "inputs": [
        {
          "internalType": "string",
          "name": "imageURI",
          "type": "string"
        }
      ],
      "name": "formatTokenURI",
      "outputs": [
        {
          "internalType": "string",
          "name": "",
          "type": "string"
        }
      ],
      "stateMutability": "pure",
      "type": "function"
    },
    {
      "inputs": [
        {
          "internalType": "uint256",
          "name": "_randomness",
          "type": "uint256"
        }
      ],
      "name": "generatePath",
      "outputs": [
        {
          "internalType": "string",
          "name": "pathSvg",
          "type": "string"
        }
      ],
      "stateMutability": "view",
      "type": "function"
    },
    {
      "inputs": [
        {
          "internalType": "uint256",
          "name": "_randomness",
          "type": "uint256"
        }
      ],
      "name": "generatePathCommand",
      "outputs": [
        {
          "internalType": "string",
          "name": "pathCommand",
          "type": "string"
        }
      ],
      "stateMutability": "view",
      "type": "function"
    },
    {
      "inputs": [
        {
          "internalType": "uint256",
          "name": "_randomness",
          "type": "uint256"
        }
      ],
      "name": "generateSVG",
      "outputs": [
        {
          "internalType": "string",
          "name": "finalSvg",
          "type": "string"
        }
      ],
      "stateMutability": "view",
      "type": "function"
    },
    {
      "inputs": [
        {
          "internalType": "uint256",
          "name": "tokenId",
          "type": "uint256"
        }
      ],
      "name": "getApproved",
      "outputs": [
        {
          "internalType": "address",
          "name": "",
          "type": "address"
        }
      ],
      "stateMutability": "view",
      "type": "function"
    },
    {
      "inputs": [
        {
          "internalType": "address",
          "name": "owner",
          "type": "address"
        },
        {
          "internalType": "address",
          "name": "operator",
          "type": "address"
        }
      ],
      "name": "isApprovedForAll",
      "outputs": [
        {
          "internalType": "bool",
          "name": "",
          "type": "bool"
        }
      ],
      "stateMutability": "view",
      "type": "function"
    },
    {
      "inputs": [],
      "name": "maxNumberOfPathCommands",
      "outputs": [
        {
          "internalType": "uint256",
          "name": "",
          "type": "uint256"
        }
      ],
      "stateMutability": "view",
      "type": "function"
    },
    {
      "inputs": [],
      "name": "maxNumberOfPaths",
      "outputs": [
        {
          "internalType": "uint256",
          "name": "",
          "type": "uint256"
        }
      ],
      "stateMutability": "view",
      "type": "function"
    },
    {
      "inputs": [],
      "name": "name",
      "outputs": [
        {
          "internalType": "string",
          "name": "",
          "type": "string"
        }
      ],
      "stateMutability": "view",
      "type": "function"
    },
    {
      "inputs": [],
      "name": "owner",
      "outputs": [
        {
          "internalType": "address",
          "name": "",
          "type": "address"
        }
      ],
      "stateMutability": "view",
      "type": "function"
    },
    {
      "inputs": [
        {
          "internalType": "uint256",
          "name": "tokenId",
          "type": "uint256"
        }
      ],
      "name": "ownerOf",
      "outputs": [
        {
          "internalType": "address",
          "name": "",
          "type": "address"
        }
      ],
      "stateMutability": "view",
      "type": "function"
    },
    {
      "inputs": [
        {
          "internalType": "uint256",
          "name": "",
          "type": "uint256"
        }
      ],
      "name": "pathCommands",
      "outputs": [
        {
          "internalType": "string",
          "name": "",
          "type": "string"
        }
      ],
      "stateMutability": "view",
      "type": "function"
    },
    {
      "inputs": [
        {
          "internalType": "uint256",
          "name": "requestId",
          "type": "uint256"
        },
        {
          "internalType": "uint256[]",
          "name": "randomWords",
          "type": "uint256[]"
        }
      ],
      "name": "rawFulfillRandomWords",
      "outputs": [],
      "stateMutability": "nonpayable",
      "type": "function"
    },
    {
      "inputs": [],
      "name": "renounceOwnership",
      "outputs": [],
      "stateMutability": "nonpayable",
      "type": "function"
    },
    {
      "inputs": [
        {
          "internalType": "uint256",
          "name": "",
          "type": "uint256"
        }
      ],
      "name": "requestIdToSender",
      "outputs": [
        {
          "internalType": "address",
          "name": "",
          "type": "address"
        }
      ],
      "stateMutability": "view",
      "type": "function"
    },
    {
      "inputs": [
        {
          "internalType": "uint256",
          "name": "",
          "type": "uint256"
        }
      ],
      "name": "requestIdToTokenId",
      "outputs": [
        {
          "internalType": "uint256",
          "name": "",
          "type": "uint256"
        }
      ],
      "stateMutability": "view",
      "type": "function"
    },
    {
      "inputs": [
        {
          "internalType": "address",
          "name": "from",
          "type": "address"
        },
        {
          "internalType": "address",
          "name": "to",
          "type": "address"
        },
        {
          "internalType": "uint256",
          "name": "tokenId",
          "type": "uint256"
        }
      ],
      "name": "safeTransferFrom",
      "outputs": [],
      "stateMutability": "nonpayable",
      "type": "function"
    },
    {
      "inputs": [
        {
          "internalType": "address",
          "name": "from",
          "type": "address"
        },
        {
          "internalType": "address",
          "name": "to",
          "type": "address"
        },
        {
          "internalType": "uint256",
          "name": "tokenId",
          "type": "uint256"
        },
        {
          "internalType": "bytes",
          "name": "_data",
          "type": "bytes"
        }
      ],
      "name": "safeTransferFrom",
      "outputs": [],
      "stateMutability": "nonpayable",
      "type": "function"
    },
    {
      "inputs": [
        {
          "internalType": "address",
          "name": "operator",
          "type": "address"
        },
        {
          "internalType": "bool",
          "name": "approved",
          "type": "bool"
        }
      ],
      "name": "setApprovalForAll",
      "outputs": [],
      "stateMutability": "nonpayable",
      "type": "function"
    },
    {
      "inputs": [],
      "name": "size",
      "outputs": [
        {
          "internalType": "uint256",
          "name": "",
          "type": "uint256"
        }
      ],
      "stateMutability": "view",
      "type": "function"
    },
    {
      "inputs": [
        {
          "internalType": "bytes4",
          "name": "interfaceId",
          "type": "bytes4"
        }
      ],
      "name": "supportsInterface",
      "outputs": [
        {
          "internalType": "bool",
          "name": "",
          "type": "bool"
        }
      ],
      "stateMutability": "view",
      "type": "function"
    },
    {
      "inputs": [
        {
          "internalType": "string",
          "name": "svg",
          "type": "string"
        }
      ],
      "name": "svgToImageURI",
      "outputs": [
        {
          "internalType": "string",
          "name": "",
          "type": "string"
        }
      ],
      "stateMutability": "pure",
      "type": "function"
    },
    {
      "inputs": [],
      "name": "symbol",
      "outputs": [
        {
          "internalType": "string",
          "name": "",
          "type": "string"
        }
      ],
      "stateMutability": "view",
      "type": "function"
    },
    {
      "inputs": [],
      "name": "tokenCounter",
      "outputs": [
        {
          "internalType": "uint256",
          "name": "",
          "type": "uint256"
        }
      ],
      "stateMutability": "view",
      "type": "function"
    },
    {
      "inputs": [
        {
          "internalType": "uint256",
          "name": "",
          "type": "uint256"
        }
      ],
      "name": "tokenIdToRandomNumber",
      "outputs": [
        {
          "internalType": "uint256",
          "name": "",
          "type": "uint256"
        }
      ],
      "stateMutability": "view",
      "type": "function"
    },
    {
      "inputs": [
        {
          "internalType": "uint256",
          "name": "tokenId",
          "type": "uint256"
        }
      ],
      "name": "tokenURI",
      "outputs": [
        {
          "internalType": "string",
          "name": "",
          "type": "string"
        }
      ],
      "stateMutability": "view",
      "type": "function"
    },
    {
      "inputs": [
        {
          "internalType": "address",
          "name": "from",
          "type": "address"
        },
        {
          "internalType": "address",
          "name": "to",
          "type": "address"
        },
        {
          "internalType": "uint256",
          "name": "tokenId",
          "type": "uint256"
        }
      ],
      "name": "transferFrom",
      "outputs": [],
      "stateMutability": "nonpayable",
      "type": "function"
    },
    {
      "inputs": [
        {
          "internalType": "address",
          "name": "newOwner",
          "type": "address"
        }
      ],
      "name": "transferOwnership",
      "outputs": [],
      "stateMutability": "nonpayable",
      "type": "function"
    },
    {
      "inputs": [],
      "name": "withdraw",
      "outputs": [],
      "stateMutability": "payable",
      "type": "function"
    }
  ],
  "bytecode": "0x6101206040523480156200001257600080fd5b5060405162005776380380620057768339818101604052810190620000389190620006f0565b836040518060400160405280600981526020017f52616e646f6d53564700000000000000000000000000000000000000000000008152506040518060400160405280600581526020017f72734e46540000000000000000000000000000000000000000000000000000008152508160009080519060200190620000bd929190620004a8565b508060019080519060200190620000d6929190620004a8565b5050508073ffffffffffffffffffffffffffffffffffffffff1660808173ffffffffffffffffffffffffffffffffffffffff1660601b81525050506200013162000125620003da60201b60201c565b620003e260201b60201c565b8373ffffffffffffffffffffffffffffffffffffffff1660a08173ffffffffffffffffffffffffffffffffffffffff1660601b815250508267ffffffffffffffff1660c08167ffffffffffffffff1660c01b815250508160e081815250508063ffffffff166101008163ffffffff1660e01b81525050600a6009819055506005600a819055506101f4600b8190555060405180604001604052806040518060400160405280600181526020017f4d0000000000000000000000000000000000000000000000000000000000000081525081526020016040518060400160405280600181526020017f4c00000000000000000000000000000000000000000000000000000000000000815250815250600c9060026200025192919062000539565b506040518060c001604052806040518060400160405280600381526020017f726564000000000000000000000000000000000000000000000000000000000081525081526020016040518060400160405280600481526020017f626c75650000000000000000000000000000000000000000000000000000000081525081526020016040518060400160405280600581526020017f677265656e00000000000000000000000000000000000000000000000000000081525081526020016040518060400160405280600681526020017f79656c6c6f77000000000000000000000000000000000000000000000000000081525081526020016040518060400160405280600581526020017f626c61636b00000000000000000000000000000000000000000000000000000081525081526020016040518060400160405280600581526020017f7768697465000000000000000000000000000000000000000000000000000000815250815250600d906006620003cf929190620005a0565b505050505062000896565b600033905090565b6000600760009054906101000a900473ffffffffffffffffffffffffffffffffffffffff16905081600760006101000a81548173ffffffffffffffffffffffffffffffffffffffff021916908373ffffffffffffffffffffffffffffffffffffffff1602179055508173ffffffffffffffffffffffffffffffffffffffff168173ffffffffffffffffffffffffffffffffffffffff167f8be0079c531659141344cd1fd0a4f28419497f9722a3daafe3b4186f6b6457e060405160405180910390a35050565b828054620004b690620007c4565b90600052602060002090601f016020900481019282620004da576000855562000526565b82601f10620004f557805160ff191683800117855562000526565b8280016001018555821562000526579182015b828111156200052557825182559160200191906001019062000508565b5b50905062000535919062000607565b5090565b8280548282559060005260206000209081019282156200058d579160200282015b828111156200058c5782518290805190602001906200057b929190620004a8565b50916020019190600101906200055a565b5b5090506200059c919062000626565b5090565b828054828255906000526020600020908101928215620005f4579160200282015b82811115620005f3578251829080519060200190620005e2929190620004a8565b5091602001919060010190620005c1565b5b50905062000603919062000626565b5090565b5b808211156200062257600081600090555060010162000608565b5090565b5b808211156200064a57600081816200064091906200064e565b5060010162000627565b5090565b5080546200065c90620007c4565b6000825580601f1062000670575062000691565b601f01602090049060005260206000209081019062000690919062000607565b5b50565b600081519050620006a5816200082e565b92915050565b600081519050620006bc8162000848565b92915050565b600081519050620006d38162000862565b92915050565b600081519050620006ea816200087c565b92915050565b600080600080608085870312156200070d576200070c62000829565b5b60006200071d8782880162000694565b94505060206200073087828801620006d9565b93505060406200074387828801620006ab565b92505060606200075687828801620006c2565b91505092959194509250565b60006200076f8262000780565b9050919050565b6000819050919050565b600073ffffffffffffffffffffffffffffffffffffffff82169050919050565b600063ffffffff82169050919050565b600067ffffffffffffffff82169050919050565b60006002820490506001821680620007dd57607f821691505b60208210811415620007f457620007f3620007fa565b5b50919050565b7f4e487b7100000000000000000000000000000000000000000000000000000000600052602260045260246000fd5b600080fd5b620008398162000762565b81146200084557600080fd5b50565b620008538162000776565b81146200085f57600080fd5b50565b6200086d81620007a0565b81146200087957600080fd5b50565b6200088781620007b0565b81146200089357600080fd5b50565b60805160601c60a05160601c60c05160c01c60e0516101005160e01c614e88620008ee6000396000611ba201526000611b5e01526000611b7f01526000611b22015260008181610ba60152610bfa0152614e886000f3fe6080604052600436106101f95760003560e01c806371aee1931161010d578063b88d4fde116100a0578063c87b56dd1161006f578063c87b56dd14610796578063d082e381146107d3578063e985e9c5146107fe578063efc81a8c1461083b578063f2fde38b14610852576101f9565b8063b88d4fde146106c8578063bd11f69d146106f1578063c21bf36f1461072e578063c68b49d114610759576101f9565b8063955968d4116100dc578063955968d4146105fa57806395d89b41146106375780639c1cd79514610662578063a22cb4651461069f576101f9565b806371aee1931461052a5780638da5cb5b146105675780638e2de4d314610592578063949d225d146105cf576101f9565b806333af598911610190578063624194c71161015f578063624194c7146104335780636352211e1461045c5780636dcee4ca1461049957806370a08231146104d6578063715018a614610513576101f9565b806333af5989146103985780633ccfd60b146103d557806342842e0e146103df57806348e896ab14610408576101f9565b8063095ea7b3116101cc578063095ea7b3146102e05780631fe543e31461030957806323b872dd1461033257806330d871c61461035b576101f9565b806301ffc9a7146101fe57806306fdde031461023b5780630750b16314610266578063081812fc146102a3575b600080fd5b34801561020a57600080fd5b506102256004803603810190610220919061341a565b61087b565b6040516102329190613d1a565b60405180910390f35b34801561024757600080fd5b5061025061095d565b60405161025d9190613d88565b60405180910390f35b34801561027257600080fd5b5061028d600480360381019061028891906134bd565b6109ef565b60405161029a919061404a565b60405180910390f35b3480156102af57600080fd5b506102ca60048036038101906102c591906134bd565b610a07565b6040516102d79190613c8a565b60405180910390f35b3480156102ec57600080fd5b50610307600480360381019061030291906133da565b610a8c565b005b34801561031557600080fd5b50610330600480360381019061032b9190613517565b610ba4565b005b34801561033e57600080fd5b50610359600480360381019061035491906132c4565b610c64565b005b34801561036757600080fd5b50610382600480360381019061037d9190613474565b610cc4565b60405161038f9190613d88565b60405180910390f35b3480156103a457600080fd5b506103bf60048036038101906103ba91906134bd565b610d57565b6040516103cc9190613d88565b60405180910390f35b6103dd610f1d565b005b3480156103eb57600080fd5b50610406600480360381019061040191906132c4565b610fe9565b005b34801561041457600080fd5b5061041d611009565b60405161042a919061404a565b60405180910390f35b34801561043f57600080fd5b5061045a600480360381019061045591906134bd565b61100f565b005b34801561046857600080fd5b50610483600480360381019061047e91906134bd565b611178565b6040516104909190613c8a565b60405180910390f35b3480156104a557600080fd5b506104c060048036038101906104bb91906134bd565b61122a565b6040516104cd9190613d88565b60405180910390f35b3480156104e257600080fd5b506104fd60048036038101906104f89190613257565b611326565b60405161050a919061404a565b60405180910390f35b34801561051f57600080fd5b506105286113de565b005b34801561053657600080fd5b50610551600480360381019061054c9190613474565b611466565b60405161055e9190613d88565b60405180910390f35b34801561057357600080fd5b5061057c6114b6565b6040516105899190613c8a565b60405180910390f35b34801561059e57600080fd5b506105b960048036038101906105b491906134bd565b6114e0565b6040516105c69190613c8a565b60405180910390f35b3480156105db57600080fd5b506105e4611513565b6040516105f1919061404a565b60405180910390f35b34801561060657600080fd5b50610621600480360381019061061c91906134bd565b611519565b60405161062e9190613d88565b60405180910390f35b34801561064357600080fd5b5061064c6115c5565b6040516106599190613d88565b60405180910390f35b34801561066e57600080fd5b50610689600480360381019061068491906134bd565b611657565b604051610696919061404a565b60405180910390f35b3480156106ab57600080fd5b506106c660048036038101906106c1919061339a565b61166f565b005b3480156106d457600080fd5b506106ef60048036038101906106ea9190613317565b611685565b005b3480156106fd57600080fd5b50610718600480360381019061071391906134bd565b6116e7565b6040516107259190613d88565b60405180910390f35b34801561073a57600080fd5b50610743611793565b604051610750919061404a565b60405180910390f35b34801561076557600080fd5b50610780600480360381019061077b91906134bd565b611799565b60405161078d9190613d88565b60405180910390f35b3480156107a257600080fd5b506107bd60048036038101906107b891906134bd565b611932565b6040516107ca9190613d88565b60405180910390f35b3480156107df57600080fd5b506107e8611a84565b6040516107f5919061404a565b60405180910390f35b34801561080a57600080fd5b5061082560048036038101906108209190613284565b611a8a565b6040516108329190613d1a565b60405180910390f35b34801561084757600080fd5b50610850611b1e565b005b34801561085e57600080fd5b5061087960048036038101906108749190613257565b611cef565b005b60007f80ac58cd000000000000000000000000000000000000000000000000000000007bffffffffffffffffffffffffffffffffffffffffffffffffffffffff1916827bffffffffffffffffffffffffffffffffffffffffffffffffffffffff1916148061094657507f5b5e139f000000000000000000000000000000000000000000000000000000007bffffffffffffffffffffffffffffffffffffffffffffffffffffffff1916827bffffffffffffffffffffffffffffffffffffffffffffffffffffffff1916145b80610956575061095582611de7565b5b9050919050565b60606000805461096c906143cf565b80601f0160208091040260200160405190810160405280929190818152602001828054610998906143cf565b80156109e55780601f106109ba576101008083540402835291602001916109e5565b820191906000526020600020905b8154815290600101906020018083116109c857829003601f168201915b5050505050905090565b60106020528060005260406000206000915090505481565b6000610a1282611e51565b610a51576040517f08c379a0000000000000000000000000000000000000000000000000000000008152600401610a4890613f8a565b60405180910390fd5b6004600083815260200190815260200160002060009054906101000a900473ffffffffffffffffffffffffffffffffffffffff169050919050565b6000610a9782611178565b90508073ffffffffffffffffffffffffffffffffffffffff168373ffffffffffffffffffffffffffffffffffffffff161415610b08576040517f08c379a0000000000000000000000000000000000000000000000000000000008152600401610aff9061400a565b60405180910390fd5b8073ffffffffffffffffffffffffffffffffffffffff16610b27611ebd565b73ffffffffffffffffffffffffffffffffffffffff161480610b565750610b5581610b50611ebd565b611a8a565b5b610b95576040517f08c379a0000000000000000000000000000000000000000000000000000000008152600401610b8c90613eaa565b60405180910390fd5b610b9f8383611ec5565b505050565b7f000000000000000000000000000000000000000000000000000000000000000073ffffffffffffffffffffffffffffffffffffffff163373ffffffffffffffffffffffffffffffffffffffff1614610c5657337f00000000000000000000000000000000000000000000000000000000000000006040517f1cf993f4000000000000000000000000000000000000000000000000000000008152600401610c4d929190613ca5565b60405180910390fd5b610c608282611f7e565b5050565b610c75610c6f611ebd565b82612064565b610cb4576040517f08c379a0000000000000000000000000000000000000000000000000000000008152600401610cab9061402a565b60405180910390fd5b610cbf838383612142565b505050565b606060006040518060400160405280601a81526020017f646174613a696d6167652f7376672b786d6c3b6261736536342c00000000000081525090506000610d2a84604051602001610d169190613b02565b60405160208183030381529060405261239e565b90508181604051602001610d3f929190613b19565b60405160208183030381529060405292505050919050565b606060006001600a5484610d6b919061447b565b610d759190614184565b90506040518060400160405280600981526020017f3c7061746820643d270000000000000000000000000000000000000000000000815250915060005b81811015610e37576000610dfd8583600b54610dce9190614184565b604051602001610ddf929190614065565b6040516020818303038152906040528051906020012060001c611799565b90508381604051602001610e12929190613b19565b6040516020818303038152906040529350508080610e2f90614432565b915050610db2565b506000600d808054905085610e4c919061447b565b81548110610e5d57610e5c614539565b5b906000526020600020018054610e72906143cf565b80601f0160208091040260200160405190810160405280929190818152602001828054610e9e906143cf565b8015610eeb5780601f10610ec057610100808354040283529160200191610eeb565b820191906000526020600020905b815481529060010190602001808311610ece57829003601f168201915b505050505090508281604051602001610f05929190613b3d565b60405160208183030381529060405292505050919050565b610f25611ebd565b73ffffffffffffffffffffffffffffffffffffffff16610f436114b6565b73ffffffffffffffffffffffffffffffffffffffff1614610f99576040517f08c379a0000000000000000000000000000000000000000000000000000000008152600401610f9090613faa565b60405180910390fd5b610fa16114b6565b73ffffffffffffffffffffffffffffffffffffffff166108fc479081150290604051600060405180830381858888f19350505050158015610fe6573d6000803e3d6000fd5b50565b61100483838360405180602001604052806000815250611685565b505050565b600a5481565b600061101a82611932565b51111561105c576040517f08c379a000000000000000000000000000000000000000000000000000000000815260040161105390613e6a565b60405180910390fd5b80600854116110a0576040517f08c379a000000000000000000000000000000000000000000000000000000000815260040161109790613f2a565b60405180910390fd5b6000600f600083815260200190815260200160002054116110f6576040517f08c379a00000000000000000000000000000000000000000000000000000000081526004016110ed90613e0a565b60405180910390fd5b6000600f600083815260200190815260200160002054905060006111198261122a565b9050600061112682610cc4565b905061113a8461113583611466565b612517565b837f15a6487b7915a7116ce2a61d43b17e9b47484b1931f3c79f2f3d139b307b38938360405161116a9190613d88565b60405180910390a250505050565b6000806002600084815260200190815260200160002060009054906101000a900473ffffffffffffffffffffffffffffffffffffffff169050600073ffffffffffffffffffffffffffffffffffffffff168173ffffffffffffffffffffffffffffffffffffffff161415611221576040517f08c379a000000000000000000000000000000000000000000000000000000000815260040161121890613eea565b60405180910390fd5b80915050919050565b6060600060016009548461123e919061447b565b6112489190614184565b9050611255600b5461258b565b611260600b5461258b565b604051602001611271929190613c23565b604051602081830303815290604052915060005b818110156112fd5760006112c385836040516020016112a5929190614065565b6040516020818303038152906040528051906020012060001c610d57565b905083816040516020016112d8929190613b19565b60405160208183030381529060405293505080806112f590614432565b915050611285565b508160405160200161130f9190613bbe565b604051602081830303815290604052915050919050565b60008073ffffffffffffffffffffffffffffffffffffffff168273ffffffffffffffffffffffffffffffffffffffff161415611397576040517f08c379a000000000000000000000000000000000000000000000000000000000815260040161138e90613eca565b60405180910390fd5b600360008373ffffffffffffffffffffffffffffffffffffffff1673ffffffffffffffffffffffffffffffffffffffff168152602001908152602001600020549050919050565b6113e6611ebd565b73ffffffffffffffffffffffffffffffffffffffff166114046114b6565b73ffffffffffffffffffffffffffffffffffffffff161461145a576040517f08c379a000000000000000000000000000000000000000000000000000000000815260040161145190613faa565b60405180910390fd5b6114646000612714565b565b60606114908260405160200161147c9190613be0565b60405160208183030381529060405261239e565b6040516020016114a09190613c68565b6040516020818303038152906040529050919050565b6000600760009054906101000a900473ffffffffffffffffffffffffffffffffffffffff16905090565b600e6020528060005260406000206000915054906101000a900473ffffffffffffffffffffffffffffffffffffffff1681565b600b5481565b600c818154811061152957600080fd5b906000526020600020016000915090508054611544906143cf565b80601f0160208091040260200160405190810160405280929190818152602001828054611570906143cf565b80156115bd5780601f10611592576101008083540402835291602001916115bd565b820191906000526020600020905b8154815290600101906020018083116115a057829003601f168201915b505050505081565b6060600180546115d4906143cf565b80601f0160208091040260200160405190810160405280929190818152602001828054611600906143cf565b801561164d5780601f106116225761010080835404028352916020019161164d565b820191906000526020600020905b81548152906001019060200180831161163057829003601f168201915b5050505050905090565b600f6020528060005260406000206000915090505481565b61168161167a611ebd565b83836127da565b5050565b611696611690611ebd565b83612064565b6116d5576040517f08c379a00000000000000000000000000000000000000000000000000000000081526004016116cc9061402a565b60405180910390fd5b6116e184848484612947565b50505050565b600d81815481106116f757600080fd5b906000526020600020016000915090508054611712906143cf565b80601f016020809104026020016040519081016040528092919081815260200182805461173e906143cf565b801561178b5780601f106117605761010080835404028352916020019161178b565b820191906000526020600020905b81548152906001019060200180831161176e57829003601f168201915b505050505081565b60095481565b6060600c8080549050836117ad919061447b565b815481106117be576117bd614539565b5b9060005260206000200180546117d3906143cf565b80601f01602080910402602001604051908101604052809291908181526020018280546117ff906143cf565b801561184c5780601f106118215761010080835404028352916020019161184c565b820191906000526020600020905b81548152906001019060200180831161182f57829003601f168201915b505050505090506000600b54836002600b546118689190614242565b604051602001611879929190614065565b6040516020818303038152906040528051906020012060001c61189c919061447b565b90506000600b548460016002600b546118b59190614242565b6118bf9190614184565b6040516020016118d0929190614065565b6040516020818303038152906040528051906020012060001c6118f3919061447b565b9050826118ff8361258b565b6119088361258b565b60405160200161191a93929190613b77565b60405160208183030381529060405292505050919050565b606061193d82611e51565b61197c576040517f08c379a000000000000000000000000000000000000000000000000000000000815260040161197390613f6a565b60405180910390fd5b600060066000848152602001908152602001600020805461199c906143cf565b80601f01602080910402602001604051908101604052809291908181526020018280546119c8906143cf565b8015611a155780601f106119ea57610100808354040283529160200191611a15565b820191906000526020600020905b8154815290600101906020018083116119f857829003601f168201915b505050505090506000611a266129a3565b9050600081511415611a3c578192505050611a7f565b600082511115611a71578082604051602001611a59929190613b19565b60405160208183030381529060405292505050611a7f565b611a7a846129ba565b925050505b919050565b60085481565b6000600560008473ffffffffffffffffffffffffffffffffffffffff1673ffffffffffffffffffffffffffffffffffffffff16815260200190815260200160002060008373ffffffffffffffffffffffffffffffffffffffff1673ffffffffffffffffffffffffffffffffffffffff16815260200190815260200160002060009054906101000a900460ff16905092915050565b60007f000000000000000000000000000000000000000000000000000000000000000073ffffffffffffffffffffffffffffffffffffffff16635d3b1d307f00000000000000000000000000000000000000000000000000000000000000007f000000000000000000000000000000000000000000000000000000000000000060037f000000000000000000000000000000000000000000000000000000000000000060016040518663ffffffff1660e01b8152600401611be3959493929190613d35565b602060405180830381600087803b158015611bfd57600080fd5b505af1158015611c11573d6000803e3d6000fd5b505050506040513d601f19601f82011682018060405250810190611c3591906134ea565b905033600e600083815260200190815260200160002060006101000a81548173ffffffffffffffffffffffffffffffffffffffff021916908373ffffffffffffffffffffffffffffffffffffffff160217905550600060085490508060106000848152602001908152602001600020819055506001600854611cb79190614184565b60088190555080827f7231a5fbb013086872d29de4bfdd8da4afbf124c5199beb108f473a390677df460405160405180910390a35050565b611cf7611ebd565b73ffffffffffffffffffffffffffffffffffffffff16611d156114b6565b73ffffffffffffffffffffffffffffffffffffffff1614611d6b576040517f08c379a0000000000000000000000000000000000000000000000000000000008152600401611d6290613faa565b60405180910390fd5b600073ffffffffffffffffffffffffffffffffffffffff168173ffffffffffffffffffffffffffffffffffffffff161415611ddb576040517f08c379a0000000000000000000000000000000000000000000000000000000008152600401611dd290613dca565b60405180910390fd5b611de481612714565b50565b60007f01ffc9a7000000000000000000000000000000000000000000000000000000007bffffffffffffffffffffffffffffffffffffffffffffffffffffffff1916827bffffffffffffffffffffffffffffffffffffffffffffffffffffffff1916149050919050565b60008073ffffffffffffffffffffffffffffffffffffffff166002600084815260200190815260200160002060009054906101000a900473ffffffffffffffffffffffffffffffffffffffff1673ffffffffffffffffffffffffffffffffffffffff1614159050919050565b600033905090565b816004600083815260200190815260200160002060006101000a81548173ffffffffffffffffffffffffffffffffffffffff021916908373ffffffffffffffffffffffffffffffffffffffff160217905550808273ffffffffffffffffffffffffffffffffffffffff16611f3883611178565b73ffffffffffffffffffffffffffffffffffffffff167f8c5be1e5ebec7d5bd14f71427d1e84f3dd0314c0f7b2291e5b200ac8c7c3b92560405160405180910390a45050565b6000600e600084815260200190815260200160002060009054906101000a900473ffffffffffffffffffffffffffffffffffffffff169050600060106000858152602001908152602001600020549050611fd88282612a61565b82600081518110611fec57611feb614539565b5b6020026020010151600f600083815260200190815260200160002081905550807faad5362ce528ed941024b95d4c18dfd49b8503e1f586a5c353631d98c2af41b78460008151811061204157612040614539565b5b6020026020010151604051612056919061404a565b60405180910390a250505050565b600061206f82611e51565b6120ae576040517f08c379a00000000000000000000000000000000000000000000000000000000081526004016120a590613e8a565b60405180910390fd5b60006120b983611178565b90508073ffffffffffffffffffffffffffffffffffffffff168473ffffffffffffffffffffffffffffffffffffffff16148061212857508373ffffffffffffffffffffffffffffffffffffffff1661211084610a07565b73ffffffffffffffffffffffffffffffffffffffff16145b8061213957506121388185611a8a565b5b91505092915050565b8273ffffffffffffffffffffffffffffffffffffffff1661216282611178565b73ffffffffffffffffffffffffffffffffffffffff16146121b8576040517f08c379a00000000000000000000000000000000000000000000000000000000081526004016121af90613fca565b60405180910390fd5b600073ffffffffffffffffffffffffffffffffffffffff168273ffffffffffffffffffffffffffffffffffffffff161415612228576040517f08c379a000000000000000000000000000000000000000000000000000000000815260040161221f90613e2a565b60405180910390fd5b612233838383612a7f565b61223e600082611ec5565b6001600360008573ffffffffffffffffffffffffffffffffffffffff1673ffffffffffffffffffffffffffffffffffffffff168152602001908152602001600020600082825461228e919061429c565b925050819055506001600360008473ffffffffffffffffffffffffffffffffffffffff1673ffffffffffffffffffffffffffffffffffffffff16815260200190815260200160002060008282546122e59190614184565b92505081905550816002600083815260200190815260200160002060006101000a81548173ffffffffffffffffffffffffffffffffffffffff021916908373ffffffffffffffffffffffffffffffffffffffff160217905550808273ffffffffffffffffffffffffffffffffffffffff168473ffffffffffffffffffffffffffffffffffffffff167fddf252ad1be2c89b69c2b068fc378daa952ba7f163c4a11628f55a4df523b3ef60405160405180910390a4505050565b60606000825114156123c157604051806020016040528060008152509050612512565b6000604051806060016040528060408152602001614e1360409139905060006003600285516123f09190614184565b6123fa9190614211565b60046124069190614242565b905060006020826124179190614184565b67ffffffffffffffff8111156124305761242f614568565b5b6040519080825280601f01601f1916602001820160405280156124625781602001600182028036833780820191505090505b509050818152600183018586518101602084015b818310156124d1576003830192508251603f8160121c168501518253600182019150603f81600c1c168501518253600182019150603f8160061c168501518253600182019150603f8116850151825360018201915050612476565b6003895106600181146124eb57600281146124fb57612506565b613d3d60f01b6002830352612506565b603d60f81b60018303525b50505050508093505050505b919050565b61252082611e51565b61255f576040517f08c379a000000000000000000000000000000000000000000000000000000000815260040161255690613f0a565b60405180910390fd5b80600660008481526020019081526020016000209080519060200190612586929190612fb8565b505050565b606060008214156125d3576040518060400160405280600181526020017f3000000000000000000000000000000000000000000000000000000000000000815250905061270f565b600082905060005b600082146126055780806125ee90614432565b915050600a826125fe9190614211565b91506125db565b60008167ffffffffffffffff81111561262157612620614568565b5b6040519080825280601f01601f1916602001820160405280156126535781602001600182028036833780820191505090505b50905060008290505b6000861461270757600181612671919061429c565b90506000600a80886126839190614211565b61268d9190614242565b87612698919061429c565b60306126a491906141da565b905060008160f81b9050808484815181106126c2576126c1614539565b5b60200101907effffffffffffffffffffffffffffffffffffffffffffffffffffffffffffff1916908160001a905350600a886126fe9190614211565b9750505061265c565b819450505050505b919050565b6000600760009054906101000a900473ffffffffffffffffffffffffffffffffffffffff16905081600760006101000a81548173ffffffffffffffffffffffffffffffffffffffff021916908373ffffffffffffffffffffffffffffffffffffffff1602179055508173ffffffffffffffffffffffffffffffffffffffff168173ffffffffffffffffffffffffffffffffffffffff167f8be0079c531659141344cd1fd0a4f28419497f9722a3daafe3b4186f6b6457e060405160405180910390a35050565b8173ffffffffffffffffffffffffffffffffffffffff168373ffffffffffffffffffffffffffffffffffffffff161415612849576040517f08c379a000000000000000000000000000000000000000000000000000000000815260040161284090613e4a565b60405180910390fd5b80600560008573ffffffffffffffffffffffffffffffffffffffff1673ffffffffffffffffffffffffffffffffffffffff16815260200190815260200160002060008473ffffffffffffffffffffffffffffffffffffffff1673ffffffffffffffffffffffffffffffffffffffff16815260200190815260200160002060006101000a81548160ff0219169083151502179055508173ffffffffffffffffffffffffffffffffffffffff168373ffffffffffffffffffffffffffffffffffffffff167f17307eab39ab6107e8899845ad3d59bd9653f200f220920489ca2b5937696c318360405161293a9190613d1a565b60405180910390a3505050565b612952848484612142565b61295e84848484612a84565b61299d576040517f08c379a000000000000000000000000000000000000000000000000000000000815260040161299490613daa565b60405180910390fd5b50505050565b606060405180602001604052806000815250905090565b60606129c582611e51565b612a04576040517f08c379a00000000000000000000000000000000000000000000000000000000081526004016129fb90613fea565b60405180910390fd5b6000612a0e6129a3565b90506000815111612a2e5760405180602001604052806000815250612a59565b80612a3884612c1b565b604051602001612a49929190613b19565b6040516020818303038152906040525b915050919050565b612a7b828260405180602001604052806000815250612d7c565b5050565b505050565b6000612aa58473ffffffffffffffffffffffffffffffffffffffff16612dd7565b15612c0e578373ffffffffffffffffffffffffffffffffffffffff1663150b7a02612ace611ebd565b8786866040518563ffffffff1660e01b8152600401612af09493929190613cce565b602060405180830381600087803b158015612b0a57600080fd5b505af1925050508015612b3b57506040513d601f19601f82011682018060405250810190612b389190613447565b60015b612bbe573d8060008114612b6b576040519150601f19603f3d011682016040523d82523d6000602084013e612b70565b606091505b50600081511415612bb6576040517f08c379a0000000000000000000000000000000000000000000000000000000008152600401612bad90613daa565b60405180910390fd5b805181602001fd5b63150b7a0260e01b7bffffffffffffffffffffffffffffffffffffffffffffffffffffffff1916817bffffffffffffffffffffffffffffffffffffffffffffffffffffffff191614915050612c13565b600190505b949350505050565b60606000821415612c63576040518060400160405280600181526020017f30000000000000000000000000000000000000000000000000000000000000008152509050612d77565b600082905060005b60008214612c95578080612c7e90614432565b915050600a82612c8e9190614211565b9150612c6b565b60008167ffffffffffffffff811115612cb157612cb0614568565b5b6040519080825280601f01601f191660200182016040528015612ce35781602001600182028036833780820191505090505b5090505b60008514612d7057600182612cfc919061429c565b9150600a85612d0b919061447b565b6030612d179190614184565b60f81b818381518110612d2d57612d2c614539565b5b60200101907effffffffffffffffffffffffffffffffffffffffffffffffffffffffffffff1916908160001a905350600a85612d699190614211565b9450612ce7565b8093505050505b919050565b612d868383612dea565b612d936000848484612a84565b612dd2576040517f08c379a0000000000000000000000000000000000000000000000000000000008152600401612dc990613daa565b60405180910390fd5b505050565b600080823b905060008111915050919050565b600073ffffffffffffffffffffffffffffffffffffffff168273ffffffffffffffffffffffffffffffffffffffff161415612e5a576040517f08c379a0000000000000000000000000000000000000000000000000000000008152600401612e5190613f4a565b60405180910390fd5b612e6381611e51565b15612ea3576040517f08c379a0000000000000000000000000000000000000000000000000000000008152600401612e9a90613dea565b60405180910390fd5b612eaf60008383612a7f565b6001600360008473ffffffffffffffffffffffffffffffffffffffff1673ffffffffffffffffffffffffffffffffffffffff1681526020019081526020016000206000828254612eff9190614184565b92505081905550816002600083815260200190815260200160002060006101000a81548173ffffffffffffffffffffffffffffffffffffffff021916908373ffffffffffffffffffffffffffffffffffffffff160217905550808273ffffffffffffffffffffffffffffffffffffffff16600073ffffffffffffffffffffffffffffffffffffffff167fddf252ad1be2c89b69c2b068fc378daa952ba7f163c4a11628f55a4df523b3ef60405160405180910390a45050565b828054612fc4906143cf565b90600052602060002090601f016020900481019282612fe6576000855561302d565b82601f10612fff57805160ff191683800117855561302d565b8280016001018555821561302d579182015b8281111561302c578251825591602001919060010190613011565b5b50905061303a919061303e565b5090565b5b8082111561305757600081600090555060010161303f565b5090565b600061306e613069846140b3565b61408e565b905080838252602082019050828560208602820111156130915761309061459c565b5b60005b858110156130c157816130a7888261322d565b845260208401935060208301925050600181019050613094565b5050509392505050565b60006130de6130d9846140df565b61408e565b9050828152602081018484840111156130fa576130f96145a1565b5b61310584828561438d565b509392505050565b600061312061311b84614110565b61408e565b90508281526020810184848401111561313c5761313b6145a1565b5b61314784828561438d565b509392505050565b60008135905061315e81614db6565b92915050565b600082601f83011261317957613178614597565b5b813561318984826020860161305b565b91505092915050565b6000813590506131a181614dcd565b92915050565b6000813590506131b681614de4565b92915050565b6000815190506131cb81614de4565b92915050565b600082601f8301126131e6576131e5614597565b5b81356131f68482602086016130cb565b91505092915050565b600082601f83011261321457613213614597565b5b813561322484826020860161310d565b91505092915050565b60008135905061323c81614dfb565b92915050565b60008151905061325181614dfb565b92915050565b60006020828403121561326d5761326c6145ab565b5b600061327b8482850161314f565b91505092915050565b6000806040838503121561329b5761329a6145ab565b5b60006132a98582860161314f565b92505060206132ba8582860161314f565b9150509250929050565b6000806000606084860312156132dd576132dc6145ab565b5b60006132eb8682870161314f565b93505060206132fc8682870161314f565b925050604061330d8682870161322d565b9150509250925092565b60008060008060808587031215613331576133306145ab565b5b600061333f8782880161314f565b94505060206133508782880161314f565b93505060406133618782880161322d565b925050606085013567ffffffffffffffff811115613382576133816145a6565b5b61338e878288016131d1565b91505092959194509250565b600080604083850312156133b1576133b06145ab565b5b60006133bf8582860161314f565b92505060206133d085828601613192565b9150509250929050565b600080604083850312156133f1576133f06145ab565b5b60006133ff8582860161314f565b92505060206134108582860161322d565b9150509250929050565b6000602082840312156134305761342f6145ab565b5b600061343e848285016131a7565b91505092915050565b60006020828403121561345d5761345c6145ab565b5b600061346b848285016131bc565b91505092915050565b60006020828403121561348a576134896145ab565b5b600082013567ffffffffffffffff8111156134a8576134a76145a6565b5b6134b4848285016131ff565b91505092915050565b6000602082840312156134d3576134d26145ab565b5b60006134e18482850161322d565b91505092915050565b600060208284031215613500576134ff6145ab565b5b600061350e84828501613242565b91505092915050565b6000806040838503121561352e5761352d6145ab565b5b600061353c8582860161322d565b925050602083013567ffffffffffffffff81111561355d5761355c6145a6565b5b61356985828601613164565b9150509250929050565b61357c816142d0565b82525050565b61358b816142e2565b82525050565b61359a816142ee565b82525050565b60006135ab82614141565b6135b58185614157565b93506135c581856020860161439c565b6135ce816145b0565b840191505092915050565b60006135e48261414c565b6135ee8185614168565b93506135fe81856020860161439c565b613607816145b0565b840191505092915050565b600061361d8261414c565b6136278185614179565b935061363781856020860161439c565b80840191505092915050565b6000613650600983614179565b915061365b826145c1565b600982019050919050565b6000613673603283614168565b915061367e826145ea565b604082019050919050565b6000613696602683614168565b91506136a182614639565b604082019050919050565b60006136b9601c83614168565b91506136c482614688565b602082019050919050565b60006136dc602f83614168565b91506136e7826146b1565b604082019050919050565b60006136ff602483614168565b915061370a82614700565b604082019050919050565b6000613722601983614168565b915061372d8261474f565b602082019050919050565b6000613745601883614168565b915061375082614778565b602082019050919050565b6000613768602c83614168565b9150613773826147a1565b604082019050919050565b600061378b601d83614179565b9150613796826147f0565b601d82019050919050565b60006137ae600183614179565b91506137b982614819565b600182019050919050565b60006137d1600383614179565b91506137dc82614842565b600382019050919050565b60006137f4600783614179565b91506137ff8261486b565b600782019050919050565b6000613817603883614168565b915061382282614894565b604082019050919050565b600061383a602a83614168565b9150613845826148e3565b604082019050919050565b600061385d602983614168565b915061386882614932565b604082019050919050565b6000613880602e83614168565b915061388b82614981565b604082019050919050565b60006138a3602083614168565b91506138ae826149d0565b602082019050919050565b60006138c6600283614179565b91506138d1826149f9565b600282019050919050565b60006138e9602083614168565b91506138f482614a22565b602082019050919050565b600061390c603183614168565b915061391782614a4b565b604082019050919050565b600061392f602c83614168565b915061393a82614a9a565b604082019050919050565b6000613952602083614168565b915061395d82614ae9565b602082019050919050565b6000613975602983614168565b915061398082614b12565b604082019050919050565b6000613998603083614179565b91506139a382614b61565b603082019050919050565b60006139bb602f83614168565b91506139c682614bb0565b604082019050919050565b60006139de604383614179565b91506139e982614bff565b604382019050919050565b6000613a01602183614168565b9150613a0c82614c74565b604082019050919050565b6000613a24601d83614179565b9150613a2f82614cc3565b601d82019050919050565b6000613a47603183614168565b9150613a5282614cec565b604082019050919050565b6000613a6a600283614179565b9150613a7582614d3b565b600282019050919050565b6000613a8d600683614179565b9150613a9882614d64565b600682019050919050565b6000613ab0600983614179565b9150613abb82614d8d565b600982019050919050565b613acf81614324565b82525050565b613ade81614352565b82525050565b613aed8161435c565b82525050565b613afc8161436c565b82525050565b6000613b0e8284613612565b915081905092915050565b6000613b258285613612565b9150613b318284613612565b91508190509392505050565b6000613b498285613612565b9150613b548261377e565b9150613b608284613612565b9150613b6b826137c4565b91508190509392505050565b6000613b838286613612565b9150613b8e826137a1565b9150613b9a8285613612565b9150613ba5826137a1565b9150613bb18284613612565b9150819050949350505050565b6000613bca8284613612565b9150613bd582613a80565b915081905092915050565b6000613beb82613643565b9150613bf6826137e7565b9150613c01826139d1565b9150613c0d8284613612565b9150613c18826138b9565b915081905092915050565b6000613c2e8261398b565b9150613c3a8285613612565b9150613c4582613aa3565b9150613c518284613612565b9150613c5c82613a5d565b91508190509392505050565b6000613c7382613a17565b9150613c7f8284613612565b915081905092915050565b6000602082019050613c9f6000830184613573565b92915050565b6000604082019050613cba6000830185613573565b613cc76020830184613573565b9392505050565b6000608082019050613ce36000830187613573565b613cf06020830186613573565b613cfd6040830185613ad5565b8181036060830152613d0f81846135a0565b905095945050505050565b6000602082019050613d2f6000830184613582565b92915050565b600060a082019050613d4a6000830188613591565b613d576020830187613af3565b613d646040830186613ac6565b613d716060830185613ae4565b613d7e6080830184613ae4565b9695505050505050565b60006020820190508181036000830152613da281846135d9565b905092915050565b60006020820190508181036000830152613dc381613666565b9050919050565b60006020820190508181036000830152613de381613689565b9050919050565b60006020820190508181036000830152613e03816136ac565b9050919050565b60006020820190508181036000830152613e23816136cf565b9050919050565b60006020820190508181036000830152613e43816136f2565b9050919050565b60006020820190508181036000830152613e6381613715565b9050919050565b60006020820190508181036000830152613e8381613738565b9050919050565b60006020820190508181036000830152613ea38161375b565b9050919050565b60006020820190508181036000830152613ec38161380a565b9050919050565b60006020820190508181036000830152613ee38161382d565b9050919050565b60006020820190508181036000830152613f0381613850565b9050919050565b60006020820190508181036000830152613f2381613873565b9050919050565b60006020820190508181036000830152613f4381613896565b9050919050565b60006020820190508181036000830152613f63816138dc565b9050919050565b60006020820190508181036000830152613f83816138ff565b9050919050565b60006020820190508181036000830152613fa381613922565b9050919050565b60006020820190508181036000830152613fc381613945565b9050919050565b60006020820190508181036000830152613fe381613968565b9050919050565b60006020820190508181036000830152614003816139ae565b9050919050565b60006020820190508181036000830152614023816139f4565b9050919050565b6000602082019050818103600083015261404381613a3a565b9050919050565b600060208201905061405f6000830184613ad5565b92915050565b600060408201905061407a6000830185613ad5565b6140876020830184613ad5565b9392505050565b60006140986140a9565b90506140a48282614401565b919050565b6000604051905090565b600067ffffffffffffffff8211156140ce576140cd614568565b5b602082029050602081019050919050565b600067ffffffffffffffff8211156140fa576140f9614568565b5b614103826145b0565b9050602081019050919050565b600067ffffffffffffffff82111561412b5761412a614568565b5b614134826145b0565b9050602081019050919050565b600081519050919050565b600081519050919050565b600082825260208201905092915050565b600082825260208201905092915050565b600081905092915050565b600061418f82614352565b915061419a83614352565b9250827fffffffffffffffffffffffffffffffffffffffffffffffffffffffffffffffff038211156141cf576141ce6144ac565b5b828201905092915050565b60006141e582614380565b91506141f083614380565b92508260ff03821115614206576142056144ac565b5b828201905092915050565b600061421c82614352565b915061422783614352565b925082614237576142366144db565b5b828204905092915050565b600061424d82614352565b915061425883614352565b9250817fffffffffffffffffffffffffffffffffffffffffffffffffffffffffffffffff0483118215151615614291576142906144ac565b5b828202905092915050565b60006142a782614352565b91506142b283614352565b9250828210156142c5576142c46144ac565b5b828203905092915050565b60006142db82614332565b9050919050565b60008115159050919050565b6000819050919050565b60007fffffffff0000000000000000000000000000000000000000000000000000000082169050919050565b600061ffff82169050919050565b600073ffffffffffffffffffffffffffffffffffffffff82169050919050565b6000819050919050565b600063ffffffff82169050919050565b600067ffffffffffffffff82169050919050565b600060ff82169050919050565b82818337600083830152505050565b60005b838110156143ba57808201518184015260208101905061439f565b838111156143c9576000848401525b50505050565b600060028204905060018216806143e757607f821691505b602082108114156143fb576143fa61450a565b5b50919050565b61440a826145b0565b810181811067ffffffffffffffff8211171561442957614428614568565b5b80604052505050565b600061443d82614352565b91507fffffffffffffffffffffffffffffffffffffffffffffffffffffffffffffffff8214156144705761446f6144ac565b5b600182019050919050565b600061448682614352565b915061449183614352565b9250826144a1576144a06144db565b5b828206905092915050565b7f4e487b7100000000000000000000000000000000000000000000000000000000600052601160045260246000fd5b7f4e487b7100000000000000000000000000000000000000000000000000000000600052601260045260246000fd5b7f4e487b7100000000000000000000000000000000000000000000000000000000600052602260045260246000fd5b7f4e487b7100000000000000000000000000000000000000000000000000000000600052603260045260246000fd5b7f4e487b7100000000000000000000000000000000000000000000000000000000600052604160045260246000fd5b600080fd5b600080fd5b600080fd5b600080fd5b600080fd5b6000601f19601f8301169050919050565b7f7b226e616d65223a220000000000000000000000000000000000000000000000600082015250565b7f4552433732313a207472616e7366657220746f206e6f6e20455243373231526560008201527f63656976657220696d706c656d656e7465720000000000000000000000000000602082015250565b7f4f776e61626c653a206e6577206f776e657220697320746865207a65726f206160008201527f6464726573730000000000000000000000000000000000000000000000000000602082015250565b7f4552433732313a20746f6b656e20616c7265616479206d696e74656400000000600082015250565b7f4e65656420746f207761697420666f722074686520436861696e6c696e6b206e60008201527f6f646520746f20726573706f6e64210000000000000000000000000000000000602082015250565b7f4552433732313a207472616e7366657220746f20746865207a65726f2061646460008201527f7265737300000000000000000000000000000000000000000000000000000000602082015250565b7f4552433732313a20617070726f766520746f2063616c6c657200000000000000600082015250565b7f746f6b656e55524920697320616c726561647920736574210000000000000000600082015250565b7f4552433732313a206f70657261746f7220717565727920666f72206e6f6e657860008201527f697374656e7420746f6b656e0000000000000000000000000000000000000000602082015250565b7f272066696c6c3d277472616e73706172656e7427207374726f6b653d27000000600082015250565b7f2000000000000000000000000000000000000000000000000000000000000000600082015250565b7f272f3e0000000000000000000000000000000000000000000000000000000000600082015250565b7f535647204e465400000000000000000000000000000000000000000000000000600082015250565b7f4552433732313a20617070726f76652063616c6c6572206973206e6f74206f7760008201527f6e6572206e6f7220617070726f76656420666f7220616c6c0000000000000000602082015250565b7f4552433732313a2062616c616e636520717565727920666f7220746865207a6560008201527f726f206164647265737300000000000000000000000000000000000000000000602082015250565b7f4552433732313a206f776e657220717565727920666f72206e6f6e657869737460008201527f656e7420746f6b656e0000000000000000000000000000000000000000000000602082015250565b7f45524337323155524953746f726167653a2055524920736574206f66206e6f6e60008201527f6578697374656e7420746f6b656e000000000000000000000000000000000000602082015250565b7f546f6b656e496420686173206e6f74206265656e206d696e7465642079657421600082015250565b7f227d000000000000000000000000000000000000000000000000000000000000600082015250565b7f4552433732313a206d696e7420746f20746865207a65726f2061646472657373600082015250565b7f45524337323155524953746f726167653a2055524920717565727920666f722060008201527f6e6f6e6578697374656e7420746f6b656e000000000000000000000000000000602082015250565b7f4552433732313a20617070726f76656420717565727920666f72206e6f6e657860008201527f697374656e7420746f6b656e0000000000000000000000000000000000000000602082015250565b7f4f776e61626c653a2063616c6c6572206973206e6f7420746865206f776e6572600082015250565b7f4552433732313a207472616e73666572206f6620746f6b656e2074686174206960008201527f73206e6f74206f776e0000000000000000000000000000000000000000000000602082015250565b7f3c73766720786d6c6e733d27687474703a2f2f7777772e77332e6f72672f323060008201527f30302f73766727206865696768743d2700000000000000000000000000000000602082015250565b7f4552433732314d657461646174613a2055524920717565727920666f72206e6f60008201527f6e6578697374656e7420746f6b656e0000000000000000000000000000000000602082015250565b7f222c20226465736372697074696f6e223a22416e204e4654206261736564206f60008201527f6e2053564721222c202261747472696275746573223a22222c2022696d61676560208201527f223a220000000000000000000000000000000000000000000000000000000000604082015250565b7f4552433732313a20617070726f76616c20746f2063757272656e74206f776e6560008201527f7200000000000000000000000000000000000000000000000000000000000000602082015250565b7f646174613a6170706c69636174696f6e2f6a736f6e3b6261736536342c000000600082015250565b7f4552433732313a207472616e736665722063616c6c6572206973206e6f74206f60008201527f776e6572206e6f7220617070726f766564000000000000000000000000000000602082015250565b7f273e000000000000000000000000000000000000000000000000000000000000600082015250565b7f3c2f7376673e0000000000000000000000000000000000000000000000000000600082015250565b7f272077696474683d270000000000000000000000000000000000000000000000600082015250565b614dbf816142d0565b8114614dca57600080fd5b50565b614dd6816142e2565b8114614de157600080fd5b50565b614ded816142f8565b8114614df857600080fd5b50565b614e0481614352565b8114614e0f57600080fd5b5056fe4142434445464748494a4b4c4d4e4f505152535455565758595a6162636465666768696a6b6c6d6e6f707172737475767778797a303132333435363738392b2fa26469706673582212201b89238243f51f3758bcd3d1da06aa2ed61389f698c2d5257def8171ad394fbe64736f6c63430008060033",
  "linkReferences": {},
  "deployedLinkReferences": {}
}