{
  "_format": "hh-sol-artifact-1",
  "contractName": "MockFeedRegistry",
  "sourceName": "contracts/mocks/MockFeedRegistry.sol",
  "abi": [
    {
      "inputs": [],
      "name": "decimals",
      "outputs": [
        {
          "internalType": "uint8",
          "name": "",
          "type": "uint8"
        }
      ],
      "stateMutability": "view",
      "type": "function"
    },
    {
      "inputs": [
        {
          "internalType": "uint256",
          "name": "",
          "type": "uint256"
        }
      ],
      "name": "getAnswer",
      "outputs": [
        {
          "internalType": "int256",
          "name": "",
          "type": "int256"
        }
      ],
      "stateMutability": "view",
      "type": "function"
    },
    {
      "inputs": [
        {
          "internalType": "uint256",
          "name": "",
          "type": "uint256"
        }
      ],
      "name": "getTimestamp",
      "outputs": [
        {
          "internalType": "uint256",
          "name": "",
          "type": "uint256"
        }
      ],
      "stateMutability": "view",
      "type": "function"
    },
    {
      "inputs": [],
      "name": "latestAnswer",
      "outputs": [
        {
          "internalType": "int256",
          "name": "",
          "type": "int256"
        }
      ],
      "stateMutability": "view",
      "type": "function"
    },
    {
      "inputs": [],
      "name": "latestRound",
      "outputs": [
        {
          "internalType": "uint256",
          "name": "",
          "type": "uint256"
        }
      ],
      "stateMutability": "view",
      "type": "function"
    },
    {
      "inputs": [
        {
          "internalType": "address",
          "name": "",
          "type": "address"
        },
        {
          "internalType": "address",
          "name": "",
          "type": "address"
        }
      ],
      "name": "latestRoundData",
      "outputs": [
        {
          "internalType": "uint80",
          "name": "roundId",
          "type": "uint80"
        },
        {
          "internalType": "int256",
          "name": "answer",
          "type": "int256"
        },
        {
          "internalType": "uint256",
          "name": "startedAt",
          "type": "uint256"
        },
        {
          "internalType": "uint256",
          "name": "updatedAt",
          "type": "uint256"
        },
        {
          "internalType": "uint80",
          "name": "answeredInRound",
          "type": "uint80"
        }
      ],
      "stateMutability": "view",
      "type": "function"
    },
    {
      "inputs": [],
      "name": "latestTimestamp",
      "outputs": [
        {
          "internalType": "uint256",
          "name": "",
          "type": "uint256"
        }
      ],
      "stateMutability": "view",
      "type": "function"
    },
    {
      "inputs": [
        {
          "internalType": "int256",
          "name": "_answer",
          "type": "int256"
        }
      ],
      "name": "updateAnswer",
      "outputs": [],
      "stateMutability": "nonpayable",
      "type": "function"
    }
  ],
  "bytecode": "0x608060405234801561001057600080fd5b506105fd806100206000396000f3fe608060405234801561001057600080fd5b50600436106100885760003560e01c8063a87a20ce1161005b578063a87a20ce14610105578063b5ab58dc14610121578063b633620c14610151578063bcfd032d1461018157610088565b8063313ce5671461008d57806350d25bcd146100ab578063668a0f02146100c95780638205bf6a146100e7575b600080fd5b6100956101b5565b6040516100a29190610481565b60405180910390f35b6100b36101c6565b6040516100c091906103f8565b60405180910390f35b6100d16101cc565b6040516100de9190610413565b60405180910390f35b6100ef6101d2565b6040516100fc9190610413565b60405180910390f35b61011f600480360381019061011a9190610362565b6101d8565b005b61013b6004803603810190610136919061038f565b61024f565b60405161014891906103f8565b60405180910390f35b61016b6004803603810190610166919061038f565b610267565b6040516101789190610413565b60405180910390f35b61019b60048036038101906101969190610322565b61027f565b6040516101ac95949392919061042e565b60405180910390f35b60008054906101000a900460ff1681565b60015481565b60035481565b60025481565b8060018190555042600281905550600360008154809291906101f990610505565b919050555080600460006003548152602001908152602001600020819055504260056000600354815260200190815260200160002081905550426006600060035481526020019081526020016000208190555050565b60046020528060005260406000206000915090505481565b60056020528060005260406000206000915090505481565b6000806000806000600354600460006003548152602001908152602001600020546006600060035481526020019081526020016000205460056000600354815260200190815260200160002054600354945094509450945094509295509295909350565b6000813590506102f281610582565b92915050565b60008135905061030781610599565b92915050565b60008135905061031c816105b0565b92915050565b600080604083850312156103395761033861057d565b5b6000610347858286016102e3565b9250506020610358858286016102e3565b9150509250929050565b6000602082840312156103785761037761057d565b5b6000610386848285016102f8565b91505092915050565b6000602082840312156103a5576103a461057d565b5b60006103b38482850161030d565b91505092915050565b6103c5816104ae565b82525050565b6103d4816104d8565b82525050565b6103e3816104ef565b82525050565b6103f2816104e2565b82525050565b600060208201905061040d60008301846103bc565b92915050565b600060208201905061042860008301846103cb565b92915050565b600060a08201905061044360008301886103da565b61045060208301876103bc565b61045d60408301866103cb565b61046a60608301856103cb565b61047760808301846103da565b9695505050505050565b600060208201905061049660008301846103e9565b92915050565b60006104a7826104b8565b9050919050565b6000819050919050565b600073ffffffffffffffffffffffffffffffffffffffff82169050919050565b6000819050919050565b600060ff82169050919050565b600069ffffffffffffffffffff82169050919050565b6000610510826104d8565b91507fffffffffffffffffffffffffffffffffffffffffffffffffffffffffffffffff8214156105435761054261054e565b5b600182019050919050565b7f4e487b7100000000000000000000000000000000000000000000000000000000600052601160045260246000fd5b600080fd5b61058b8161049c565b811461059657600080fd5b50565b6105a2816104ae565b81146105ad57600080fd5b50565b6105b9816104d8565b81146105c457600080fd5b5056fea2646970667358221220591c3372cb16144e8a473fa46cc48fd035e5daa2bca0920b6cea5f4e9675fac664736f6c63430008060033",
  "linkReferences": {},
  "deployedLinkReferences": {}
}